{
	"data": {
		"bytecode": {
			"linkReferences": {},
			"object": "6080604052348015600e575f80fd5b5060175f33601c565b5060c2565b5f828152602081815260408083206001600160a01b038516845290915281205460ff1660b9575f838152602081815260408083206001600160a01b03861684529091529020805460ff1916600117905560723390565b6001600160a01b0316826001600160a01b0316847f2f8788117e7eff1d82e926ec794901d17c78024a50270940304540a733656f0d60405160405180910390a450600160bc565b505f5b92915050565b61065c806100cf5f395ff3fe608060405234801561000f575f80fd5b50600436106100f0575f3560e01c806380c3f96d11610093578063b702204911610063578063b702204914610215578063d547741f14610228578063e3a3c5221461023b578063f394397014610262575f80fd5b806380c3f96d146101d55780638ec4f505146101e857806391d14854146101fb578063a217fddf1461020e575f80fd5b80632f2ff15d116100ce5780632f2ff15d1461017357806336568abe146101885780634eabbe771461019b5780637e458492146101c2575f80fd5b806301ffc9a7146100f45780632115e7bf1461011c578063248a9ca314610151575b5f80fd5b610107610102366004610583565b610289565b60405190151581526020015b60405180910390f35b6101437f2a5f906c256a5d799494fcd066e1f6c077689de1cdb65052a1624de4bace99bf81565b604051908152602001610113565b61014361015f3660046105b1565b5f9081526020819052604090206001015490565b6101866101813660046105e3565b6102bf565b005b6101866101963660046105e3565b6102e9565b6101437fddaa901e2fe3bda354fe0ede2785152d5c109282a613fe024a056a3e66c41bb381565b6101866101d036600461060d565b610321565b6101866101e336600461060d565b610359565b6101866101f636600461060d565b61038d565b6101076102093660046105e3565b6103c1565b6101435f81565b61018661022336600461060d565b6103e9565b6101866102363660046105e3565b61041d565b6101437f273dcf2136c7d8ef632bb8ef13dbca69a8f36fa620c7468671b3153d46a211c081565b6101437f7c6181838a71a779e445600d4c6ecbe16bacf2b3c5bda69c29fada66d1b645d181565b5f6001600160e01b03198216637965db0b60e01b14806102b957506301ffc9a760e01b6001600160e01b03198316145b92915050565b5f828152602081905260409020600101546102d981610441565b6102e3838361044e565b50505050565b6001600160a01b03811633146103125760405163334bd91960e11b815260040160405180910390fd5b61031c82826104dd565b505050565b5f61032b81610441565b6103557f273dcf2136c7d8ef632bb8ef13dbca69a8f36fa620c7468671b3153d46a211c0836102bf565b5050565b5f61036381610441565b6103557f7c6181838a71a779e445600d4c6ecbe16bacf2b3c5bda69c29fada66d1b645d1836102bf565b5f61039781610441565b6103557f2a5f906c256a5d799494fcd066e1f6c077689de1cdb65052a1624de4bace99bf836102bf565b5f918252602082815260408084206001600160a01b0393909316845291905290205460ff1690565b5f6103f381610441565b6103557fddaa901e2fe3bda354fe0ede2785152d5c109282a613fe024a056a3e66c41bb3836102bf565b5f8281526020819052604090206001015461043781610441565b6102e383836104dd565b61044b8133610546565b50565b5f61045983836103c1565b6104d6575f838152602081815260408083206001600160a01b03861684529091529020805460ff1916600117905561048e3390565b6001600160a01b0316826001600160a01b0316847f2f8788117e7eff1d82e926ec794901d17c78024a50270940304540a733656f0d60405160405180910390a45060016102b9565b505f6102b9565b5f6104e883836103c1565b156104d6575f838152602081815260408083206001600160a01b0386168085529252808320805460ff1916905551339286917ff6391f5c32d9c69d2a47ea670b442974b53935d1edc7fd64eb21e047a839171b9190a45060016102b9565b61055082826103c1565b6103555760405163e2517d3f60e01b81526001600160a01b03821660048201526024810183905260440160405180910390fd5b5f60208284031215610593575f80fd5b81356001600160e01b0319811681146105aa575f80fd5b9392505050565b5f602082840312156105c1575f80fd5b5035919050565b80356001600160a01b03811681146105de575f80fd5b919050565b5f80604083850312156105f4575f80fd5b82359150610604602084016105c8565b90509250929050565b5f6020828403121561061d575f80fd5b6105aa826105c856fea264697066735822122050981952ca48eeede221ec91eb27289762200db424979926740e92f97841edec64736f6c634300081a0033",
			"opcodes": "PUSH1 0x80 PUSH1 0x40 MSTORE CALLVALUE DUP1 ISZERO PUSH1 0xE JUMPI PUSH0 DUP1 REVERT JUMPDEST POP PUSH1 0x17 PUSH0 CALLER PUSH1 0x1C JUMP JUMPDEST POP PUSH1 0xC2 JUMP JUMPDEST PUSH0 DUP3 DUP2 MSTORE PUSH1 0x20 DUP2 DUP2 MSTORE PUSH1 0x40 DUP1 DUP4 KECCAK256 PUSH1 0x1 PUSH1 0x1 PUSH1 0xA0 SHL SUB DUP6 AND DUP5 MSTORE SWAP1 SWAP2 MSTORE DUP2 KECCAK256 SLOAD PUSH1 0xFF AND PUSH1 0xB9 JUMPI PUSH0 DUP4 DUP2 MSTORE PUSH1 0x20 DUP2 DUP2 MSTORE PUSH1 0x40 DUP1 DUP4 KECCAK256 PUSH1 0x1 PUSH1 0x1 PUSH1 0xA0 SHL SUB DUP7 AND DUP5 MSTORE SWAP1 SWAP2 MSTORE SWAP1 KECCAK256 DUP1 SLOAD PUSH1 0xFF NOT AND PUSH1 0x1 OR SWAP1 SSTORE PUSH1 0x72 CALLER SWAP1 JUMP JUMPDEST PUSH1 0x1 PUSH1 0x1 PUSH1 0xA0 SHL SUB AND DUP3 PUSH1 0x1 PUSH1 0x1 PUSH1 0xA0 SHL SUB AND DUP5 PUSH32 0x2F8788117E7EFF1D82E926EC794901D17C78024A50270940304540A733656F0D PUSH1 0x40 MLOAD PUSH1 0x40 MLOAD DUP1 SWAP2 SUB SWAP1 LOG4 POP PUSH1 0x1 PUSH1 0xBC JUMP JUMPDEST POP PUSH0 JUMPDEST SWAP3 SWAP2 POP POP JUMP JUMPDEST PUSH2 0x65C DUP1 PUSH2 0xCF PUSH0 CODECOPY PUSH0 RETURN INVALID PUSH1 0x80 PUSH1 0x40 MSTORE CALLVALUE DUP1 ISZERO PUSH2 0xF JUMPI PUSH0 DUP1 REVERT JUMPDEST POP PUSH1 0x4 CALLDATASIZE LT PUSH2 0xF0 JUMPI PUSH0 CALLDATALOAD PUSH1 0xE0 SHR DUP1 PUSH4 0x80C3F96D GT PUSH2 0x93 JUMPI DUP1 PUSH4 0xB7022049 GT PUSH2 0x63 JUMPI DUP1 PUSH4 0xB7022049 EQ PUSH2 0x215 JUMPI DUP1 PUSH4 0xD547741F EQ PUSH2 0x228 JUMPI DUP1 PUSH4 0xE3A3C522 EQ PUSH2 0x23B JUMPI DUP1 PUSH4 0xF3943970 EQ PUSH2 0x262 JUMPI PUSH0 DUP1 REVERT JUMPDEST DUP1 PUSH4 0x80C3F96D EQ PUSH2 0x1D5 JUMPI DUP1 PUSH4 0x8EC4F505 EQ PUSH2 0x1E8 JUMPI DUP1 PUSH4 0x91D14854 EQ PUSH2 0x1FB JUMPI DUP1 PUSH4 0xA217FDDF EQ PUSH2 0x20E JUMPI PUSH0 DUP1 REVERT JUMPDEST DUP1 PUSH4 0x2F2FF15D GT PUSH2 0xCE JUMPI DUP1 PUSH4 0x2F2FF15D EQ PUSH2 0x173 JUMPI DUP1 PUSH4 0x36568ABE EQ PUSH2 0x188 JUMPI DUP1 PUSH4 0x4EABBE77 EQ PUSH2 0x19B JUMPI DUP1 PUSH4 0x7E458492 EQ PUSH2 0x1C2 JUMPI PUSH0 DUP1 REVERT JUMPDEST DUP1 PUSH4 0x1FFC9A7 EQ PUSH2 0xF4 JUMPI DUP1 PUSH4 0x2115E7BF EQ PUSH2 0x11C JUMPI DUP1 PUSH4 0x248A9CA3 EQ PUSH2 0x151 JUMPI JUMPDEST PUSH0 DUP1 REVERT JUMPDEST PUSH2 0x107 PUSH2 0x102 CALLDATASIZE PUSH1 0x4 PUSH2 0x583 JUMP JUMPDEST PUSH2 0x289 JUMP JUMPDEST PUSH1 0x40 MLOAD SWAP1 ISZERO ISZERO DUP2 MSTORE PUSH1 0x20 ADD JUMPDEST PUSH1 0x40 MLOAD DUP1 SWAP2 SUB SWAP1 RETURN JUMPDEST PUSH2 0x143 PUSH32 0x2A5F906C256A5D799494FCD066E1F6C077689DE1CDB65052A1624DE4BACE99BF DUP2 JUMP JUMPDEST PUSH1 0x40 MLOAD SWAP1 DUP2 MSTORE PUSH1 0x20 ADD PUSH2 0x113 JUMP JUMPDEST PUSH2 0x143 PUSH2 0x15F CALLDATASIZE PUSH1 0x4 PUSH2 0x5B1 JUMP JUMPDEST PUSH0 SWAP1 DUP2 MSTORE PUSH1 0x20 DUP2 SWAP1 MSTORE PUSH1 0x40 SWAP1 KECCAK256 PUSH1 0x1 ADD SLOAD SWAP1 JUMP JUMPDEST PUSH2 0x186 PUSH2 0x181 CALLDATASIZE PUSH1 0x4 PUSH2 0x5E3 JUMP JUMPDEST PUSH2 0x2BF JUMP JUMPDEST STOP JUMPDEST PUSH2 0x186 PUSH2 0x196 CALLDATASIZE PUSH1 0x4 PUSH2 0x5E3 JUMP JUMPDEST PUSH2 0x2E9 JUMP JUMPDEST PUSH2 0x143 PUSH32 0xDDAA901E2FE3BDA354FE0EDE2785152D5C109282A613FE024A056A3E66C41BB3 DUP2 JUMP JUMPDEST PUSH2 0x186 PUSH2 0x1D0 CALLDATASIZE PUSH1 0x4 PUSH2 0x60D JUMP JUMPDEST PUSH2 0x321 JUMP JUMPDEST PUSH2 0x186 PUSH2 0x1E3 CALLDATASIZE PUSH1 0x4 PUSH2 0x60D JUMP JUMPDEST PUSH2 0x359 JUMP JUMPDEST PUSH2 0x186 PUSH2 0x1F6 CALLDATASIZE PUSH1 0x4 PUSH2 0x60D JUMP JUMPDEST PUSH2 0x38D JUMP JUMPDEST PUSH2 0x107 PUSH2 0x209 CALLDATASIZE PUSH1 0x4 PUSH2 0x5E3 JUMP JUMPDEST PUSH2 0x3C1 JUMP JUMPDEST PUSH2 0x143 PUSH0 DUP2 JUMP JUMPDEST PUSH2 0x186 PUSH2 0x223 CALLDATASIZE PUSH1 0x4 PUSH2 0x60D JUMP JUMPDEST PUSH2 0x3E9 JUMP JUMPDEST PUSH2 0x186 PUSH2 0x236 CALLDATASIZE PUSH1 0x4 PUSH2 0x5E3 JUMP JUMPDEST PUSH2 0x41D JUMP JUMPDEST PUSH2 0x143 PUSH32 0x273DCF2136C7D8EF632BB8EF13DBCA69A8F36FA620C7468671B3153D46A211C0 DUP2 JUMP JUMPDEST PUSH2 0x143 PUSH32 0x7C6181838A71A779E445600D4C6ECBE16BACF2B3C5BDA69C29FADA66D1B645D1 DUP2 JUMP JUMPDEST PUSH0 PUSH1 0x1 PUSH1 0x1 PUSH1 0xE0 SHL SUB NOT DUP3 AND PUSH4 0x7965DB0B PUSH1 0xE0 SHL EQ DUP1 PUSH2 0x2B9 JUMPI POP PUSH4 0x1FFC9A7 PUSH1 0xE0 SHL PUSH1 0x1 PUSH1 0x1 PUSH1 0xE0 SHL SUB NOT DUP4 AND EQ JUMPDEST SWAP3 SWAP2 POP POP JUMP JUMPDEST PUSH0 DUP3 DUP2 MSTORE PUSH1 0x20 DUP2 SWAP1 MSTORE PUSH1 0x40 SWAP1 KECCAK256 PUSH1 0x1 ADD SLOAD PUSH2 0x2D9 DUP2 PUSH2 0x441 JUMP JUMPDEST PUSH2 0x2E3 DUP4 DUP4 PUSH2 0x44E JUMP JUMPDEST POP POP POP POP JUMP JUMPDEST PUSH1 0x1 PUSH1 0x1 PUSH1 0xA0 SHL SUB DUP2 AND CALLER EQ PUSH2 0x312 JUMPI PUSH1 0x40 MLOAD PUSH4 0x334BD919 PUSH1 0xE1 SHL DUP2 MSTORE PUSH1 0x4 ADD PUSH1 0x40 MLOAD DUP1 SWAP2 SUB SWAP1 REVERT JUMPDEST PUSH2 0x31C DUP3 DUP3 PUSH2 0x4DD JUMP JUMPDEST POP POP POP JUMP JUMPDEST PUSH0 PUSH2 0x32B DUP2 PUSH2 0x441 JUMP JUMPDEST PUSH2 0x355 PUSH32 0x273DCF2136C7D8EF632BB8EF13DBCA69A8F36FA620C7468671B3153D46A211C0 DUP4 PUSH2 0x2BF JUMP JUMPDEST POP POP JUMP JUMPDEST PUSH0 PUSH2 0x363 DUP2 PUSH2 0x441 JUMP JUMPDEST PUSH2 0x355 PUSH32 0x7C6181838A71A779E445600D4C6ECBE16BACF2B3C5BDA69C29FADA66D1B645D1 DUP4 PUSH2 0x2BF JUMP JUMPDEST PUSH0 PUSH2 0x397 DUP2 PUSH2 0x441 JUMP JUMPDEST PUSH2 0x355 PUSH32 0x2A5F906C256A5D799494FCD066E1F6C077689DE1CDB65052A1624DE4BACE99BF DUP4 PUSH2 0x2BF JUMP JUMPDEST PUSH0 SWAP2 DUP3 MSTORE PUSH1 0x20 DUP3 DUP2 MSTORE PUSH1 0x40 DUP1 DUP5 KECCAK256 PUSH1 0x1 PUSH1 0x1 PUSH1 0xA0 SHL SUB SWAP4 SWAP1 SWAP4 AND DUP5 MSTORE SWAP2 SWAP1 MSTORE SWAP1 KECCAK256 SLOAD PUSH1 0xFF AND SWAP1 JUMP JUMPDEST PUSH0 PUSH2 0x3F3 DUP2 PUSH2 0x441 JUMP JUMPDEST PUSH2 0x355 PUSH32 0xDDAA901E2FE3BDA354FE0EDE2785152D5C109282A613FE024A056A3E66C41BB3 DUP4 PUSH2 0x2BF JUMP JUMPDEST PUSH0 DUP3 DUP2 MSTORE PUSH1 0x20 DUP2 SWAP1 MSTORE PUSH1 0x40 SWAP1 KECCAK256 PUSH1 0x1 ADD SLOAD PUSH2 0x437 DUP2 PUSH2 0x441 JUMP JUMPDEST PUSH2 0x2E3 DUP4 DUP4 PUSH2 0x4DD JUMP JUMPDEST PUSH2 0x44B DUP2 CALLER PUSH2 0x546 JUMP JUMPDEST POP JUMP JUMPDEST PUSH0 PUSH2 0x459 DUP4 DUP4 PUSH2 0x3C1 JUMP JUMPDEST PUSH2 0x4D6 JUMPI PUSH0 DUP4 DUP2 MSTORE PUSH1 0x20 DUP2 DUP2 MSTORE PUSH1 0x40 DUP1 DUP4 KECCAK256 PUSH1 0x1 PUSH1 0x1 PUSH1 0xA0 SHL SUB DUP7 AND DUP5 MSTORE SWAP1 SWAP2 MSTORE SWAP1 KECCAK256 DUP1 SLOAD PUSH1 0xFF NOT AND PUSH1 0x1 OR SWAP1 SSTORE PUSH2 0x48E CALLER SWAP1 JUMP JUMPDEST PUSH1 0x1 PUSH1 0x1 PUSH1 0xA0 SHL SUB AND DUP3 PUSH1 0x1 PUSH1 0x1 PUSH1 0xA0 SHL SUB AND DUP5 PUSH32 0x2F8788117E7EFF1D82E926EC794901D17C78024A50270940304540A733656F0D PUSH1 0x40 MLOAD PUSH1 0x40 MLOAD DUP1 SWAP2 SUB SWAP1 LOG4 POP PUSH1 0x1 PUSH2 0x2B9 JUMP JUMPDEST POP PUSH0 PUSH2 0x2B9 JUMP JUMPDEST PUSH0 PUSH2 0x4E8 DUP4 DUP4 PUSH2 0x3C1 JUMP JUMPDEST ISZERO PUSH2 0x4D6 JUMPI PUSH0 DUP4 DUP2 MSTORE PUSH1 0x20 DUP2 DUP2 MSTORE PUSH1 0x40 DUP1 DUP4 KECCAK256 PUSH1 0x1 PUSH1 0x1 PUSH1 0xA0 SHL SUB DUP7 AND DUP1 DUP6 MSTORE SWAP3 MSTORE DUP1 DUP4 KECCAK256 DUP1 SLOAD PUSH1 0xFF NOT AND SWAP1 SSTORE MLOAD CALLER SWAP3 DUP7 SWAP2 PUSH32 0xF6391F5C32D9C69D2A47EA670B442974B53935D1EDC7FD64EB21E047A839171B SWAP2 SWAP1 LOG4 POP PUSH1 0x1 PUSH2 0x2B9 JUMP JUMPDEST PUSH2 0x550 DUP3 DUP3 PUSH2 0x3C1 JUMP JUMPDEST PUSH2 0x355 JUMPI PUSH1 0x40 MLOAD PUSH4 0xE2517D3F PUSH1 0xE0 SHL DUP2 MSTORE PUSH1 0x1 PUSH1 0x1 PUSH1 0xA0 SHL SUB DUP3 AND PUSH1 0x4 DUP3 ADD MSTORE PUSH1 0x24 DUP2 ADD DUP4 SWAP1 MSTORE PUSH1 0x44 ADD PUSH1 0x40 MLOAD DUP1 SWAP2 SUB SWAP1 REVERT JUMPDEST PUSH0 PUSH1 0x20 DUP3 DUP5 SUB SLT ISZERO PUSH2 0x593 JUMPI PUSH0 DUP1 REVERT JUMPDEST DUP2 CALLDATALOAD PUSH1 0x1 PUSH1 0x1 PUSH1 0xE0 SHL SUB NOT DUP2 AND DUP2 EQ PUSH2 0x5AA JUMPI PUSH0 DUP1 REVERT JUMPDEST SWAP4 SWAP3 POP POP POP JUMP JUMPDEST PUSH0 PUSH1 0x20 DUP3 DUP5 SUB SLT ISZERO PUSH2 0x5C1 JUMPI PUSH0 DUP1 REVERT JUMPDEST POP CALLDATALOAD SWAP2 SWAP1 POP JUMP JUMPDEST DUP1 CALLDATALOAD PUSH1 0x1 PUSH1 0x1 PUSH1 0xA0 SHL SUB DUP2 AND DUP2 EQ PUSH2 0x5DE JUMPI PUSH0 DUP1 REVERT JUMPDEST SWAP2 SWAP1 POP JUMP JUMPDEST PUSH0 DUP1 PUSH1 0x40 DUP4 DUP6 SUB SLT ISZERO PUSH2 0x5F4 JUMPI PUSH0 DUP1 REVERT JUMPDEST DUP3 CALLDATALOAD SWAP2 POP PUSH2 0x604 PUSH1 0x20 DUP5 ADD PUSH2 0x5C8 JUMP JUMPDEST SWAP1 POP SWAP3 POP SWAP3 SWAP1 POP JUMP JUMPDEST PUSH0 PUSH1 0x20 DUP3 DUP5 SUB SLT ISZERO PUSH2 0x61D JUMPI PUSH0 DUP1 REVERT JUMPDEST PUSH2 0x5AA DUP3 PUSH2 0x5C8 JUMP INVALID LOG2 PUSH5 0x6970667358 0x22 SLT KECCAK256 POP SWAP9 NOT MSTORE 0xCA BASEFEE 0xEE 0xED 0xE2 0x21 0xEC SWAP2 0xEB 0x27 0x28 SWAP8 PUSH3 0x200DB4 0x24 SWAP8 SWAP10 0x26 PUSH21 0xE92F97841EDEC64736F6C634300081A0033000000 "
		},
		"gasEstimates": {
			"creation": {
				"codeDepositCost": "325600",
				"executionCost": "29040",
				"totalCost": "354640"
			},
			"external": {
				"DEFAULT_ADMIN_ROLE()": "282",
				"FARMER_ROLE()": "282",
				"INSPECTOR_ROLE()": "260",
				"RETAILER_ROLE()": "240",
				"TRANSPORTER_ROLE()": "261",
				"addFarmer(address)": "infinite",
				"addInspector(address)": "infinite",
				"addRetailer(address)": "infinite",
				"addTransporter(address)": "infinite",
				"getRoleAdmin(bytes32)": "2512",
				"grantRole(bytes32,address)": "infinite",
				"hasRole(bytes32,address)": "2715",
				"renounceRole(bytes32,address)": "29063",
				"revokeRole(bytes32,address)": "infinite",
				"supportsInterface(bytes4)": "447"
			}
		},
		"methodIdentifiers": {
			"DEFAULT_ADMIN_ROLE()": "a217fddf",
			"FARMER_ROLE()": "f3943970",
			"INSPECTOR_ROLE()": "e3a3c522",
			"RETAILER_ROLE()": "2115e7bf",
			"TRANSPORTER_ROLE()": "4eabbe77",
			"addFarmer(address)": "80c3f96d",
			"addInspector(address)": "7e458492",
			"addRetailer(address)": "8ec4f505",
			"addTransporter(address)": "b7022049",
			"getRoleAdmin(bytes32)": "248a9ca3",
			"grantRole(bytes32,address)": "2f2ff15d",
			"hasRole(bytes32,address)": "91d14854",
			"renounceRole(bytes32,address)": "36568abe",
			"revokeRole(bytes32,address)": "d547741f",
			"supportsInterface(bytes4)": "01ffc9a7"
		}
	},
	"abi": [
		{
			"inputs": [],
			"stateMutability": "nonpayable",
			"type": "constructor"
		},
		{
			"inputs": [],
			"name": "AccessControlBadConfirmation",
			"type": "error"
		},
		{
			"inputs": [
				{
					"internalType": "address",
					"name": "account",
					"type": "address"
				},
				{
					"internalType": "bytes32",
					"name": "neededRole",
					"type": "bytes32"
				}
			],
			"name": "AccessControlUnauthorizedAccount",
			"type": "error"
		},
		{
			"anonymous": false,
			"inputs": [
				{
					"indexed": true,
					"internalType": "bytes32",
					"name": "role",
					"type": "bytes32"
				},
				{
					"indexed": true,
					"internalType": "bytes32",
					"name": "previousAdminRole",
					"type": "bytes32"
				},
				{
					"indexed": true,
					"internalType": "bytes32",
					"name": "newAdminRole",
					"type": "bytes32"
				}
			],
			"name": "RoleAdminChanged",
			"type": "event"
		},
		{
			"anonymous": false,
			"inputs": [
				{
					"indexed": true,
					"internalType": "bytes32",
					"name": "role",
					"type": "bytes32"
				},
				{
					"indexed": true,
					"internalType": "address",
					"name": "account",
					"type": "address"
				},
				{
					"indexed": true,
					"internalType": "address",
					"name": "sender",
					"type": "address"
				}
			],
			"name": "RoleGranted",
			"type": "event"
		},
		{
			"anonymous": false,
			"inputs": [
				{
					"indexed": true,
					"internalType": "bytes32",
					"name": "role",
					"type": "bytes32"
				},
				{
					"indexed": true,
					"internalType": "address",
					"name": "account",
					"type": "address"
				},
				{
					"indexed": true,
					"internalType": "address",
					"name": "sender",
					"type": "address"
				}
			],
			"name": "RoleRevoked",
			"type": "event"
		},
		{
			"inputs": [],
			"name": "DEFAULT_ADMIN_ROLE",
			"outputs": [
				{
					"internalType": "bytes32",
					"name": "",
					"type": "bytes32"
				}
			],
			"stateMutability": "view",
			"type": "function"
		},
		{
			"inputs": [],
			"name": "FARMER_ROLE",
			"outputs": [
				{
					"internalType": "bytes32",
					"name": "",
					"type": "bytes32"
				}
			],
			"stateMutability": "view",
			"type": "function"
		},
		{
			"inputs": [],
			"name": "INSPECTOR_ROLE",
			"outputs": [
				{
					"internalType": "bytes32",
					"name": "",
					"type": "bytes32"
				}
			],
			"stateMutability": "view",
			"type": "function"
		},
		{
			"inputs": [],
			"name": "RETAILER_ROLE",
			"outputs": [
				{
					"internalType": "bytes32",
					"name": "",
					"type": "bytes32"
				}
			],
			"stateMutability": "view",
			"type": "function"
		},
		{
			"inputs": [],
			"name": "TRANSPORTER_ROLE",
			"outputs": [
				{
					"internalType": "bytes32",
					"name": "",
					"type": "bytes32"
				}
			],
			"stateMutability": "view",
			"type": "function"
		},
		{
			"inputs": [
				{
					"internalType": "address",
					"name": "account",
					"type": "address"
				}
			],
			"name": "addFarmer",
			"outputs": [],
			"stateMutability": "nonpayable",
			"type": "function"
		},
		{
			"inputs": [
				{
					"internalType": "address",
					"name": "account",
					"type": "address"
				}
			],
			"name": "addInspector",
			"outputs": [],
			"stateMutability": "nonpayable",
			"type": "function"
		},
		{
			"inputs": [
				{
					"internalType": "address",
					"name": "account",
					"type": "address"
				}
			],
			"name": "addRetailer",
			"outputs": [],
			"stateMutability": "nonpayable",
			"type": "function"
		},
		{
			"inputs": [
				{
					"internalType": "address",
					"name": "account",
					"type": "address"
				}
			],
			"name": "addTransporter",
			"outputs": [],
			"stateMutability": "nonpayable",
			"type": "function"
		},
		{
			"inputs": [
				{
					"internalType": "bytes32",
					"name": "role",
					"type": "bytes32"
				}
			],
			"name": "getRoleAdmin",
			"outputs": [
				{
					"internalType": "bytes32",
					"name": "",
					"type": "bytes32"
				}
			],
			"stateMutability": "view",
			"type": "function"
		},
		{
			"inputs": [
				{
					"internalType": "bytes32",
					"name": "role",
					"type": "bytes32"
				},
				{
					"internalType": "address",
					"name": "account",
					"type": "address"
				}
			],
			"name": "grantRole",
			"outputs": [],
			"stateMutability": "nonpayable",
			"type": "function"
		},
		{
			"inputs": [
				{
					"internalType": "bytes32",
					"name": "role",
					"type": "bytes32"
				},
				{
					"internalType": "address",
					"name": "account",
					"type": "address"
				}
			],
			"name": "hasRole",
			"outputs": [
				{
					"internalType": "bool",
					"name": "",
					"type": "bool"
				}
			],
			"stateMutability": "view",
			"type": "function"
		},
		{
			"inputs": [
				{
					"internalType": "bytes32",
					"name": "role",
					"type": "bytes32"
				},
				{
					"internalType": "address",
					"name": "callerConfirmation",
					"type": "address"
				}
			],
			"name": "renounceRole",
			"outputs": [],
			"stateMutability": "nonpayable",
			"type": "function"
		},
		{
			"inputs": [
				{
					"internalType": "bytes32",
					"name": "role",
					"type": "bytes32"
				},
				{
					"internalType": "address",
					"name": "account",
					"type": "address"
				}
			],
			"name": "revokeRole",
			"outputs": [],
			"stateMutability": "nonpayable",
			"type": "function"
		},
		{
			"inputs": [
				{
					"internalType": "bytes4",
					"name": "interfaceId",
					"type": "bytes4"
				}
			],
			"name": "supportsInterface",
			"outputs": [
				{
					"internalType": "bool",
					"name": "",
					"type": "bool"
				}
			],
			"stateMutability": "view",
			"type": "function"
		}
	]
}