{
	"data": {
		"bytecode": {
			"linkReferences": {},
			"object": "6080604052348015600e575f80fd5b5060175f336020565b505f60015560c6565b5f828152602081815260408083206001600160a01b038516845290915281205460ff1660bd575f838152602081815260408083206001600160a01b03861684529091529020805460ff1916600117905560763390565b6001600160a01b0316826001600160a01b0316847f2f8788117e7eff1d82e926ec794901d17c78024a50270940304540a733656f0d60405160405180910390a450600160c0565b505f5b92915050565b611e39806100d35f395ff3fe608060405234801561000f575f80fd5b506004361061016d575f3560e01c8063874ae942116100d9578063ab93d87311610093578063d547741f1161006e578063d547741f14610375578063e3a3c52214610388578063eab1ddf2146103af578063f3943970146103c2575f80fd5b8063ab93d87314610347578063aea322611461035a578063b702204914610362575f80fd5b8063874ae942146102cf5780638ec4f505146102e25780638fec82c5146102f557806391d148541461030a57806399cdcc5c1461031d578063a217fddf14610340575f80fd5b806336568abe1161012a57806336568abe146102385780634e266aea1461024b5780634eabbe771461026f5780637e458492146102965780637f832973146102a957806380c3f96d146102bc575f80fd5b806301ffc9a7146101715780631a0058f5146101995780632115e7bf146101b9578063248a9ca3146101ee57806329507f73146102105780632f2ff15d14610225575b5f80fd5b61018461017f36600461179f565b6103e9565b60405190151581526020015b60405180910390f35b6101ac6101a73660046117cd565b61041f565b604051610190919061185a565b6101e07f2a5f906c256a5d799494fcd066e1f6c077689de1cdb65052a1624de4bace99bf81565b604051908152602001610190565b6101e06101fc3660046117cd565b5f9081526020819052604090206001015490565b61022361021e366004611913565b610854565b005b610223610233366004611913565b610a12565b610223610246366004611913565b610a3c565b61025e6102593660046117cd565b610a74565b60405161019095949392919061193d565b6101e07fddaa901e2fe3bda354fe0ede2785152d5c109282a613fe024a056a3e66c41bb381565b6102236102a43660046119ab565b610e89565b6102236102b7366004611a63565b610ec1565b6102236102ca3660046119ab565b611023565b6102236102dd366004611a63565b611057565b6102236102f03660046119ab565b611127565b6102fd61115b565b6040516101909190611ae1565b610184610318366004611913565b6111b9565b61033061032b3660046117cd565b6111e1565b6040516101909493929190611b23565b6101e05f81565b6101e0610355366004611b51565b6112a0565b6001546101e0565b6102236103703660046119ab565b611467565b610223610383366004611913565b61149b565b6101e07f273dcf2136c7d8ef632bb8ef13dbca69a8f36fa620c7468671b3153d46a211c081565b6102236103bd366004611b83565b6114bf565b6101e07f7c6181838a71a779e445600d4c6ecbe16bacf2b3c5bda69c29fada66d1b645d181565b5f6001600160e01b03198216637965db0b60e01b148061041957506301ffc9a760e01b6001600160e01b03198316145b92915050565b610427611711565b5f82815260026020818152604092839020835161010081018552815460a08201908152600183015460c08301529382015460e08201529283528351606081019094526003810180546001600160a01b0316855260048201805494959294868501948401919061049590611bf0565b80601f01602080910402602001604051908101604052809291908181526020018280546104c190611bf0565b801561050c5780601f106104e35761010080835404028352916020019161050c565b820191905f5260205f20905b8154815290600101906020018083116104ef57829003601f168201915b5050505050815260200160028201805461052590611bf0565b80601f016020809104026020016040519081016040528092919081815260200182805461055190611bf0565b801561059c5780601f106105735761010080835404028352916020019161059c565b820191905f5260205f20905b81548152906001019060200180831161057f57829003601f168201915b50505091909252505050815260408051606081019091526006830180546001600160a01b03168252600784018054602094850194840191906105dd90611bf0565b80601f016020809104026020016040519081016040528092919081815260200182805461060990611bf0565b80156106545780601f1061062b57610100808354040283529160200191610654565b820191905f5260205f20905b81548152906001019060200180831161063757829003601f168201915b5050505050815260200160028201805461066d90611bf0565b80601f016020809104026020016040519081016040528092919081815260200182805461069990611bf0565b80156106e45780601f106106bb576101008083540402835291602001916106e4565b820191905f5260205f20905b8154815290600101906020018083116106c757829003601f168201915b50505091909252505050815260408051606081019091526009830180546001600160a01b03168252600a840180546020948501948401919061072590611bf0565b80601f016020809104026020016040519081016040528092919081815260200182805461075190611bf0565b801561079c5780601f106107735761010080835404028352916020019161079c565b820191905f5260205f20905b81548152906001019060200180831161077f57829003601f168201915b505050505081526020016002820180546107b590611bf0565b80601f01602080910402602001604051908101604052809291908181526020018280546107e190611bf0565b801561082c5780601f106108035761010080835404028352916020019161082c565b820191905f5260205f20905b81548152906001019060200180831161080f57829003601f168201915b505050919092525050508152600c91909101546001600160a01b031660209091015292915050565b5f828152600260205260409020600c01546001600160a01b031633146108c15760405162461bcd60e51b815260206004820152601f60248201527f4f6e6c792063757272656e74206f776e65722063616e207472616e736665720060448201526064015b60405180910390fd5b5f828152600260209081526040808320600c0180546001600160a01b038681166001600160a01b0319831617909255168084526003909252822090915b815481101561099f578482828154811061091a5761091a611c28565b905f5260205f20015403610997578154829061093890600190611c50565b8154811061094857610948611c28565b905f5260205f20015482828154811061096357610963611c28565b905f5260205f2001819055508180548061097f5761097f611c63565b600190038181905f5260205f20015f9055905561099f565b6001016108fe565b506001600160a01b038381165f8181526003602090815260408083208054600181018255908452928290209092018890558151888152938616908401528201527f16b85f49bf01212961345d3016c9a531894accf62eb7680f2045d79185cc0ec09060600160405180910390a150505050565b5f82815260208190526040902060010154610a2c816115d3565b610a3683836115e0565b50505050565b6001600160a01b0381163314610a655760405163334bd91960e11b815260040160405180910390fd5b610a6f828261166f565b505050565b600260208181525f92835260409283902083516060808201865282548252600183015482850152938201548186015284519384019094526003810180546001600160a01b03168452600482018054929493919291840191610ad490611bf0565b80601f0160208091040260200160405190810160405280929190818152602001828054610b0090611bf0565b8015610b4b5780601f10610b2257610100808354040283529160200191610b4b565b820191905f5260205f20905b815481529060010190602001808311610b2e57829003601f168201915b50505050508152602001600282018054610b6490611bf0565b80601f0160208091040260200160405190810160405280929190818152602001828054610b9090611bf0565b8015610bdb5780601f10610bb257610100808354040283529160200191610bdb565b820191905f5260205f20905b815481529060010190602001808311610bbe57829003601f168201915b50505091909252505060408051606081019091526006840180546001600160a01b031682526007850180549495949293509091602084019190610c1d90611bf0565b80601f0160208091040260200160405190810160405280929190818152602001828054610c4990611bf0565b8015610c945780601f10610c6b57610100808354040283529160200191610c94565b820191905f5260205f20905b815481529060010190602001808311610c7757829003601f168201915b50505050508152602001600282018054610cad90611bf0565b80601f0160208091040260200160405190810160405280929190818152602001828054610cd990611bf0565b8015610d245780601f10610cfb57610100808354040283529160200191610d24565b820191905f5260205f20905b815481529060010190602001808311610d0757829003601f168201915b50505091909252505060408051606081019091526009840180546001600160a01b03168252600a850180549495949293509091602084019190610d6690611bf0565b80601f0160208091040260200160405190810160405280929190818152602001828054610d9290611bf0565b8015610ddd5780601f10610db457610100808354040283529160200191610ddd565b820191905f5260205f20905b815481529060010190602001808311610dc057829003601f168201915b50505050508152602001600282018054610df690611bf0565b80601f0160208091040260200160405190810160405280929190818152602001828054610e2290611bf0565b8015610e6d5780601f10610e4457610100808354040283529160200191610e6d565b820191905f5260205f20905b815481529060010190602001808311610e5057829003601f168201915b50505091909252505050600c909101546001600160a01b031685565b5f610e93816115d3565b610ebd7f273dcf2136c7d8ef632bb8ef13dbca69a8f36fa620c7468671b3153d46a211c083610a12565b5050565b7fddaa901e2fe3bda354fe0ede2785152d5c109282a613fe024a056a3e66c41bb3610eeb816115d3565b5f858152600260205260409020600c01546001600160a01b03163314610f535760405162461bcd60e51b815260206004820152601d60248201527f4f6e6c792063757272656e74206f776e65722063616e2075706461746500000060448201526064016108b8565b5f8581526002602052604090206003810190600401610f728682611cc2565b5060028101610f818582611cc2565b5080546001600160a01b031916331781555f6001600160a01b038416610fc0575f878152600260205260409020600c01546001600160a01b0316610fc2565b835b90507f4ea766b3bd9e7c93b3e34a817a346f1f50f27facb4df941fa10747a5bfc9213487878784604051610ff99493929190611d7d565b60405180910390a16001600160a01b0384161561101a5761101a8785610854565b50505050505050565b5f61102d816115d3565b610ebd7f7c6181838a71a779e445600d4c6ecbe16bacf2b3c5bda69c29fada66d1b645d183610a12565b7f273dcf2136c7d8ef632bb8ef13dbca69a8f36fa620c7468671b3153d46a211c0611081816115d3565b5f85815260026020526040902060068101906007016110a08682611cc2565b50600281016110af8582611cc2565b5080546001600160a01b031916331781555f6001600160a01b0384166110ee575f878152600260205260409020600c01546001600160a01b03166110f0565b835b90507fffe7da8cd425dbb269909e7defc11396e896f2dba686ba28d711f4db1cff02fe87878784604051610ff99493929190611d7d565b5f611131816115d3565b610ebd7f2a5f906c256a5d799494fcd066e1f6c077689de1cdb65052a1624de4bace99bf83610a12565b335f908152600360209081526040918290208054835181840281018401909452808452606093928301828280156111af57602002820191905f5260205f20905b81548152602001906001019080831161119b575b5050505050905090565b5f918252602082815260408084206001600160a01b0393909316845291905290205460ff1690565b5f81815260026020819052604082208054918101546008820180548594859460609490938993819061121290611bf0565b80601f016020809104026020016040519081016040528092919081815260200182805461123e90611bf0565b80156112895780601f1061126057610100808354040283529160200191611289565b820191905f5260205f20905b81548152906001019060200180831161126c57829003601f168201915b505050505090509450945094509450509193509193565b5f7f7c6181838a71a779e445600d4c6ecbe16bacf2b3c5bda69c29fada66d1b645d16112cb816115d3565b60018054905f6112da83611dc1565b9091555050600180545f908152600260208181526040928390208351606081018552428082528184018c90529085018a905281559384018990559083018790558151808301909252600b82526a139bdd0814dd185c9d195960aa1b9082015260048201906113489082611cc2565b5060408051808201909152600d81526c139bdd08125b9cdc1958dd1959609a1b6020820152600782019061137c9082611cc2565b5060408051808201909152600c81526b139bdd08149958d95a5d995960a21b6020820152600a8201906113af9082611cc2565b50600c810180546001600160a01b031916339081179091555f81815260036020908152604080832060018054825480830184559286529484902090910193909355915482514281529182018a90529181018890526001600160a01b03871660608201527f167d4490114704a52fff91fd9e2b0410e6472a338563551876cd1d2b72a98dc69060800160405180910390a36001600160a01b0384161561145a5761145a60015485610854565b5050600154949350505050565b5f611471816115d3565b610ebd7fddaa901e2fe3bda354fe0ede2785152d5c109282a613fe024a056a3e66c41bb383610a12565b5f828152602081905260409020600101546114b5816115d3565b610a36838361166f565b7f2a5f906c256a5d799494fcd066e1f6c077689de1cdb65052a1624de4bace99bf6114e9816115d3565b5f848152600260205260409020600c01546001600160a01b031633146115515760405162461bcd60e51b815260206004820152601d60248201527f4f6e6c792063757272656e74206f776e65722063616e2075706461746500000060448201526064016108b8565b5f8481526002602052604090206009810190600a016115708582611cc2565b506002810161157f8482611cc2565b5080546001600160a01b031916331781556040517f1709afb7f48585816a5b8da1f6f52317a1b01989a29d8c9e39f14cceaf987a1c906115c490879087908790611dd9565b60405180910390a15050505050565b6115dd81336116d8565b50565b5f6115eb83836111b9565b611668575f838152602081815260408083206001600160a01b03861684529091529020805460ff191660011790556116203390565b6001600160a01b0316826001600160a01b0316847f2f8788117e7eff1d82e926ec794901d17c78024a50270940304540a733656f0d60405160405180910390a4506001610419565b505f610419565b5f61167a83836111b9565b15611668575f838152602081815260408083206001600160a01b0386168085529252808320805460ff1916905551339286917ff6391f5c32d9c69d2a47ea670b442974b53935d1edc7fd64eb21e047a839171b9190a4506001610419565b6116e282826111b9565b610ebd5760405163e2517d3f60e01b81526001600160a01b0382166004820152602481018390526044016108b8565b6040518060a0016040528061173d60405180606001604052805f81526020015f81526020015f81525090565b815260408051606080820183525f80835260208084018390528385018390528086019390935283518083018552818152808401839052808501839052848601528351808301855281815292830182905292820181905283015260809091015290565b5f602082840312156117af575f80fd5b81356001600160e01b0319811681146117c6575f80fd5b9392505050565b5f602082840312156117dd575f80fd5b5035919050565b5f81518084528060208401602086015e5f602082860101526020601f19601f83011685010191505092915050565b60018060a01b0381511682525f60208201516060602085015261183860608501826117e4565b90506040830151848203604086015261185182826117e4565b95945050505050565b602081526118806020820183518051825260208082015190830152604090810151910152565b5f602083015160e0608084015261189b610100840182611812565b90506040840151601f198483030160a08501526118b88282611812565b9150506060840151601f198483030160c08501526118d68282611812565b608095909501516001600160a01b031660e09490940193909352509192915050565b80356001600160a01b038116811461190e575f80fd5b919050565b5f8060408385031215611924575f80fd5b82359150611934602084016118f8565b90509250929050565b85518152602080870151908201526040808701519082015260e060608201525f61196a60e0830187611812565b828103608084015261197c8187611812565b905082810360a08401526119908186611812565b91505060018060a01b03831660c08301529695505050505050565b5f602082840312156119bb575f80fd5b6117c6826118f8565b634e487b7160e01b5f52604160045260245ffd5b5f82601f8301126119e7575f80fd5b813567ffffffffffffffff811115611a0157611a016119c4565b604051601f8201601f19908116603f0116810167ffffffffffffffff81118282101715611a3057611a306119c4565b604052818152838201602001851015611a47575f80fd5b816020850160208301375f918101602001919091529392505050565b5f805f8060808587031215611a76575f80fd5b84359350602085013567ffffffffffffffff811115611a93575f80fd5b611a9f878288016119d8565b935050604085013567ffffffffffffffff811115611abb575f80fd5b611ac7878288016119d8565b925050611ad6606086016118f8565b905092959194509250565b602080825282518282018190525f918401906040840190835b81811015611b18578351835260209384019390920191600101611afa565b509095945050505050565b848152836020820152826040820152608060608201525f611b4760808301846117e4565b9695505050505050565b5f805f60608486031215611b63575f80fd5b8335925060208401359150611b7a604085016118f8565b90509250925092565b5f805f60608486031215611b95575f80fd5b83359250602084013567ffffffffffffffff811115611bb2575f80fd5b611bbe868287016119d8565b925050604084013567ffffffffffffffff811115611bda575f80fd5b611be6868287016119d8565b9150509250925092565b600181811c90821680611c0457607f821691505b602082108103611c2257634e487b7160e01b5f52602260045260245ffd5b50919050565b634e487b7160e01b5f52603260045260245ffd5b634e487b7160e01b5f52601160045260245ffd5b8181038181111561041957610419611c3c565b634e487b7160e01b5f52603160045260245ffd5b601f821115610a6f57805f5260205f20601f840160051c81016020851015611c9c5750805b601f840160051c820191505b81811015611cbb575f8155600101611ca8565b5050505050565b815167ffffffffffffffff811115611cdc57611cdc6119c4565b611cf081611cea8454611bf0565b84611c77565b6020601f821160018114611d22575f8315611d0b5750848201515b5f19600385901b1c1916600184901b178455611cbb565b5f84815260208120601f198516915b82811015611d515787850151825560209485019460019092019101611d31565b5084821015611d6e57868401515f19600387901b60f8161c191681555b50505050600190811b01905550565b848152608060208201525f611d9560808301866117e4565b8281036040840152611da781866117e4565b91505060018060a01b038316606083015295945050505050565b5f60018201611dd257611dd2611c3c565b5060010190565b838152606060208201525f611df160608301856117e4565b8281036040840152611b4781856117e456fea2646970667358221220d67d5a823b7d5cf75d94a24dc7ea2a6f914f4d0cc37f750ac8985f842f2315ed64736f6c634300081a0033",
			"opcodes": "PUSH1 0x80 PUSH1 0x40 MSTORE CALLVALUE DUP1 ISZERO PUSH1 0xE JUMPI PUSH0 DUP1 REVERT JUMPDEST POP PUSH1 0x17 PUSH0 CALLER PUSH1 0x20 JUMP JUMPDEST POP PUSH0 PUSH1 0x1 SSTORE PUSH1 0xC6 JUMP JUMPDEST PUSH0 DUP3 DUP2 MSTORE PUSH1 0x20 DUP2 DUP2 MSTORE PUSH1 0x40 DUP1 DUP4 KECCAK256 PUSH1 0x1 PUSH1 0x1 PUSH1 0xA0 SHL SUB DUP6 AND DUP5 MSTORE SWAP1 SWAP2 MSTORE DUP2 KECCAK256 SLOAD PUSH1 0xFF AND PUSH1 0xBD JUMPI PUSH0 DUP4 DUP2 MSTORE PUSH1 0x20 DUP2 DUP2 MSTORE PUSH1 0x40 DUP1 DUP4 KECCAK256 PUSH1 0x1 PUSH1 0x1 PUSH1 0xA0 SHL SUB DUP7 AND DUP5 MSTORE SWAP1 SWAP2 MSTORE SWAP1 KECCAK256 DUP1 SLOAD PUSH1 0xFF NOT AND PUSH1 0x1 OR SWAP1 SSTORE PUSH1 0x76 CALLER SWAP1 JUMP JUMPDEST PUSH1 0x1 PUSH1 0x1 PUSH1 0xA0 SHL SUB AND DUP3 PUSH1 0x1 PUSH1 0x1 PUSH1 0xA0 SHL SUB AND DUP5 PUSH32 0x2F8788117E7EFF1D82E926EC794901D17C78024A50270940304540A733656F0D PUSH1 0x40 MLOAD PUSH1 0x40 MLOAD DUP1 SWAP2 SUB SWAP1 LOG4 POP PUSH1 0x1 PUSH1 0xC0 JUMP JUMPDEST POP PUSH0 JUMPDEST SWAP3 SWAP2 POP POP JUMP JUMPDEST PUSH2 0x1E39 DUP1 PUSH2 0xD3 PUSH0 CODECOPY PUSH0 RETURN INVALID PUSH1 0x80 PUSH1 0x40 MSTORE CALLVALUE DUP1 ISZERO PUSH2 0xF JUMPI PUSH0 DUP1 REVERT JUMPDEST POP PUSH1 0x4 CALLDATASIZE LT PUSH2 0x16D JUMPI PUSH0 CALLDATALOAD PUSH1 0xE0 SHR DUP1 PUSH4 0x874AE942 GT PUSH2 0xD9 JUMPI DUP1 PUSH4 0xAB93D873 GT PUSH2 0x93 JUMPI DUP1 PUSH4 0xD547741F GT PUSH2 0x6E JUMPI DUP1 PUSH4 0xD547741F EQ PUSH2 0x375 JUMPI DUP1 PUSH4 0xE3A3C522 EQ PUSH2 0x388 JUMPI DUP1 PUSH4 0xEAB1DDF2 EQ PUSH2 0x3AF JUMPI DUP1 PUSH4 0xF3943970 EQ PUSH2 0x3C2 JUMPI PUSH0 DUP1 REVERT JUMPDEST DUP1 PUSH4 0xAB93D873 EQ PUSH2 0x347 JUMPI DUP1 PUSH4 0xAEA32261 EQ PUSH2 0x35A JUMPI DUP1 PUSH4 0xB7022049 EQ PUSH2 0x362 JUMPI PUSH0 DUP1 REVERT JUMPDEST DUP1 PUSH4 0x874AE942 EQ PUSH2 0x2CF JUMPI DUP1 PUSH4 0x8EC4F505 EQ PUSH2 0x2E2 JUMPI DUP1 PUSH4 0x8FEC82C5 EQ PUSH2 0x2F5 JUMPI DUP1 PUSH4 0x91D14854 EQ PUSH2 0x30A JUMPI DUP1 PUSH4 0x99CDCC5C EQ PUSH2 0x31D JUMPI DUP1 PUSH4 0xA217FDDF EQ PUSH2 0x340 JUMPI PUSH0 DUP1 REVERT JUMPDEST DUP1 PUSH4 0x36568ABE GT PUSH2 0x12A JUMPI DUP1 PUSH4 0x36568ABE EQ PUSH2 0x238 JUMPI DUP1 PUSH4 0x4E266AEA EQ PUSH2 0x24B JUMPI DUP1 PUSH4 0x4EABBE77 EQ PUSH2 0x26F JUMPI DUP1 PUSH4 0x7E458492 EQ PUSH2 0x296 JUMPI DUP1 PUSH4 0x7F832973 EQ PUSH2 0x2A9 JUMPI DUP1 PUSH4 0x80C3F96D EQ PUSH2 0x2BC JUMPI PUSH0 DUP1 REVERT JUMPDEST DUP1 PUSH4 0x1FFC9A7 EQ PUSH2 0x171 JUMPI DUP1 PUSH4 0x1A0058F5 EQ PUSH2 0x199 JUMPI DUP1 PUSH4 0x2115E7BF EQ PUSH2 0x1B9 JUMPI DUP1 PUSH4 0x248A9CA3 EQ PUSH2 0x1EE JUMPI DUP1 PUSH4 0x29507F73 EQ PUSH2 0x210 JUMPI DUP1 PUSH4 0x2F2FF15D EQ PUSH2 0x225 JUMPI JUMPDEST PUSH0 DUP1 REVERT JUMPDEST PUSH2 0x184 PUSH2 0x17F CALLDATASIZE PUSH1 0x4 PUSH2 0x179F JUMP JUMPDEST PUSH2 0x3E9 JUMP JUMPDEST PUSH1 0x40 MLOAD SWAP1 ISZERO ISZERO DUP2 MSTORE PUSH1 0x20 ADD JUMPDEST PUSH1 0x40 MLOAD DUP1 SWAP2 SUB SWAP1 RETURN JUMPDEST PUSH2 0x1AC PUSH2 0x1A7 CALLDATASIZE PUSH1 0x4 PUSH2 0x17CD JUMP JUMPDEST PUSH2 0x41F JUMP JUMPDEST PUSH1 0x40 MLOAD PUSH2 0x190 SWAP2 SWAP1 PUSH2 0x185A JUMP JUMPDEST PUSH2 0x1E0 PUSH32 0x2A5F906C256A5D799494FCD066E1F6C077689DE1CDB65052A1624DE4BACE99BF DUP2 JUMP JUMPDEST PUSH1 0x40 MLOAD SWAP1 DUP2 MSTORE PUSH1 0x20 ADD PUSH2 0x190 JUMP JUMPDEST PUSH2 0x1E0 PUSH2 0x1FC CALLDATASIZE PUSH1 0x4 PUSH2 0x17CD JUMP JUMPDEST PUSH0 SWAP1 DUP2 MSTORE PUSH1 0x20 DUP2 SWAP1 MSTORE PUSH1 0x40 SWAP1 KECCAK256 PUSH1 0x1 ADD SLOAD SWAP1 JUMP JUMPDEST PUSH2 0x223 PUSH2 0x21E CALLDATASIZE PUSH1 0x4 PUSH2 0x1913 JUMP JUMPDEST PUSH2 0x854 JUMP JUMPDEST STOP JUMPDEST PUSH2 0x223 PUSH2 0x233 CALLDATASIZE PUSH1 0x4 PUSH2 0x1913 JUMP JUMPDEST PUSH2 0xA12 JUMP JUMPDEST PUSH2 0x223 PUSH2 0x246 CALLDATASIZE PUSH1 0x4 PUSH2 0x1913 JUMP JUMPDEST PUSH2 0xA3C JUMP JUMPDEST PUSH2 0x25E PUSH2 0x259 CALLDATASIZE PUSH1 0x4 PUSH2 0x17CD JUMP JUMPDEST PUSH2 0xA74 JUMP JUMPDEST PUSH1 0x40 MLOAD PUSH2 0x190 SWAP6 SWAP5 SWAP4 SWAP3 SWAP2 SWAP1 PUSH2 0x193D JUMP JUMPDEST PUSH2 0x1E0 PUSH32 0xDDAA901E2FE3BDA354FE0EDE2785152D5C109282A613FE024A056A3E66C41BB3 DUP2 JUMP JUMPDEST PUSH2 0x223 PUSH2 0x2A4 CALLDATASIZE PUSH1 0x4 PUSH2 0x19AB JUMP JUMPDEST PUSH2 0xE89 JUMP JUMPDEST PUSH2 0x223 PUSH2 0x2B7 CALLDATASIZE PUSH1 0x4 PUSH2 0x1A63 JUMP JUMPDEST PUSH2 0xEC1 JUMP JUMPDEST PUSH2 0x223 PUSH2 0x2CA CALLDATASIZE PUSH1 0x4 PUSH2 0x19AB JUMP JUMPDEST PUSH2 0x1023 JUMP JUMPDEST PUSH2 0x223 PUSH2 0x2DD CALLDATASIZE PUSH1 0x4 PUSH2 0x1A63 JUMP JUMPDEST PUSH2 0x1057 JUMP JUMPDEST PUSH2 0x223 PUSH2 0x2F0 CALLDATASIZE PUSH1 0x4 PUSH2 0x19AB JUMP JUMPDEST PUSH2 0x1127 JUMP JUMPDEST PUSH2 0x2FD PUSH2 0x115B JUMP JUMPDEST PUSH1 0x40 MLOAD PUSH2 0x190 SWAP2 SWAP1 PUSH2 0x1AE1 JUMP JUMPDEST PUSH2 0x184 PUSH2 0x318 CALLDATASIZE PUSH1 0x4 PUSH2 0x1913 JUMP JUMPDEST PUSH2 0x11B9 JUMP JUMPDEST PUSH2 0x330 PUSH2 0x32B CALLDATASIZE PUSH1 0x4 PUSH2 0x17CD JUMP JUMPDEST PUSH2 0x11E1 JUMP JUMPDEST PUSH1 0x40 MLOAD PUSH2 0x190 SWAP5 SWAP4 SWAP3 SWAP2 SWAP1 PUSH2 0x1B23 JUMP JUMPDEST PUSH2 0x1E0 PUSH0 DUP2 JUMP JUMPDEST PUSH2 0x1E0 PUSH2 0x355 CALLDATASIZE PUSH1 0x4 PUSH2 0x1B51 JUMP JUMPDEST PUSH2 0x12A0 JUMP JUMPDEST PUSH1 0x1 SLOAD PUSH2 0x1E0 JUMP JUMPDEST PUSH2 0x223 PUSH2 0x370 CALLDATASIZE PUSH1 0x4 PUSH2 0x19AB JUMP JUMPDEST PUSH2 0x1467 JUMP JUMPDEST PUSH2 0x223 PUSH2 0x383 CALLDATASIZE PUSH1 0x4 PUSH2 0x1913 JUMP JUMPDEST PUSH2 0x149B JUMP JUMPDEST PUSH2 0x1E0 PUSH32 0x273DCF2136C7D8EF632BB8EF13DBCA69A8F36FA620C7468671B3153D46A211C0 DUP2 JUMP JUMPDEST PUSH2 0x223 PUSH2 0x3BD CALLDATASIZE PUSH1 0x4 PUSH2 0x1B83 JUMP JUMPDEST PUSH2 0x14BF JUMP JUMPDEST PUSH2 0x1E0 PUSH32 0x7C6181838A71A779E445600D4C6ECBE16BACF2B3C5BDA69C29FADA66D1B645D1 DUP2 JUMP JUMPDEST PUSH0 PUSH1 0x1 PUSH1 0x1 PUSH1 0xE0 SHL SUB NOT DUP3 AND PUSH4 0x7965DB0B PUSH1 0xE0 SHL EQ DUP1 PUSH2 0x419 JUMPI POP PUSH4 0x1FFC9A7 PUSH1 0xE0 SHL PUSH1 0x1 PUSH1 0x1 PUSH1 0xE0 SHL SUB NOT DUP4 AND EQ JUMPDEST SWAP3 SWAP2 POP POP JUMP JUMPDEST PUSH2 0x427 PUSH2 0x1711 JUMP JUMPDEST PUSH0 DUP3 DUP2 MSTORE PUSH1 0x2 PUSH1 0x20 DUP2 DUP2 MSTORE PUSH1 0x40 SWAP3 DUP4 SWAP1 KECCAK256 DUP4 MLOAD PUSH2 0x100 DUP2 ADD DUP6 MSTORE DUP2 SLOAD PUSH1 0xA0 DUP3 ADD SWAP1 DUP2 MSTORE PUSH1 0x1 DUP4 ADD SLOAD PUSH1 0xC0 DUP4 ADD MSTORE SWAP4 DUP3 ADD SLOAD PUSH1 0xE0 DUP3 ADD MSTORE SWAP3 DUP4 MSTORE DUP4 MLOAD PUSH1 0x60 DUP2 ADD SWAP1 SWAP5 MSTORE PUSH1 0x3 DUP2 ADD DUP1 SLOAD PUSH1 0x1 PUSH1 0x1 PUSH1 0xA0 SHL SUB AND DUP6 MSTORE PUSH1 0x4 DUP3 ADD DUP1 SLOAD SWAP5 SWAP6 SWAP3 SWAP5 DUP7 DUP6 ADD SWAP5 DUP5 ADD SWAP2 SWAP1 PUSH2 0x495 SWAP1 PUSH2 0x1BF0 JUMP JUMPDEST DUP1 PUSH1 0x1F ADD PUSH1 0x20 DUP1 SWAP2 DIV MUL PUSH1 0x20 ADD PUSH1 0x40 MLOAD SWAP1 DUP2 ADD PUSH1 0x40 MSTORE DUP1 SWAP3 SWAP2 SWAP1 DUP2 DUP2 MSTORE PUSH1 0x20 ADD DUP3 DUP1 SLOAD PUSH2 0x4C1 SWAP1 PUSH2 0x1BF0 JUMP JUMPDEST DUP1 ISZERO PUSH2 0x50C JUMPI DUP1 PUSH1 0x1F LT PUSH2 0x4E3 JUMPI PUSH2 0x100 DUP1 DUP4 SLOAD DIV MUL DUP4 MSTORE SWAP2 PUSH1 0x20 ADD SWAP2 PUSH2 0x50C JUMP JUMPDEST DUP3 ADD SWAP2 SWAP1 PUSH0 MSTORE PUSH1 0x20 PUSH0 KECCAK256 SWAP1 JUMPDEST DUP2 SLOAD DUP2 MSTORE SWAP1 PUSH1 0x1 ADD SWAP1 PUSH1 0x20 ADD DUP1 DUP4 GT PUSH2 0x4EF JUMPI DUP3 SWAP1 SUB PUSH1 0x1F AND DUP3 ADD SWAP2 JUMPDEST POP POP POP POP POP DUP2 MSTORE PUSH1 0x20 ADD PUSH1 0x2 DUP3 ADD DUP1 SLOAD PUSH2 0x525 SWAP1 PUSH2 0x1BF0 JUMP JUMPDEST DUP1 PUSH1 0x1F ADD PUSH1 0x20 DUP1 SWAP2 DIV MUL PUSH1 0x20 ADD PUSH1 0x40 MLOAD SWAP1 DUP2 ADD PUSH1 0x40 MSTORE DUP1 SWAP3 SWAP2 SWAP1 DUP2 DUP2 MSTORE PUSH1 0x20 ADD DUP3 DUP1 SLOAD PUSH2 0x551 SWAP1 PUSH2 0x1BF0 JUMP JUMPDEST DUP1 ISZERO PUSH2 0x59C JUMPI DUP1 PUSH1 0x1F LT PUSH2 0x573 JUMPI PUSH2 0x100 DUP1 DUP4 SLOAD DIV MUL DUP4 MSTORE SWAP2 PUSH1 0x20 ADD SWAP2 PUSH2 0x59C JUMP JUMPDEST DUP3 ADD SWAP2 SWAP1 PUSH0 MSTORE PUSH1 0x20 PUSH0 KECCAK256 SWAP1 JUMPDEST DUP2 SLOAD DUP2 MSTORE SWAP1 PUSH1 0x1 ADD SWAP1 PUSH1 0x20 ADD DUP1 DUP4 GT PUSH2 0x57F JUMPI DUP3 SWAP1 SUB PUSH1 0x1F AND DUP3 ADD SWAP2 JUMPDEST POP POP POP SWAP2 SWAP1 SWAP3 MSTORE POP POP POP DUP2 MSTORE PUSH1 0x40 DUP1 MLOAD PUSH1 0x60 DUP2 ADD SWAP1 SWAP2 MSTORE PUSH1 0x6 DUP4 ADD DUP1 SLOAD PUSH1 0x1 PUSH1 0x1 PUSH1 0xA0 SHL SUB AND DUP3 MSTORE PUSH1 0x7 DUP5 ADD DUP1 SLOAD PUSH1 0x20 SWAP5 DUP6 ADD SWAP5 DUP5 ADD SWAP2 SWAP1 PUSH2 0x5DD SWAP1 PUSH2 0x1BF0 JUMP JUMPDEST DUP1 PUSH1 0x1F ADD PUSH1 0x20 DUP1 SWAP2 DIV MUL PUSH1 0x20 ADD PUSH1 0x40 MLOAD SWAP1 DUP2 ADD PUSH1 0x40 MSTORE DUP1 SWAP3 SWAP2 SWAP1 DUP2 DUP2 MSTORE PUSH1 0x20 ADD DUP3 DUP1 SLOAD PUSH2 0x609 SWAP1 PUSH2 0x1BF0 JUMP JUMPDEST DUP1 ISZERO PUSH2 0x654 JUMPI DUP1 PUSH1 0x1F LT PUSH2 0x62B JUMPI PUSH2 0x100 DUP1 DUP4 SLOAD DIV MUL DUP4 MSTORE SWAP2 PUSH1 0x20 ADD SWAP2 PUSH2 0x654 JUMP JUMPDEST DUP3 ADD SWAP2 SWAP1 PUSH0 MSTORE PUSH1 0x20 PUSH0 KECCAK256 SWAP1 JUMPDEST DUP2 SLOAD DUP2 MSTORE SWAP1 PUSH1 0x1 ADD SWAP1 PUSH1 0x20 ADD DUP1 DUP4 GT PUSH2 0x637 JUMPI DUP3 SWAP1 SUB PUSH1 0x1F AND DUP3 ADD SWAP2 JUMPDEST POP POP POP POP POP DUP2 MSTORE PUSH1 0x20 ADD PUSH1 0x2 DUP3 ADD DUP1 SLOAD PUSH2 0x66D SWAP1 PUSH2 0x1BF0 JUMP JUMPDEST DUP1 PUSH1 0x1F ADD PUSH1 0x20 DUP1 SWAP2 DIV MUL PUSH1 0x20 ADD PUSH1 0x40 MLOAD SWAP1 DUP2 ADD PUSH1 0x40 MSTORE DUP1 SWAP3 SWAP2 SWAP1 DUP2 DUP2 MSTORE PUSH1 0x20 ADD DUP3 DUP1 SLOAD PUSH2 0x699 SWAP1 PUSH2 0x1BF0 JUMP JUMPDEST DUP1 ISZERO PUSH2 0x6E4 JUMPI DUP1 PUSH1 0x1F LT PUSH2 0x6BB JUMPI PUSH2 0x100 DUP1 DUP4 SLOAD DIV MUL DUP4 MSTORE SWAP2 PUSH1 0x20 ADD SWAP2 PUSH2 0x6E4 JUMP JUMPDEST DUP3 ADD SWAP2 SWAP1 PUSH0 MSTORE PUSH1 0x20 PUSH0 KECCAK256 SWAP1 JUMPDEST DUP2 SLOAD DUP2 MSTORE SWAP1 PUSH1 0x1 ADD SWAP1 PUSH1 0x20 ADD DUP1 DUP4 GT PUSH2 0x6C7 JUMPI DUP3 SWAP1 SUB PUSH1 0x1F AND DUP3 ADD SWAP2 JUMPDEST POP POP POP SWAP2 SWAP1 SWAP3 MSTORE POP POP POP DUP2 MSTORE PUSH1 0x40 DUP1 MLOAD PUSH1 0x60 DUP2 ADD SWAP1 SWAP2 MSTORE PUSH1 0x9 DUP4 ADD DUP1 SLOAD PUSH1 0x1 PUSH1 0x1 PUSH1 0xA0 SHL SUB AND DUP3 MSTORE PUSH1 0xA DUP5 ADD DUP1 SLOAD PUSH1 0x20 SWAP5 DUP6 ADD SWAP5 DUP5 ADD SWAP2 SWAP1 PUSH2 0x725 SWAP1 PUSH2 0x1BF0 JUMP JUMPDEST DUP1 PUSH1 0x1F ADD PUSH1 0x20 DUP1 SWAP2 DIV MUL PUSH1 0x20 ADD PUSH1 0x40 MLOAD SWAP1 DUP2 ADD PUSH1 0x40 MSTORE DUP1 SWAP3 SWAP2 SWAP1 DUP2 DUP2 MSTORE PUSH1 0x20 ADD DUP3 DUP1 SLOAD PUSH2 0x751 SWAP1 PUSH2 0x1BF0 JUMP JUMPDEST DUP1 ISZERO PUSH2 0x79C JUMPI DUP1 PUSH1 0x1F LT PUSH2 0x773 JUMPI PUSH2 0x100 DUP1 DUP4 SLOAD DIV MUL DUP4 MSTORE SWAP2 PUSH1 0x20 ADD SWAP2 PUSH2 0x79C JUMP JUMPDEST DUP3 ADD SWAP2 SWAP1 PUSH0 MSTORE PUSH1 0x20 PUSH0 KECCAK256 SWAP1 JUMPDEST DUP2 SLOAD DUP2 MSTORE SWAP1 PUSH1 0x1 ADD SWAP1 PUSH1 0x20 ADD DUP1 DUP4 GT PUSH2 0x77F JUMPI DUP3 SWAP1 SUB PUSH1 0x1F AND DUP3 ADD SWAP2 JUMPDEST POP POP POP POP POP DUP2 MSTORE PUSH1 0x20 ADD PUSH1 0x2 DUP3 ADD DUP1 SLOAD PUSH2 0x7B5 SWAP1 PUSH2 0x1BF0 JUMP JUMPDEST DUP1 PUSH1 0x1F ADD PUSH1 0x20 DUP1 SWAP2 DIV MUL PUSH1 0x20 ADD PUSH1 0x40 MLOAD SWAP1 DUP2 ADD PUSH1 0x40 MSTORE DUP1 SWAP3 SWAP2 SWAP1 DUP2 DUP2 MSTORE PUSH1 0x20 ADD DUP3 DUP1 SLOAD PUSH2 0x7E1 SWAP1 PUSH2 0x1BF0 JUMP JUMPDEST DUP1 ISZERO PUSH2 0x82C JUMPI DUP1 PUSH1 0x1F LT PUSH2 0x803 JUMPI PUSH2 0x100 DUP1 DUP4 SLOAD DIV MUL DUP4 MSTORE SWAP2 PUSH1 0x20 ADD SWAP2 PUSH2 0x82C JUMP JUMPDEST DUP3 ADD SWAP2 SWAP1 PUSH0 MSTORE PUSH1 0x20 PUSH0 KECCAK256 SWAP1 JUMPDEST DUP2 SLOAD DUP2 MSTORE SWAP1 PUSH1 0x1 ADD SWAP1 PUSH1 0x20 ADD DUP1 DUP4 GT PUSH2 0x80F JUMPI DUP3 SWAP1 SUB PUSH1 0x1F AND DUP3 ADD SWAP2 JUMPDEST POP POP POP SWAP2 SWAP1 SWAP3 MSTORE POP POP POP DUP2 MSTORE PUSH1 0xC SWAP2 SWAP1 SWAP2 ADD SLOAD PUSH1 0x1 PUSH1 0x1 PUSH1 0xA0 SHL SUB AND PUSH1 0x20 SWAP1 SWAP2 ADD MSTORE SWAP3 SWAP2 POP POP JUMP JUMPDEST PUSH0 DUP3 DUP2 MSTORE PUSH1 0x2 PUSH1 0x20 MSTORE PUSH1 0x40 SWAP1 KECCAK256 PUSH1 0xC ADD SLOAD PUSH1 0x1 PUSH1 0x1 PUSH1 0xA0 SHL SUB AND CALLER EQ PUSH2 0x8C1 JUMPI PUSH1 0x40 MLOAD PUSH3 0x461BCD PUSH1 0xE5 SHL DUP2 MSTORE PUSH1 0x20 PUSH1 0x4 DUP3 ADD MSTORE PUSH1 0x1F PUSH1 0x24 DUP3 ADD MSTORE PUSH32 0x4F6E6C792063757272656E74206F776E65722063616E207472616E7366657200 PUSH1 0x44 DUP3 ADD MSTORE PUSH1 0x64 ADD JUMPDEST PUSH1 0x40 MLOAD DUP1 SWAP2 SUB SWAP1 REVERT JUMPDEST PUSH0 DUP3 DUP2 MSTORE PUSH1 0x2 PUSH1 0x20 SWAP1 DUP2 MSTORE PUSH1 0x40 DUP1 DUP4 KECCAK256 PUSH1 0xC ADD DUP1 SLOAD PUSH1 0x1 PUSH1 0x1 PUSH1 0xA0 SHL SUB DUP7 DUP2 AND PUSH1 0x1 PUSH1 0x1 PUSH1 0xA0 SHL SUB NOT DUP4 AND OR SWAP1 SWAP3 SSTORE AND DUP1 DUP5 MSTORE PUSH1 0x3 SWAP1 SWAP3 MSTORE DUP3 KECCAK256 SWAP1 SWAP2 JUMPDEST DUP2 SLOAD DUP2 LT ISZERO PUSH2 0x99F JUMPI DUP5 DUP3 DUP3 DUP2 SLOAD DUP2 LT PUSH2 0x91A JUMPI PUSH2 0x91A PUSH2 0x1C28 JUMP JUMPDEST SWAP1 PUSH0 MSTORE PUSH1 0x20 PUSH0 KECCAK256 ADD SLOAD SUB PUSH2 0x997 JUMPI DUP2 SLOAD DUP3 SWAP1 PUSH2 0x938 SWAP1 PUSH1 0x1 SWAP1 PUSH2 0x1C50 JUMP JUMPDEST DUP2 SLOAD DUP2 LT PUSH2 0x948 JUMPI PUSH2 0x948 PUSH2 0x1C28 JUMP JUMPDEST SWAP1 PUSH0 MSTORE PUSH1 0x20 PUSH0 KECCAK256 ADD SLOAD DUP3 DUP3 DUP2 SLOAD DUP2 LT PUSH2 0x963 JUMPI PUSH2 0x963 PUSH2 0x1C28 JUMP JUMPDEST SWAP1 PUSH0 MSTORE PUSH1 0x20 PUSH0 KECCAK256 ADD DUP2 SWAP1 SSTORE POP DUP2 DUP1 SLOAD DUP1 PUSH2 0x97F JUMPI PUSH2 0x97F PUSH2 0x1C63 JUMP JUMPDEST PUSH1 0x1 SWAP1 SUB DUP2 DUP2 SWAP1 PUSH0 MSTORE PUSH1 0x20 PUSH0 KECCAK256 ADD PUSH0 SWAP1 SSTORE SWAP1 SSTORE PUSH2 0x99F JUMP JUMPDEST PUSH1 0x1 ADD PUSH2 0x8FE JUMP JUMPDEST POP PUSH1 0x1 PUSH1 0x1 PUSH1 0xA0 SHL SUB DUP4 DUP2 AND PUSH0 DUP2 DUP2 MSTORE PUSH1 0x3 PUSH1 0x20 SWAP1 DUP2 MSTORE PUSH1 0x40 DUP1 DUP4 KECCAK256 DUP1 SLOAD PUSH1 0x1 DUP2 ADD DUP3 SSTORE SWAP1 DUP5 MSTORE SWAP3 DUP3 SWAP1 KECCAK256 SWAP1 SWAP3 ADD DUP9 SWAP1 SSTORE DUP2 MLOAD DUP9 DUP2 MSTORE SWAP4 DUP7 AND SWAP1 DUP5 ADD MSTORE DUP3 ADD MSTORE PUSH32 0x16B85F49BF01212961345D3016C9A531894ACCF62EB7680F2045D79185CC0EC0 SWAP1 PUSH1 0x60 ADD PUSH1 0x40 MLOAD DUP1 SWAP2 SUB SWAP1 LOG1 POP POP POP POP JUMP JUMPDEST PUSH0 DUP3 DUP2 MSTORE PUSH1 0x20 DUP2 SWAP1 MSTORE PUSH1 0x40 SWAP1 KECCAK256 PUSH1 0x1 ADD SLOAD PUSH2 0xA2C DUP2 PUSH2 0x15D3 JUMP JUMPDEST PUSH2 0xA36 DUP4 DUP4 PUSH2 0x15E0 JUMP JUMPDEST POP POP POP POP JUMP JUMPDEST PUSH1 0x1 PUSH1 0x1 PUSH1 0xA0 SHL SUB DUP2 AND CALLER EQ PUSH2 0xA65 JUMPI PUSH1 0x40 MLOAD PUSH4 0x334BD919 PUSH1 0xE1 SHL DUP2 MSTORE PUSH1 0x4 ADD PUSH1 0x40 MLOAD DUP1 SWAP2 SUB SWAP1 REVERT JUMPDEST PUSH2 0xA6F DUP3 DUP3 PUSH2 0x166F JUMP JUMPDEST POP POP POP JUMP JUMPDEST PUSH1 0x2 PUSH1 0x20 DUP2 DUP2 MSTORE PUSH0 SWAP3 DUP4 MSTORE PUSH1 0x40 SWAP3 DUP4 SWAP1 KECCAK256 DUP4 MLOAD PUSH1 0x60 DUP1 DUP3 ADD DUP7 MSTORE DUP3 SLOAD DUP3 MSTORE PUSH1 0x1 DUP4 ADD SLOAD DUP3 DUP6 ADD MSTORE SWAP4 DUP3 ADD SLOAD DUP2 DUP7 ADD MSTORE DUP5 MLOAD SWAP4 DUP5 ADD SWAP1 SWAP5 MSTORE PUSH1 0x3 DUP2 ADD DUP1 SLOAD PUSH1 0x1 PUSH1 0x1 PUSH1 0xA0 SHL SUB AND DUP5 MSTORE PUSH1 0x4 DUP3 ADD DUP1 SLOAD SWAP3 SWAP5 SWAP4 SWAP2 SWAP3 SWAP2 DUP5 ADD SWAP2 PUSH2 0xAD4 SWAP1 PUSH2 0x1BF0 JUMP JUMPDEST DUP1 PUSH1 0x1F ADD PUSH1 0x20 DUP1 SWAP2 DIV MUL PUSH1 0x20 ADD PUSH1 0x40 MLOAD SWAP1 DUP2 ADD PUSH1 0x40 MSTORE DUP1 SWAP3 SWAP2 SWAP1 DUP2 DUP2 MSTORE PUSH1 0x20 ADD DUP3 DUP1 SLOAD PUSH2 0xB00 SWAP1 PUSH2 0x1BF0 JUMP JUMPDEST DUP1 ISZERO PUSH2 0xB4B JUMPI DUP1 PUSH1 0x1F LT PUSH2 0xB22 JUMPI PUSH2 0x100 DUP1 DUP4 SLOAD DIV MUL DUP4 MSTORE SWAP2 PUSH1 0x20 ADD SWAP2 PUSH2 0xB4B JUMP JUMPDEST DUP3 ADD SWAP2 SWAP1 PUSH0 MSTORE PUSH1 0x20 PUSH0 KECCAK256 SWAP1 JUMPDEST DUP2 SLOAD DUP2 MSTORE SWAP1 PUSH1 0x1 ADD SWAP1 PUSH1 0x20 ADD DUP1 DUP4 GT PUSH2 0xB2E JUMPI DUP3 SWAP1 SUB PUSH1 0x1F AND DUP3 ADD SWAP2 JUMPDEST POP POP POP POP POP DUP2 MSTORE PUSH1 0x20 ADD PUSH1 0x2 DUP3 ADD DUP1 SLOAD PUSH2 0xB64 SWAP1 PUSH2 0x1BF0 JUMP JUMPDEST DUP1 PUSH1 0x1F ADD PUSH1 0x20 DUP1 SWAP2 DIV MUL PUSH1 0x20 ADD PUSH1 0x40 MLOAD SWAP1 DUP2 ADD PUSH1 0x40 MSTORE DUP1 SWAP3 SWAP2 SWAP1 DUP2 DUP2 MSTORE PUSH1 0x20 ADD DUP3 DUP1 SLOAD PUSH2 0xB90 SWAP1 PUSH2 0x1BF0 JUMP JUMPDEST DUP1 ISZERO PUSH2 0xBDB JUMPI DUP1 PUSH1 0x1F LT PUSH2 0xBB2 JUMPI PUSH2 0x100 DUP1 DUP4 SLOAD DIV MUL DUP4 MSTORE SWAP2 PUSH1 0x20 ADD SWAP2 PUSH2 0xBDB JUMP JUMPDEST DUP3 ADD SWAP2 SWAP1 PUSH0 MSTORE PUSH1 0x20 PUSH0 KECCAK256 SWAP1 JUMPDEST DUP2 SLOAD DUP2 MSTORE SWAP1 PUSH1 0x1 ADD SWAP1 PUSH1 0x20 ADD DUP1 DUP4 GT PUSH2 0xBBE JUMPI DUP3 SWAP1 SUB PUSH1 0x1F AND DUP3 ADD SWAP2 JUMPDEST POP POP POP SWAP2 SWAP1 SWAP3 MSTORE POP POP PUSH1 0x40 DUP1 MLOAD PUSH1 0x60 DUP2 ADD SWAP1 SWAP2 MSTORE PUSH1 0x6 DUP5 ADD DUP1 SLOAD PUSH1 0x1 PUSH1 0x1 PUSH1 0xA0 SHL SUB AND DUP3 MSTORE PUSH1 0x7 DUP6 ADD DUP1 SLOAD SWAP5 SWAP6 SWAP5 SWAP3 SWAP4 POP SWAP1 SWAP2 PUSH1 0x20 DUP5 ADD SWAP2 SWAP1 PUSH2 0xC1D SWAP1 PUSH2 0x1BF0 JUMP JUMPDEST DUP1 PUSH1 0x1F ADD PUSH1 0x20 DUP1 SWAP2 DIV MUL PUSH1 0x20 ADD PUSH1 0x40 MLOAD SWAP1 DUP2 ADD PUSH1 0x40 MSTORE DUP1 SWAP3 SWAP2 SWAP1 DUP2 DUP2 MSTORE PUSH1 0x20 ADD DUP3 DUP1 SLOAD PUSH2 0xC49 SWAP1 PUSH2 0x1BF0 JUMP JUMPDEST DUP1 ISZERO PUSH2 0xC94 JUMPI DUP1 PUSH1 0x1F LT PUSH2 0xC6B JUMPI PUSH2 0x100 DUP1 DUP4 SLOAD DIV MUL DUP4 MSTORE SWAP2 PUSH1 0x20 ADD SWAP2 PUSH2 0xC94 JUMP JUMPDEST DUP3 ADD SWAP2 SWAP1 PUSH0 MSTORE PUSH1 0x20 PUSH0 KECCAK256 SWAP1 JUMPDEST DUP2 SLOAD DUP2 MSTORE SWAP1 PUSH1 0x1 ADD SWAP1 PUSH1 0x20 ADD DUP1 DUP4 GT PUSH2 0xC77 JUMPI DUP3 SWAP1 SUB PUSH1 0x1F AND DUP3 ADD SWAP2 JUMPDEST POP POP POP POP POP DUP2 MSTORE PUSH1 0x20 ADD PUSH1 0x2 DUP3 ADD DUP1 SLOAD PUSH2 0xCAD SWAP1 PUSH2 0x1BF0 JUMP JUMPDEST DUP1 PUSH1 0x1F ADD PUSH1 0x20 DUP1 SWAP2 DIV MUL PUSH1 0x20 ADD PUSH1 0x40 MLOAD SWAP1 DUP2 ADD PUSH1 0x40 MSTORE DUP1 SWAP3 SWAP2 SWAP1 DUP2 DUP2 MSTORE PUSH1 0x20 ADD DUP3 DUP1 SLOAD PUSH2 0xCD9 SWAP1 PUSH2 0x1BF0 JUMP JUMPDEST DUP1 ISZERO PUSH2 0xD24 JUMPI DUP1 PUSH1 0x1F LT PUSH2 0xCFB JUMPI PUSH2 0x100 DUP1 DUP4 SLOAD DIV MUL DUP4 MSTORE SWAP2 PUSH1 0x20 ADD SWAP2 PUSH2 0xD24 JUMP JUMPDEST DUP3 ADD SWAP2 SWAP1 PUSH0 MSTORE PUSH1 0x20 PUSH0 KECCAK256 SWAP1 JUMPDEST DUP2 SLOAD DUP2 MSTORE SWAP1 PUSH1 0x1 ADD SWAP1 PUSH1 0x20 ADD DUP1 DUP4 GT PUSH2 0xD07 JUMPI DUP3 SWAP1 SUB PUSH1 0x1F AND DUP3 ADD SWAP2 JUMPDEST POP POP POP SWAP2 SWAP1 SWAP3 MSTORE POP POP PUSH1 0x40 DUP1 MLOAD PUSH1 0x60 DUP2 ADD SWAP1 SWAP2 MSTORE PUSH1 0x9 DUP5 ADD DUP1 SLOAD PUSH1 0x1 PUSH1 0x1 PUSH1 0xA0 SHL SUB AND DUP3 MSTORE PUSH1 0xA DUP6 ADD DUP1 SLOAD SWAP5 SWAP6 SWAP5 SWAP3 SWAP4 POP SWAP1 SWAP2 PUSH1 0x20 DUP5 ADD SWAP2 SWAP1 PUSH2 0xD66 SWAP1 PUSH2 0x1BF0 JUMP JUMPDEST DUP1 PUSH1 0x1F ADD PUSH1 0x20 DUP1 SWAP2 DIV MUL PUSH1 0x20 ADD PUSH1 0x40 MLOAD SWAP1 DUP2 ADD PUSH1 0x40 MSTORE DUP1 SWAP3 SWAP2 SWAP1 DUP2 DUP2 MSTORE PUSH1 0x20 ADD DUP3 DUP1 SLOAD PUSH2 0xD92 SWAP1 PUSH2 0x1BF0 JUMP JUMPDEST DUP1 ISZERO PUSH2 0xDDD JUMPI DUP1 PUSH1 0x1F LT PUSH2 0xDB4 JUMPI PUSH2 0x100 DUP1 DUP4 SLOAD DIV MUL DUP4 MSTORE SWAP2 PUSH1 0x20 ADD SWAP2 PUSH2 0xDDD JUMP JUMPDEST DUP3 ADD SWAP2 SWAP1 PUSH0 MSTORE PUSH1 0x20 PUSH0 KECCAK256 SWAP1 JUMPDEST DUP2 SLOAD DUP2 MSTORE SWAP1 PUSH1 0x1 ADD SWAP1 PUSH1 0x20 ADD DUP1 DUP4 GT PUSH2 0xDC0 JUMPI DUP3 SWAP1 SUB PUSH1 0x1F AND DUP3 ADD SWAP2 JUMPDEST POP POP POP POP POP DUP2 MSTORE PUSH1 0x20 ADD PUSH1 0x2 DUP3 ADD DUP1 SLOAD PUSH2 0xDF6 SWAP1 PUSH2 0x1BF0 JUMP JUMPDEST DUP1 PUSH1 0x1F ADD PUSH1 0x20 DUP1 SWAP2 DIV MUL PUSH1 0x20 ADD PUSH1 0x40 MLOAD SWAP1 DUP2 ADD PUSH1 0x40 MSTORE DUP1 SWAP3 SWAP2 SWAP1 DUP2 DUP2 MSTORE PUSH1 0x20 ADD DUP3 DUP1 SLOAD PUSH2 0xE22 SWAP1 PUSH2 0x1BF0 JUMP JUMPDEST DUP1 ISZERO PUSH2 0xE6D JUMPI DUP1 PUSH1 0x1F LT PUSH2 0xE44 JUMPI PUSH2 0x100 DUP1 DUP4 SLOAD DIV MUL DUP4 MSTORE SWAP2 PUSH1 0x20 ADD SWAP2 PUSH2 0xE6D JUMP JUMPDEST DUP3 ADD SWAP2 SWAP1 PUSH0 MSTORE PUSH1 0x20 PUSH0 KECCAK256 SWAP1 JUMPDEST DUP2 SLOAD DUP2 MSTORE SWAP1 PUSH1 0x1 ADD SWAP1 PUSH1 0x20 ADD DUP1 DUP4 GT PUSH2 0xE50 JUMPI DUP3 SWAP1 SUB PUSH1 0x1F AND DUP3 ADD SWAP2 JUMPDEST POP POP POP SWAP2 SWAP1 SWAP3 MSTORE POP POP POP PUSH1 0xC SWAP1 SWAP2 ADD SLOAD PUSH1 0x1 PUSH1 0x1 PUSH1 0xA0 SHL SUB AND DUP6 JUMP JUMPDEST PUSH0 PUSH2 0xE93 DUP2 PUSH2 0x15D3 JUMP JUMPDEST PUSH2 0xEBD PUSH32 0x273DCF2136C7D8EF632BB8EF13DBCA69A8F36FA620C7468671B3153D46A211C0 DUP4 PUSH2 0xA12 JUMP JUMPDEST POP POP JUMP JUMPDEST PUSH32 0xDDAA901E2FE3BDA354FE0EDE2785152D5C109282A613FE024A056A3E66C41BB3 PUSH2 0xEEB DUP2 PUSH2 0x15D3 JUMP JUMPDEST PUSH0 DUP6 DUP2 MSTORE PUSH1 0x2 PUSH1 0x20 MSTORE PUSH1 0x40 SWAP1 KECCAK256 PUSH1 0xC ADD SLOAD PUSH1 0x1 PUSH1 0x1 PUSH1 0xA0 SHL SUB AND CALLER EQ PUSH2 0xF53 JUMPI PUSH1 0x40 MLOAD PUSH3 0x461BCD PUSH1 0xE5 SHL DUP2 MSTORE PUSH1 0x20 PUSH1 0x4 DUP3 ADD MSTORE PUSH1 0x1D PUSH1 0x24 DUP3 ADD MSTORE PUSH32 0x4F6E6C792063757272656E74206F776E65722063616E20757064617465000000 PUSH1 0x44 DUP3 ADD MSTORE PUSH1 0x64 ADD PUSH2 0x8B8 JUMP JUMPDEST PUSH0 DUP6 DUP2 MSTORE PUSH1 0x2 PUSH1 0x20 MSTORE PUSH1 0x40 SWAP1 KECCAK256 PUSH1 0x3 DUP2 ADD SWAP1 PUSH1 0x4 ADD PUSH2 0xF72 DUP7 DUP3 PUSH2 0x1CC2 JUMP JUMPDEST POP PUSH1 0x2 DUP2 ADD PUSH2 0xF81 DUP6 DUP3 PUSH2 0x1CC2 JUMP JUMPDEST POP DUP1 SLOAD PUSH1 0x1 PUSH1 0x1 PUSH1 0xA0 SHL SUB NOT AND CALLER OR DUP2 SSTORE PUSH0 PUSH1 0x1 PUSH1 0x1 PUSH1 0xA0 SHL SUB DUP5 AND PUSH2 0xFC0 JUMPI PUSH0 DUP8 DUP2 MSTORE PUSH1 0x2 PUSH1 0x20 MSTORE PUSH1 0x40 SWAP1 KECCAK256 PUSH1 0xC ADD SLOAD PUSH1 0x1 PUSH1 0x1 PUSH1 0xA0 SHL SUB AND PUSH2 0xFC2 JUMP JUMPDEST DUP4 JUMPDEST SWAP1 POP PUSH32 0x4EA766B3BD9E7C93B3E34A817A346F1F50F27FACB4DF941FA10747A5BFC92134 DUP8 DUP8 DUP8 DUP5 PUSH1 0x40 MLOAD PUSH2 0xFF9 SWAP5 SWAP4 SWAP3 SWAP2 SWAP1 PUSH2 0x1D7D JUMP JUMPDEST PUSH1 0x40 MLOAD DUP1 SWAP2 SUB SWAP1 LOG1 PUSH1 0x1 PUSH1 0x1 PUSH1 0xA0 SHL SUB DUP5 AND ISZERO PUSH2 0x101A JUMPI PUSH2 0x101A DUP8 DUP6 PUSH2 0x854 JUMP JUMPDEST POP POP POP POP POP POP POP JUMP JUMPDEST PUSH0 PUSH2 0x102D DUP2 PUSH2 0x15D3 JUMP JUMPDEST PUSH2 0xEBD PUSH32 0x7C6181838A71A779E445600D4C6ECBE16BACF2B3C5BDA69C29FADA66D1B645D1 DUP4 PUSH2 0xA12 JUMP JUMPDEST PUSH32 0x273DCF2136C7D8EF632BB8EF13DBCA69A8F36FA620C7468671B3153D46A211C0 PUSH2 0x1081 DUP2 PUSH2 0x15D3 JUMP JUMPDEST PUSH0 DUP6 DUP2 MSTORE PUSH1 0x2 PUSH1 0x20 MSTORE PUSH1 0x40 SWAP1 KECCAK256 PUSH1 0x6 DUP2 ADD SWAP1 PUSH1 0x7 ADD PUSH2 0x10A0 DUP7 DUP3 PUSH2 0x1CC2 JUMP JUMPDEST POP PUSH1 0x2 DUP2 ADD PUSH2 0x10AF DUP6 DUP3 PUSH2 0x1CC2 JUMP JUMPDEST POP DUP1 SLOAD PUSH1 0x1 PUSH1 0x1 PUSH1 0xA0 SHL SUB NOT AND CALLER OR DUP2 SSTORE PUSH0 PUSH1 0x1 PUSH1 0x1 PUSH1 0xA0 SHL SUB DUP5 AND PUSH2 0x10EE JUMPI PUSH0 DUP8 DUP2 MSTORE PUSH1 0x2 PUSH1 0x20 MSTORE PUSH1 0x40 SWAP1 KECCAK256 PUSH1 0xC ADD SLOAD PUSH1 0x1 PUSH1 0x1 PUSH1 0xA0 SHL SUB AND PUSH2 0x10F0 JUMP JUMPDEST DUP4 JUMPDEST SWAP1 POP PUSH32 0xFFE7DA8CD425DBB269909E7DEFC11396E896F2DBA686BA28D711F4DB1CFF02FE DUP8 DUP8 DUP8 DUP5 PUSH1 0x40 MLOAD PUSH2 0xFF9 SWAP5 SWAP4 SWAP3 SWAP2 SWAP1 PUSH2 0x1D7D JUMP JUMPDEST PUSH0 PUSH2 0x1131 DUP2 PUSH2 0x15D3 JUMP JUMPDEST PUSH2 0xEBD PUSH32 0x2A5F906C256A5D799494FCD066E1F6C077689DE1CDB65052A1624DE4BACE99BF DUP4 PUSH2 0xA12 JUMP JUMPDEST CALLER PUSH0 SWAP1 DUP2 MSTORE PUSH1 0x3 PUSH1 0x20 SWAP1 DUP2 MSTORE PUSH1 0x40 SWAP2 DUP3 SWAP1 KECCAK256 DUP1 SLOAD DUP4 MLOAD DUP2 DUP5 MUL DUP2 ADD DUP5 ADD SWAP1 SWAP5 MSTORE DUP1 DUP5 MSTORE PUSH1 0x60 SWAP4 SWAP3 DUP4 ADD DUP3 DUP3 DUP1 ISZERO PUSH2 0x11AF JUMPI PUSH1 0x20 MUL DUP3 ADD SWAP2 SWAP1 PUSH0 MSTORE PUSH1 0x20 PUSH0 KECCAK256 SWAP1 JUMPDEST DUP2 SLOAD DUP2 MSTORE PUSH1 0x20 ADD SWAP1 PUSH1 0x1 ADD SWAP1 DUP1 DUP4 GT PUSH2 0x119B JUMPI JUMPDEST POP POP POP POP POP SWAP1 POP SWAP1 JUMP JUMPDEST PUSH0 SWAP2 DUP3 MSTORE PUSH1 0x20 DUP3 DUP2 MSTORE PUSH1 0x40 DUP1 DUP5 KECCAK256 PUSH1 0x1 PUSH1 0x1 PUSH1 0xA0 SHL SUB SWAP4 SWAP1 SWAP4 AND DUP5 MSTORE SWAP2 SWAP1 MSTORE SWAP1 KECCAK256 SLOAD PUSH1 0xFF AND SWAP1 JUMP JUMPDEST PUSH0 DUP2 DUP2 MSTORE PUSH1 0x2 PUSH1 0x20 DUP2 SWAP1 MSTORE PUSH1 0x40 DUP3 KECCAK256 DUP1 SLOAD SWAP2 DUP2 ADD SLOAD PUSH1 0x8 DUP3 ADD DUP1 SLOAD DUP6 SWAP5 DUP6 SWAP5 PUSH1 0x60 SWAP5 SWAP1 SWAP4 DUP10 SWAP4 DUP2 SWAP1 PUSH2 0x1212 SWAP1 PUSH2 0x1BF0 JUMP JUMPDEST DUP1 PUSH1 0x1F ADD PUSH1 0x20 DUP1 SWAP2 DIV MUL PUSH1 0x20 ADD PUSH1 0x40 MLOAD SWAP1 DUP2 ADD PUSH1 0x40 MSTORE DUP1 SWAP3 SWAP2 SWAP1 DUP2 DUP2 MSTORE PUSH1 0x20 ADD DUP3 DUP1 SLOAD PUSH2 0x123E SWAP1 PUSH2 0x1BF0 JUMP JUMPDEST DUP1 ISZERO PUSH2 0x1289 JUMPI DUP1 PUSH1 0x1F LT PUSH2 0x1260 JUMPI PUSH2 0x100 DUP1 DUP4 SLOAD DIV MUL DUP4 MSTORE SWAP2 PUSH1 0x20 ADD SWAP2 PUSH2 0x1289 JUMP JUMPDEST DUP3 ADD SWAP2 SWAP1 PUSH0 MSTORE PUSH1 0x20 PUSH0 KECCAK256 SWAP1 JUMPDEST DUP2 SLOAD DUP2 MSTORE SWAP1 PUSH1 0x1 ADD SWAP1 PUSH1 0x20 ADD DUP1 DUP4 GT PUSH2 0x126C JUMPI DUP3 SWAP1 SUB PUSH1 0x1F AND DUP3 ADD SWAP2 JUMPDEST POP POP POP POP POP SWAP1 POP SWAP5 POP SWAP5 POP SWAP5 POP SWAP5 POP POP SWAP2 SWAP4 POP SWAP2 SWAP4 JUMP JUMPDEST PUSH0 PUSH32 0x7C6181838A71A779E445600D4C6ECBE16BACF2B3C5BDA69C29FADA66D1B645D1 PUSH2 0x12CB DUP2 PUSH2 0x15D3 JUMP JUMPDEST PUSH1 0x1 DUP1 SLOAD SWAP1 PUSH0 PUSH2 0x12DA DUP4 PUSH2 0x1DC1 JUMP JUMPDEST SWAP1 SWAP2 SSTORE POP POP PUSH1 0x1 DUP1 SLOAD PUSH0 SWAP1 DUP2 MSTORE PUSH1 0x2 PUSH1 0x20 DUP2 DUP2 MSTORE PUSH1 0x40 SWAP3 DUP4 SWAP1 KECCAK256 DUP4 MLOAD PUSH1 0x60 DUP2 ADD DUP6 MSTORE TIMESTAMP DUP1 DUP3 MSTORE DUP2 DUP5 ADD DUP13 SWAP1 MSTORE SWAP1 DUP6 ADD DUP11 SWAP1 MSTORE DUP2 SSTORE SWAP4 DUP5 ADD DUP10 SWAP1 SSTORE SWAP1 DUP4 ADD DUP8 SWAP1 SSTORE DUP2 MLOAD DUP1 DUP4 ADD SWAP1 SWAP3 MSTORE PUSH1 0xB DUP3 MSTORE PUSH11 0x139BDD0814DD185C9D1959 PUSH1 0xAA SHL SWAP1 DUP3 ADD MSTORE PUSH1 0x4 DUP3 ADD SWAP1 PUSH2 0x1348 SWAP1 DUP3 PUSH2 0x1CC2 JUMP JUMPDEST POP PUSH1 0x40 DUP1 MLOAD DUP1 DUP3 ADD SWAP1 SWAP2 MSTORE PUSH1 0xD DUP2 MSTORE PUSH13 0x139BDD08125B9CDC1958DD1959 PUSH1 0x9A SHL PUSH1 0x20 DUP3 ADD MSTORE PUSH1 0x7 DUP3 ADD SWAP1 PUSH2 0x137C SWAP1 DUP3 PUSH2 0x1CC2 JUMP JUMPDEST POP PUSH1 0x40 DUP1 MLOAD DUP1 DUP3 ADD SWAP1 SWAP2 MSTORE PUSH1 0xC DUP2 MSTORE PUSH12 0x139BDD08149958D95A5D9959 PUSH1 0xA2 SHL PUSH1 0x20 DUP3 ADD MSTORE PUSH1 0xA DUP3 ADD SWAP1 PUSH2 0x13AF SWAP1 DUP3 PUSH2 0x1CC2 JUMP JUMPDEST POP PUSH1 0xC DUP2 ADD DUP1 SLOAD PUSH1 0x1 PUSH1 0x1 PUSH1 0xA0 SHL SUB NOT AND CALLER SWAP1 DUP2 OR SWAP1 SWAP2 SSTORE PUSH0 DUP2 DUP2 MSTORE PUSH1 0x3 PUSH1 0x20 SWAP1 DUP2 MSTORE PUSH1 0x40 DUP1 DUP4 KECCAK256 PUSH1 0x1 DUP1 SLOAD DUP3 SLOAD DUP1 DUP4 ADD DUP5 SSTORE SWAP3 DUP7 MSTORE SWAP5 DUP5 SWAP1 KECCAK256 SWAP1 SWAP2 ADD SWAP4 SWAP1 SWAP4 SSTORE SWAP2 SLOAD DUP3 MLOAD TIMESTAMP DUP2 MSTORE SWAP2 DUP3 ADD DUP11 SWAP1 MSTORE SWAP2 DUP2 ADD DUP9 SWAP1 MSTORE PUSH1 0x1 PUSH1 0x1 PUSH1 0xA0 SHL SUB DUP8 AND PUSH1 0x60 DUP3 ADD MSTORE PUSH32 0x167D4490114704A52FFF91FD9E2B0410E6472A338563551876CD1D2B72A98DC6 SWAP1 PUSH1 0x80 ADD PUSH1 0x40 MLOAD DUP1 SWAP2 SUB SWAP1 LOG3 PUSH1 0x1 PUSH1 0x1 PUSH1 0xA0 SHL SUB DUP5 AND ISZERO PUSH2 0x145A JUMPI PUSH2 0x145A PUSH1 0x1 SLOAD DUP6 PUSH2 0x854 JUMP JUMPDEST POP POP PUSH1 0x1 SLOAD SWAP5 SWAP4 POP POP POP POP JUMP JUMPDEST PUSH0 PUSH2 0x1471 DUP2 PUSH2 0x15D3 JUMP JUMPDEST PUSH2 0xEBD PUSH32 0xDDAA901E2FE3BDA354FE0EDE2785152D5C109282A613FE024A056A3E66C41BB3 DUP4 PUSH2 0xA12 JUMP JUMPDEST PUSH0 DUP3 DUP2 MSTORE PUSH1 0x20 DUP2 SWAP1 MSTORE PUSH1 0x40 SWAP1 KECCAK256 PUSH1 0x1 ADD SLOAD PUSH2 0x14B5 DUP2 PUSH2 0x15D3 JUMP JUMPDEST PUSH2 0xA36 DUP4 DUP4 PUSH2 0x166F JUMP JUMPDEST PUSH32 0x2A5F906C256A5D799494FCD066E1F6C077689DE1CDB65052A1624DE4BACE99BF PUSH2 0x14E9 DUP2 PUSH2 0x15D3 JUMP JUMPDEST PUSH0 DUP5 DUP2 MSTORE PUSH1 0x2 PUSH1 0x20 MSTORE PUSH1 0x40 SWAP1 KECCAK256 PUSH1 0xC ADD SLOAD PUSH1 0x1 PUSH1 0x1 PUSH1 0xA0 SHL SUB AND CALLER EQ PUSH2 0x1551 JUMPI PUSH1 0x40 MLOAD PUSH3 0x461BCD PUSH1 0xE5 SHL DUP2 MSTORE PUSH1 0x20 PUSH1 0x4 DUP3 ADD MSTORE PUSH1 0x1D PUSH1 0x24 DUP3 ADD MSTORE PUSH32 0x4F6E6C792063757272656E74206F776E65722063616E20757064617465000000 PUSH1 0x44 DUP3 ADD MSTORE PUSH1 0x64 ADD PUSH2 0x8B8 JUMP JUMPDEST PUSH0 DUP5 DUP2 MSTORE PUSH1 0x2 PUSH1 0x20 MSTORE PUSH1 0x40 SWAP1 KECCAK256 PUSH1 0x9 DUP2 ADD SWAP1 PUSH1 0xA ADD PUSH2 0x1570 DUP6 DUP3 PUSH2 0x1CC2 JUMP JUMPDEST POP PUSH1 0x2 DUP2 ADD PUSH2 0x157F DUP5 DUP3 PUSH2 0x1CC2 JUMP JUMPDEST POP DUP1 SLOAD PUSH1 0x1 PUSH1 0x1 PUSH1 0xA0 SHL SUB NOT AND CALLER OR DUP2 SSTORE PUSH1 0x40 MLOAD PUSH32 0x1709AFB7F48585816A5B8DA1F6F52317A1B01989A29D8C9E39F14CCEAF987A1C SWAP1 PUSH2 0x15C4 SWAP1 DUP8 SWAP1 DUP8 SWAP1 DUP8 SWAP1 PUSH2 0x1DD9 JUMP JUMPDEST PUSH1 0x40 MLOAD DUP1 SWAP2 SUB SWAP1 LOG1 POP POP POP POP POP JUMP JUMPDEST PUSH2 0x15DD DUP2 CALLER PUSH2 0x16D8 JUMP JUMPDEST POP JUMP JUMPDEST PUSH0 PUSH2 0x15EB DUP4 DUP4 PUSH2 0x11B9 JUMP JUMPDEST PUSH2 0x1668 JUMPI PUSH0 DUP4 DUP2 MSTORE PUSH1 0x20 DUP2 DUP2 MSTORE PUSH1 0x40 DUP1 DUP4 KECCAK256 PUSH1 0x1 PUSH1 0x1 PUSH1 0xA0 SHL SUB DUP7 AND DUP5 MSTORE SWAP1 SWAP2 MSTORE SWAP1 KECCAK256 DUP1 SLOAD PUSH1 0xFF NOT AND PUSH1 0x1 OR SWAP1 SSTORE PUSH2 0x1620 CALLER SWAP1 JUMP JUMPDEST PUSH1 0x1 PUSH1 0x1 PUSH1 0xA0 SHL SUB AND DUP3 PUSH1 0x1 PUSH1 0x1 PUSH1 0xA0 SHL SUB AND DUP5 PUSH32 0x2F8788117E7EFF1D82E926EC794901D17C78024A50270940304540A733656F0D PUSH1 0x40 MLOAD PUSH1 0x40 MLOAD DUP1 SWAP2 SUB SWAP1 LOG4 POP PUSH1 0x1 PUSH2 0x419 JUMP JUMPDEST POP PUSH0 PUSH2 0x419 JUMP JUMPDEST PUSH0 PUSH2 0x167A DUP4 DUP4 PUSH2 0x11B9 JUMP JUMPDEST ISZERO PUSH2 0x1668 JUMPI PUSH0 DUP4 DUP2 MSTORE PUSH1 0x20 DUP2 DUP2 MSTORE PUSH1 0x40 DUP1 DUP4 KECCAK256 PUSH1 0x1 PUSH1 0x1 PUSH1 0xA0 SHL SUB DUP7 AND DUP1 DUP6 MSTORE SWAP3 MSTORE DUP1 DUP4 KECCAK256 DUP1 SLOAD PUSH1 0xFF NOT AND SWAP1 SSTORE MLOAD CALLER SWAP3 DUP7 SWAP2 PUSH32 0xF6391F5C32D9C69D2A47EA670B442974B53935D1EDC7FD64EB21E047A839171B SWAP2 SWAP1 LOG4 POP PUSH1 0x1 PUSH2 0x419 JUMP JUMPDEST PUSH2 0x16E2 DUP3 DUP3 PUSH2 0x11B9 JUMP JUMPDEST PUSH2 0xEBD JUMPI PUSH1 0x40 MLOAD PUSH4 0xE2517D3F PUSH1 0xE0 SHL DUP2 MSTORE PUSH1 0x1 PUSH1 0x1 PUSH1 0xA0 SHL SUB DUP3 AND PUSH1 0x4 DUP3 ADD MSTORE PUSH1 0x24 DUP2 ADD DUP4 SWAP1 MSTORE PUSH1 0x44 ADD PUSH2 0x8B8 JUMP JUMPDEST PUSH1 0x40 MLOAD DUP1 PUSH1 0xA0 ADD PUSH1 0x40 MSTORE DUP1 PUSH2 0x173D PUSH1 0x40 MLOAD DUP1 PUSH1 0x60 ADD PUSH1 0x40 MSTORE DUP1 PUSH0 DUP2 MSTORE PUSH1 0x20 ADD PUSH0 DUP2 MSTORE PUSH1 0x20 ADD PUSH0 DUP2 MSTORE POP SWAP1 JUMP JUMPDEST DUP2 MSTORE PUSH1 0x40 DUP1 MLOAD PUSH1 0x60 DUP1 DUP3 ADD DUP4 MSTORE PUSH0 DUP1 DUP4 MSTORE PUSH1 0x20 DUP1 DUP5 ADD DUP4 SWAP1 MSTORE DUP4 DUP6 ADD DUP4 SWAP1 MSTORE DUP1 DUP7 ADD SWAP4 SWAP1 SWAP4 MSTORE DUP4 MLOAD DUP1 DUP4 ADD DUP6 MSTORE DUP2 DUP2 MSTORE DUP1 DUP5 ADD DUP4 SWAP1 MSTORE DUP1 DUP6 ADD DUP4 SWAP1 MSTORE DUP5 DUP7 ADD MSTORE DUP4 MLOAD DUP1 DUP4 ADD DUP6 MSTORE DUP2 DUP2 MSTORE SWAP3 DUP4 ADD DUP3 SWAP1 MSTORE SWAP3 DUP3 ADD DUP2 SWAP1 MSTORE DUP4 ADD MSTORE PUSH1 0x80 SWAP1 SWAP2 ADD MSTORE SWAP1 JUMP JUMPDEST PUSH0 PUSH1 0x20 DUP3 DUP5 SUB SLT ISZERO PUSH2 0x17AF JUMPI PUSH0 DUP1 REVERT JUMPDEST DUP2 CALLDATALOAD PUSH1 0x1 PUSH1 0x1 PUSH1 0xE0 SHL SUB NOT DUP2 AND DUP2 EQ PUSH2 0x17C6 JUMPI PUSH0 DUP1 REVERT JUMPDEST SWAP4 SWAP3 POP POP POP JUMP JUMPDEST PUSH0 PUSH1 0x20 DUP3 DUP5 SUB SLT ISZERO PUSH2 0x17DD JUMPI PUSH0 DUP1 REVERT JUMPDEST POP CALLDATALOAD SWAP2 SWAP1 POP JUMP JUMPDEST PUSH0 DUP2 MLOAD DUP1 DUP5 MSTORE DUP1 PUSH1 0x20 DUP5 ADD PUSH1 0x20 DUP7 ADD MCOPY PUSH0 PUSH1 0x20 DUP3 DUP7 ADD ADD MSTORE PUSH1 0x20 PUSH1 0x1F NOT PUSH1 0x1F DUP4 ADD AND DUP6 ADD ADD SWAP2 POP POP SWAP3 SWAP2 POP POP JUMP JUMPDEST PUSH1 0x1 DUP1 PUSH1 0xA0 SHL SUB DUP2 MLOAD AND DUP3 MSTORE PUSH0 PUSH1 0x20 DUP3 ADD MLOAD PUSH1 0x60 PUSH1 0x20 DUP6 ADD MSTORE PUSH2 0x1838 PUSH1 0x60 DUP6 ADD DUP3 PUSH2 0x17E4 JUMP JUMPDEST SWAP1 POP PUSH1 0x40 DUP4 ADD MLOAD DUP5 DUP3 SUB PUSH1 0x40 DUP7 ADD MSTORE PUSH2 0x1851 DUP3 DUP3 PUSH2 0x17E4 JUMP JUMPDEST SWAP6 SWAP5 POP POP POP POP POP JUMP JUMPDEST PUSH1 0x20 DUP2 MSTORE PUSH2 0x1880 PUSH1 0x20 DUP3 ADD DUP4 MLOAD DUP1 MLOAD DUP3 MSTORE PUSH1 0x20 DUP1 DUP3 ADD MLOAD SWAP1 DUP4 ADD MSTORE PUSH1 0x40 SWAP1 DUP2 ADD MLOAD SWAP2 ADD MSTORE JUMP JUMPDEST PUSH0 PUSH1 0x20 DUP4 ADD MLOAD PUSH1 0xE0 PUSH1 0x80 DUP5 ADD MSTORE PUSH2 0x189B PUSH2 0x100 DUP5 ADD DUP3 PUSH2 0x1812 JUMP JUMPDEST SWAP1 POP PUSH1 0x40 DUP5 ADD MLOAD PUSH1 0x1F NOT DUP5 DUP4 SUB ADD PUSH1 0xA0 DUP6 ADD MSTORE PUSH2 0x18B8 DUP3 DUP3 PUSH2 0x1812 JUMP JUMPDEST SWAP2 POP POP PUSH1 0x60 DUP5 ADD MLOAD PUSH1 0x1F NOT DUP5 DUP4 SUB ADD PUSH1 0xC0 DUP6 ADD MSTORE PUSH2 0x18D6 DUP3 DUP3 PUSH2 0x1812 JUMP JUMPDEST PUSH1 0x80 SWAP6 SWAP1 SWAP6 ADD MLOAD PUSH1 0x1 PUSH1 0x1 PUSH1 0xA0 SHL SUB AND PUSH1 0xE0 SWAP5 SWAP1 SWAP5 ADD SWAP4 SWAP1 SWAP4 MSTORE POP SWAP2 SWAP3 SWAP2 POP POP JUMP JUMPDEST DUP1 CALLDATALOAD PUSH1 0x1 PUSH1 0x1 PUSH1 0xA0 SHL SUB DUP2 AND DUP2 EQ PUSH2 0x190E JUMPI PUSH0 DUP1 REVERT JUMPDEST SWAP2 SWAP1 POP JUMP JUMPDEST PUSH0 DUP1 PUSH1 0x40 DUP4 DUP6 SUB SLT ISZERO PUSH2 0x1924 JUMPI PUSH0 DUP1 REVERT JUMPDEST DUP3 CALLDATALOAD SWAP2 POP PUSH2 0x1934 PUSH1 0x20 DUP5 ADD PUSH2 0x18F8 JUMP JUMPDEST SWAP1 POP SWAP3 POP SWAP3 SWAP1 POP JUMP JUMPDEST DUP6 MLOAD DUP2 MSTORE PUSH1 0x20 DUP1 DUP8 ADD MLOAD SWAP1 DUP3 ADD MSTORE PUSH1 0x40 DUP1 DUP8 ADD MLOAD SWAP1 DUP3 ADD MSTORE PUSH1 0xE0 PUSH1 0x60 DUP3 ADD MSTORE PUSH0 PUSH2 0x196A PUSH1 0xE0 DUP4 ADD DUP8 PUSH2 0x1812 JUMP JUMPDEST DUP3 DUP2 SUB PUSH1 0x80 DUP5 ADD MSTORE PUSH2 0x197C DUP2 DUP8 PUSH2 0x1812 JUMP JUMPDEST SWAP1 POP DUP3 DUP2 SUB PUSH1 0xA0 DUP5 ADD MSTORE PUSH2 0x1990 DUP2 DUP7 PUSH2 0x1812 JUMP JUMPDEST SWAP2 POP POP PUSH1 0x1 DUP1 PUSH1 0xA0 SHL SUB DUP4 AND PUSH1 0xC0 DUP4 ADD MSTORE SWAP7 SWAP6 POP POP POP POP POP POP JUMP JUMPDEST PUSH0 PUSH1 0x20 DUP3 DUP5 SUB SLT ISZERO PUSH2 0x19BB JUMPI PUSH0 DUP1 REVERT JUMPDEST PUSH2 0x17C6 DUP3 PUSH2 0x18F8 JUMP JUMPDEST PUSH4 0x4E487B71 PUSH1 0xE0 SHL PUSH0 MSTORE PUSH1 0x41 PUSH1 0x4 MSTORE PUSH1 0x24 PUSH0 REVERT JUMPDEST PUSH0 DUP3 PUSH1 0x1F DUP4 ADD SLT PUSH2 0x19E7 JUMPI PUSH0 DUP1 REVERT JUMPDEST DUP2 CALLDATALOAD PUSH8 0xFFFFFFFFFFFFFFFF DUP2 GT ISZERO PUSH2 0x1A01 JUMPI PUSH2 0x1A01 PUSH2 0x19C4 JUMP JUMPDEST PUSH1 0x40 MLOAD PUSH1 0x1F DUP3 ADD PUSH1 0x1F NOT SWAP1 DUP2 AND PUSH1 0x3F ADD AND DUP2 ADD PUSH8 0xFFFFFFFFFFFFFFFF DUP2 GT DUP3 DUP3 LT OR ISZERO PUSH2 0x1A30 JUMPI PUSH2 0x1A30 PUSH2 0x19C4 JUMP JUMPDEST PUSH1 0x40 MSTORE DUP2 DUP2 MSTORE DUP4 DUP3 ADD PUSH1 0x20 ADD DUP6 LT ISZERO PUSH2 0x1A47 JUMPI PUSH0 DUP1 REVERT JUMPDEST DUP2 PUSH1 0x20 DUP6 ADD PUSH1 0x20 DUP4 ADD CALLDATACOPY PUSH0 SWAP2 DUP2 ADD PUSH1 0x20 ADD SWAP2 SWAP1 SWAP2 MSTORE SWAP4 SWAP3 POP POP POP JUMP JUMPDEST PUSH0 DUP1 PUSH0 DUP1 PUSH1 0x80 DUP6 DUP8 SUB SLT ISZERO PUSH2 0x1A76 JUMPI PUSH0 DUP1 REVERT JUMPDEST DUP5 CALLDATALOAD SWAP4 POP PUSH1 0x20 DUP6 ADD CALLDATALOAD PUSH8 0xFFFFFFFFFFFFFFFF DUP2 GT ISZERO PUSH2 0x1A93 JUMPI PUSH0 DUP1 REVERT JUMPDEST PUSH2 0x1A9F DUP8 DUP3 DUP9 ADD PUSH2 0x19D8 JUMP JUMPDEST SWAP4 POP POP PUSH1 0x40 DUP6 ADD CALLDATALOAD PUSH8 0xFFFFFFFFFFFFFFFF DUP2 GT ISZERO PUSH2 0x1ABB JUMPI PUSH0 DUP1 REVERT JUMPDEST PUSH2 0x1AC7 DUP8 DUP3 DUP9 ADD PUSH2 0x19D8 JUMP JUMPDEST SWAP3 POP POP PUSH2 0x1AD6 PUSH1 0x60 DUP7 ADD PUSH2 0x18F8 JUMP JUMPDEST SWAP1 POP SWAP3 SWAP6 SWAP2 SWAP5 POP SWAP3 POP JUMP JUMPDEST PUSH1 0x20 DUP1 DUP3 MSTORE DUP3 MLOAD DUP3 DUP3 ADD DUP2 SWAP1 MSTORE PUSH0 SWAP2 DUP5 ADD SWAP1 PUSH1 0x40 DUP5 ADD SWAP1 DUP4 JUMPDEST DUP2 DUP2 LT ISZERO PUSH2 0x1B18 JUMPI DUP4 MLOAD DUP4 MSTORE PUSH1 0x20 SWAP4 DUP5 ADD SWAP4 SWAP1 SWAP3 ADD SWAP2 PUSH1 0x1 ADD PUSH2 0x1AFA JUMP JUMPDEST POP SWAP1 SWAP6 SWAP5 POP POP POP POP POP JUMP JUMPDEST DUP5 DUP2 MSTORE DUP4 PUSH1 0x20 DUP3 ADD MSTORE DUP3 PUSH1 0x40 DUP3 ADD MSTORE PUSH1 0x80 PUSH1 0x60 DUP3 ADD MSTORE PUSH0 PUSH2 0x1B47 PUSH1 0x80 DUP4 ADD DUP5 PUSH2 0x17E4 JUMP JUMPDEST SWAP7 SWAP6 POP POP POP POP POP POP JUMP JUMPDEST PUSH0 DUP1 PUSH0 PUSH1 0x60 DUP5 DUP7 SUB SLT ISZERO PUSH2 0x1B63 JUMPI PUSH0 DUP1 REVERT JUMPDEST DUP4 CALLDATALOAD SWAP3 POP PUSH1 0x20 DUP5 ADD CALLDATALOAD SWAP2 POP PUSH2 0x1B7A PUSH1 0x40 DUP6 ADD PUSH2 0x18F8 JUMP JUMPDEST SWAP1 POP SWAP3 POP SWAP3 POP SWAP3 JUMP JUMPDEST PUSH0 DUP1 PUSH0 PUSH1 0x60 DUP5 DUP7 SUB SLT ISZERO PUSH2 0x1B95 JUMPI PUSH0 DUP1 REVERT JUMPDEST DUP4 CALLDATALOAD SWAP3 POP PUSH1 0x20 DUP5 ADD CALLDATALOAD PUSH8 0xFFFFFFFFFFFFFFFF DUP2 GT ISZERO PUSH2 0x1BB2 JUMPI PUSH0 DUP1 REVERT JUMPDEST PUSH2 0x1BBE DUP7 DUP3 DUP8 ADD PUSH2 0x19D8 JUMP JUMPDEST SWAP3 POP POP PUSH1 0x40 DUP5 ADD CALLDATALOAD PUSH8 0xFFFFFFFFFFFFFFFF DUP2 GT ISZERO PUSH2 0x1BDA JUMPI PUSH0 DUP1 REVERT JUMPDEST PUSH2 0x1BE6 DUP7 DUP3 DUP8 ADD PUSH2 0x19D8 JUMP JUMPDEST SWAP2 POP POP SWAP3 POP SWAP3 POP SWAP3 JUMP JUMPDEST PUSH1 0x1 DUP2 DUP2 SHR SWAP1 DUP3 AND DUP1 PUSH2 0x1C04 JUMPI PUSH1 0x7F DUP3 AND SWAP2 POP JUMPDEST PUSH1 0x20 DUP3 LT DUP2 SUB PUSH2 0x1C22 JUMPI PUSH4 0x4E487B71 PUSH1 0xE0 SHL PUSH0 MSTORE PUSH1 0x22 PUSH1 0x4 MSTORE PUSH1 0x24 PUSH0 REVERT JUMPDEST POP SWAP2 SWAP1 POP JUMP JUMPDEST PUSH4 0x4E487B71 PUSH1 0xE0 SHL PUSH0 MSTORE PUSH1 0x32 PUSH1 0x4 MSTORE PUSH1 0x24 PUSH0 REVERT JUMPDEST PUSH4 0x4E487B71 PUSH1 0xE0 SHL PUSH0 MSTORE PUSH1 0x11 PUSH1 0x4 MSTORE PUSH1 0x24 PUSH0 REVERT JUMPDEST DUP2 DUP2 SUB DUP2 DUP2 GT ISZERO PUSH2 0x419 JUMPI PUSH2 0x419 PUSH2 0x1C3C JUMP JUMPDEST PUSH4 0x4E487B71 PUSH1 0xE0 SHL PUSH0 MSTORE PUSH1 0x31 PUSH1 0x4 MSTORE PUSH1 0x24 PUSH0 REVERT JUMPDEST PUSH1 0x1F DUP3 GT ISZERO PUSH2 0xA6F JUMPI DUP1 PUSH0 MSTORE PUSH1 0x20 PUSH0 KECCAK256 PUSH1 0x1F DUP5 ADD PUSH1 0x5 SHR DUP2 ADD PUSH1 0x20 DUP6 LT ISZERO PUSH2 0x1C9C JUMPI POP DUP1 JUMPDEST PUSH1 0x1F DUP5 ADD PUSH1 0x5 SHR DUP3 ADD SWAP2 POP JUMPDEST DUP2 DUP2 LT ISZERO PUSH2 0x1CBB JUMPI PUSH0 DUP2 SSTORE PUSH1 0x1 ADD PUSH2 0x1CA8 JUMP JUMPDEST POP POP POP POP POP JUMP JUMPDEST DUP2 MLOAD PUSH8 0xFFFFFFFFFFFFFFFF DUP2 GT ISZERO PUSH2 0x1CDC JUMPI PUSH2 0x1CDC PUSH2 0x19C4 JUMP JUMPDEST PUSH2 0x1CF0 DUP2 PUSH2 0x1CEA DUP5 SLOAD PUSH2 0x1BF0 JUMP JUMPDEST DUP5 PUSH2 0x1C77 JUMP JUMPDEST PUSH1 0x20 PUSH1 0x1F DUP3 GT PUSH1 0x1 DUP2 EQ PUSH2 0x1D22 JUMPI PUSH0 DUP4 ISZERO PUSH2 0x1D0B JUMPI POP DUP5 DUP3 ADD MLOAD JUMPDEST PUSH0 NOT PUSH1 0x3 DUP6 SWAP1 SHL SHR NOT AND PUSH1 0x1 DUP5 SWAP1 SHL OR DUP5 SSTORE PUSH2 0x1CBB JUMP JUMPDEST PUSH0 DUP5 DUP2 MSTORE PUSH1 0x20 DUP2 KECCAK256 PUSH1 0x1F NOT DUP6 AND SWAP2 JUMPDEST DUP3 DUP2 LT ISZERO PUSH2 0x1D51 JUMPI DUP8 DUP6 ADD MLOAD DUP3 SSTORE PUSH1 0x20 SWAP5 DUP6 ADD SWAP5 PUSH1 0x1 SWAP1 SWAP3 ADD SWAP2 ADD PUSH2 0x1D31 JUMP JUMPDEST POP DUP5 DUP3 LT ISZERO PUSH2 0x1D6E JUMPI DUP7 DUP5 ADD MLOAD PUSH0 NOT PUSH1 0x3 DUP8 SWAP1 SHL PUSH1 0xF8 AND SHR NOT AND DUP2 SSTORE JUMPDEST POP POP POP POP PUSH1 0x1 SWAP1 DUP2 SHL ADD SWAP1 SSTORE POP JUMP JUMPDEST DUP5 DUP2 MSTORE PUSH1 0x80 PUSH1 0x20 DUP3 ADD MSTORE PUSH0 PUSH2 0x1D95 PUSH1 0x80 DUP4 ADD DUP7 PUSH2 0x17E4 JUMP JUMPDEST DUP3 DUP2 SUB PUSH1 0x40 DUP5 ADD MSTORE PUSH2 0x1DA7 DUP2 DUP7 PUSH2 0x17E4 JUMP JUMPDEST SWAP2 POP POP PUSH1 0x1 DUP1 PUSH1 0xA0 SHL SUB DUP4 AND PUSH1 0x60 DUP4 ADD MSTORE SWAP6 SWAP5 POP POP POP POP POP JUMP JUMPDEST PUSH0 PUSH1 0x1 DUP3 ADD PUSH2 0x1DD2 JUMPI PUSH2 0x1DD2 PUSH2 0x1C3C JUMP JUMPDEST POP PUSH1 0x1 ADD SWAP1 JUMP JUMPDEST DUP4 DUP2 MSTORE PUSH1 0x60 PUSH1 0x20 DUP3 ADD MSTORE PUSH0 PUSH2 0x1DF1 PUSH1 0x60 DUP4 ADD DUP6 PUSH2 0x17E4 JUMP JUMPDEST DUP3 DUP2 SUB PUSH1 0x40 DUP5 ADD MSTORE PUSH2 0x1B47 DUP2 DUP6 PUSH2 0x17E4 JUMP INVALID LOG2 PUSH5 0x6970667358 0x22 SLT KECCAK256 0xD6 PUSH30 0x5A823B7D5CF75D94A24DC7EA2A6F914F4D0CC37F750AC8985F842F2315ED PUSH5 0x736F6C6343 STOP ADDMOD BYTE STOP CALLER "
		},
		"gasEstimates": {
			"creation": {
				"codeDepositCost": "1547400",
				"executionCost": "35300",
				"totalCost": "1582700"
			},
			"external": {
				"DEFAULT_ADMIN_ROLE()": "326",
				"FARMER_ROLE()": "304",
				"INSPECTOR_ROLE()": "260",
				"RETAILER_ROLE()": "262",
				"TRANSPORTER_ROLE()": "261",
				"addFarmer(address)": "infinite",
				"addInspector(address)": "infinite",
				"addRetailer(address)": "infinite",
				"addTransporter(address)": "infinite",
				"createBatch(uint256,uint256,address)": "infinite",
				"getBatchInfo(uint256)": "infinite",
				"getLatestBatchId()": "2358",
				"getMyBatches()": "infinite",
				"getPublicBatchInfo(uint256)": "infinite",
				"getRoleAdmin(bytes32)": "2534",
				"grantRole(bytes32,address)": "infinite",
				"hasRole(bytes32,address)": "2737",
				"milkBatches(uint256)": "infinite",
				"renounceRole(bytes32,address)": "29041",
				"revokeRole(bytes32,address)": "infinite",
				"supportsInterface(bytes4)": "447",
				"transferOwnership(uint256,address)": "infinite",
				"updateInspectionStatus(uint256,string,string,address)": "infinite",
				"updateReceivingStatus(uint256,string,string)": "infinite",
				"updateTransportStatus(uint256,string,string,address)": "infinite"
			}
		},
		"methodIdentifiers": {
			"DEFAULT_ADMIN_ROLE()": "a217fddf",
			"FARMER_ROLE()": "f3943970",
			"INSPECTOR_ROLE()": "e3a3c522",
			"RETAILER_ROLE()": "2115e7bf",
			"TRANSPORTER_ROLE()": "4eabbe77",
			"addFarmer(address)": "80c3f96d",
			"addInspector(address)": "7e458492",
			"addRetailer(address)": "8ec4f505",
			"addTransporter(address)": "b7022049",
			"createBatch(uint256,uint256,address)": "ab93d873",
			"getBatchInfo(uint256)": "1a0058f5",
			"getLatestBatchId()": "aea32261",
			"getMyBatches()": "8fec82c5",
			"getPublicBatchInfo(uint256)": "99cdcc5c",
			"getRoleAdmin(bytes32)": "248a9ca3",
			"grantRole(bytes32,address)": "2f2ff15d",
			"hasRole(bytes32,address)": "91d14854",
			"milkBatches(uint256)": "4e266aea",
			"renounceRole(bytes32,address)": "36568abe",
			"revokeRole(bytes32,address)": "d547741f",
			"supportsInterface(bytes4)": "01ffc9a7",
			"transferOwnership(uint256,address)": "29507f73",
			"updateInspectionStatus(uint256,string,string,address)": "874ae942",
			"updateReceivingStatus(uint256,string,string)": "eab1ddf2",
			"updateTransportStatus(uint256,string,string,address)": "7f832973"
		}
	},
	"abi": [
		{
			"inputs": [],
			"stateMutability": "nonpayable",
			"type": "constructor"
		},
		{
			"inputs": [],
			"name": "AccessControlBadConfirmation",
			"type": "error"
		},
		{
			"inputs": [
				{
					"internalType": "address",
					"name": "account",
					"type": "address"
				},
				{
					"internalType": "bytes32",
					"name": "neededRole",
					"type": "bytes32"
				}
			],
			"name": "AccessControlUnauthorizedAccount",
			"type": "error"
		},
		{
			"anonymous": false,
			"inputs": [
				{
					"indexed": true,
					"internalType": "uint256",
					"name": "batchId",
					"type": "uint256"
				},
				{
					"indexed": true,
					"internalType": "address",
					"name": "farmer",
					"type": "address"
				},
				{
					"indexed": false,
					"internalType": "uint256",
					"name": "productionDate",
					"type": "uint256"
				},
				{
					"indexed": false,
					"internalType": "uint256",
					"name": "weight",
					"type": "uint256"
				},
				{
					"indexed": false,
					"internalType": "uint256",
					"name": "expiryDate",
					"type": "uint256"
				},
				{
					"indexed": false,
					"internalType": "address",
					"name": "transporter",
					"type": "address"
				}
			],
			"name": "BatchCreated",
			"type": "event"
		},
		{
			"anonymous": false,
			"inputs": [
				{
					"indexed": false,
					"internalType": "uint256",
					"name": "batchId",
					"type": "uint256"
				},
				{
					"indexed": false,
					"internalType": "string",
					"name": "status",
					"type": "string"
				},
				{
					"indexed": false,
					"internalType": "string",
					"name": "reportCID",
					"type": "string"
				},
				{
					"indexed": false,
					"internalType": "address",
					"name": "newOwner",
					"type": "address"
				}
			],
			"name": "InspectionStatusUpdated",
			"type": "event"
		},
		{
			"anonymous": false,
			"inputs": [
				{
					"indexed": false,
					"internalType": "uint256",
					"name": "batchId",
					"type": "uint256"
				},
				{
					"indexed": false,
					"internalType": "address",
					"name": "previousOwner",
					"type": "address"
				},
				{
					"indexed": false,
					"internalType": "address",
					"name": "newOwner",
					"type": "address"
				}
			],
			"name": "OwnershipTransferred",
			"type": "event"
		},
		{
			"anonymous": false,
			"inputs": [
				{
					"indexed": false,
					"internalType": "uint256",
					"name": "batchId",
					"type": "uint256"
				},
				{
					"indexed": false,
					"internalType": "string",
					"name": "status",
					"type": "string"
				},
				{
					"indexed": false,
					"internalType": "string",
					"name": "reportCID",
					"type": "string"
				}
			],
			"name": "ReceivingStatusUpdated",
			"type": "event"
		},
		{
			"anonymous": false,
			"inputs": [
				{
					"indexed": true,
					"internalType": "bytes32",
					"name": "role",
					"type": "bytes32"
				},
				{
					"indexed": true,
					"internalType": "bytes32",
					"name": "previousAdminRole",
					"type": "bytes32"
				},
				{
					"indexed": true,
					"internalType": "bytes32",
					"name": "newAdminRole",
					"type": "bytes32"
				}
			],
			"name": "RoleAdminChanged",
			"type": "event"
		},
		{
			"anonymous": false,
			"inputs": [
				{
					"indexed": true,
					"internalType": "bytes32",
					"name": "role",
					"type": "bytes32"
				},
				{
					"indexed": true,
					"internalType": "address",
					"name": "account",
					"type": "address"
				},
				{
					"indexed": true,
					"internalType": "address",
					"name": "sender",
					"type": "address"
				}
			],
			"name": "RoleGranted",
			"type": "event"
		},
		{
			"anonymous": false,
			"inputs": [
				{
					"indexed": true,
					"internalType": "bytes32",
					"name": "role",
					"type": "bytes32"
				},
				{
					"indexed": true,
					"internalType": "address",
					"name": "account",
					"type": "address"
				},
				{
					"indexed": true,
					"internalType": "address",
					"name": "sender",
					"type": "address"
				}
			],
			"name": "RoleRevoked",
			"type": "event"
		},
		{
			"anonymous": false,
			"inputs": [
				{
					"indexed": false,
					"internalType": "uint256",
					"name": "batchId",
					"type": "uint256"
				},
				{
					"indexed": false,
					"internalType": "string",
					"name": "status",
					"type": "string"
				},
				{
					"indexed": false,
					"internalType": "string",
					"name": "reportCID",
					"type": "string"
				},
				{
					"indexed": false,
					"internalType": "address",
					"name": "newOwner",
					"type": "address"
				}
			],
			"name": "TransportStatusUpdated",
			"type": "event"
		},
		{
			"inputs": [],
			"name": "DEFAULT_ADMIN_ROLE",
			"outputs": [
				{
					"internalType": "bytes32",
					"name": "",
					"type": "bytes32"
				}
			],
			"stateMutability": "view",
			"type": "function"
		},
		{
			"inputs": [],
			"name": "FARMER_ROLE",
			"outputs": [
				{
					"internalType": "bytes32",
					"name": "",
					"type": "bytes32"
				}
			],
			"stateMutability": "view",
			"type": "function"
		},
		{
			"inputs": [],
			"name": "INSPECTOR_ROLE",
			"outputs": [
				{
					"internalType": "bytes32",
					"name": "",
					"type": "bytes32"
				}
			],
			"stateMutability": "view",
			"type": "function"
		},
		{
			"inputs": [],
			"name": "RETAILER_ROLE",
			"outputs": [
				{
					"internalType": "bytes32",
					"name": "",
					"type": "bytes32"
				}
			],
			"stateMutability": "view",
			"type": "function"
		},
		{
			"inputs": [],
			"name": "TRANSPORTER_ROLE",
			"outputs": [
				{
					"internalType": "bytes32",
					"name": "",
					"type": "bytes32"
				}
			],
			"stateMutability": "view",
			"type": "function"
		},
		{
			"inputs": [
				{
					"internalType": "address",
					"name": "account",
					"type": "address"
				}
			],
			"name": "addFarmer",
			"outputs": [],
			"stateMutability": "nonpayable",
			"type": "function"
		},
		{
			"inputs": [
				{
					"internalType": "address",
					"name": "account",
					"type": "address"
				}
			],
			"name": "addInspector",
			"outputs": [],
			"stateMutability": "nonpayable",
			"type": "function"
		},
		{
			"inputs": [
				{
					"internalType": "address",
					"name": "account",
					"type": "address"
				}
			],
			"name": "addRetailer",
			"outputs": [],
			"stateMutability": "nonpayable",
			"type": "function"
		},
		{
			"inputs": [
				{
					"internalType": "address",
					"name": "account",
					"type": "address"
				}
			],
			"name": "addTransporter",
			"outputs": [],
			"stateMutability": "nonpayable",
			"type": "function"
		},
		{
			"inputs": [
				{
					"internalType": "uint256",
					"name": "_weight",
					"type": "uint256"
				},
				{
					"internalType": "uint256",
					"name": "_expiryDate",
					"type": "uint256"
				},
				{
					"internalType": "address",
					"name": "_transporter",
					"type": "address"
				}
			],
			"name": "createBatch",
			"outputs": [
				{
					"internalType": "uint256",
					"name": "",
					"type": "uint256"
				}
			],
			"stateMutability": "nonpayable",
			"type": "function"
		},
		{
			"inputs": [
				{
					"internalType": "uint256",
					"name": "_batchId",
					"type": "uint256"
				}
			],
			"name": "getBatchInfo",
			"outputs": [
				{
					"components": [
						{
							"components": [
								{
									"internalType": "uint256",
									"name": "productionDate",
									"type": "uint256"
								},
								{
									"internalType": "uint256",
									"name": "weight",
									"type": "uint256"
								},
								{
									"internalType": "uint256",
									"name": "expiryDate",
									"type": "uint256"
								}
							],
							"internalType": "struct MilkSupplyChain.BatchInfo",
							"name": "batchInfo",
							"type": "tuple"
						},
						{
							"components": [
								{
									"internalType": "address",
									"name": "transporter",
									"type": "address"
								},
								{
									"internalType": "string",
									"name": "status",
									"type": "string"
								},
								{
									"internalType": "string",
									"name": "reportCID",
									"type": "string"
								}
							],
							"internalType": "struct MilkSupplyChain.TransportInfo",
							"name": "transportInfo",
							"type": "tuple"
						},
						{
							"components": [
								{
									"internalType": "address",
									"name": "inspector",
									"type": "address"
								},
								{
									"internalType": "string",
									"name": "status",
									"type": "string"
								},
								{
									"internalType": "string",
									"name": "reportCID",
									"type": "string"
								}
							],
							"internalType": "struct MilkSupplyChain.InspectionInfo",
							"name": "inspectionInfo",
							"type": "tuple"
						},
						{
							"components": [
								{
									"internalType": "address",
									"name": "retailer",
									"type": "address"
								},
								{
									"internalType": "string",
									"name": "status",
									"type": "string"
								},
								{
									"internalType": "string",
									"name": "reportCID",
									"type": "string"
								}
							],
							"internalType": "struct MilkSupplyChain.ReceivingInfo",
							"name": "receivingInfo",
							"type": "tuple"
						},
						{
							"internalType": "address",
							"name": "currentOwner",
							"type": "address"
						}
					],
					"internalType": "struct MilkSupplyChain.MilkBatch",
					"name": "",
					"type": "tuple"
				}
			],
			"stateMutability": "view",
			"type": "function"
		},
		{
			"inputs": [],
			"name": "getLatestBatchId",
			"outputs": [
				{
					"internalType": "uint256",
					"name": "",
					"type": "uint256"
				}
			],
			"stateMutability": "view",
			"type": "function"
		},
		{
			"inputs": [],
			"name": "getMyBatches",
			"outputs": [
				{
					"internalType": "uint256[]",
					"name": "",
					"type": "uint256[]"
				}
			],
			"stateMutability": "view",
			"type": "function"
		},
		{
			"inputs": [
				{
					"internalType": "uint256",
					"name": "_batchId",
					"type": "uint256"
				}
			],
			"name": "getPublicBatchInfo",
			"outputs": [
				{
					"internalType": "uint256",
					"name": "",
					"type": "uint256"
				},
				{
					"internalType": "uint256",
					"name": "",
					"type": "uint256"
				},
				{
					"internalType": "uint256",
					"name": "",
					"type": "uint256"
				},
				{
					"internalType": "string",
					"name": "",
					"type": "string"
				}
			],
			"stateMutability": "view",
			"type": "function"
		},
		{
			"inputs": [
				{
					"internalType": "bytes32",
					"name": "role",
					"type": "bytes32"
				}
			],
			"name": "getRoleAdmin",
			"outputs": [
				{
					"internalType": "bytes32",
					"name": "",
					"type": "bytes32"
				}
			],
			"stateMutability": "view",
			"type": "function"
		},
		{
			"inputs": [
				{
					"internalType": "bytes32",
					"name": "role",
					"type": "bytes32"
				},
				{
					"internalType": "address",
					"name": "account",
					"type": "address"
				}
			],
			"name": "grantRole",
			"outputs": [],
			"stateMutability": "nonpayable",
			"type": "function"
		},
		{
			"inputs": [
				{
					"internalType": "bytes32",
					"name": "role",
					"type": "bytes32"
				},
				{
					"internalType": "address",
					"name": "account",
					"type": "address"
				}
			],
			"name": "hasRole",
			"outputs": [
				{
					"internalType": "bool",
					"name": "",
					"type": "bool"
				}
			],
			"stateMutability": "view",
			"type": "function"
		},
		{
			"inputs": [
				{
					"internalType": "uint256",
					"name": "",
					"type": "uint256"
				}
			],
			"name": "milkBatches",
			"outputs": [
				{
					"components": [
						{
							"internalType": "uint256",
							"name": "productionDate",
							"type": "uint256"
						},
						{
							"internalType": "uint256",
							"name": "weight",
							"type": "uint256"
						},
						{
							"internalType": "uint256",
							"name": "expiryDate",
							"type": "uint256"
						}
					],
					"internalType": "struct MilkSupplyChain.BatchInfo",
					"name": "batchInfo",
					"type": "tuple"
				},
				{
					"components": [
						{
							"internalType": "address",
							"name": "transporter",
							"type": "address"
						},
						{
							"internalType": "string",
							"name": "status",
							"type": "string"
						},
						{
							"internalType": "string",
							"name": "reportCID",
							"type": "string"
						}
					],
					"internalType": "struct MilkSupplyChain.TransportInfo",
					"name": "transportInfo",
					"type": "tuple"
				},
				{
					"components": [
						{
							"internalType": "address",
							"name": "inspector",
							"type": "address"
						},
						{
							"internalType": "string",
							"name": "status",
							"type": "string"
						},
						{
							"internalType": "string",
							"name": "reportCID",
							"type": "string"
						}
					],
					"internalType": "struct MilkSupplyChain.InspectionInfo",
					"name": "inspectionInfo",
					"type": "tuple"
				},
				{
					"components": [
						{
							"internalType": "address",
							"name": "retailer",
							"type": "address"
						},
						{
							"internalType": "string",
							"name": "status",
							"type": "string"
						},
						{
							"internalType": "string",
							"name": "reportCID",
							"type": "string"
						}
					],
					"internalType": "struct MilkSupplyChain.ReceivingInfo",
					"name": "receivingInfo",
					"type": "tuple"
				},
				{
					"internalType": "address",
					"name": "currentOwner",
					"type": "address"
				}
			],
			"stateMutability": "view",
			"type": "function"
		},
		{
			"inputs": [
				{
					"internalType": "bytes32",
					"name": "role",
					"type": "bytes32"
				},
				{
					"internalType": "address",
					"name": "callerConfirmation",
					"type": "address"
				}
			],
			"name": "renounceRole",
			"outputs": [],
			"stateMutability": "nonpayable",
			"type": "function"
		},
		{
			"inputs": [
				{
					"internalType": "bytes32",
					"name": "role",
					"type": "bytes32"
				},
				{
					"internalType": "address",
					"name": "account",
					"type": "address"
				}
			],
			"name": "revokeRole",
			"outputs": [],
			"stateMutability": "nonpayable",
			"type": "function"
		},
		{
			"inputs": [
				{
					"internalType": "bytes4",
					"name": "interfaceId",
					"type": "bytes4"
				}
			],
			"name": "supportsInterface",
			"outputs": [
				{
					"internalType": "bool",
					"name": "",
					"type": "bool"
				}
			],
			"stateMutability": "view",
			"type": "function"
		},
		{
			"inputs": [
				{
					"internalType": "uint256",
					"name": "_batchId",
					"type": "uint256"
				},
				{
					"internalType": "address",
					"name": "_newOwner",
					"type": "address"
				}
			],
			"name": "transferOwnership",
			"outputs": [],
			"stateMutability": "nonpayable",
			"type": "function"
		},
		{
			"inputs": [
				{
					"internalType": "uint256",
					"name": "_batchId",
					"type": "uint256"
				},
				{
					"internalType": "string",
					"name": "_status",
					"type": "string"
				},
				{
					"internalType": "string",
					"name": "_reportCID",
					"type": "string"
				},
				{
					"internalType": "address",
					"name": "_retailer",
					"type": "address"
				}
			],
			"name": "updateInspectionStatus",
			"outputs": [],
			"stateMutability": "nonpayable",
			"type": "function"
		},
		{
			"inputs": [
				{
					"internalType": "uint256",
					"name": "_batchId",
					"type": "uint256"
				},
				{
					"internalType": "string",
					"name": "_status",
					"type": "string"
				},
				{
					"internalType": "string",
					"name": "_reportCID",
					"type": "string"
				}
			],
			"name": "updateReceivingStatus",
			"outputs": [],
			"stateMutability": "nonpayable",
			"type": "function"
		},
		{
			"inputs": [
				{
					"internalType": "uint256",
					"name": "_batchId",
					"type": "uint256"
				},
				{
					"internalType": "string",
					"name": "_status",
					"type": "string"
				},
				{
					"internalType": "string",
					"name": "_reportCID",
					"type": "string"
				},
				{
					"internalType": "address",
					"name": "_processor",
					"type": "address"
				}
			],
			"name": "updateTransportStatus",
			"outputs": [],
			"stateMutability": "nonpayable",
			"type": "function"
		}
	]
}