{
	"contracts/MilkSupplyChain.sol": {
		"MilkSupplyChain": {
			"abi": [
				{
					"inputs": [],
					"stateMutability": "nonpayable",
					"type": "constructor"
				},
				{
					"inputs": [],
					"name": "AccessControlBadConfirmation",
					"type": "error"
				},
				{
					"inputs": [
						{
							"internalType": "address",
							"name": "account",
							"type": "address"
						},
						{
							"internalType": "bytes32",
							"name": "neededRole",
							"type": "bytes32"
						}
					],
					"name": "AccessControlUnauthorizedAccount",
					"type": "error"
				},
				{
					"anonymous": false,
					"inputs": [
						{
							"indexed": true,
							"internalType": "uint256",
							"name": "batchId",
							"type": "uint256"
						},
						{
							"indexed": true,
							"internalType": "address",
							"name": "farmer",
							"type": "address"
						},
						{
							"indexed": false,
							"internalType": "uint256",
							"name": "productionDate",
							"type": "uint256"
						},
						{
							"indexed": false,
							"internalType": "uint256",
							"name": "weight",
							"type": "uint256"
						},
						{
							"indexed": false,
							"internalType": "uint256",
							"name": "expiryDate",
							"type": "uint256"
						},
						{
							"indexed": false,
							"internalType": "address",
							"name": "transporter",
							"type": "address"
						}
					],
					"name": "BatchCreated",
					"type": "event"
				},
				{
					"anonymous": false,
					"inputs": [
						{
							"indexed": false,
							"internalType": "uint256",
							"name": "batchId",
							"type": "uint256"
						},
						{
							"indexed": false,
							"internalType": "string",
							"name": "status",
							"type": "string"
						},
						{
							"indexed": false,
							"internalType": "string",
							"name": "reportCID",
							"type": "string"
						},
						{
							"indexed": false,
							"internalType": "address",
							"name": "newOwner",
							"type": "address"
						}
					],
					"name": "InspectionStatusUpdated",
					"type": "event"
				},
				{
					"anonymous": false,
					"inputs": [
						{
							"indexed": false,
							"internalType": "uint256",
							"name": "batchId",
							"type": "uint256"
						},
						{
							"indexed": false,
							"internalType": "address",
							"name": "previousOwner",
							"type": "address"
						},
						{
							"indexed": false,
							"internalType": "address",
							"name": "newOwner",
							"type": "address"
						}
					],
					"name": "OwnershipTransferred",
					"type": "event"
				},
				{
					"anonymous": false,
					"inputs": [
						{
							"indexed": false,
							"internalType": "uint256",
							"name": "batchId",
							"type": "uint256"
						},
						{
							"indexed": false,
							"internalType": "string",
							"name": "status",
							"type": "string"
						},
						{
							"indexed": false,
							"internalType": "string",
							"name": "reportCID",
							"type": "string"
						}
					],
					"name": "ReceivingStatusUpdated",
					"type": "event"
				},
				{
					"anonymous": false,
					"inputs": [
						{
							"indexed": true,
							"internalType": "bytes32",
							"name": "role",
							"type": "bytes32"
						},
						{
							"indexed": true,
							"internalType": "bytes32",
							"name": "previousAdminRole",
							"type": "bytes32"
						},
						{
							"indexed": true,
							"internalType": "bytes32",
							"name": "newAdminRole",
							"type": "bytes32"
						}
					],
					"name": "RoleAdminChanged",
					"type": "event"
				},
				{
					"anonymous": false,
					"inputs": [
						{
							"indexed": true,
							"internalType": "bytes32",
							"name": "role",
							"type": "bytes32"
						},
						{
							"indexed": true,
							"internalType": "address",
							"name": "account",
							"type": "address"
						},
						{
							"indexed": true,
							"internalType": "address",
							"name": "sender",
							"type": "address"
						}
					],
					"name": "RoleGranted",
					"type": "event"
				},
				{
					"anonymous": false,
					"inputs": [
						{
							"indexed": true,
							"internalType": "bytes32",
							"name": "role",
							"type": "bytes32"
						},
						{
							"indexed": true,
							"internalType": "address",
							"name": "account",
							"type": "address"
						},
						{
							"indexed": true,
							"internalType": "address",
							"name": "sender",
							"type": "address"
						}
					],
					"name": "RoleRevoked",
					"type": "event"
				},
				{
					"anonymous": false,
					"inputs": [
						{
							"indexed": false,
							"internalType": "uint256",
							"name": "batchId",
							"type": "uint256"
						},
						{
							"indexed": false,
							"internalType": "string",
							"name": "status",
							"type": "string"
						},
						{
							"indexed": false,
							"internalType": "string",
							"name": "reportCID",
							"type": "string"
						},
						{
							"indexed": false,
							"internalType": "address",
							"name": "newOwner",
							"type": "address"
						}
					],
					"name": "TransportStatusUpdated",
					"type": "event"
				},
				{
					"inputs": [],
					"name": "DEFAULT_ADMIN_ROLE",
					"outputs": [
						{
							"internalType": "bytes32",
							"name": "",
							"type": "bytes32"
						}
					],
					"stateMutability": "view",
					"type": "function"
				},
				{
					"inputs": [],
					"name": "FARMER_ROLE",
					"outputs": [
						{
							"internalType": "bytes32",
							"name": "",
							"type": "bytes32"
						}
					],
					"stateMutability": "view",
					"type": "function"
				},
				{
					"inputs": [],
					"name": "INSPECTOR_ROLE",
					"outputs": [
						{
							"internalType": "bytes32",
							"name": "",
							"type": "bytes32"
						}
					],
					"stateMutability": "view",
					"type": "function"
				},
				{
					"inputs": [],
					"name": "RETAILER_ROLE",
					"outputs": [
						{
							"internalType": "bytes32",
							"name": "",
							"type": "bytes32"
						}
					],
					"stateMutability": "view",
					"type": "function"
				},
				{
					"inputs": [],
					"name": "TRANSPORTER_ROLE",
					"outputs": [
						{
							"internalType": "bytes32",
							"name": "",
							"type": "bytes32"
						}
					],
					"stateMutability": "view",
					"type": "function"
				},
				{
					"inputs": [
						{
							"internalType": "address",
							"name": "account",
							"type": "address"
						}
					],
					"name": "addFarmer",
					"outputs": [],
					"stateMutability": "nonpayable",
					"type": "function"
				},
				{
					"inputs": [
						{
							"internalType": "address",
							"name": "account",
							"type": "address"
						}
					],
					"name": "addInspector",
					"outputs": [],
					"stateMutability": "nonpayable",
					"type": "function"
				},
				{
					"inputs": [
						{
							"internalType": "address",
							"name": "account",
							"type": "address"
						}
					],
					"name": "addRetailer",
					"outputs": [],
					"stateMutability": "nonpayable",
					"type": "function"
				},
				{
					"inputs": [
						{
							"internalType": "address",
							"name": "account",
							"type": "address"
						}
					],
					"name": "addTransporter",
					"outputs": [],
					"stateMutability": "nonpayable",
					"type": "function"
				},
				{
					"inputs": [
						{
							"internalType": "uint256",
							"name": "_weight",
							"type": "uint256"
						},
						{
							"internalType": "uint256",
							"name": "_expiryDate",
							"type": "uint256"
						},
						{
							"internalType": "address",
							"name": "_transporter",
							"type": "address"
						}
					],
					"name": "createBatch",
					"outputs": [
						{
							"internalType": "uint256",
							"name": "",
							"type": "uint256"
						}
					],
					"stateMutability": "nonpayable",
					"type": "function"
				},
				{
					"inputs": [
						{
							"internalType": "uint256",
							"name": "_batchId",
							"type": "uint256"
						}
					],
					"name": "getBatchInfo",
					"outputs": [
						{
							"components": [
								{
									"components": [
										{
											"internalType": "uint256",
											"name": "productionDate",
											"type": "uint256"
										},
										{
											"internalType": "uint256",
											"name": "weight",
											"type": "uint256"
										},
										{
											"internalType": "uint256",
											"name": "expiryDate",
											"type": "uint256"
										}
									],
									"internalType": "struct MilkSupplyChain.BatchInfo",
									"name": "batchInfo",
									"type": "tuple"
								},
								{
									"components": [
										{
											"internalType": "address",
											"name": "transporter",
											"type": "address"
										},
										{
											"internalType": "string",
											"name": "status",
											"type": "string"
										},
										{
											"internalType": "string",
											"name": "reportCID",
											"type": "string"
										}
									],
									"internalType": "struct MilkSupplyChain.TransportInfo",
									"name": "transportInfo",
									"type": "tuple"
								},
								{
									"components": [
										{
											"internalType": "address",
											"name": "inspector",
											"type": "address"
										},
										{
											"internalType": "string",
											"name": "status",
											"type": "string"
										},
										{
											"internalType": "string",
											"name": "reportCID",
											"type": "string"
										}
									],
									"internalType": "struct MilkSupplyChain.InspectionInfo",
									"name": "inspectionInfo",
									"type": "tuple"
								},
								{
									"components": [
										{
											"internalType": "address",
											"name": "retailer",
											"type": "address"
										},
										{
											"internalType": "string",
											"name": "status",
											"type": "string"
										},
										{
											"internalType": "string",
											"name": "reportCID",
											"type": "string"
										}
									],
									"internalType": "struct MilkSupplyChain.ReceivingInfo",
									"name": "receivingInfo",
									"type": "tuple"
								},
								{
									"internalType": "address",
									"name": "currentOwner",
									"type": "address"
								}
							],
							"internalType": "struct MilkSupplyChain.MilkBatch",
							"name": "",
							"type": "tuple"
						}
					],
					"stateMutability": "view",
					"type": "function"
				},
				{
					"inputs": [],
					"name": "getLatestBatchId",
					"outputs": [
						{
							"internalType": "uint256",
							"name": "",
							"type": "uint256"
						}
					],
					"stateMutability": "view",
					"type": "function"
				},
				{
					"inputs": [],
					"name": "getMyBatches",
					"outputs": [
						{
							"internalType": "uint256[]",
							"name": "",
							"type": "uint256[]"
						}
					],
					"stateMutability": "view",
					"type": "function"
				},
				{
					"inputs": [
						{
							"internalType": "uint256",
							"name": "_batchId",
							"type": "uint256"
						}
					],
					"name": "getPublicBatchInfo",
					"outputs": [
						{
							"internalType": "uint256",
							"name": "",
							"type": "uint256"
						},
						{
							"internalType": "uint256",
							"name": "",
							"type": "uint256"
						},
						{
							"internalType": "uint256",
							"name": "",
							"type": "uint256"
						},
						{
							"internalType": "string",
							"name": "",
							"type": "string"
						}
					],
					"stateMutability": "view",
					"type": "function"
				},
				{
					"inputs": [
						{
							"internalType": "bytes32",
							"name": "role",
							"type": "bytes32"
						}
					],
					"name": "getRoleAdmin",
					"outputs": [
						{
							"internalType": "bytes32",
							"name": "",
							"type": "bytes32"
						}
					],
					"stateMutability": "view",
					"type": "function"
				},
				{
					"inputs": [
						{
							"internalType": "bytes32",
							"name": "role",
							"type": "bytes32"
						},
						{
							"internalType": "address",
							"name": "account",
							"type": "address"
						}
					],
					"name": "grantRole",
					"outputs": [],
					"stateMutability": "nonpayable",
					"type": "function"
				},
				{
					"inputs": [
						{
							"internalType": "bytes32",
							"name": "role",
							"type": "bytes32"
						},
						{
							"internalType": "address",
							"name": "account",
							"type": "address"
						}
					],
					"name": "hasRole",
					"outputs": [
						{
							"internalType": "bool",
							"name": "",
							"type": "bool"
						}
					],
					"stateMutability": "view",
					"type": "function"
				},
				{
					"inputs": [
						{
							"internalType": "uint256",
							"name": "",
							"type": "uint256"
						}
					],
					"name": "milkBatches",
					"outputs": [
						{
							"components": [
								{
									"internalType": "uint256",
									"name": "productionDate",
									"type": "uint256"
								},
								{
									"internalType": "uint256",
									"name": "weight",
									"type": "uint256"
								},
								{
									"internalType": "uint256",
									"name": "expiryDate",
									"type": "uint256"
								}
							],
							"internalType": "struct MilkSupplyChain.BatchInfo",
							"name": "batchInfo",
							"type": "tuple"
						},
						{
							"components": [
								{
									"internalType": "address",
									"name": "transporter",
									"type": "address"
								},
								{
									"internalType": "string",
									"name": "status",
									"type": "string"
								},
								{
									"internalType": "string",
									"name": "reportCID",
									"type": "string"
								}
							],
							"internalType": "struct MilkSupplyChain.TransportInfo",
							"name": "transportInfo",
							"type": "tuple"
						},
						{
							"components": [
								{
									"internalType": "address",
									"name": "inspector",
									"type": "address"
								},
								{
									"internalType": "string",
									"name": "status",
									"type": "string"
								},
								{
									"internalType": "string",
									"name": "reportCID",
									"type": "string"
								}
							],
							"internalType": "struct MilkSupplyChain.InspectionInfo",
							"name": "inspectionInfo",
							"type": "tuple"
						},
						{
							"components": [
								{
									"internalType": "address",
									"name": "retailer",
									"type": "address"
								},
								{
									"internalType": "string",
									"name": "status",
									"type": "string"
								},
								{
									"internalType": "string",
									"name": "reportCID",
									"type": "string"
								}
							],
							"internalType": "struct MilkSupplyChain.ReceivingInfo",
							"name": "receivingInfo",
							"type": "tuple"
						},
						{
							"internalType": "address",
							"name": "currentOwner",
							"type": "address"
						}
					],
					"stateMutability": "view",
					"type": "function"
				},
				{
					"inputs": [
						{
							"internalType": "bytes32",
							"name": "role",
							"type": "bytes32"
						},
						{
							"internalType": "address",
							"name": "callerConfirmation",
							"type": "address"
						}
					],
					"name": "renounceRole",
					"outputs": [],
					"stateMutability": "nonpayable",
					"type": "function"
				},
				{
					"inputs": [
						{
							"internalType": "bytes32",
							"name": "role",
							"type": "bytes32"
						},
						{
							"internalType": "address",
							"name": "account",
							"type": "address"
						}
					],
					"name": "revokeRole",
					"outputs": [],
					"stateMutability": "nonpayable",
					"type": "function"
				},
				{
					"inputs": [
						{
							"internalType": "bytes4",
							"name": "interfaceId",
							"type": "bytes4"
						}
					],
					"name": "supportsInterface",
					"outputs": [
						{
							"internalType": "bool",
							"name": "",
							"type": "bool"
						}
					],
					"stateMutability": "view",
					"type": "function"
				},
				{
					"inputs": [
						{
							"internalType": "uint256",
							"name": "_batchId",
							"type": "uint256"
						},
						{
							"internalType": "address",
							"name": "_newOwner",
							"type": "address"
						}
					],
					"name": "transferOwnership",
					"outputs": [],
					"stateMutability": "nonpayable",
					"type": "function"
				},
				{
					"inputs": [
						{
							"internalType": "uint256",
							"name": "_batchId",
							"type": "uint256"
						},
						{
							"internalType": "string",
							"name": "_status",
							"type": "string"
						},
						{
							"internalType": "string",
							"name": "_reportCID",
							"type": "string"
						},
						{
							"internalType": "address",
							"name": "_retailer",
							"type": "address"
						}
					],
					"name": "updateInspectionStatus",
					"outputs": [],
					"stateMutability": "nonpayable",
					"type": "function"
				},
				{
					"inputs": [
						{
							"internalType": "uint256",
							"name": "_batchId",
							"type": "uint256"
						},
						{
							"internalType": "string",
							"name": "_status",
							"type": "string"
						},
						{
							"internalType": "string",
							"name": "_reportCID",
							"type": "string"
						}
					],
					"name": "updateReceivingStatus",
					"outputs": [],
					"stateMutability": "nonpayable",
					"type": "function"
				},
				{
					"inputs": [
						{
							"internalType": "uint256",
							"name": "_batchId",
							"type": "uint256"
						},
						{
							"internalType": "string",
							"name": "_status",
							"type": "string"
						},
						{
							"internalType": "string",
							"name": "_reportCID",
							"type": "string"
						},
						{
							"internalType": "address",
							"name": "_processor",
							"type": "address"
						}
					],
					"name": "updateTransportStatus",
					"outputs": [],
					"stateMutability": "nonpayable",
					"type": "function"
				}
			],
			"devdoc": {
				"errors": {
					"AccessControlBadConfirmation()": [
						{
							"details": "The caller of a function is not the expected one. NOTE: Don't confuse with {AccessControlUnauthorizedAccount}."
						}
					],
					"AccessControlUnauthorizedAccount(address,bytes32)": [
						{
							"details": "The `account` is missing a role."
						}
					]
				},
				"events": {
					"RoleAdminChanged(bytes32,bytes32,bytes32)": {
						"details": "Emitted when `newAdminRole` is set as ``role``'s admin role, replacing `previousAdminRole` `DEFAULT_ADMIN_ROLE` is the starting admin for all roles, despite {RoleAdminChanged} not being emitted signaling this."
					},
					"RoleGranted(bytes32,address,address)": {
						"details": "Emitted when `account` is granted `role`. `sender` is the account that originated the contract call, an admin role bearer except when using {AccessControl-_setupRole}."
					},
					"RoleRevoked(bytes32,address,address)": {
						"details": "Emitted when `account` is revoked `role`. `sender` is the account that originated the contract call:   - if using `revokeRole`, it is the admin role bearer   - if using `renounceRole`, it is the role bearer (i.e. `account`)"
					}
				},
				"kind": "dev",
				"methods": {
					"getRoleAdmin(bytes32)": {
						"details": "Returns the admin role that controls `role`. See {grantRole} and {revokeRole}. To change a role's admin, use {_setRoleAdmin}."
					},
					"grantRole(bytes32,address)": {
						"details": "Grants `role` to `account`. If `account` had not been already granted `role`, emits a {RoleGranted} event. Requirements: - the caller must have ``role``'s admin role. May emit a {RoleGranted} event."
					},
					"hasRole(bytes32,address)": {
						"details": "Returns `true` if `account` has been granted `role`."
					},
					"renounceRole(bytes32,address)": {
						"details": "Revokes `role` from the calling account. Roles are often managed via {grantRole} and {revokeRole}: this function's purpose is to provide a mechanism for accounts to lose their privileges if they are compromised (such as when a trusted device is misplaced). If the calling account had been revoked `role`, emits a {RoleRevoked} event. Requirements: - the caller must be `callerConfirmation`. May emit a {RoleRevoked} event."
					},
					"revokeRole(bytes32,address)": {
						"details": "Revokes `role` from `account`. If `account` had been granted `role`, emits a {RoleRevoked} event. Requirements: - the caller must have ``role``'s admin role. May emit a {RoleRevoked} event."
					},
					"supportsInterface(bytes4)": {
						"details": "See {IERC165-supportsInterface}."
					}
				},
				"version": 1
			},
			"evm": {
				"assembly": "    /* \"contracts/MilkSupplyChain.sol\":1107:7238  contract MilkSupplyChain is MilkSupplyAccessControl {... */\n  mstore(0x40, 0x80)\n    /* \"contracts/MilkSupplyChain.sol\":2532:2607  constructor() MilkSupplyAccessControl() {... */\n  callvalue\n  dup1\n  iszero\n  tag_1\n  jumpi\n  0x00\n  dup1\n  revert\ntag_1:\n  pop\n    /* \"contracts/MilkSupplyChain.sol\":510:552  _grantRole(DEFAULT_ADMIN_ROLE, msg.sender) */\n  tag_5\n    /* \"@openzeppelin/contracts/access/AccessControl.sol\":2232:2236  0x00 */\n  0x00\n    /* \"contracts/MilkSupplyChain.sol\":541:551  msg.sender */\n  caller\n    /* \"contracts/MilkSupplyChain.sol\":510:520  _grantRole */\n  tag_6\n    /* \"contracts/MilkSupplyChain.sol\":510:552  _grantRole(DEFAULT_ADMIN_ROLE, msg.sender) */\n  jump\t// in\ntag_5:\n  pop\n    /* \"contracts/MilkSupplyChain.sol\":2598:2599  0 */\n  0x00\n    /* \"contracts/MilkSupplyChain.sol\":2583:2595  batchCounter */\n  0x01\n    /* \"contracts/MilkSupplyChain.sol\":2583:2599  batchCounter = 0 */\n  sstore\n    /* \"contracts/MilkSupplyChain.sol\":1107:7238  contract MilkSupplyChain is MilkSupplyAccessControl {... */\n  jump(tag_8)\n    /* \"@openzeppelin/contracts/access/AccessControl.sol\":6179:6495  function _grantRole(bytes32 role, address account) internal virtual returns (bool) {... */\ntag_6:\n    /* \"@openzeppelin/contracts/access/AccessControl.sol\":6256:6260  bool */\n  0x00\n    /* \"@openzeppelin/contracts/access/AccessControl.sol\":2954:2966  _roles[role] */\n  dup3\n  dup2\n  mstore\n  0x20\n  dup2\n  dup2\n  mstore\n  0x40\n  dup1\n  dup4\n  keccak256\n  sub(shl(0xa0, 0x01), 0x01)\n    /* \"@openzeppelin/contracts/access/AccessControl.sol\":2954:2983  _roles[role].hasRole[account] */\n  dup6\n  and\n  dup5\n  mstore\n  swap1\n  swap2\n  mstore\n  dup2\n  keccak256\n  sload\n  0xff\n  and\n    /* \"@openzeppelin/contracts/access/AccessControl.sol\":6272:6489  if (!hasRole(role, account)) {... */\n  tag_12\n  jumpi\n    /* \"@openzeppelin/contracts/access/AccessControl.sol\":6315:6321  _roles */\n  0x00\n    /* \"@openzeppelin/contracts/access/AccessControl.sol\":6315:6327  _roles[role] */\n  dup4\n  dup2\n  mstore\n  0x20\n  dup2\n  dup2\n  mstore\n  0x40\n  dup1\n  dup4\n  keccak256\n  sub(shl(0xa0, 0x01), 0x01)\n    /* \"@openzeppelin/contracts/access/AccessControl.sol\":6315:6344  _roles[role].hasRole[account] */\n  dup7\n  and\n  dup5\n  mstore\n  swap1\n  swap2\n  mstore\n  swap1\n  keccak256\n    /* \"@openzeppelin/contracts/access/AccessControl.sol\":6315:6351  _roles[role].hasRole[account] = true */\n  dup1\n  sload\n  not(0xff)\n  and\n    /* \"@openzeppelin/contracts/access/AccessControl.sol\":6347:6351  true */\n  0x01\n    /* \"@openzeppelin/contracts/access/AccessControl.sol\":6315:6351  _roles[role].hasRole[account] = true */\n  or\n  swap1\n  sstore\n    /* \"@openzeppelin/contracts/access/AccessControl.sol\":6397:6409  _msgSender() */\n  tag_13\n    /* \"@openzeppelin/contracts/utils/Context.sol\":735:745  msg.sender */\n  caller\n  swap1\n    /* \"@openzeppelin/contracts/utils/Context.sol\":656:752  function _msgSender() internal view virtual returns (address) {... */\n  jump\n    /* \"@openzeppelin/contracts/access/AccessControl.sol\":6397:6409  _msgSender() */\ntag_13:\n  sub(shl(0xa0, 0x01), 0x01)\n    /* \"@openzeppelin/contracts/access/AccessControl.sol\":6370:6410  RoleGranted(role, account, _msgSender()) */\n  and\n    /* \"@openzeppelin/contracts/access/AccessControl.sol\":6388:6395  account */\n  dup3\n  sub(shl(0xa0, 0x01), 0x01)\n    /* \"@openzeppelin/contracts/access/AccessControl.sol\":6370:6410  RoleGranted(role, account, _msgSender()) */\n  and\n    /* \"@openzeppelin/contracts/access/AccessControl.sol\":6382:6386  role */\n  dup5\n    /* \"@openzeppelin/contracts/access/AccessControl.sol\":6370:6410  RoleGranted(role, account, _msgSender()) */\n  0x2f8788117e7eff1d82e926ec794901d17c78024a50270940304540a733656f0d\n  mload(0x40)\n  mload(0x40)\n  dup1\n  swap2\n  sub\n  swap1\n  log4\n  pop\n    /* \"@openzeppelin/contracts/access/AccessControl.sol\":6431:6435  true */\n  0x01\n    /* \"@openzeppelin/contracts/access/AccessControl.sol\":6424:6435  return true */\n  jump(tag_15)\n    /* \"@openzeppelin/contracts/access/AccessControl.sol\":6272:6489  if (!hasRole(role, account)) {... */\ntag_12:\n  pop\n    /* \"@openzeppelin/contracts/access/AccessControl.sol\":6473:6478  false */\n  0x00\n    /* \"@openzeppelin/contracts/access/AccessControl.sol\":6272:6489  if (!hasRole(role, account)) {... */\ntag_15:\n    /* \"@openzeppelin/contracts/access/AccessControl.sol\":6179:6495  function _grantRole(bytes32 role, address account) internal virtual returns (bool) {... */\n  swap3\n  swap2\n  pop\n  pop\n  jump\t// out\n    /* \"contracts/MilkSupplyChain.sol\":1107:7238  contract MilkSupplyChain is MilkSupplyAccessControl {... */\ntag_8:\n  dataSize(sub_0)\n  dup1\n  dataOffset(sub_0)\n  0x00\n  codecopy\n  0x00\n  return\nstop\n\nsub_0: assembly {\n        /* \"contracts/MilkSupplyChain.sol\":1107:7238  contract MilkSupplyChain is MilkSupplyAccessControl {... */\n      mstore(0x40, 0x80)\n      callvalue\n      dup1\n      iszero\n      tag_1\n      jumpi\n      0x00\n      dup1\n      revert\n    tag_1:\n      pop\n      jumpi(tag_2, lt(calldatasize, 0x04))\n      shr(0xe0, calldataload(0x00))\n      dup1\n      0x874ae942\n      gt\n      tag_28\n      jumpi\n      dup1\n      0xab93d873\n      gt\n      tag_29\n      jumpi\n      dup1\n      0xd547741f\n      gt\n      tag_30\n      jumpi\n      dup1\n      0xd547741f\n      eq\n      tag_24\n      jumpi\n      dup1\n      0xe3a3c522\n      eq\n      tag_25\n      jumpi\n      dup1\n      0xeab1ddf2\n      eq\n      tag_26\n      jumpi\n      dup1\n      0xf3943970\n      eq\n      tag_27\n      jumpi\n      0x00\n      dup1\n      revert\n    tag_30:\n      dup1\n      0xab93d873\n      eq\n      tag_21\n      jumpi\n      dup1\n      0xaea32261\n      eq\n      tag_22\n      jumpi\n      dup1\n      0xb7022049\n      eq\n      tag_23\n      jumpi\n      0x00\n      dup1\n      revert\n    tag_29:\n      dup1\n      0x874ae942\n      eq\n      tag_15\n      jumpi\n      dup1\n      0x8ec4f505\n      eq\n      tag_16\n      jumpi\n      dup1\n      0x8fec82c5\n      eq\n      tag_17\n      jumpi\n      dup1\n      0x91d14854\n      eq\n      tag_18\n      jumpi\n      dup1\n      0x99cdcc5c\n      eq\n      tag_19\n      jumpi\n      dup1\n      0xa217fddf\n      eq\n      tag_20\n      jumpi\n      0x00\n      dup1\n      revert\n    tag_28:\n      dup1\n      0x36568abe\n      gt\n      tag_31\n      jumpi\n      dup1\n      0x36568abe\n      eq\n      tag_9\n      jumpi\n      dup1\n      0x4e266aea\n      eq\n      tag_10\n      jumpi\n      dup1\n      0x4eabbe77\n      eq\n      tag_11\n      jumpi\n      dup1\n      0x7e458492\n      eq\n      tag_12\n      jumpi\n      dup1\n      0x7f832973\n      eq\n      tag_13\n      jumpi\n      dup1\n      0x80c3f96d\n      eq\n      tag_14\n      jumpi\n      0x00\n      dup1\n      revert\n    tag_31:\n      dup1\n      0x01ffc9a7\n      eq\n      tag_3\n      jumpi\n      dup1\n      0x1a0058f5\n      eq\n      tag_4\n      jumpi\n      dup1\n      0x2115e7bf\n      eq\n      tag_5\n      jumpi\n      dup1\n      0x248a9ca3\n      eq\n      tag_6\n      jumpi\n      dup1\n      0x29507f73\n      eq\n      tag_7\n      jumpi\n      dup1\n      0x2f2ff15d\n      eq\n      tag_8\n      jumpi\n    tag_2:\n      0x00\n      dup1\n      revert\n        /* \"@openzeppelin/contracts/access/AccessControl.sol\":2565:2767  function supportsInterface(bytes4 interfaceId) public view virtual override returns (bool) {... */\n    tag_3:\n      tag_32\n      tag_33\n      calldatasize\n      0x04\n      tag_34\n      jump\t// in\n    tag_33:\n      tag_35\n      jump\t// in\n    tag_32:\n      mload(0x40)\n        /* \"#utility.yul\":470:484   */\n      swap1\n      iszero\n        /* \"#utility.yul\":463:485   */\n      iszero\n        /* \"#utility.yul\":445:486   */\n      dup2\n      mstore\n        /* \"#utility.yul\":433:435   */\n      0x20\n        /* \"#utility.yul\":418:436   */\n      add\n        /* \"@openzeppelin/contracts/access/AccessControl.sol\":2565:2767  function supportsInterface(bytes4 interfaceId) public view virtual override returns (bool) {... */\n    tag_36:\n      mload(0x40)\n      dup1\n      swap2\n      sub\n      swap1\n      return\n        /* \"contracts/MilkSupplyChain.sol\":6521:6647  function getBatchInfo(uint256 _batchId) public view returns (MilkBatch memory) {... */\n    tag_4:\n      tag_38\n      tag_39\n      calldatasize\n      0x04\n      tag_40\n      jump\t// in\n    tag_39:\n      tag_41\n      jump\t// in\n    tag_38:\n      mload(0x40)\n      tag_36\n      swap2\n      swap1\n      tag_43\n      jump\t// in\n        /* \"contracts/MilkSupplyChain.sol\":410:476  bytes32 public constant RETAILER_ROLE = keccak256(\"RETAILER_ROLE\") */\n    tag_5:\n      tag_44\n        /* \"contracts/MilkSupplyChain.sol\":450:476  keccak256(\"RETAILER_ROLE\") */\n      0x2a5f906c256a5d799494fcd066e1f6c077689de1cdb65052a1624de4bace99bf\n        /* \"contracts/MilkSupplyChain.sol\":410:476  bytes32 public constant RETAILER_ROLE = keccak256(\"RETAILER_ROLE\") */\n      dup2\n      jump\n    tag_44:\n      mload(0x40)\n        /* \"#utility.yul\":2801:2826   */\n      swap1\n      dup2\n      mstore\n        /* \"#utility.yul\":2789:2791   */\n      0x20\n        /* \"#utility.yul\":2774:2792   */\n      add\n        /* \"contracts/MilkSupplyChain.sol\":410:476  bytes32 public constant RETAILER_ROLE = keccak256(\"RETAILER_ROLE\") */\n      tag_36\n        /* \"#utility.yul\":2655:2832   */\n      jump\n        /* \"@openzeppelin/contracts/access/AccessControl.sol\":3810:3930  function getRoleAdmin(bytes32 role) public view virtual returns (bytes32) {... */\n    tag_6:\n      tag_44\n      tag_49\n      calldatasize\n      0x04\n      tag_40\n      jump\t// in\n    tag_49:\n        /* \"@openzeppelin/contracts/access/AccessControl.sol\":3875:3882  bytes32 */\n      0x00\n        /* \"@openzeppelin/contracts/access/AccessControl.sol\":3901:3913  _roles[role] */\n      swap1\n      dup2\n      mstore\n      0x20\n      dup2\n      swap1\n      mstore\n      0x40\n      swap1\n      keccak256\n        /* \"@openzeppelin/contracts/access/AccessControl.sol\":3901:3923  _roles[role].adminRole */\n      0x01\n      add\n      sload\n      swap1\n        /* \"@openzeppelin/contracts/access/AccessControl.sol\":3810:3930  function getRoleAdmin(bytes32 role) public view virtual returns (bytes32) {... */\n      jump\n        /* \"contracts/MilkSupplyChain.sol\":5577:6513  function transferOwnership(uint256 _batchId, address _newOwner) public {... */\n    tag_7:\n      tag_53\n      tag_54\n      calldatasize\n      0x04\n      tag_55\n      jump\t// in\n    tag_54:\n      tag_56\n      jump\t// in\n    tag_53:\n      stop\n        /* \"@openzeppelin/contracts/access/AccessControl.sol\":4226:4362  function grantRole(bytes32 role, address account) public virtual onlyRole(getRoleAdmin(role)) {... */\n    tag_8:\n      tag_53\n      tag_58\n      calldatasize\n      0x04\n      tag_55\n      jump\t// in\n    tag_58:\n      tag_60\n      jump\t// in\n        /* \"@openzeppelin/contracts/access/AccessControl.sol\":5328:5573  function renounceRole(bytes32 role, address callerConfirmation) public virtual {... */\n    tag_9:\n      tag_53\n      tag_62\n      calldatasize\n      0x04\n      tag_55\n      jump\t// in\n    tag_62:\n      tag_63\n      jump\t// in\n        /* \"contracts/MilkSupplyChain.sol\":1881:1929  mapping(uint256 => MilkBatch) public milkBatches */\n    tag_10:\n      tag_64\n      tag_65\n      calldatasize\n      0x04\n      tag_40\n      jump\t// in\n    tag_65:\n      tag_66\n      jump\t// in\n    tag_64:\n      mload(0x40)\n      tag_36\n      swap6\n      swap5\n      swap4\n      swap3\n      swap2\n      swap1\n      tag_68\n      jump\t// in\n        /* \"contracts/MilkSupplyChain.sol\":256:328  bytes32 public constant TRANSPORTER_ROLE = keccak256(\"TRANSPORTER_ROLE\") */\n    tag_11:\n      tag_44\n        /* \"contracts/MilkSupplyChain.sol\":299:328  keccak256(\"TRANSPORTER_ROLE\") */\n      0xddaa901e2fe3bda354fe0ede2785152d5c109282a613fe024a056a3e66c41bb3\n        /* \"contracts/MilkSupplyChain.sol\":256:328  bytes32 public constant TRANSPORTER_ROLE = keccak256(\"TRANSPORTER_ROLE\") */\n      dup2\n      jump\n        /* \"contracts/MilkSupplyChain.sol\":838:966  function addInspector(address account) public onlyRole(DEFAULT_ADMIN_ROLE) {... */\n    tag_12:\n      tag_53\n      tag_73\n      calldatasize\n      0x04\n      tag_74\n      jump\t// in\n    tag_73:\n      tag_75\n      jump\t// in\n        /* \"contracts/MilkSupplyChain.sol\":3596:4371  function updateTransportStatus(uint256 _batchId, string memory _status, string memory _reportCID, address _processor) public onlyRole(TRANSPORTER_ROLE) {... */\n    tag_13:\n      tag_53\n      tag_77\n      calldatasize\n      0x04\n      tag_78\n      jump\t// in\n    tag_77:\n      tag_79\n      jump\t// in\n        /* \"contracts/MilkSupplyChain.sol\":568:690  function addFarmer(address account) public onlyRole(DEFAULT_ADMIN_ROLE) {... */\n    tag_14:\n      tag_53\n      tag_81\n      calldatasize\n      0x04\n      tag_74\n      jump\t// in\n    tag_81:\n      tag_82\n      jump\t// in\n        /* \"contracts/MilkSupplyChain.sol\":4379:5052  function updateInspectionStatus(uint256 _batchId, string memory _status, string memory _reportCID, address _retailer) public onlyRole(INSPECTOR_ROLE) {... */\n    tag_15:\n      tag_53\n      tag_84\n      calldatasize\n      0x04\n      tag_78\n      jump\t// in\n    tag_84:\n      tag_85\n      jump\t// in\n        /* \"contracts/MilkSupplyChain.sol\":974:1100  function addRetailer(address account) public onlyRole(DEFAULT_ADMIN_ROLE) {... */\n    tag_16:\n      tag_53\n      tag_87\n      calldatasize\n      0x04\n      tag_74\n      jump\t// in\n    tag_87:\n      tag_88\n      jump\t// in\n        /* \"contracts/MilkSupplyChain.sol\":7021:7131  function getMyBatches() public view returns (uint256[] memory) {... */\n    tag_17:\n      tag_89\n      tag_90\n      jump\t// in\n    tag_89:\n      mload(0x40)\n      tag_36\n      swap2\n      swap1\n      tag_92\n      jump\t// in\n        /* \"@openzeppelin/contracts/access/AccessControl.sol\":2854:2990  function hasRole(bytes32 role, address account) public view virtual returns (bool) {... */\n    tag_18:\n      tag_32\n      tag_94\n      calldatasize\n      0x04\n      tag_55\n      jump\t// in\n    tag_94:\n      tag_95\n      jump\t// in\n        /* \"contracts/MilkSupplyChain.sol\":6655:7013  function getPublicBatchInfo(uint256 _batchId) public view returns (uint256, uint256, uint256, string memory) {... */\n    tag_19:\n      tag_97\n      tag_98\n      calldatasize\n      0x04\n      tag_40\n      jump\t// in\n    tag_98:\n      tag_99\n      jump\t// in\n    tag_97:\n      mload(0x40)\n      tag_36\n      swap5\n      swap4\n      swap3\n      swap2\n      swap1\n      tag_101\n      jump\t// in\n        /* \"@openzeppelin/contracts/access/AccessControl.sol\":2187:2236  bytes32 public constant DEFAULT_ADMIN_ROLE = 0x00 */\n    tag_20:\n      tag_44\n        /* \"@openzeppelin/contracts/access/AccessControl.sol\":2232:2236  0x00 */\n      0x00\n        /* \"@openzeppelin/contracts/access/AccessControl.sol\":2187:2236  bytes32 public constant DEFAULT_ADMIN_ROLE = 0x00 */\n      dup2\n      jump\n        /* \"contracts/MilkSupplyChain.sol\":2615:3588  function createBatch(uint256 _weight, uint256 _expiryDate, address _transporter) public onlyRole(FARMER_ROLE) returns (uint256) {... */\n    tag_21:\n      tag_44\n      tag_106\n      calldatasize\n      0x04\n      tag_107\n      jump\t// in\n    tag_106:\n      tag_108\n      jump\t// in\n        /* \"contracts/MilkSupplyChain.sol\":7139:7235  function getLatestBatchId() public view returns (uint256) {... */\n    tag_22:\n        /* \"contracts/MilkSupplyChain.sol\":7215:7227  batchCounter */\n      sload(0x01)\n        /* \"contracts/MilkSupplyChain.sol\":7139:7235  function getLatestBatchId() public view returns (uint256) {... */\n      jump(tag_44)\n        /* \"contracts/MilkSupplyChain.sol\":698:830  function addTransporter(address account) public onlyRole(DEFAULT_ADMIN_ROLE) {... */\n    tag_23:\n      tag_53\n      tag_115\n      calldatasize\n      0x04\n      tag_74\n      jump\t// in\n    tag_115:\n      tag_116\n      jump\t// in\n        /* \"@openzeppelin/contracts/access/AccessControl.sol\":4642:4780  function revokeRole(bytes32 role, address account) public virtual onlyRole(getRoleAdmin(role)) {... */\n    tag_24:\n      tag_53\n      tag_118\n      calldatasize\n      0x04\n      tag_55\n      jump\t// in\n    tag_118:\n      tag_119\n      jump\t// in\n        /* \"contracts/MilkSupplyChain.sol\":335:403  bytes32 public constant INSPECTOR_ROLE = keccak256(\"INSPECTOR_ROLE\") */\n    tag_25:\n      tag_44\n        /* \"contracts/MilkSupplyChain.sol\":376:403  keccak256(\"INSPECTOR_ROLE\") */\n      0x273dcf2136c7d8ef632bb8ef13dbca69a8f36fa620c7468671b3153d46a211c0\n        /* \"contracts/MilkSupplyChain.sol\":335:403  bytes32 public constant INSPECTOR_ROLE = keccak256(\"INSPECTOR_ROLE\") */\n      dup2\n      jump\n        /* \"contracts/MilkSupplyChain.sol\":5060:5569  function updateReceivingStatus(uint256 _batchId, string memory _status, string memory _reportCID) public onlyRole(RETAILER_ROLE) {... */\n    tag_26:\n      tag_53\n      tag_124\n      calldatasize\n      0x04\n      tag_125\n      jump\t// in\n    tag_124:\n      tag_126\n      jump\t// in\n        /* \"contracts/MilkSupplyChain.sol\":187:249  bytes32 public constant FARMER_ROLE = keccak256(\"FARMER_ROLE\") */\n    tag_27:\n      tag_44\n        /* \"contracts/MilkSupplyChain.sol\":225:249  keccak256(\"FARMER_ROLE\") */\n      0x7c6181838a71a779e445600d4c6ecbe16bacf2b3c5bda69c29fada66d1b645d1\n        /* \"contracts/MilkSupplyChain.sol\":187:249  bytes32 public constant FARMER_ROLE = keccak256(\"FARMER_ROLE\") */\n      dup2\n      jump\n        /* \"@openzeppelin/contracts/access/AccessControl.sol\":2565:2767  function supportsInterface(bytes4 interfaceId) public view virtual override returns (bool) {... */\n    tag_35:\n        /* \"@openzeppelin/contracts/access/AccessControl.sol\":2650:2654  bool */\n      0x00\n      not(sub(shl(0xe0, 0x01), 0x01))\n        /* \"@openzeppelin/contracts/access/AccessControl.sol\":2673:2720  interfaceId == type(IAccessControl).interfaceId */\n      dup3\n      and\n      shl(0xe0, 0x7965db0b)\n      eq\n      dup1\n        /* \"@openzeppelin/contracts/access/AccessControl.sol\":2673:2760  interfaceId == type(IAccessControl).interfaceId || super.supportsInterface(interfaceId) */\n      tag_132\n      jumpi\n      pop\n      shl(0xe0, 0x01ffc9a7)\n      not(sub(shl(0xe0, 0x01), 0x01))\n        /* \"@openzeppelin/contracts/utils/introspection/ERC165.sol\":861:901  interfaceId == type(IERC165).interfaceId */\n      dup4\n      and\n      eq\n        /* \"@openzeppelin/contracts/access/AccessControl.sol\":2724:2760  super.supportsInterface(interfaceId) */\n    tag_132:\n        /* \"@openzeppelin/contracts/access/AccessControl.sol\":2666:2760  return interfaceId == type(IAccessControl).interfaceId || super.supportsInterface(interfaceId) */\n      swap3\n        /* \"@openzeppelin/contracts/access/AccessControl.sol\":2565:2767  function supportsInterface(bytes4 interfaceId) public view virtual override returns (bool) {... */\n      swap2\n      pop\n      pop\n      jump\t// out\n        /* \"contracts/MilkSupplyChain.sol\":6521:6647  function getBatchInfo(uint256 _batchId) public view returns (MilkBatch memory) {... */\n    tag_41:\n        /* \"contracts/MilkSupplyChain.sol\":6582:6598  MilkBatch memory */\n      tag_134\n      tag_135\n      jump\t// in\n    tag_134:\n        /* \"contracts/MilkSupplyChain.sol\":6618:6639  milkBatches[_batchId] */\n      0x00\n      dup3\n      dup2\n      mstore\n        /* \"contracts/MilkSupplyChain.sol\":6618:6629  milkBatches */\n      0x02\n        /* \"contracts/MilkSupplyChain.sol\":6618:6639  milkBatches[_batchId] */\n      0x20\n      dup2\n      dup2\n      mstore\n      0x40\n      swap3\n      dup4\n      swap1\n      keccak256\n        /* \"contracts/MilkSupplyChain.sol\":6611:6639  return milkBatches[_batchId] */\n      dup4\n      mload\n      0x0100\n      dup2\n      add\n      dup6\n      mstore\n      dup2\n      sload\n      0xa0\n      dup3\n      add\n      swap1\n      dup2\n      mstore\n      0x01\n      dup4\n      add\n      sload\n      0xc0\n      dup4\n      add\n      mstore\n      swap4\n      dup3\n      add\n      sload\n      0xe0\n      dup3\n      add\n      mstore\n      swap3\n      dup4\n      mstore\n      dup4\n      mload\n      0x60\n      dup2\n      add\n      swap1\n      swap5\n      mstore\n      0x03\n      dup2\n      add\n      dup1\n      sload\n      sub(shl(0xa0, 0x01), 0x01)\n      and\n      dup6\n      mstore\n      0x04\n      dup3\n      add\n      dup1\n      sload\n      swap5\n      swap6\n        /* \"contracts/MilkSupplyChain.sol\":6618:6639  milkBatches[_batchId] */\n      swap3\n      swap5\n        /* \"contracts/MilkSupplyChain.sol\":6611:6639  return milkBatches[_batchId] */\n      dup7\n      dup6\n      add\n      swap5\n      dup5\n      add\n      swap2\n      swap1\n      tag_137\n      swap1\n      tag_138\n      jump\t// in\n    tag_137:\n      dup1\n      0x1f\n      add\n      0x20\n      dup1\n      swap2\n      div\n      mul\n      0x20\n      add\n      mload(0x40)\n      swap1\n      dup2\n      add\n      0x40\n      mstore\n      dup1\n      swap3\n      swap2\n      swap1\n      dup2\n      dup2\n      mstore\n      0x20\n      add\n      dup3\n      dup1\n      sload\n      tag_139\n      swap1\n      tag_138\n      jump\t// in\n    tag_139:\n      dup1\n      iszero\n      tag_140\n      jumpi\n      dup1\n      0x1f\n      lt\n      tag_141\n      jumpi\n      0x0100\n      dup1\n      dup4\n      sload\n      div\n      mul\n      dup4\n      mstore\n      swap2\n      0x20\n      add\n      swap2\n      jump(tag_140)\n    tag_141:\n      dup3\n      add\n      swap2\n      swap1\n      0x00\n      mstore\n      keccak256(0x00, 0x20)\n      swap1\n    tag_142:\n      dup2\n      sload\n      dup2\n      mstore\n      swap1\n      0x01\n      add\n      swap1\n      0x20\n      add\n      dup1\n      dup4\n      gt\n      tag_142\n      jumpi\n      dup3\n      swap1\n      sub\n      0x1f\n      and\n      dup3\n      add\n      swap2\n    tag_140:\n      pop\n      pop\n      pop\n      pop\n      pop\n      dup2\n      mstore\n      0x20\n      add\n      0x02\n      dup3\n      add\n      dup1\n      sload\n      tag_143\n      swap1\n      tag_138\n      jump\t// in\n    tag_143:\n      dup1\n      0x1f\n      add\n      0x20\n      dup1\n      swap2\n      div\n      mul\n      0x20\n      add\n      mload(0x40)\n      swap1\n      dup2\n      add\n      0x40\n      mstore\n      dup1\n      swap3\n      swap2\n      swap1\n      dup2\n      dup2\n      mstore\n      0x20\n      add\n      dup3\n      dup1\n      sload\n      tag_144\n      swap1\n      tag_138\n      jump\t// in\n    tag_144:\n      dup1\n      iszero\n      tag_145\n      jumpi\n      dup1\n      0x1f\n      lt\n      tag_146\n      jumpi\n      0x0100\n      dup1\n      dup4\n      sload\n      div\n      mul\n      dup4\n      mstore\n      swap2\n      0x20\n      add\n      swap2\n      jump(tag_145)\n    tag_146:\n      dup3\n      add\n      swap2\n      swap1\n      0x00\n      mstore\n      keccak256(0x00, 0x20)\n      swap1\n    tag_147:\n      dup2\n      sload\n      dup2\n      mstore\n      swap1\n      0x01\n      add\n      swap1\n      0x20\n      add\n      dup1\n      dup4\n      gt\n      tag_147\n      jumpi\n      dup3\n      swap1\n      sub\n      0x1f\n      and\n      dup3\n      add\n      swap2\n    tag_145:\n      pop\n      pop\n      pop\n      swap2\n      swap1\n      swap3\n      mstore\n      pop\n      pop\n      pop\n      dup2\n      mstore\n      0x40\n      dup1\n      mload\n      0x60\n      dup2\n      add\n      swap1\n      swap2\n      mstore\n      0x06\n      dup4\n      add\n      dup1\n      sload\n      sub(shl(0xa0, 0x01), 0x01)\n      and\n      dup3\n      mstore\n      0x07\n      dup5\n      add\n      dup1\n      sload\n      0x20\n      swap5\n      dup6\n      add\n      swap5\n      dup5\n      add\n      swap2\n      swap1\n      tag_148\n      swap1\n      tag_138\n      jump\t// in\n    tag_148:\n      dup1\n      0x1f\n      add\n      0x20\n      dup1\n      swap2\n      div\n      mul\n      0x20\n      add\n      mload(0x40)\n      swap1\n      dup2\n      add\n      0x40\n      mstore\n      dup1\n      swap3\n      swap2\n      swap1\n      dup2\n      dup2\n      mstore\n      0x20\n      add\n      dup3\n      dup1\n      sload\n      tag_149\n      swap1\n      tag_138\n      jump\t// in\n    tag_149:\n      dup1\n      iszero\n      tag_150\n      jumpi\n      dup1\n      0x1f\n      lt\n      tag_151\n      jumpi\n      0x0100\n      dup1\n      dup4\n      sload\n      div\n      mul\n      dup4\n      mstore\n      swap2\n      0x20\n      add\n      swap2\n      jump(tag_150)\n    tag_151:\n      dup3\n      add\n      swap2\n      swap1\n      0x00\n      mstore\n      keccak256(0x00, 0x20)\n      swap1\n    tag_152:\n      dup2\n      sload\n      dup2\n      mstore\n      swap1\n      0x01\n      add\n      swap1\n      0x20\n      add\n      dup1\n      dup4\n      gt\n      tag_152\n      jumpi\n      dup3\n      swap1\n      sub\n      0x1f\n      and\n      dup3\n      add\n      swap2\n    tag_150:\n      pop\n      pop\n      pop\n      pop\n      pop\n      dup2\n      mstore\n      0x20\n      add\n      0x02\n      dup3\n      add\n      dup1\n      sload\n      tag_153\n      swap1\n      tag_138\n      jump\t// in\n    tag_153:\n      dup1\n      0x1f\n      add\n      0x20\n      dup1\n      swap2\n      div\n      mul\n      0x20\n      add\n      mload(0x40)\n      swap1\n      dup2\n      add\n      0x40\n      mstore\n      dup1\n      swap3\n      swap2\n      swap1\n      dup2\n      dup2\n      mstore\n      0x20\n      add\n      dup3\n      dup1\n      sload\n      tag_154\n      swap1\n      tag_138\n      jump\t// in\n    tag_154:\n      dup1\n      iszero\n      tag_155\n      jumpi\n      dup1\n      0x1f\n      lt\n      tag_156\n      jumpi\n      0x0100\n      dup1\n      dup4\n      sload\n      div\n      mul\n      dup4\n      mstore\n      swap2\n      0x20\n      add\n      swap2\n      jump(tag_155)\n    tag_156:\n      dup3\n      add\n      swap2\n      swap1\n      0x00\n      mstore\n      keccak256(0x00, 0x20)\n      swap1\n    tag_157:\n      dup2\n      sload\n      dup2\n      mstore\n      swap1\n      0x01\n      add\n      swap1\n      0x20\n      add\n      dup1\n      dup4\n      gt\n      tag_157\n      jumpi\n      dup3\n      swap1\n      sub\n      0x1f\n      and\n      dup3\n      add\n      swap2\n    tag_155:\n      pop\n      pop\n      pop\n      swap2\n      swap1\n      swap3\n      mstore\n      pop\n      pop\n      pop\n      dup2\n      mstore\n      0x40\n      dup1\n      mload\n      0x60\n      dup2\n      add\n      swap1\n      swap2\n      mstore\n      0x09\n      dup4\n      add\n      dup1\n      sload\n      sub(shl(0xa0, 0x01), 0x01)\n      and\n      dup3\n      mstore\n      0x0a\n      dup5\n      add\n      dup1\n      sload\n      0x20\n      swap5\n      dup6\n      add\n      swap5\n      dup5\n      add\n      swap2\n      swap1\n      tag_158\n      swap1\n      tag_138\n      jump\t// in\n    tag_158:\n      dup1\n      0x1f\n      add\n      0x20\n      dup1\n      swap2\n      div\n      mul\n      0x20\n      add\n      mload(0x40)\n      swap1\n      dup2\n      add\n      0x40\n      mstore\n      dup1\n      swap3\n      swap2\n      swap1\n      dup2\n      dup2\n      mstore\n      0x20\n      add\n      dup3\n      dup1\n      sload\n      tag_159\n      swap1\n      tag_138\n      jump\t// in\n    tag_159:\n      dup1\n      iszero\n      tag_160\n      jumpi\n      dup1\n      0x1f\n      lt\n      tag_161\n      jumpi\n      0x0100\n      dup1\n      dup4\n      sload\n      div\n      mul\n      dup4\n      mstore\n      swap2\n      0x20\n      add\n      swap2\n      jump(tag_160)\n    tag_161:\n      dup3\n      add\n      swap2\n      swap1\n      0x00\n      mstore\n      keccak256(0x00, 0x20)\n      swap1\n    tag_162:\n      dup2\n      sload\n      dup2\n      mstore\n      swap1\n      0x01\n      add\n      swap1\n      0x20\n      add\n      dup1\n      dup4\n      gt\n      tag_162\n      jumpi\n      dup3\n      swap1\n      sub\n      0x1f\n      and\n      dup3\n      add\n      swap2\n    tag_160:\n      pop\n      pop\n      pop\n      pop\n      pop\n      dup2\n      mstore\n      0x20\n      add\n      0x02\n      dup3\n      add\n      dup1\n      sload\n      tag_163\n      swap1\n      tag_138\n      jump\t// in\n    tag_163:\n      dup1\n      0x1f\n      add\n      0x20\n      dup1\n      swap2\n      div\n      mul\n      0x20\n      add\n      mload(0x40)\n      swap1\n      dup2\n      add\n      0x40\n      mstore\n      dup1\n      swap3\n      swap2\n      swap1\n      dup2\n      dup2\n      mstore\n      0x20\n      add\n      dup3\n      dup1\n      sload\n      tag_164\n      swap1\n      tag_138\n      jump\t// in\n    tag_164:\n      dup1\n      iszero\n      tag_165\n      jumpi\n      dup1\n      0x1f\n      lt\n      tag_166\n      jumpi\n      0x0100\n      dup1\n      dup4\n      sload\n      div\n      mul\n      dup4\n      mstore\n      swap2\n      0x20\n      add\n      swap2\n      jump(tag_165)\n    tag_166:\n      dup3\n      add\n      swap2\n      swap1\n      0x00\n      mstore\n      keccak256(0x00, 0x20)\n      swap1\n    tag_167:\n      dup2\n      sload\n      dup2\n      mstore\n      swap1\n      0x01\n      add\n      swap1\n      0x20\n      add\n      dup1\n      dup4\n      gt\n      tag_167\n      jumpi\n      dup3\n      swap1\n      sub\n      0x1f\n      and\n      dup3\n      add\n      swap2\n    tag_165:\n      pop\n      pop\n      pop\n      swap2\n      swap1\n      swap3\n      mstore\n      pop\n      pop\n      pop\n      dup2\n      mstore\n      0x0c\n      swap2\n      swap1\n      swap2\n      add\n      sload\n      sub(shl(0xa0, 0x01), 0x01)\n      and\n      0x20\n      swap1\n      swap2\n      add\n      mstore\n      swap3\n        /* \"contracts/MilkSupplyChain.sol\":6521:6647  function getBatchInfo(uint256 _batchId) public view returns (MilkBatch memory) {... */\n      swap2\n      pop\n      pop\n      jump\t// out\n        /* \"contracts/MilkSupplyChain.sol\":5577:6513  function transferOwnership(uint256 _batchId, address _newOwner) public {... */\n    tag_56:\n        /* \"contracts/MilkSupplyChain.sol\":5667:5688  milkBatches[_batchId] */\n      0x00\n      dup3\n      dup2\n      mstore\n        /* \"contracts/MilkSupplyChain.sol\":5667:5678  milkBatches */\n      0x02\n        /* \"contracts/MilkSupplyChain.sol\":5667:5688  milkBatches[_batchId] */\n      0x20\n      mstore\n      0x40\n      swap1\n      keccak256\n        /* \"contracts/MilkSupplyChain.sol\":5667:5701  milkBatches[_batchId].currentOwner */\n      0x0c\n      add\n      sload\n      sub(shl(0xa0, 0x01), 0x01)\n      and\n        /* \"contracts/MilkSupplyChain.sol\":5705:5715  msg.sender */\n      caller\n        /* \"contracts/MilkSupplyChain.sol\":5667:5715  milkBatches[_batchId].currentOwner == msg.sender */\n      eq\n        /* \"contracts/MilkSupplyChain.sol\":5659:5751  require(milkBatches[_batchId].currentOwner == msg.sender, \"Only current owner can transfer\") */\n      tag_170\n      jumpi\n      mload(0x40)\n      shl(0xe5, 0x461bcd)\n      dup2\n      mstore\n        /* \"#utility.yul\":9510:9512   */\n      0x20\n        /* \"contracts/MilkSupplyChain.sol\":5659:5751  require(milkBatches[_batchId].currentOwner == msg.sender, \"Only current owner can transfer\") */\n      0x04\n      dup3\n      add\n        /* \"#utility.yul\":9492:9513   */\n      mstore\n        /* \"#utility.yul\":9549:9551   */\n      0x1f\n        /* \"#utility.yul\":9529:9547   */\n      0x24\n      dup3\n      add\n        /* \"#utility.yul\":9522:9552   */\n      mstore\n        /* \"#utility.yul\":9588:9621   */\n      0x4f6e6c792063757272656e74206f776e65722063616e207472616e7366657200\n        /* \"#utility.yul\":9568:9586   */\n      0x44\n      dup3\n      add\n        /* \"#utility.yul\":9561:9622   */\n      mstore\n        /* \"#utility.yul\":9639:9657   */\n      0x64\n      add\n        /* \"contracts/MilkSupplyChain.sol\":5659:5751  require(milkBatches[_batchId].currentOwner == msg.sender, \"Only current owner can transfer\") */\n    tag_171:\n      mload(0x40)\n      dup1\n      swap2\n      sub\n      swap1\n      revert\n    tag_170:\n        /* \"contracts/MilkSupplyChain.sol\":5762:5783  address previousOwner */\n      0x00\n        /* \"contracts/MilkSupplyChain.sol\":5786:5807  milkBatches[_batchId] */\n      dup3\n      dup2\n      mstore\n        /* \"contracts/MilkSupplyChain.sol\":5786:5797  milkBatches */\n      0x02\n        /* \"contracts/MilkSupplyChain.sol\":5786:5807  milkBatches[_batchId] */\n      0x20\n      swap1\n      dup2\n      mstore\n      0x40\n      dup1\n      dup4\n      keccak256\n        /* \"contracts/MilkSupplyChain.sol\":5786:5820  milkBatches[_batchId].currentOwner */\n      0x0c\n      add\n      dup1\n      sload\n      sub(shl(0xa0, 0x01), 0x01)\n        /* \"contracts/MilkSupplyChain.sol\":5831:5877  milkBatches[_batchId].currentOwner = _newOwner */\n      dup7\n      dup2\n      and\n      not(sub(shl(0xa0, 0x01), 0x01))\n      dup4\n      and\n      or\n      swap1\n      swap3\n      sstore\n        /* \"contracts/MilkSupplyChain.sol\":5786:5820  milkBatches[_batchId].currentOwner */\n      and\n        /* \"contracts/MilkSupplyChain.sol\":5991:6015  myBatches[previousOwner] */\n      dup1\n      dup5\n      mstore\n        /* \"contracts/MilkSupplyChain.sol\":5991:6000  myBatches */\n      0x03\n        /* \"contracts/MilkSupplyChain.sol\":5991:6015  myBatches[previousOwner] */\n      swap1\n      swap3\n      mstore\n      dup3\n      keccak256\n        /* \"contracts/MilkSupplyChain.sol\":5786:5820  milkBatches[_batchId].currentOwner */\n      swap1\n      swap2\n        /* \"contracts/MilkSupplyChain.sol\":6026:6334  for (uint256 i = 0; i < previousOwnerBatches.length; i++) {... */\n    tag_173:\n        /* \"contracts/MilkSupplyChain.sol\":6050:6077  previousOwnerBatches.length */\n      dup2\n      sload\n        /* \"contracts/MilkSupplyChain.sol\":6046:6077  i < previousOwnerBatches.length */\n      dup2\n      lt\n        /* \"contracts/MilkSupplyChain.sol\":6026:6334  for (uint256 i = 0; i < previousOwnerBatches.length; i++) {... */\n      iszero\n      tag_174\n      jumpi\n        /* \"contracts/MilkSupplyChain.sol\":6130:6138  _batchId */\n      dup5\n        /* \"contracts/MilkSupplyChain.sol\":6103:6123  previousOwnerBatches */\n      dup3\n        /* \"contracts/MilkSupplyChain.sol\":6124:6125  i */\n      dup3\n        /* \"contracts/MilkSupplyChain.sol\":6103:6126  previousOwnerBatches[i] */\n      dup2\n      sload\n      dup2\n      lt\n      tag_177\n      jumpi\n      tag_177\n      tag_178\n      jump\t// in\n    tag_177:\n      swap1\n      0x00\n      mstore\n      keccak256(0x00, 0x20)\n      add\n      sload\n        /* \"contracts/MilkSupplyChain.sol\":6103:6138  previousOwnerBatches[i] == _batchId */\n      sub\n        /* \"contracts/MilkSupplyChain.sol\":6099:6323  if (previousOwnerBatches[i] == _batchId) {... */\n      tag_180\n      jumpi\n        /* \"contracts/MilkSupplyChain.sol\":6206:6233  previousOwnerBatches.length */\n      dup2\n      sload\n        /* \"contracts/MilkSupplyChain.sol\":6185:6205  previousOwnerBatches */\n      dup3\n      swap1\n        /* \"contracts/MilkSupplyChain.sol\":6206:6237  previousOwnerBatches.length - 1 */\n      tag_181\n      swap1\n        /* \"contracts/MilkSupplyChain.sol\":6236:6237  1 */\n      0x01\n      swap1\n        /* \"contracts/MilkSupplyChain.sol\":6206:6237  previousOwnerBatches.length - 1 */\n      tag_182\n      jump\t// in\n    tag_181:\n        /* \"contracts/MilkSupplyChain.sol\":6185:6238  previousOwnerBatches[previousOwnerBatches.length - 1] */\n      dup2\n      sload\n      dup2\n      lt\n      tag_184\n      jumpi\n      tag_184\n      tag_178\n      jump\t// in\n    tag_184:\n      swap1\n      0x00\n      mstore\n      keccak256(0x00, 0x20)\n      add\n      sload\n        /* \"contracts/MilkSupplyChain.sol\":6159:6179  previousOwnerBatches */\n      dup3\n        /* \"contracts/MilkSupplyChain.sol\":6180:6181  i */\n      dup3\n        /* \"contracts/MilkSupplyChain.sol\":6159:6182  previousOwnerBatches[i] */\n      dup2\n      sload\n      dup2\n      lt\n      tag_187\n      jumpi\n      tag_187\n      tag_178\n      jump\t// in\n    tag_187:\n      swap1\n      0x00\n      mstore\n      keccak256(0x00, 0x20)\n      add\n        /* \"contracts/MilkSupplyChain.sol\":6159:6238  previousOwnerBatches[i] = previousOwnerBatches[previousOwnerBatches.length - 1] */\n      dup2\n      swap1\n      sstore\n      pop\n        /* \"contracts/MilkSupplyChain.sol\":6257:6277  previousOwnerBatches */\n      dup2\n        /* \"contracts/MilkSupplyChain.sol\":6257:6283  previousOwnerBatches.pop() */\n      dup1\n      sload\n      dup1\n      tag_190\n      jumpi\n      tag_190\n      tag_191\n      jump\t// in\n    tag_190:\n      0x01\n      swap1\n      sub\n      dup2\n      dup2\n      swap1\n      0x00\n      mstore\n      keccak256(0x00, 0x20)\n      add\n      0x00\n      swap1\n      sstore\n      swap1\n      sstore\n        /* \"contracts/MilkSupplyChain.sol\":6302:6307  break */\n      jump(tag_174)\n        /* \"contracts/MilkSupplyChain.sol\":6099:6323  if (previousOwnerBatches[i] == _batchId) {... */\n    tag_180:\n        /* \"contracts/MilkSupplyChain.sol\":6079:6082  i++ */\n      0x01\n      add\n        /* \"contracts/MilkSupplyChain.sol\":6026:6334  for (uint256 i = 0; i < previousOwnerBatches.length; i++) {... */\n      jump(tag_173)\n    tag_174:\n      pop\n      sub(shl(0xa0, 0x01), 0x01)\n        /* \"contracts/MilkSupplyChain.sol\":6396:6416  myBatches[_newOwner] */\n      dup4\n      dup2\n      and\n      0x00\n      dup2\n      dup2\n      mstore\n        /* \"contracts/MilkSupplyChain.sol\":6396:6405  myBatches */\n      0x03\n        /* \"contracts/MilkSupplyChain.sol\":6396:6416  myBatches[_newOwner] */\n      0x20\n      swap1\n      dup2\n      mstore\n      0x40\n      dup1\n      dup4\n      keccak256\n        /* \"contracts/MilkSupplyChain.sol\":6396:6431  myBatches[_newOwner].push(_batchId) */\n      dup1\n      sload\n      0x01\n      dup2\n      add\n      dup3\n      sstore\n      swap1\n      dup5\n      mstore\n      swap3\n      dup3\n      swap1\n      keccak256\n      swap1\n      swap3\n      add\n      dup9\n      swap1\n      sstore\n        /* \"contracts/MilkSupplyChain.sol\":6449:6505  OwnershipTransferred(_batchId, previousOwner, _newOwner) */\n      dup2\n      mload\n        /* \"#utility.yul\":10399:10424   */\n      dup9\n      dup2\n      mstore\n        /* \"#utility.yul\":10460:10492   */\n      swap4\n      dup7\n      and\n        /* \"#utility.yul\":10440:10458   */\n      swap1\n      dup5\n      add\n        /* \"#utility.yul\":10433:10493   */\n      mstore\n        /* \"#utility.yul\":10509:10527   */\n      dup3\n      add\n        /* \"#utility.yul\":10502:10562   */\n      mstore\n        /* \"contracts/MilkSupplyChain.sol\":6449:6505  OwnershipTransferred(_batchId, previousOwner, _newOwner) */\n      0x16b85f49bf01212961345d3016c9a531894accf62eb7680f2045d79185cc0ec0\n      swap1\n        /* \"#utility.yul\":10387:10389   */\n      0x60\n        /* \"#utility.yul\":10372:10390   */\n      add\n        /* \"contracts/MilkSupplyChain.sol\":6449:6505  OwnershipTransferred(_batchId, previousOwner, _newOwner) */\n      mload(0x40)\n      dup1\n      swap2\n      sub\n      swap1\n      log1\n        /* \"contracts/MilkSupplyChain.sol\":5648:6513  {... */\n      pop\n      pop\n        /* \"contracts/MilkSupplyChain.sol\":5577:6513  function transferOwnership(uint256 _batchId, address _newOwner) public {... */\n      pop\n      pop\n      jump\t// out\n        /* \"@openzeppelin/contracts/access/AccessControl.sol\":4226:4362  function grantRole(bytes32 role, address account) public virtual onlyRole(getRoleAdmin(role)) {... */\n    tag_60:\n        /* \"@openzeppelin/contracts/access/AccessControl.sol\":3875:3882  bytes32 */\n      0x00\n        /* \"@openzeppelin/contracts/access/AccessControl.sol\":3901:3913  _roles[role] */\n      dup3\n      dup2\n      mstore\n      0x20\n      dup2\n      swap1\n      mstore\n      0x40\n      swap1\n      keccak256\n        /* \"@openzeppelin/contracts/access/AccessControl.sol\":3901:3923  _roles[role].adminRole */\n      0x01\n      add\n      sload\n        /* \"@openzeppelin/contracts/access/AccessControl.sol\":2464:2480  _checkRole(role) */\n      tag_198\n        /* \"@openzeppelin/contracts/access/AccessControl.sol\":2475:2479  role */\n      dup2\n        /* \"@openzeppelin/contracts/access/AccessControl.sol\":2464:2474  _checkRole */\n      tag_199\n        /* \"@openzeppelin/contracts/access/AccessControl.sol\":2464:2480  _checkRole(role) */\n      jump\t// in\n    tag_198:\n        /* \"@openzeppelin/contracts/access/AccessControl.sol\":4330:4355  _grantRole(role, account) */\n      tag_201\n        /* \"@openzeppelin/contracts/access/AccessControl.sol\":4341:4345  role */\n      dup4\n        /* \"@openzeppelin/contracts/access/AccessControl.sol\":4347:4354  account */\n      dup4\n        /* \"@openzeppelin/contracts/access/AccessControl.sol\":4330:4340  _grantRole */\n      tag_202\n        /* \"@openzeppelin/contracts/access/AccessControl.sol\":4330:4355  _grantRole(role, account) */\n      jump\t// in\n    tag_201:\n      pop\n        /* \"@openzeppelin/contracts/access/AccessControl.sol\":4226:4362  function grantRole(bytes32 role, address account) public virtual onlyRole(getRoleAdmin(role)) {... */\n      pop\n      pop\n      pop\n      jump\t// out\n        /* \"@openzeppelin/contracts/access/AccessControl.sol\":5328:5573  function renounceRole(bytes32 role, address callerConfirmation) public virtual {... */\n    tag_63:\n      sub(shl(0xa0, 0x01), 0x01)\n        /* \"@openzeppelin/contracts/access/AccessControl.sol\":5421:5455  callerConfirmation != _msgSender() */\n      dup2\n      and\n        /* \"@openzeppelin/contracts/utils/Context.sol\":735:745  msg.sender */\n      caller\n        /* \"@openzeppelin/contracts/access/AccessControl.sol\":5421:5455  callerConfirmation != _msgSender() */\n      eq\n        /* \"@openzeppelin/contracts/access/AccessControl.sol\":5417:5519  if (callerConfirmation != _msgSender()) {... */\n      tag_206\n      jumpi\n        /* \"@openzeppelin/contracts/access/AccessControl.sol\":5478:5508  AccessControlBadConfirmation() */\n      mload(0x40)\n      shl(0xe1, 0x334bd919)\n      dup2\n      mstore\n      0x04\n      add\n      mload(0x40)\n      dup1\n      swap2\n      sub\n      swap1\n      revert\n        /* \"@openzeppelin/contracts/access/AccessControl.sol\":5417:5519  if (callerConfirmation != _msgSender()) {... */\n    tag_206:\n        /* \"@openzeppelin/contracts/access/AccessControl.sol\":5529:5566  _revokeRole(role, callerConfirmation) */\n      tag_207\n        /* \"@openzeppelin/contracts/access/AccessControl.sol\":5541:5545  role */\n      dup3\n        /* \"@openzeppelin/contracts/access/AccessControl.sol\":5547:5565  callerConfirmation */\n      dup3\n        /* \"@openzeppelin/contracts/access/AccessControl.sol\":5529:5540  _revokeRole */\n      tag_208\n        /* \"@openzeppelin/contracts/access/AccessControl.sol\":5529:5566  _revokeRole(role, callerConfirmation) */\n      jump\t// in\n    tag_207:\n      pop\n        /* \"@openzeppelin/contracts/access/AccessControl.sol\":5328:5573  function renounceRole(bytes32 role, address callerConfirmation) public virtual {... */\n      pop\n      pop\n      jump\t// out\n        /* \"contracts/MilkSupplyChain.sol\":1881:1929  mapping(uint256 => MilkBatch) public milkBatches */\n    tag_66:\n      0x02\n      0x20\n      dup2\n      dup2\n      mstore\n      0x00\n      swap3\n      dup4\n      mstore\n      0x40\n      swap3\n      dup4\n      swap1\n      keccak256\n      dup4\n      mload\n      0x60\n      dup1\n      dup3\n      add\n      dup7\n      mstore\n      dup3\n      sload\n      dup3\n      mstore\n      0x01\n      dup4\n      add\n      sload\n      dup3\n      dup6\n      add\n      mstore\n      swap4\n      dup3\n      add\n      sload\n      dup2\n      dup7\n      add\n      mstore\n      dup5\n      mload\n      swap4\n      dup5\n      add\n      swap1\n      swap5\n      mstore\n      0x03\n      dup2\n      add\n      dup1\n      sload\n      sub(shl(0xa0, 0x01), 0x01)\n      and\n      dup5\n      mstore\n      0x04\n      dup3\n      add\n      dup1\n      sload\n      swap3\n      swap5\n      swap4\n      swap2\n      swap3\n      swap2\n      dup5\n      add\n      swap2\n      tag_209\n      swap1\n      tag_138\n      jump\t// in\n    tag_209:\n      dup1\n      0x1f\n      add\n      0x20\n      dup1\n      swap2\n      div\n      mul\n      0x20\n      add\n      mload(0x40)\n      swap1\n      dup2\n      add\n      0x40\n      mstore\n      dup1\n      swap3\n      swap2\n      swap1\n      dup2\n      dup2\n      mstore\n      0x20\n      add\n      dup3\n      dup1\n      sload\n      tag_210\n      swap1\n      tag_138\n      jump\t// in\n    tag_210:\n      dup1\n      iszero\n      tag_211\n      jumpi\n      dup1\n      0x1f\n      lt\n      tag_212\n      jumpi\n      0x0100\n      dup1\n      dup4\n      sload\n      div\n      mul\n      dup4\n      mstore\n      swap2\n      0x20\n      add\n      swap2\n      jump(tag_211)\n    tag_212:\n      dup3\n      add\n      swap2\n      swap1\n      0x00\n      mstore\n      keccak256(0x00, 0x20)\n      swap1\n    tag_213:\n      dup2\n      sload\n      dup2\n      mstore\n      swap1\n      0x01\n      add\n      swap1\n      0x20\n      add\n      dup1\n      dup4\n      gt\n      tag_213\n      jumpi\n      dup3\n      swap1\n      sub\n      0x1f\n      and\n      dup3\n      add\n      swap2\n    tag_211:\n      pop\n      pop\n      pop\n      pop\n      pop\n      dup2\n      mstore\n      0x20\n      add\n      0x02\n      dup3\n      add\n      dup1\n      sload\n      tag_214\n      swap1\n      tag_138\n      jump\t// in\n    tag_214:\n      dup1\n      0x1f\n      add\n      0x20\n      dup1\n      swap2\n      div\n      mul\n      0x20\n      add\n      mload(0x40)\n      swap1\n      dup2\n      add\n      0x40\n      mstore\n      dup1\n      swap3\n      swap2\n      swap1\n      dup2\n      dup2\n      mstore\n      0x20\n      add\n      dup3\n      dup1\n      sload\n      tag_215\n      swap1\n      tag_138\n      jump\t// in\n    tag_215:\n      dup1\n      iszero\n      tag_216\n      jumpi\n      dup1\n      0x1f\n      lt\n      tag_217\n      jumpi\n      0x0100\n      dup1\n      dup4\n      sload\n      div\n      mul\n      dup4\n      mstore\n      swap2\n      0x20\n      add\n      swap2\n      jump(tag_216)\n    tag_217:\n      dup3\n      add\n      swap2\n      swap1\n      0x00\n      mstore\n      keccak256(0x00, 0x20)\n      swap1\n    tag_218:\n      dup2\n      sload\n      dup2\n      mstore\n      swap1\n      0x01\n      add\n      swap1\n      0x20\n      add\n      dup1\n      dup4\n      gt\n      tag_218\n      jumpi\n      dup3\n      swap1\n      sub\n      0x1f\n      and\n      dup3\n      add\n      swap2\n    tag_216:\n      pop\n      pop\n      pop\n      swap2\n      swap1\n      swap3\n      mstore\n      pop\n      pop\n      0x40\n      dup1\n      mload\n      0x60\n      dup2\n      add\n      swap1\n      swap2\n      mstore\n      0x06\n      dup5\n      add\n      dup1\n      sload\n      sub(shl(0xa0, 0x01), 0x01)\n      and\n      dup3\n      mstore\n      0x07\n      dup6\n      add\n      dup1\n      sload\n      swap5\n      swap6\n      swap5\n      swap3\n      swap4\n      pop\n      swap1\n      swap2\n      0x20\n      dup5\n      add\n      swap2\n      swap1\n      tag_219\n      swap1\n      tag_138\n      jump\t// in\n    tag_219:\n      dup1\n      0x1f\n      add\n      0x20\n      dup1\n      swap2\n      div\n      mul\n      0x20\n      add\n      mload(0x40)\n      swap1\n      dup2\n      add\n      0x40\n      mstore\n      dup1\n      swap3\n      swap2\n      swap1\n      dup2\n      dup2\n      mstore\n      0x20\n      add\n      dup3\n      dup1\n      sload\n      tag_220\n      swap1\n      tag_138\n      jump\t// in\n    tag_220:\n      dup1\n      iszero\n      tag_221\n      jumpi\n      dup1\n      0x1f\n      lt\n      tag_222\n      jumpi\n      0x0100\n      dup1\n      dup4\n      sload\n      div\n      mul\n      dup4\n      mstore\n      swap2\n      0x20\n      add\n      swap2\n      jump(tag_221)\n    tag_222:\n      dup3\n      add\n      swap2\n      swap1\n      0x00\n      mstore\n      keccak256(0x00, 0x20)\n      swap1\n    tag_223:\n      dup2\n      sload\n      dup2\n      mstore\n      swap1\n      0x01\n      add\n      swap1\n      0x20\n      add\n      dup1\n      dup4\n      gt\n      tag_223\n      jumpi\n      dup3\n      swap1\n      sub\n      0x1f\n      and\n      dup3\n      add\n      swap2\n    tag_221:\n      pop\n      pop\n      pop\n      pop\n      pop\n      dup2\n      mstore\n      0x20\n      add\n      0x02\n      dup3\n      add\n      dup1\n      sload\n      tag_224\n      swap1\n      tag_138\n      jump\t// in\n    tag_224:\n      dup1\n      0x1f\n      add\n      0x20\n      dup1\n      swap2\n      div\n      mul\n      0x20\n      add\n      mload(0x40)\n      swap1\n      dup2\n      add\n      0x40\n      mstore\n      dup1\n      swap3\n      swap2\n      swap1\n      dup2\n      dup2\n      mstore\n      0x20\n      add\n      dup3\n      dup1\n      sload\n      tag_225\n      swap1\n      tag_138\n      jump\t// in\n    tag_225:\n      dup1\n      iszero\n      tag_226\n      jumpi\n      dup1\n      0x1f\n      lt\n      tag_227\n      jumpi\n      0x0100\n      dup1\n      dup4\n      sload\n      div\n      mul\n      dup4\n      mstore\n      swap2\n      0x20\n      add\n      swap2\n      jump(tag_226)\n    tag_227:\n      dup3\n      add\n      swap2\n      swap1\n      0x00\n      mstore\n      keccak256(0x00, 0x20)\n      swap1\n    tag_228:\n      dup2\n      sload\n      dup2\n      mstore\n      swap1\n      0x01\n      add\n      swap1\n      0x20\n      add\n      dup1\n      dup4\n      gt\n      tag_228\n      jumpi\n      dup3\n      swap1\n      sub\n      0x1f\n      and\n      dup3\n      add\n      swap2\n    tag_226:\n      pop\n      pop\n      pop\n      swap2\n      swap1\n      swap3\n      mstore\n      pop\n      pop\n      0x40\n      dup1\n      mload\n      0x60\n      dup2\n      add\n      swap1\n      swap2\n      mstore\n      0x09\n      dup5\n      add\n      dup1\n      sload\n      sub(shl(0xa0, 0x01), 0x01)\n      and\n      dup3\n      mstore\n      0x0a\n      dup6\n      add\n      dup1\n      sload\n      swap5\n      swap6\n      swap5\n      swap3\n      swap4\n      pop\n      swap1\n      swap2\n      0x20\n      dup5\n      add\n      swap2\n      swap1\n      tag_229\n      swap1\n      tag_138\n      jump\t// in\n    tag_229:\n      dup1\n      0x1f\n      add\n      0x20\n      dup1\n      swap2\n      div\n      mul\n      0x20\n      add\n      mload(0x40)\n      swap1\n      dup2\n      add\n      0x40\n      mstore\n      dup1\n      swap3\n      swap2\n      swap1\n      dup2\n      dup2\n      mstore\n      0x20\n      add\n      dup3\n      dup1\n      sload\n      tag_230\n      swap1\n      tag_138\n      jump\t// in\n    tag_230:\n      dup1\n      iszero\n      tag_231\n      jumpi\n      dup1\n      0x1f\n      lt\n      tag_232\n      jumpi\n      0x0100\n      dup1\n      dup4\n      sload\n      div\n      mul\n      dup4\n      mstore\n      swap2\n      0x20\n      add\n      swap2\n      jump(tag_231)\n    tag_232:\n      dup3\n      add\n      swap2\n      swap1\n      0x00\n      mstore\n      keccak256(0x00, 0x20)\n      swap1\n    tag_233:\n      dup2\n      sload\n      dup2\n      mstore\n      swap1\n      0x01\n      add\n      swap1\n      0x20\n      add\n      dup1\n      dup4\n      gt\n      tag_233\n      jumpi\n      dup3\n      swap1\n      sub\n      0x1f\n      and\n      dup3\n      add\n      swap2\n    tag_231:\n      pop\n      pop\n      pop\n      pop\n      pop\n      dup2\n      mstore\n      0x20\n      add\n      0x02\n      dup3\n      add\n      dup1\n      sload\n      tag_234\n      swap1\n      tag_138\n      jump\t// in\n    tag_234:\n      dup1\n      0x1f\n      add\n      0x20\n      dup1\n      swap2\n      div\n      mul\n      0x20\n      add\n      mload(0x40)\n      swap1\n      dup2\n      add\n      0x40\n      mstore\n      dup1\n      swap3\n      swap2\n      swap1\n      dup2\n      dup2\n      mstore\n      0x20\n      add\n      dup3\n      dup1\n      sload\n      tag_235\n      swap1\n      tag_138\n      jump\t// in\n    tag_235:\n      dup1\n      iszero\n      tag_236\n      jumpi\n      dup1\n      0x1f\n      lt\n      tag_237\n      jumpi\n      0x0100\n      dup1\n      dup4\n      sload\n      div\n      mul\n      dup4\n      mstore\n      swap2\n      0x20\n      add\n      swap2\n      jump(tag_236)\n    tag_237:\n      dup3\n      add\n      swap2\n      swap1\n      0x00\n      mstore\n      keccak256(0x00, 0x20)\n      swap1\n    tag_238:\n      dup2\n      sload\n      dup2\n      mstore\n      swap1\n      0x01\n      add\n      swap1\n      0x20\n      add\n      dup1\n      dup4\n      gt\n      tag_238\n      jumpi\n      dup3\n      swap1\n      sub\n      0x1f\n      and\n      dup3\n      add\n      swap2\n    tag_236:\n      pop\n      pop\n      pop\n      swap2\n      swap1\n      swap3\n      mstore\n      pop\n      pop\n      pop\n      0x0c\n      swap1\n      swap2\n      add\n      sload\n      sub(shl(0xa0, 0x01), 0x01)\n      and\n      dup6\n      jump\t// out\n        /* \"contracts/MilkSupplyChain.sol\":838:966  function addInspector(address account) public onlyRole(DEFAULT_ADMIN_ROLE) {... */\n    tag_75:\n        /* \"@openzeppelin/contracts/access/AccessControl.sol\":2232:2236  0x00 */\n      0x00\n        /* \"@openzeppelin/contracts/access/AccessControl.sol\":2464:2480  _checkRole(role) */\n      tag_240\n        /* \"@openzeppelin/contracts/access/AccessControl.sol\":2232:2236  0x00 */\n      dup2\n        /* \"@openzeppelin/contracts/access/AccessControl.sol\":2464:2474  _checkRole */\n      tag_199\n        /* \"@openzeppelin/contracts/access/AccessControl.sol\":2464:2480  _checkRole(role) */\n      jump\t// in\n    tag_240:\n        /* \"contracts/MilkSupplyChain.sol\":924:958  grantRole(INSPECTOR_ROLE, account) */\n      tag_242\n        /* \"contracts/MilkSupplyChain.sol\":376:403  keccak256(\"INSPECTOR_ROLE\") */\n      0x273dcf2136c7d8ef632bb8ef13dbca69a8f36fa620c7468671b3153d46a211c0\n        /* \"contracts/MilkSupplyChain.sol\":950:957  account */\n      dup4\n        /* \"contracts/MilkSupplyChain.sol\":924:933  grantRole */\n      tag_60\n        /* \"contracts/MilkSupplyChain.sol\":924:958  grantRole(INSPECTOR_ROLE, account) */\n      jump\t// in\n    tag_242:\n        /* \"contracts/MilkSupplyChain.sol\":838:966  function addInspector(address account) public onlyRole(DEFAULT_ADMIN_ROLE) {... */\n      pop\n      pop\n      jump\t// out\n        /* \"contracts/MilkSupplyChain.sol\":3596:4371  function updateTransportStatus(uint256 _batchId, string memory _status, string memory _reportCID, address _processor) public onlyRole(TRANSPORTER_ROLE) {... */\n    tag_79:\n        /* \"contracts/MilkSupplyChain.sol\":299:328  keccak256(\"TRANSPORTER_ROLE\") */\n      0xddaa901e2fe3bda354fe0ede2785152d5c109282a613fe024a056a3e66c41bb3\n        /* \"@openzeppelin/contracts/access/AccessControl.sol\":2464:2480  _checkRole(role) */\n      tag_244\n        /* \"@openzeppelin/contracts/access/AccessControl.sol\":2475:2479  role */\n      dup2\n        /* \"@openzeppelin/contracts/access/AccessControl.sol\":2464:2474  _checkRole */\n      tag_199\n        /* \"@openzeppelin/contracts/access/AccessControl.sol\":2464:2480  _checkRole(role) */\n      jump\t// in\n    tag_244:\n        /* \"contracts/MilkSupplyChain.sol\":3767:3788  milkBatches[_batchId] */\n      0x00\n      dup6\n      dup2\n      mstore\n        /* \"contracts/MilkSupplyChain.sol\":3767:3778  milkBatches */\n      0x02\n        /* \"contracts/MilkSupplyChain.sol\":3767:3788  milkBatches[_batchId] */\n      0x20\n      mstore\n      0x40\n      swap1\n      keccak256\n        /* \"contracts/MilkSupplyChain.sol\":3767:3801  milkBatches[_batchId].currentOwner */\n      0x0c\n      add\n      sload\n      sub(shl(0xa0, 0x01), 0x01)\n      and\n        /* \"contracts/MilkSupplyChain.sol\":3805:3815  msg.sender */\n      caller\n        /* \"contracts/MilkSupplyChain.sol\":3767:3815  milkBatches[_batchId].currentOwner == msg.sender */\n      eq\n        /* \"contracts/MilkSupplyChain.sol\":3759:3849  require(milkBatches[_batchId].currentOwner == msg.sender, \"Only current owner can update\") */\n      tag_246\n      jumpi\n      mload(0x40)\n      shl(0xe5, 0x461bcd)\n      dup2\n      mstore\n        /* \"#utility.yul\":10775:10777   */\n      0x20\n        /* \"contracts/MilkSupplyChain.sol\":3759:3849  require(milkBatches[_batchId].currentOwner == msg.sender, \"Only current owner can update\") */\n      0x04\n      dup3\n      add\n        /* \"#utility.yul\":10757:10778   */\n      mstore\n        /* \"#utility.yul\":10814:10816   */\n      0x1d\n        /* \"#utility.yul\":10794:10812   */\n      0x24\n      dup3\n      add\n        /* \"#utility.yul\":10787:10817   */\n      mstore\n        /* \"#utility.yul\":10853:10884   */\n      0x4f6e6c792063757272656e74206f776e65722063616e20757064617465000000\n        /* \"#utility.yul\":10833:10851   */\n      0x44\n      dup3\n      add\n        /* \"#utility.yul\":10826:10885   */\n      mstore\n        /* \"#utility.yul\":10902:10920   */\n      0x64\n      add\n        /* \"contracts/MilkSupplyChain.sol\":3759:3849  require(milkBatches[_batchId].currentOwner == msg.sender, \"Only current owner can update\") */\n      tag_171\n        /* \"#utility.yul\":10573:10926   */\n      jump\n        /* \"contracts/MilkSupplyChain.sol\":3759:3849  require(milkBatches[_batchId].currentOwner == msg.sender, \"Only current owner can update\") */\n    tag_246:\n        /* \"contracts/MilkSupplyChain.sol\":3860:3891  TransportInfo storage transport */\n      0x00\n        /* \"contracts/MilkSupplyChain.sol\":3894:3915  milkBatches[_batchId] */\n      dup6\n      dup2\n      mstore\n        /* \"contracts/MilkSupplyChain.sol\":3894:3905  milkBatches */\n      0x02\n        /* \"contracts/MilkSupplyChain.sol\":3894:3915  milkBatches[_batchId] */\n      0x20\n      mstore\n      0x40\n      swap1\n      keccak256\n        /* \"contracts/MilkSupplyChain.sol\":3894:3929  milkBatches[_batchId].transportInfo */\n      0x03\n      dup2\n      add\n      swap1\n        /* \"contracts/MilkSupplyChain.sol\":3940:3956  transport.status */\n      0x04\n      add\n        /* \"contracts/MilkSupplyChain.sol\":3940:3966  transport.status = _status */\n      tag_249\n        /* \"contracts/MilkSupplyChain.sol\":3959:3966  _status */\n      dup7\n        /* \"contracts/MilkSupplyChain.sol\":3940:3956  transport.status */\n      dup3\n        /* \"contracts/MilkSupplyChain.sol\":3940:3966  transport.status = _status */\n      tag_250\n      jump\t// in\n    tag_249:\n      pop\n        /* \"contracts/MilkSupplyChain.sol\":3977:3996  transport.reportCID */\n      0x02\n      dup2\n      add\n        /* \"contracts/MilkSupplyChain.sol\":3977:4009  transport.reportCID = _reportCID */\n      tag_251\n        /* \"contracts/MilkSupplyChain.sol\":3999:4009  _reportCID */\n      dup6\n        /* \"contracts/MilkSupplyChain.sol\":3977:3996  transport.reportCID */\n      dup3\n        /* \"contracts/MilkSupplyChain.sol\":3977:4009  transport.reportCID = _reportCID */\n      tag_250\n      jump\t// in\n    tag_251:\n      pop\n        /* \"contracts/MilkSupplyChain.sol\":4020:4054  transport.transporter = msg.sender */\n      dup1\n      sload\n      not(sub(shl(0xa0, 0x01), 0x01))\n      and\n        /* \"contracts/MilkSupplyChain.sol\":4044:4054  msg.sender */\n      caller\n        /* \"contracts/MilkSupplyChain.sol\":4020:4054  transport.transporter = msg.sender */\n      or\n      dup2\n      sstore\n        /* \"contracts/MilkSupplyChain.sol\":4020:4041  transport.transporter */\n      0x00\n      sub(shl(0xa0, 0x01), 0x01)\n        /* \"contracts/MilkSupplyChain.sol\":4094:4118  _processor != address(0) */\n      dup5\n      and\n        /* \"contracts/MilkSupplyChain.sol\":4094:4168  _processor != address(0) ? _processor : milkBatches[_batchId].currentOwner */\n      tag_252\n      jumpi\n        /* \"contracts/MilkSupplyChain.sol\":4134:4155  milkBatches[_batchId] */\n      0x00\n      dup8\n      dup2\n      mstore\n        /* \"contracts/MilkSupplyChain.sol\":4134:4145  milkBatches */\n      0x02\n        /* \"contracts/MilkSupplyChain.sol\":4134:4155  milkBatches[_batchId] */\n      0x20\n      mstore\n      0x40\n      swap1\n      keccak256\n        /* \"contracts/MilkSupplyChain.sol\":4134:4168  milkBatches[_batchId].currentOwner */\n      0x0c\n      add\n      sload\n      sub(shl(0xa0, 0x01), 0x01)\n      and\n        /* \"contracts/MilkSupplyChain.sol\":4094:4168  _processor != address(0) ? _processor : milkBatches[_batchId].currentOwner */\n      jump(tag_253)\n    tag_252:\n        /* \"contracts/MilkSupplyChain.sol\":4121:4131  _processor */\n      dup4\n        /* \"contracts/MilkSupplyChain.sol\":4094:4168  _processor != address(0) ? _processor : milkBatches[_batchId].currentOwner */\n    tag_253:\n        /* \"contracts/MilkSupplyChain.sol\":4075:4168  address newOwner = _processor != address(0) ? _processor : milkBatches[_batchId].currentOwner */\n      swap1\n      pop\n        /* \"contracts/MilkSupplyChain.sol\":4184:4247  TransportStatusUpdated(_batchId, _status, _reportCID, newOwner) */\n      0x4ea766b3bd9e7c93b3e34a817a346f1f50f27facb4df941fa10747a5bfc92134\n        /* \"contracts/MilkSupplyChain.sol\":4207:4215  _batchId */\n      dup8\n        /* \"contracts/MilkSupplyChain.sol\":4217:4224  _status */\n      dup8\n        /* \"contracts/MilkSupplyChain.sol\":4226:4236  _reportCID */\n      dup8\n        /* \"contracts/MilkSupplyChain.sol\":4238:4246  newOwner */\n      dup5\n        /* \"contracts/MilkSupplyChain.sol\":4184:4247  TransportStatusUpdated(_batchId, _status, _reportCID, newOwner) */\n      mload(0x40)\n      tag_254\n      swap5\n      swap4\n      swap3\n      swap2\n      swap1\n      tag_255\n      jump\t// in\n    tag_254:\n      mload(0x40)\n      dup1\n      swap2\n      sub\n      swap1\n      log1\n      sub(shl(0xa0, 0x01), 0x01)\n        /* \"contracts/MilkSupplyChain.sol\":4272:4296  _processor != address(0) */\n      dup5\n      and\n      iszero\n        /* \"contracts/MilkSupplyChain.sol\":4268:4364  if (_processor != address(0)) {... */\n      tag_257\n      jumpi\n        /* \"contracts/MilkSupplyChain.sol\":4313:4352  transferOwnership(_batchId, _processor) */\n      tag_257\n        /* \"contracts/MilkSupplyChain.sol\":4331:4339  _batchId */\n      dup8\n        /* \"contracts/MilkSupplyChain.sol\":4341:4351  _processor */\n      dup6\n        /* \"contracts/MilkSupplyChain.sol\":4313:4330  transferOwnership */\n      tag_56\n        /* \"contracts/MilkSupplyChain.sol\":4313:4352  transferOwnership(_batchId, _processor) */\n      jump\t// in\n    tag_257:\n        /* \"contracts/MilkSupplyChain.sol\":3748:4371  {... */\n      pop\n      pop\n        /* \"contracts/MilkSupplyChain.sol\":3596:4371  function updateTransportStatus(uint256 _batchId, string memory _status, string memory _reportCID, address _processor) public onlyRole(TRANSPORTER_ROLE) {... */\n      pop\n      pop\n      pop\n      pop\n      pop\n      jump\t// out\n        /* \"contracts/MilkSupplyChain.sol\":568:690  function addFarmer(address account) public onlyRole(DEFAULT_ADMIN_ROLE) {... */\n    tag_82:\n        /* \"@openzeppelin/contracts/access/AccessControl.sol\":2232:2236  0x00 */\n      0x00\n        /* \"@openzeppelin/contracts/access/AccessControl.sol\":2464:2480  _checkRole(role) */\n      tag_259\n        /* \"@openzeppelin/contracts/access/AccessControl.sol\":2232:2236  0x00 */\n      dup2\n        /* \"@openzeppelin/contracts/access/AccessControl.sol\":2464:2474  _checkRole */\n      tag_199\n        /* \"@openzeppelin/contracts/access/AccessControl.sol\":2464:2480  _checkRole(role) */\n      jump\t// in\n    tag_259:\n        /* \"contracts/MilkSupplyChain.sol\":651:682  grantRole(FARMER_ROLE, account) */\n      tag_242\n        /* \"contracts/MilkSupplyChain.sol\":225:249  keccak256(\"FARMER_ROLE\") */\n      0x7c6181838a71a779e445600d4c6ecbe16bacf2b3c5bda69c29fada66d1b645d1\n        /* \"contracts/MilkSupplyChain.sol\":674:681  account */\n      dup4\n        /* \"contracts/MilkSupplyChain.sol\":651:660  grantRole */\n      tag_60\n        /* \"contracts/MilkSupplyChain.sol\":651:682  grantRole(FARMER_ROLE, account) */\n      jump\t// in\n        /* \"contracts/MilkSupplyChain.sol\":4379:5052  function updateInspectionStatus(uint256 _batchId, string memory _status, string memory _reportCID, address _retailer) public onlyRole(INSPECTOR_ROLE) {... */\n    tag_85:\n        /* \"contracts/MilkSupplyChain.sol\":376:403  keccak256(\"INSPECTOR_ROLE\") */\n      0x273dcf2136c7d8ef632bb8ef13dbca69a8f36fa620c7468671b3153d46a211c0\n        /* \"@openzeppelin/contracts/access/AccessControl.sol\":2464:2480  _checkRole(role) */\n      tag_263\n        /* \"@openzeppelin/contracts/access/AccessControl.sol\":2475:2479  role */\n      dup2\n        /* \"@openzeppelin/contracts/access/AccessControl.sol\":2464:2474  _checkRole */\n      tag_199\n        /* \"@openzeppelin/contracts/access/AccessControl.sol\":2464:2480  _checkRole(role) */\n      jump\t// in\n    tag_263:\n        /* \"contracts/MilkSupplyChain.sol\":4540:4573  InspectionInfo storage inspection */\n      0x00\n        /* \"contracts/MilkSupplyChain.sol\":4576:4597  milkBatches[_batchId] */\n      dup6\n      dup2\n      mstore\n        /* \"contracts/MilkSupplyChain.sol\":4576:4587  milkBatches */\n      0x02\n        /* \"contracts/MilkSupplyChain.sol\":4576:4597  milkBatches[_batchId] */\n      0x20\n      mstore\n      0x40\n      swap1\n      keccak256\n        /* \"contracts/MilkSupplyChain.sol\":4576:4612  milkBatches[_batchId].inspectionInfo */\n      0x06\n      dup2\n      add\n      swap1\n        /* \"contracts/MilkSupplyChain.sol\":4623:4640  inspection.status */\n      0x07\n      add\n        /* \"contracts/MilkSupplyChain.sol\":4623:4650  inspection.status = _status */\n      tag_265\n        /* \"contracts/MilkSupplyChain.sol\":4643:4650  _status */\n      dup7\n        /* \"contracts/MilkSupplyChain.sol\":4623:4640  inspection.status */\n      dup3\n        /* \"contracts/MilkSupplyChain.sol\":4623:4650  inspection.status = _status */\n      tag_250\n      jump\t// in\n    tag_265:\n      pop\n        /* \"contracts/MilkSupplyChain.sol\":4661:4681  inspection.reportCID */\n      0x02\n      dup2\n      add\n        /* \"contracts/MilkSupplyChain.sol\":4661:4694  inspection.reportCID = _reportCID */\n      tag_266\n        /* \"contracts/MilkSupplyChain.sol\":4684:4694  _reportCID */\n      dup6\n        /* \"contracts/MilkSupplyChain.sol\":4661:4681  inspection.reportCID */\n      dup3\n        /* \"contracts/MilkSupplyChain.sol\":4661:4694  inspection.reportCID = _reportCID */\n      tag_250\n      jump\t// in\n    tag_266:\n      pop\n        /* \"contracts/MilkSupplyChain.sol\":4705:4738  inspection.inspector = msg.sender */\n      dup1\n      sload\n      not(sub(shl(0xa0, 0x01), 0x01))\n      and\n        /* \"contracts/MilkSupplyChain.sol\":4728:4738  msg.sender */\n      caller\n        /* \"contracts/MilkSupplyChain.sol\":4705:4738  inspection.inspector = msg.sender */\n      or\n      dup2\n      sstore\n        /* \"contracts/MilkSupplyChain.sol\":4705:4725  inspection.inspector */\n      0x00\n      sub(shl(0xa0, 0x01), 0x01)\n        /* \"contracts/MilkSupplyChain.sol\":4778:4801  _retailer != address(0) */\n      dup5\n      and\n        /* \"contracts/MilkSupplyChain.sol\":4778:4850  _retailer != address(0) ? _retailer : milkBatches[_batchId].currentOwner */\n      tag_267\n      jumpi\n        /* \"contracts/MilkSupplyChain.sol\":4816:4837  milkBatches[_batchId] */\n      0x00\n      dup8\n      dup2\n      mstore\n        /* \"contracts/MilkSupplyChain.sol\":4816:4827  milkBatches */\n      0x02\n        /* \"contracts/MilkSupplyChain.sol\":4816:4837  milkBatches[_batchId] */\n      0x20\n      mstore\n      0x40\n      swap1\n      keccak256\n        /* \"contracts/MilkSupplyChain.sol\":4816:4850  milkBatches[_batchId].currentOwner */\n      0x0c\n      add\n      sload\n      sub(shl(0xa0, 0x01), 0x01)\n      and\n        /* \"contracts/MilkSupplyChain.sol\":4778:4850  _retailer != address(0) ? _retailer : milkBatches[_batchId].currentOwner */\n      jump(tag_268)\n    tag_267:\n        /* \"contracts/MilkSupplyChain.sol\":4804:4813  _retailer */\n      dup4\n        /* \"contracts/MilkSupplyChain.sol\":4778:4850  _retailer != address(0) ? _retailer : milkBatches[_batchId].currentOwner */\n    tag_268:\n        /* \"contracts/MilkSupplyChain.sol\":4759:4850  address newOwner = _retailer != address(0) ? _retailer : milkBatches[_batchId].currentOwner */\n      swap1\n      pop\n        /* \"contracts/MilkSupplyChain.sol\":4866:4930  InspectionStatusUpdated(_batchId, _status, _reportCID, newOwner) */\n      0xffe7da8cd425dbb269909e7defc11396e896f2dba686ba28d711f4db1cff02fe\n        /* \"contracts/MilkSupplyChain.sol\":4890:4898  _batchId */\n      dup8\n        /* \"contracts/MilkSupplyChain.sol\":4900:4907  _status */\n      dup8\n        /* \"contracts/MilkSupplyChain.sol\":4909:4919  _reportCID */\n      dup8\n        /* \"contracts/MilkSupplyChain.sol\":4921:4929  newOwner */\n      dup5\n        /* \"contracts/MilkSupplyChain.sol\":4866:4930  InspectionStatusUpdated(_batchId, _status, _reportCID, newOwner) */\n      mload(0x40)\n      tag_254\n      swap5\n      swap4\n      swap3\n      swap2\n      swap1\n      tag_255\n      jump\t// in\n        /* \"contracts/MilkSupplyChain.sol\":974:1100  function addRetailer(address account) public onlyRole(DEFAULT_ADMIN_ROLE) {... */\n    tag_88:\n        /* \"@openzeppelin/contracts/access/AccessControl.sol\":2232:2236  0x00 */\n      0x00\n        /* \"@openzeppelin/contracts/access/AccessControl.sol\":2464:2480  _checkRole(role) */\n      tag_273\n        /* \"@openzeppelin/contracts/access/AccessControl.sol\":2232:2236  0x00 */\n      dup2\n        /* \"@openzeppelin/contracts/access/AccessControl.sol\":2464:2474  _checkRole */\n      tag_199\n        /* \"@openzeppelin/contracts/access/AccessControl.sol\":2464:2480  _checkRole(role) */\n      jump\t// in\n    tag_273:\n        /* \"contracts/MilkSupplyChain.sol\":1059:1092  grantRole(RETAILER_ROLE, account) */\n      tag_242\n        /* \"contracts/MilkSupplyChain.sol\":450:476  keccak256(\"RETAILER_ROLE\") */\n      0x2a5f906c256a5d799494fcd066e1f6c077689de1cdb65052a1624de4bace99bf\n        /* \"contracts/MilkSupplyChain.sol\":1084:1091  account */\n      dup4\n        /* \"contracts/MilkSupplyChain.sol\":1059:1068  grantRole */\n      tag_60\n        /* \"contracts/MilkSupplyChain.sol\":1059:1092  grantRole(RETAILER_ROLE, account) */\n      jump\t// in\n        /* \"contracts/MilkSupplyChain.sol\":7021:7131  function getMyBatches() public view returns (uint256[] memory) {... */\n    tag_90:\n        /* \"contracts/MilkSupplyChain.sol\":7112:7122  msg.sender */\n      caller\n        /* \"contracts/MilkSupplyChain.sol\":7102:7123  myBatches[msg.sender] */\n      0x00\n      swap1\n      dup2\n      mstore\n        /* \"contracts/MilkSupplyChain.sol\":7102:7111  myBatches */\n      0x03\n        /* \"contracts/MilkSupplyChain.sol\":7102:7123  myBatches[msg.sender] */\n      0x20\n      swap1\n      dup2\n      mstore\n      0x40\n      swap2\n      dup3\n      swap1\n      keccak256\n        /* \"contracts/MilkSupplyChain.sol\":7095:7123  return myBatches[msg.sender] */\n      dup1\n      sload\n      dup4\n      mload\n      dup2\n      dup5\n      mul\n      dup2\n      add\n      dup5\n      add\n      swap1\n      swap5\n      mstore\n      dup1\n      dup5\n      mstore\n        /* \"contracts/MilkSupplyChain.sol\":7066:7082  uint256[] memory */\n      0x60\n      swap4\n        /* \"contracts/MilkSupplyChain.sol\":7095:7123  return myBatches[msg.sender] */\n      swap3\n      dup4\n      add\n        /* \"contracts/MilkSupplyChain.sol\":7102:7123  myBatches[msg.sender] */\n      dup3\n        /* \"contracts/MilkSupplyChain.sol\":7095:7123  return myBatches[msg.sender] */\n      dup3\n      dup1\n      iszero\n      tag_277\n      jumpi\n      0x20\n      mul\n      dup3\n      add\n      swap2\n      swap1\n      0x00\n      mstore\n      keccak256(0x00, 0x20)\n      swap1\n    tag_278:\n      dup2\n      sload\n      dup2\n      mstore\n      0x20\n      add\n      swap1\n      0x01\n      add\n      swap1\n      dup1\n      dup4\n      gt\n      tag_278\n      jumpi\n    tag_277:\n      pop\n      pop\n      pop\n      pop\n      pop\n      swap1\n      pop\n        /* \"contracts/MilkSupplyChain.sol\":7021:7131  function getMyBatches() public view returns (uint256[] memory) {... */\n      swap1\n      jump\t// out\n        /* \"@openzeppelin/contracts/access/AccessControl.sol\":2854:2990  function hasRole(bytes32 role, address account) public view virtual returns (bool) {... */\n    tag_95:\n        /* \"@openzeppelin/contracts/access/AccessControl.sol\":2931:2935  bool */\n      0x00\n        /* \"@openzeppelin/contracts/access/AccessControl.sol\":2954:2966  _roles[role] */\n      swap2\n      dup3\n      mstore\n      0x20\n      dup3\n      dup2\n      mstore\n      0x40\n      dup1\n      dup5\n      keccak256\n      sub(shl(0xa0, 0x01), 0x01)\n        /* \"@openzeppelin/contracts/access/AccessControl.sol\":2954:2983  _roles[role].hasRole[account] */\n      swap4\n      swap1\n      swap4\n      and\n      dup5\n      mstore\n      swap2\n      swap1\n      mstore\n      swap1\n      keccak256\n      sload\n      0xff\n      and\n      swap1\n        /* \"@openzeppelin/contracts/access/AccessControl.sol\":2854:2990  function hasRole(bytes32 role, address account) public view virtual returns (bool) {... */\n      jump\t// out\n        /* \"contracts/MilkSupplyChain.sol\":6655:7013  function getPublicBatchInfo(uint256 _batchId) public view returns (uint256, uint256, uint256, string memory) {... */\n    tag_99:\n        /* \"contracts/MilkSupplyChain.sol\":6722:6729  uint256 */\n      0x00\n        /* \"contracts/MilkSupplyChain.sol\":6801:6822  milkBatches[_batchId] */\n      dup2\n      dup2\n      mstore\n        /* \"contracts/MilkSupplyChain.sol\":6801:6812  milkBatches */\n      0x02\n        /* \"contracts/MilkSupplyChain.sol\":6801:6822  milkBatches[_batchId] */\n      0x20\n      dup2\n      swap1\n      mstore\n      0x40\n      dup3\n      keccak256\n        /* \"contracts/MilkSupplyChain.sol\":6878:6908  batch.batchInfo.productionDate */\n      dup1\n      sload\n        /* \"contracts/MilkSupplyChain.sol\":6923:6949  batch.batchInfo.expiryDate */\n      swap2\n      dup2\n      add\n      sload\n        /* \"contracts/MilkSupplyChain.sol\":6964:6994  batch.inspectionInfo.reportCID */\n      0x08\n      dup3\n      add\n        /* \"contracts/MilkSupplyChain.sol\":6833:7005  return (... */\n      dup1\n      sload\n        /* \"contracts/MilkSupplyChain.sol\":6722:6729  uint256 */\n      dup6\n      swap5\n      dup6\n      swap5\n        /* \"contracts/MilkSupplyChain.sol\":6749:6762  string memory */\n      0x60\n      swap5\n        /* \"contracts/MilkSupplyChain.sol\":6801:6822  milkBatches[_batchId] */\n      swap1\n      swap4\n        /* \"contracts/MilkSupplyChain.sol\":6813:6821  _batchId */\n      dup10\n      swap4\n        /* \"contracts/MilkSupplyChain.sol\":6964:6994  batch.inspectionInfo.reportCID */\n      dup2\n      swap1\n        /* \"contracts/MilkSupplyChain.sol\":6833:7005  return (... */\n      tag_281\n      swap1\n      tag_138\n      jump\t// in\n    tag_281:\n      dup1\n      0x1f\n      add\n      0x20\n      dup1\n      swap2\n      div\n      mul\n      0x20\n      add\n      mload(0x40)\n      swap1\n      dup2\n      add\n      0x40\n      mstore\n      dup1\n      swap3\n      swap2\n      swap1\n      dup2\n      dup2\n      mstore\n      0x20\n      add\n      dup3\n      dup1\n      sload\n      tag_282\n      swap1\n      tag_138\n      jump\t// in\n    tag_282:\n      dup1\n      iszero\n      tag_283\n      jumpi\n      dup1\n      0x1f\n      lt\n      tag_284\n      jumpi\n      0x0100\n      dup1\n      dup4\n      sload\n      div\n      mul\n      dup4\n      mstore\n      swap2\n      0x20\n      add\n      swap2\n      jump(tag_283)\n    tag_284:\n      dup3\n      add\n      swap2\n      swap1\n      0x00\n      mstore\n      keccak256(0x00, 0x20)\n      swap1\n    tag_285:\n      dup2\n      sload\n      dup2\n      mstore\n      swap1\n      0x01\n      add\n      swap1\n      0x20\n      add\n      dup1\n      dup4\n      gt\n      tag_285\n      jumpi\n      dup3\n      swap1\n      sub\n      0x1f\n      and\n      dup3\n      add\n      swap2\n    tag_283:\n      pop\n      pop\n      pop\n      pop\n      pop\n      swap1\n      pop\n      swap5\n      pop\n      swap5\n      pop\n      swap5\n      pop\n      swap5\n      pop\n      pop\n        /* \"contracts/MilkSupplyChain.sol\":6655:7013  function getPublicBatchInfo(uint256 _batchId) public view returns (uint256, uint256, uint256, string memory) {... */\n      swap2\n      swap4\n      pop\n      swap2\n      swap4\n      jump\t// out\n        /* \"contracts/MilkSupplyChain.sol\":2615:3588  function createBatch(uint256 _weight, uint256 _expiryDate, address _transporter) public onlyRole(FARMER_ROLE) returns (uint256) {... */\n    tag_108:\n        /* \"contracts/MilkSupplyChain.sol\":2734:2741  uint256 */\n      0x00\n        /* \"contracts/MilkSupplyChain.sol\":225:249  keccak256(\"FARMER_ROLE\") */\n      0x7c6181838a71a779e445600d4c6ecbe16bacf2b3c5bda69c29fada66d1b645d1\n        /* \"@openzeppelin/contracts/access/AccessControl.sol\":2464:2480  _checkRole(role) */\n      tag_287\n        /* \"@openzeppelin/contracts/access/AccessControl.sol\":2475:2479  role */\n      dup2\n        /* \"@openzeppelin/contracts/access/AccessControl.sol\":2464:2474  _checkRole */\n      tag_199\n        /* \"@openzeppelin/contracts/access/AccessControl.sol\":2464:2480  _checkRole(role) */\n      jump\t// in\n    tag_287:\n        /* \"contracts/MilkSupplyChain.sol\":2754:2766  batchCounter */\n      0x01\n        /* \"contracts/MilkSupplyChain.sol\":2754:2768  batchCounter++ */\n      dup1\n      sload\n      swap1\n        /* \"contracts/MilkSupplyChain.sol\":2754:2766  batchCounter */\n      0x00\n        /* \"contracts/MilkSupplyChain.sol\":2754:2768  batchCounter++ */\n      tag_289\n      dup4\n      tag_290\n      jump\t// in\n    tag_289:\n      swap1\n      swap2\n      sstore\n      pop\n      pop\n        /* \"contracts/MilkSupplyChain.sol\":2820:2832  batchCounter */\n      0x01\n      dup1\n      sload\n        /* \"contracts/MilkSupplyChain.sol\":2779:2805  MilkBatch storage newBatch */\n      0x00\n        /* \"contracts/MilkSupplyChain.sol\":2808:2833  milkBatches[batchCounter] */\n      swap1\n      dup2\n      mstore\n        /* \"contracts/MilkSupplyChain.sol\":2808:2819  milkBatches */\n      0x02\n        /* \"contracts/MilkSupplyChain.sol\":2808:2833  milkBatches[batchCounter] */\n      0x20\n      dup2\n      dup2\n      mstore\n      0x40\n      swap3\n      dup4\n      swap1\n      keccak256\n        /* \"contracts/MilkSupplyChain.sol\":2875:3011  BatchInfo({... */\n      dup4\n      mload\n      0x60\n      dup2\n      add\n      dup6\n      mstore\n        /* \"contracts/MilkSupplyChain.sol\":2916:2931  block.timestamp */\n      timestamp\n        /* \"contracts/MilkSupplyChain.sol\":2875:3011  BatchInfo({... */\n      dup1\n      dup3\n      mstore\n      dup2\n      dup5\n      add\n      dup13\n      swap1\n      mstore\n      swap1\n      dup6\n      add\n      dup11\n      swap1\n      mstore\n        /* \"contracts/MilkSupplyChain.sol\":2854:3011  newBatch.batchInfo = BatchInfo({... */\n      dup2\n      sstore\n      swap4\n      dup5\n      add\n      dup10\n      swap1\n      sstore\n      swap1\n      dup4\n      add\n      dup8\n      swap1\n      sstore\n        /* \"contracts/MilkSupplyChain.sol\":3032:3077  newBatch.transportInfo.status = \"Not Started\" */\n      dup2\n      mload\n      dup1\n      dup4\n      add\n      swap1\n      swap3\n      mstore\n      0x0b\n      dup3\n      mstore\n      shl(0xaa, 0x139bdd0814dd185c9d1959)\n      swap1\n      dup3\n      add\n      mstore\n        /* \"contracts/MilkSupplyChain.sol\":3032:3061  newBatch.transportInfo.status */\n      0x04\n      dup3\n      add\n      swap1\n        /* \"contracts/MilkSupplyChain.sol\":3032:3077  newBatch.transportInfo.status = \"Not Started\" */\n      tag_291\n      swap1\n        /* \"contracts/MilkSupplyChain.sol\":3032:3061  newBatch.transportInfo.status */\n      dup3\n        /* \"contracts/MilkSupplyChain.sol\":3032:3077  newBatch.transportInfo.status = \"Not Started\" */\n      tag_250\n      jump\t// in\n    tag_291:\n      pop\n        /* \"contracts/MilkSupplyChain.sol\":3088:3136  newBatch.inspectionInfo.status = \"Not Inspected\" */\n      0x40\n      dup1\n      mload\n      dup1\n      dup3\n      add\n      swap1\n      swap2\n      mstore\n      0x0d\n      dup2\n      mstore\n      shl(0x9a, 0x139bdd08125b9cdc1958dd1959)\n      0x20\n      dup3\n      add\n      mstore\n        /* \"contracts/MilkSupplyChain.sol\":3088:3118  newBatch.inspectionInfo.status */\n      0x07\n      dup3\n      add\n      swap1\n        /* \"contracts/MilkSupplyChain.sol\":3088:3136  newBatch.inspectionInfo.status = \"Not Inspected\" */\n      tag_292\n      swap1\n        /* \"contracts/MilkSupplyChain.sol\":3088:3118  newBatch.inspectionInfo.status */\n      dup3\n        /* \"contracts/MilkSupplyChain.sol\":3088:3136  newBatch.inspectionInfo.status = \"Not Inspected\" */\n      tag_250\n      jump\t// in\n    tag_292:\n      pop\n        /* \"contracts/MilkSupplyChain.sol\":3147:3193  newBatch.receivingInfo.status = \"Not Received\" */\n      0x40\n      dup1\n      mload\n      dup1\n      dup3\n      add\n      swap1\n      swap2\n      mstore\n      0x0c\n      dup2\n      mstore\n      shl(0xa2, 0x139bdd08149958d95a5d9959)\n      0x20\n      dup3\n      add\n      mstore\n        /* \"contracts/MilkSupplyChain.sol\":3147:3176  newBatch.receivingInfo.status */\n      0x0a\n      dup3\n      add\n      swap1\n        /* \"contracts/MilkSupplyChain.sol\":3147:3193  newBatch.receivingInfo.status = \"Not Received\" */\n      tag_293\n      swap1\n        /* \"contracts/MilkSupplyChain.sol\":3147:3176  newBatch.receivingInfo.status */\n      dup3\n        /* \"contracts/MilkSupplyChain.sol\":3147:3193  newBatch.receivingInfo.status = \"Not Received\" */\n      tag_250\n      jump\t// in\n    tag_293:\n      pop\n        /* \"contracts/MilkSupplyChain.sol\":3204:3225  newBatch.currentOwner */\n      0x0c\n      dup2\n      add\n        /* \"contracts/MilkSupplyChain.sol\":3204:3238  newBatch.currentOwner = msg.sender */\n      dup1\n      sload\n      not(sub(shl(0xa0, 0x01), 0x01))\n      and\n        /* \"contracts/MilkSupplyChain.sol\":3228:3238  msg.sender */\n      caller\n        /* \"contracts/MilkSupplyChain.sol\":3204:3238  newBatch.currentOwner = msg.sender */\n      swap1\n      dup2\n      or\n      swap1\n      swap2\n      sstore\n      0x00\n        /* \"contracts/MilkSupplyChain.sol\":3259:3280  myBatches[msg.sender] */\n      dup2\n      dup2\n      mstore\n        /* \"contracts/MilkSupplyChain.sol\":3259:3268  myBatches */\n      0x03\n        /* \"contracts/MilkSupplyChain.sol\":3259:3280  myBatches[msg.sender] */\n      0x20\n      swap1\n      dup2\n      mstore\n      0x40\n      dup1\n      dup4\n      keccak256\n      0x01\n        /* \"contracts/MilkSupplyChain.sol\":3286:3298  batchCounter */\n      dup1\n      sload\n        /* \"contracts/MilkSupplyChain.sol\":3259:3299  myBatches[msg.sender].push(batchCounter) */\n      dup3\n      sload\n      dup1\n      dup4\n      add\n      dup5\n      sstore\n      swap3\n      dup7\n      mstore\n      swap5\n      dup5\n      swap1\n      keccak256\n      swap1\n      swap2\n      add\n      swap4\n      swap1\n      swap4\n      sstore\n        /* \"contracts/MilkSupplyChain.sol\":3338:3350  batchCounter */\n      swap2\n      sload\n        /* \"contracts/MilkSupplyChain.sol\":3325:3416  BatchCreated(batchCounter, msg.sender, block.timestamp, _weight, _expiryDate, _transporter) */\n      dup3\n      mload\n        /* \"contracts/MilkSupplyChain.sol\":3364:3379  block.timestamp */\n      timestamp\n        /* \"#utility.yul\":13984:14009   */\n      dup2\n      mstore\n        /* \"#utility.yul\":14025:14043   */\n      swap2\n      dup3\n      add\n        /* \"#utility.yul\":14018:14052   */\n      dup11\n      swap1\n      mstore\n        /* \"#utility.yul\":14068:14086   */\n      swap2\n      dup2\n      add\n        /* \"#utility.yul\":14061:14095   */\n      dup9\n      swap1\n      mstore\n      sub(shl(0xa0, 0x01), 0x01)\n        /* \"#utility.yul\":14131:14163   */\n      dup8\n      and\n        /* \"#utility.yul\":14126:14128   */\n      0x60\n        /* \"#utility.yul\":14111:14129   */\n      dup3\n      add\n        /* \"#utility.yul\":14104:14164   */\n      mstore\n        /* \"contracts/MilkSupplyChain.sol\":3325:3416  BatchCreated(batchCounter, msg.sender, block.timestamp, _weight, _expiryDate, _transporter) */\n      0x167d4490114704a52fff91fd9e2b0410e6472a338563551876cd1d2b72a98dc6\n      swap1\n        /* \"#utility.yul\":13971:13974   */\n      0x80\n        /* \"#utility.yul\":13956:13975   */\n      add\n        /* \"contracts/MilkSupplyChain.sol\":3325:3416  BatchCreated(batchCounter, msg.sender, block.timestamp, _weight, _expiryDate, _transporter) */\n      mload(0x40)\n      dup1\n      swap2\n      sub\n      swap1\n      log3\n      sub(shl(0xa0, 0x01), 0x01)\n        /* \"contracts/MilkSupplyChain.sol\":3441:3467  _transporter != address(0) */\n      dup5\n      and\n      iszero\n        /* \"contracts/MilkSupplyChain.sol\":3437:3541  if (_transporter != address(0)) {... */\n      tag_298\n      jumpi\n        /* \"contracts/MilkSupplyChain.sol\":3484:3529  transferOwnership(batchCounter, _transporter) */\n      tag_298\n        /* \"contracts/MilkSupplyChain.sol\":3502:3514  batchCounter */\n      sload(0x01)\n        /* \"contracts/MilkSupplyChain.sol\":3516:3528  _transporter */\n      dup6\n        /* \"contracts/MilkSupplyChain.sol\":3484:3501  transferOwnership */\n      tag_56\n        /* \"contracts/MilkSupplyChain.sol\":3484:3529  transferOwnership(batchCounter, _transporter) */\n      jump\t// in\n    tag_298:\n      pop\n      pop\n        /* \"contracts/MilkSupplyChain.sol\":3568:3580  batchCounter */\n      sload(0x01)\n      swap5\n        /* \"contracts/MilkSupplyChain.sol\":2615:3588  function createBatch(uint256 _weight, uint256 _expiryDate, address _transporter) public onlyRole(FARMER_ROLE) returns (uint256) {... */\n      swap4\n      pop\n      pop\n      pop\n      pop\n      jump\t// out\n        /* \"contracts/MilkSupplyChain.sol\":698:830  function addTransporter(address account) public onlyRole(DEFAULT_ADMIN_ROLE) {... */\n    tag_116:\n        /* \"@openzeppelin/contracts/access/AccessControl.sol\":2232:2236  0x00 */\n      0x00\n        /* \"@openzeppelin/contracts/access/AccessControl.sol\":2464:2480  _checkRole(role) */\n      tag_301\n        /* \"@openzeppelin/contracts/access/AccessControl.sol\":2232:2236  0x00 */\n      dup2\n        /* \"@openzeppelin/contracts/access/AccessControl.sol\":2464:2474  _checkRole */\n      tag_199\n        /* \"@openzeppelin/contracts/access/AccessControl.sol\":2464:2480  _checkRole(role) */\n      jump\t// in\n    tag_301:\n        /* \"contracts/MilkSupplyChain.sol\":786:822  grantRole(TRANSPORTER_ROLE, account) */\n      tag_242\n        /* \"contracts/MilkSupplyChain.sol\":299:328  keccak256(\"TRANSPORTER_ROLE\") */\n      0xddaa901e2fe3bda354fe0ede2785152d5c109282a613fe024a056a3e66c41bb3\n        /* \"contracts/MilkSupplyChain.sol\":814:821  account */\n      dup4\n        /* \"contracts/MilkSupplyChain.sol\":786:795  grantRole */\n      tag_60\n        /* \"contracts/MilkSupplyChain.sol\":786:822  grantRole(TRANSPORTER_ROLE, account) */\n      jump\t// in\n        /* \"@openzeppelin/contracts/access/AccessControl.sol\":4642:4780  function revokeRole(bytes32 role, address account) public virtual onlyRole(getRoleAdmin(role)) {... */\n    tag_119:\n        /* \"@openzeppelin/contracts/access/AccessControl.sol\":3875:3882  bytes32 */\n      0x00\n        /* \"@openzeppelin/contracts/access/AccessControl.sol\":3901:3913  _roles[role] */\n      dup3\n      dup2\n      mstore\n      0x20\n      dup2\n      swap1\n      mstore\n      0x40\n      swap1\n      keccak256\n        /* \"@openzeppelin/contracts/access/AccessControl.sol\":3901:3923  _roles[role].adminRole */\n      0x01\n      add\n      sload\n        /* \"@openzeppelin/contracts/access/AccessControl.sol\":2464:2480  _checkRole(role) */\n      tag_306\n        /* \"@openzeppelin/contracts/access/AccessControl.sol\":2475:2479  role */\n      dup2\n        /* \"@openzeppelin/contracts/access/AccessControl.sol\":2464:2474  _checkRole */\n      tag_199\n        /* \"@openzeppelin/contracts/access/AccessControl.sol\":2464:2480  _checkRole(role) */\n      jump\t// in\n    tag_306:\n        /* \"@openzeppelin/contracts/access/AccessControl.sol\":4747:4773  _revokeRole(role, account) */\n      tag_201\n        /* \"@openzeppelin/contracts/access/AccessControl.sol\":4759:4763  role */\n      dup4\n        /* \"@openzeppelin/contracts/access/AccessControl.sol\":4765:4772  account */\n      dup4\n        /* \"@openzeppelin/contracts/access/AccessControl.sol\":4747:4758  _revokeRole */\n      tag_208\n        /* \"@openzeppelin/contracts/access/AccessControl.sol\":4747:4773  _revokeRole(role, account) */\n      jump\t// in\n        /* \"contracts/MilkSupplyChain.sol\":5060:5569  function updateReceivingStatus(uint256 _batchId, string memory _status, string memory _reportCID) public onlyRole(RETAILER_ROLE) {... */\n    tag_126:\n        /* \"contracts/MilkSupplyChain.sol\":450:476  keccak256(\"RETAILER_ROLE\") */\n      0x2a5f906c256a5d799494fcd066e1f6c077689de1cdb65052a1624de4bace99bf\n        /* \"@openzeppelin/contracts/access/AccessControl.sol\":2464:2480  _checkRole(role) */\n      tag_310\n        /* \"@openzeppelin/contracts/access/AccessControl.sol\":2475:2479  role */\n      dup2\n        /* \"@openzeppelin/contracts/access/AccessControl.sol\":2464:2474  _checkRole */\n      tag_199\n        /* \"@openzeppelin/contracts/access/AccessControl.sol\":2464:2480  _checkRole(role) */\n      jump\t// in\n    tag_310:\n        /* \"contracts/MilkSupplyChain.sol\":5208:5229  milkBatches[_batchId] */\n      0x00\n      dup5\n      dup2\n      mstore\n        /* \"contracts/MilkSupplyChain.sol\":5208:5219  milkBatches */\n      0x02\n        /* \"contracts/MilkSupplyChain.sol\":5208:5229  milkBatches[_batchId] */\n      0x20\n      mstore\n      0x40\n      swap1\n      keccak256\n        /* \"contracts/MilkSupplyChain.sol\":5208:5242  milkBatches[_batchId].currentOwner */\n      0x0c\n      add\n      sload\n      sub(shl(0xa0, 0x01), 0x01)\n      and\n        /* \"contracts/MilkSupplyChain.sol\":5246:5256  msg.sender */\n      caller\n        /* \"contracts/MilkSupplyChain.sol\":5208:5256  milkBatches[_batchId].currentOwner == msg.sender */\n      eq\n        /* \"contracts/MilkSupplyChain.sol\":5200:5290  require(milkBatches[_batchId].currentOwner == msg.sender, \"Only current owner can update\") */\n      tag_312\n      jumpi\n      mload(0x40)\n      shl(0xe5, 0x461bcd)\n      dup2\n      mstore\n        /* \"#utility.yul\":10775:10777   */\n      0x20\n        /* \"contracts/MilkSupplyChain.sol\":5200:5290  require(milkBatches[_batchId].currentOwner == msg.sender, \"Only current owner can update\") */\n      0x04\n      dup3\n      add\n        /* \"#utility.yul\":10757:10778   */\n      mstore\n        /* \"#utility.yul\":10814:10816   */\n      0x1d\n        /* \"#utility.yul\":10794:10812   */\n      0x24\n      dup3\n      add\n        /* \"#utility.yul\":10787:10817   */\n      mstore\n        /* \"#utility.yul\":10853:10884   */\n      0x4f6e6c792063757272656e74206f776e65722063616e20757064617465000000\n        /* \"#utility.yul\":10833:10851   */\n      0x44\n      dup3\n      add\n        /* \"#utility.yul\":10826:10885   */\n      mstore\n        /* \"#utility.yul\":10902:10920   */\n      0x64\n      add\n        /* \"contracts/MilkSupplyChain.sol\":5200:5290  require(milkBatches[_batchId].currentOwner == msg.sender, \"Only current owner can update\") */\n      tag_171\n        /* \"#utility.yul\":10573:10926   */\n      jump\n        /* \"contracts/MilkSupplyChain.sol\":5200:5290  require(milkBatches[_batchId].currentOwner == msg.sender, \"Only current owner can update\") */\n    tag_312:\n        /* \"contracts/MilkSupplyChain.sol\":5301:5332  ReceivingInfo storage receiving */\n      0x00\n        /* \"contracts/MilkSupplyChain.sol\":5335:5356  milkBatches[_batchId] */\n      dup5\n      dup2\n      mstore\n        /* \"contracts/MilkSupplyChain.sol\":5335:5346  milkBatches */\n      0x02\n        /* \"contracts/MilkSupplyChain.sol\":5335:5356  milkBatches[_batchId] */\n      0x20\n      mstore\n      0x40\n      swap1\n      keccak256\n        /* \"contracts/MilkSupplyChain.sol\":5335:5370  milkBatches[_batchId].receivingInfo */\n      0x09\n      dup2\n      add\n      swap1\n        /* \"contracts/MilkSupplyChain.sol\":5381:5397  receiving.status */\n      0x0a\n      add\n        /* \"contracts/MilkSupplyChain.sol\":5381:5407  receiving.status = _status */\n      tag_314\n        /* \"contracts/MilkSupplyChain.sol\":5400:5407  _status */\n      dup6\n        /* \"contracts/MilkSupplyChain.sol\":5381:5397  receiving.status */\n      dup3\n        /* \"contracts/MilkSupplyChain.sol\":5381:5407  receiving.status = _status */\n      tag_250\n      jump\t// in\n    tag_314:\n      pop\n        /* \"contracts/MilkSupplyChain.sol\":5418:5437  receiving.reportCID */\n      0x02\n      dup2\n      add\n        /* \"contracts/MilkSupplyChain.sol\":5418:5450  receiving.reportCID = _reportCID */\n      tag_315\n        /* \"contracts/MilkSupplyChain.sol\":5440:5450  _reportCID */\n      dup5\n        /* \"contracts/MilkSupplyChain.sol\":5418:5437  receiving.reportCID */\n      dup3\n        /* \"contracts/MilkSupplyChain.sol\":5418:5450  receiving.reportCID = _reportCID */\n      tag_250\n      jump\t// in\n    tag_315:\n      pop\n        /* \"contracts/MilkSupplyChain.sol\":5461:5492  receiving.retailer = msg.sender */\n      dup1\n      sload\n      not(sub(shl(0xa0, 0x01), 0x01))\n      and\n        /* \"contracts/MilkSupplyChain.sol\":5482:5492  msg.sender */\n      caller\n        /* \"contracts/MilkSupplyChain.sol\":5461:5492  receiving.retailer = msg.sender */\n      or\n      dup2\n      sstore\n        /* \"contracts/MilkSupplyChain.sol\":5508:5561  ReceivingStatusUpdated(_batchId, _status, _reportCID) */\n      mload(0x40)\n      0x1709afb7f48585816a5b8da1f6f52317a1b01989a29d8c9e39f14cceaf987a1c\n      swap1\n      tag_316\n      swap1\n        /* \"contracts/MilkSupplyChain.sol\":5531:5539  _batchId */\n      dup8\n      swap1\n        /* \"contracts/MilkSupplyChain.sol\":5541:5548  _status */\n      dup8\n      swap1\n        /* \"contracts/MilkSupplyChain.sol\":5550:5560  _reportCID */\n      dup8\n      swap1\n        /* \"contracts/MilkSupplyChain.sol\":5508:5561  ReceivingStatusUpdated(_batchId, _status, _reportCID) */\n      tag_317\n      jump\t// in\n    tag_316:\n      mload(0x40)\n      dup1\n      swap2\n      sub\n      swap1\n      log1\n        /* \"contracts/MilkSupplyChain.sol\":5189:5569  {... */\n      pop\n        /* \"contracts/MilkSupplyChain.sol\":5060:5569  function updateReceivingStatus(uint256 _batchId, string memory _status, string memory _reportCID) public onlyRole(RETAILER_ROLE) {... */\n      pop\n      pop\n      pop\n      pop\n      jump\t// out\n        /* \"@openzeppelin/contracts/access/AccessControl.sol\":3199:3302  function _checkRole(bytes32 role) internal view virtual {... */\n    tag_199:\n        /* \"@openzeppelin/contracts/access/AccessControl.sol\":3265:3295  _checkRole(role, _msgSender()) */\n      tag_320\n        /* \"@openzeppelin/contracts/access/AccessControl.sol\":3276:3280  role */\n      dup2\n        /* \"@openzeppelin/contracts/utils/Context.sol\":735:745  msg.sender */\n      caller\n        /* \"@openzeppelin/contracts/access/AccessControl.sol\":3265:3275  _checkRole */\n      tag_322\n        /* \"@openzeppelin/contracts/access/AccessControl.sol\":3265:3295  _checkRole(role, _msgSender()) */\n      jump\t// in\n    tag_320:\n        /* \"@openzeppelin/contracts/access/AccessControl.sol\":3199:3302  function _checkRole(bytes32 role) internal view virtual {... */\n      pop\n      jump\t// out\n        /* \"@openzeppelin/contracts/access/AccessControl.sol\":6179:6495  function _grantRole(bytes32 role, address account) internal virtual returns (bool) {... */\n    tag_202:\n        /* \"@openzeppelin/contracts/access/AccessControl.sol\":6256:6260  bool */\n      0x00\n        /* \"@openzeppelin/contracts/access/AccessControl.sol\":6277:6299  hasRole(role, account) */\n      tag_324\n        /* \"@openzeppelin/contracts/access/AccessControl.sol\":6285:6289  role */\n      dup4\n        /* \"@openzeppelin/contracts/access/AccessControl.sol\":6291:6298  account */\n      dup4\n        /* \"@openzeppelin/contracts/access/AccessControl.sol\":6277:6284  hasRole */\n      tag_95\n        /* \"@openzeppelin/contracts/access/AccessControl.sol\":6277:6299  hasRole(role, account) */\n      jump\t// in\n    tag_324:\n        /* \"@openzeppelin/contracts/access/AccessControl.sol\":6272:6489  if (!hasRole(role, account)) {... */\n      tag_325\n      jumpi\n        /* \"@openzeppelin/contracts/access/AccessControl.sol\":6315:6321  _roles */\n      0x00\n        /* \"@openzeppelin/contracts/access/AccessControl.sol\":6315:6327  _roles[role] */\n      dup4\n      dup2\n      mstore\n      0x20\n      dup2\n      dup2\n      mstore\n      0x40\n      dup1\n      dup4\n      keccak256\n      sub(shl(0xa0, 0x01), 0x01)\n        /* \"@openzeppelin/contracts/access/AccessControl.sol\":6315:6344  _roles[role].hasRole[account] */\n      dup7\n      and\n      dup5\n      mstore\n      swap1\n      swap2\n      mstore\n      swap1\n      keccak256\n        /* \"@openzeppelin/contracts/access/AccessControl.sol\":6315:6351  _roles[role].hasRole[account] = true */\n      dup1\n      sload\n      not(0xff)\n      and\n        /* \"@openzeppelin/contracts/access/AccessControl.sol\":6347:6351  true */\n      0x01\n        /* \"@openzeppelin/contracts/access/AccessControl.sol\":6315:6351  _roles[role].hasRole[account] = true */\n      or\n      swap1\n      sstore\n        /* \"@openzeppelin/contracts/access/AccessControl.sol\":6397:6409  _msgSender() */\n      tag_326\n        /* \"@openzeppelin/contracts/utils/Context.sol\":735:745  msg.sender */\n      caller\n      swap1\n        /* \"@openzeppelin/contracts/utils/Context.sol\":656:752  function _msgSender() internal view virtual returns (address) {... */\n      jump\n        /* \"@openzeppelin/contracts/access/AccessControl.sol\":6397:6409  _msgSender() */\n    tag_326:\n      sub(shl(0xa0, 0x01), 0x01)\n        /* \"@openzeppelin/contracts/access/AccessControl.sol\":6370:6410  RoleGranted(role, account, _msgSender()) */\n      and\n        /* \"@openzeppelin/contracts/access/AccessControl.sol\":6388:6395  account */\n      dup3\n      sub(shl(0xa0, 0x01), 0x01)\n        /* \"@openzeppelin/contracts/access/AccessControl.sol\":6370:6410  RoleGranted(role, account, _msgSender()) */\n      and\n        /* \"@openzeppelin/contracts/access/AccessControl.sol\":6382:6386  role */\n      dup5\n        /* \"@openzeppelin/contracts/access/AccessControl.sol\":6370:6410  RoleGranted(role, account, _msgSender()) */\n      0x2f8788117e7eff1d82e926ec794901d17c78024a50270940304540a733656f0d\n      mload(0x40)\n      mload(0x40)\n      dup1\n      swap2\n      sub\n      swap1\n      log4\n      pop\n        /* \"@openzeppelin/contracts/access/AccessControl.sol\":6431:6435  true */\n      0x01\n        /* \"@openzeppelin/contracts/access/AccessControl.sol\":6424:6435  return true */\n      jump(tag_132)\n        /* \"@openzeppelin/contracts/access/AccessControl.sol\":6272:6489  if (!hasRole(role, account)) {... */\n    tag_325:\n      pop\n        /* \"@openzeppelin/contracts/access/AccessControl.sol\":6473:6478  false */\n      0x00\n        /* \"@openzeppelin/contracts/access/AccessControl.sol\":6466:6478  return false */\n      jump(tag_132)\n        /* \"@openzeppelin/contracts/access/AccessControl.sol\":6730:7047  function _revokeRole(bytes32 role, address account) internal virtual returns (bool) {... */\n    tag_208:\n        /* \"@openzeppelin/contracts/access/AccessControl.sol\":6808:6812  bool */\n      0x00\n        /* \"@openzeppelin/contracts/access/AccessControl.sol\":6828:6850  hasRole(role, account) */\n      tag_330\n        /* \"@openzeppelin/contracts/access/AccessControl.sol\":6836:6840  role */\n      dup4\n        /* \"@openzeppelin/contracts/access/AccessControl.sol\":6842:6849  account */\n      dup4\n        /* \"@openzeppelin/contracts/access/AccessControl.sol\":6828:6835  hasRole */\n      tag_95\n        /* \"@openzeppelin/contracts/access/AccessControl.sol\":6828:6850  hasRole(role, account) */\n      jump\t// in\n    tag_330:\n        /* \"@openzeppelin/contracts/access/AccessControl.sol\":6824:7041  if (hasRole(role, account)) {... */\n      iszero\n      tag_325\n      jumpi\n        /* \"@openzeppelin/contracts/access/AccessControl.sol\":6898:6903  false */\n      0x00\n        /* \"@openzeppelin/contracts/access/AccessControl.sol\":6866:6878  _roles[role] */\n      dup4\n      dup2\n      mstore\n      0x20\n      dup2\n      dup2\n      mstore\n      0x40\n      dup1\n      dup4\n      keccak256\n      sub(shl(0xa0, 0x01), 0x01)\n        /* \"@openzeppelin/contracts/access/AccessControl.sol\":6866:6895  _roles[role].hasRole[account] */\n      dup7\n      and\n      dup1\n      dup6\n      mstore\n      swap3\n      mstore\n      dup1\n      dup4\n      keccak256\n        /* \"@openzeppelin/contracts/access/AccessControl.sol\":6866:6903  _roles[role].hasRole[account] = false */\n      dup1\n      sload\n      not(0xff)\n      and\n      swap1\n      sstore\n        /* \"@openzeppelin/contracts/access/AccessControl.sol\":6922:6962  RoleRevoked(role, account, _msgSender()) */\n      mload\n        /* \"@openzeppelin/contracts/utils/Context.sol\":735:745  msg.sender */\n      caller\n      swap3\n        /* \"@openzeppelin/contracts/access/AccessControl.sol\":6866:6878  _roles[role] */\n      dup7\n      swap2\n        /* \"@openzeppelin/contracts/access/AccessControl.sol\":6922:6962  RoleRevoked(role, account, _msgSender()) */\n      0xf6391f5c32d9c69d2a47ea670b442974b53935d1edc7fd64eb21e047a839171b\n      swap2\n        /* \"@openzeppelin/contracts/access/AccessControl.sol\":6898:6903  false */\n      swap1\n        /* \"@openzeppelin/contracts/access/AccessControl.sol\":6922:6962  RoleRevoked(role, account, _msgSender()) */\n      log4\n      pop\n        /* \"@openzeppelin/contracts/access/AccessControl.sol\":6983:6987  true */\n      0x01\n        /* \"@openzeppelin/contracts/access/AccessControl.sol\":6976:6987  return true */\n      jump(tag_132)\n        /* \"@openzeppelin/contracts/access/AccessControl.sol\":3432:3629  function _checkRole(bytes32 role, address account) internal view virtual {... */\n    tag_322:\n        /* \"@openzeppelin/contracts/access/AccessControl.sol\":3520:3542  hasRole(role, account) */\n      tag_335\n        /* \"@openzeppelin/contracts/access/AccessControl.sol\":3528:3532  role */\n      dup3\n        /* \"@openzeppelin/contracts/access/AccessControl.sol\":3534:3541  account */\n      dup3\n        /* \"@openzeppelin/contracts/access/AccessControl.sol\":3520:3527  hasRole */\n      tag_95\n        /* \"@openzeppelin/contracts/access/AccessControl.sol\":3520:3542  hasRole(role, account) */\n      jump\t// in\n    tag_335:\n        /* \"@openzeppelin/contracts/access/AccessControl.sol\":3515:3623  if (!hasRole(role, account)) {... */\n      tag_242\n      jumpi\n        /* \"@openzeppelin/contracts/access/AccessControl.sol\":3565:3612  AccessControlUnauthorizedAccount(account, role) */\n      mload(0x40)\n      shl(0xe0, 0xe2517d3f)\n      dup2\n      mstore\n      sub(shl(0xa0, 0x01), 0x01)\n        /* \"#utility.yul\":14826:14858   */\n      dup3\n      and\n        /* \"@openzeppelin/contracts/access/AccessControl.sol\":3565:3612  AccessControlUnauthorizedAccount(account, role) */\n      0x04\n      dup3\n      add\n        /* \"#utility.yul\":14808:14859   */\n      mstore\n        /* \"#utility.yul\":14875:14893   */\n      0x24\n      dup2\n      add\n        /* \"#utility.yul\":14868:14902   */\n      dup4\n      swap1\n      mstore\n        /* \"#utility.yul\":14781:14799   */\n      0x44\n      add\n        /* \"@openzeppelin/contracts/access/AccessControl.sol\":3565:3612  AccessControlUnauthorizedAccount(account, role) */\n      tag_171\n        /* \"#utility.yul\":14634:14908   */\n      jump\n    tag_135:\n      mload(0x40)\n      dup1\n      0xa0\n      add\n      0x40\n      mstore\n      dup1\n      tag_339\n      mload(0x40)\n      dup1\n      0x60\n      add\n      0x40\n      mstore\n      dup1\n      0x00\n      dup2\n      mstore\n      0x20\n      add\n      0x00\n      dup2\n      mstore\n      0x20\n      add\n      0x00\n      dup2\n      mstore\n      pop\n      swap1\n      jump\n    tag_339:\n      dup2\n      mstore\n      0x40\n      dup1\n      mload\n      0x60\n      dup1\n      dup3\n      add\n      dup4\n      mstore\n      0x00\n      dup1\n      dup4\n      mstore\n      0x20\n      dup1\n      dup5\n      add\n      dup4\n      swap1\n      mstore\n      dup4\n      dup6\n      add\n      dup4\n      swap1\n      mstore\n      dup1\n      dup7\n      add\n      swap4\n      swap1\n      swap4\n      mstore\n      dup4\n      mload\n      dup1\n      dup4\n      add\n      dup6\n      mstore\n      dup2\n      dup2\n      mstore\n      dup1\n      dup5\n      add\n      dup4\n      swap1\n      mstore\n      dup1\n      dup6\n      add\n      dup4\n      swap1\n      mstore\n      dup5\n      dup7\n      add\n      mstore\n      dup4\n      mload\n      dup1\n      dup4\n      add\n      dup6\n      mstore\n      dup2\n      dup2\n      mstore\n      swap3\n      dup4\n      add\n      dup3\n      swap1\n      mstore\n      swap3\n      dup3\n      add\n      dup2\n      swap1\n      mstore\n      dup4\n      add\n      mstore\n      0x80\n      swap1\n      swap2\n      add\n      mstore\n      swap1\n      jump\t// out\n        /* \"#utility.yul\":14:300   */\n    tag_34:\n        /* \"#utility.yul\":72:78   */\n      0x00\n        /* \"#utility.yul\":125:127   */\n      0x20\n        /* \"#utility.yul\":113:122   */\n      dup3\n        /* \"#utility.yul\":104:111   */\n      dup5\n        /* \"#utility.yul\":100:123   */\n      sub\n        /* \"#utility.yul\":96:128   */\n      slt\n        /* \"#utility.yul\":93:145   */\n      iszero\n      tag_359\n      jumpi\n        /* \"#utility.yul\":141:142   */\n      0x00\n        /* \"#utility.yul\":138:139   */\n      dup1\n        /* \"#utility.yul\":131:143   */\n      revert\n        /* \"#utility.yul\":93:145   */\n    tag_359:\n        /* \"#utility.yul\":167:190   */\n      dup2\n      calldataload\n      not(sub(shl(0xe0, 0x01), 0x01))\n        /* \"#utility.yul\":219:251   */\n      dup2\n      and\n        /* \"#utility.yul\":209:252   */\n      dup2\n      eq\n        /* \"#utility.yul\":199:270   */\n      tag_360\n      jumpi\n        /* \"#utility.yul\":266:267   */\n      0x00\n        /* \"#utility.yul\":263:264   */\n      dup1\n        /* \"#utility.yul\":256:268   */\n      revert\n        /* \"#utility.yul\":199:270   */\n    tag_360:\n        /* \"#utility.yul\":289:294   */\n      swap4\n        /* \"#utility.yul\":14:300   */\n      swap3\n      pop\n      pop\n      pop\n      jump\t// out\n        /* \"#utility.yul\":497:723   */\n    tag_40:\n        /* \"#utility.yul\":556:562   */\n      0x00\n        /* \"#utility.yul\":609:611   */\n      0x20\n        /* \"#utility.yul\":597:606   */\n      dup3\n        /* \"#utility.yul\":588:595   */\n      dup5\n        /* \"#utility.yul\":584:607   */\n      sub\n        /* \"#utility.yul\":580:612   */\n      slt\n        /* \"#utility.yul\":577:629   */\n      iszero\n      tag_363\n      jumpi\n        /* \"#utility.yul\":625:626   */\n      0x00\n        /* \"#utility.yul\":622:623   */\n      dup1\n        /* \"#utility.yul\":615:627   */\n      revert\n        /* \"#utility.yul\":577:629   */\n    tag_363:\n      pop\n        /* \"#utility.yul\":670:693   */\n      calldataload\n      swap2\n        /* \"#utility.yul\":497:723   */\n      swap1\n      pop\n      jump\t// out\n        /* \"#utility.yul\":939:1228   */\n    tag_348:\n        /* \"#utility.yul\":981:984   */\n      0x00\n        /* \"#utility.yul\":1019:1024   */\n      dup2\n        /* \"#utility.yul\":1013:1025   */\n      mload\n        /* \"#utility.yul\":1046:1052   */\n      dup1\n        /* \"#utility.yul\":1041:1044   */\n      dup5\n        /* \"#utility.yul\":1034:1053   */\n      mstore\n        /* \"#utility.yul\":1102:1108   */\n      dup1\n        /* \"#utility.yul\":1095:1099   */\n      0x20\n        /* \"#utility.yul\":1088:1093   */\n      dup5\n        /* \"#utility.yul\":1084:1100   */\n      add\n        /* \"#utility.yul\":1077:1081   */\n      0x20\n        /* \"#utility.yul\":1072:1075   */\n      dup7\n        /* \"#utility.yul\":1068:1082   */\n      add\n        /* \"#utility.yul\":1062:1109   */\n      mcopy\n        /* \"#utility.yul\":1154:1155   */\n      0x00\n        /* \"#utility.yul\":1147:1151   */\n      0x20\n        /* \"#utility.yul\":1138:1144   */\n      dup3\n        /* \"#utility.yul\":1133:1136   */\n      dup7\n        /* \"#utility.yul\":1129:1145   */\n      add\n        /* \"#utility.yul\":1125:1152   */\n      add\n        /* \"#utility.yul\":1118:1156   */\n      mstore\n        /* \"#utility.yul\":1217:1221   */\n      0x20\n        /* \"#utility.yul\":1210:1212   */\n      0x1f\n        /* \"#utility.yul\":1206:1213   */\n      not\n        /* \"#utility.yul\":1201:1203   */\n      0x1f\n        /* \"#utility.yul\":1193:1199   */\n      dup4\n        /* \"#utility.yul\":1189:1204   */\n      add\n        /* \"#utility.yul\":1185:1214   */\n      and\n        /* \"#utility.yul\":1180:1183   */\n      dup6\n        /* \"#utility.yul\":1176:1215   */\n      add\n        /* \"#utility.yul\":1172:1222   */\n      add\n        /* \"#utility.yul\":1165:1222   */\n      swap2\n      pop\n      pop\n        /* \"#utility.yul\":939:1228   */\n      swap3\n      swap2\n      pop\n      pop\n      jump\t// out\n        /* \"#utility.yul\":1233:1677   */\n    tag_349:\n        /* \"#utility.yul\":1354:1355   */\n      0x01\n        /* \"#utility.yul\":1350:1351   */\n      dup1\n        /* \"#utility.yul\":1345:1348   */\n      0xa0\n        /* \"#utility.yul\":1341:1352   */\n      shl\n        /* \"#utility.yul\":1337:1356   */\n      sub\n        /* \"#utility.yul\":1329:1334   */\n      dup2\n        /* \"#utility.yul\":1323:1335   */\n      mload\n        /* \"#utility.yul\":1319:1357   */\n      and\n        /* \"#utility.yul\":1314:1317   */\n      dup3\n        /* \"#utility.yul\":1307:1358   */\n      mstore\n        /* \"#utility.yul\":1289:1292   */\n      0x00\n        /* \"#utility.yul\":1404:1408   */\n      0x20\n        /* \"#utility.yul\":1397:1402   */\n      dup3\n        /* \"#utility.yul\":1393:1409   */\n      add\n        /* \"#utility.yul\":1387:1410   */\n      mload\n        /* \"#utility.yul\":1442:1446   */\n      0x60\n        /* \"#utility.yul\":1435:1439   */\n      0x20\n        /* \"#utility.yul\":1430:1433   */\n      dup6\n        /* \"#utility.yul\":1426:1440   */\n      add\n        /* \"#utility.yul\":1419:1447   */\n      mstore\n        /* \"#utility.yul\":1468:1515   */\n      tag_367\n        /* \"#utility.yul\":1509:1513   */\n      0x60\n        /* \"#utility.yul\":1504:1507   */\n      dup6\n        /* \"#utility.yul\":1500:1514   */\n      add\n        /* \"#utility.yul\":1486:1498   */\n      dup3\n        /* \"#utility.yul\":1468:1515   */\n      tag_348\n      jump\t// in\n    tag_367:\n        /* \"#utility.yul\":1456:1515   */\n      swap1\n      pop\n        /* \"#utility.yul\":1563:1567   */\n      0x40\n        /* \"#utility.yul\":1556:1561   */\n      dup4\n        /* \"#utility.yul\":1552:1568   */\n      add\n        /* \"#utility.yul\":1546:1569   */\n      mload\n        /* \"#utility.yul\":1611:1614   */\n      dup5\n        /* \"#utility.yul\":1605:1609   */\n      dup3\n        /* \"#utility.yul\":1601:1615   */\n      sub\n        /* \"#utility.yul\":1594:1598   */\n      0x40\n        /* \"#utility.yul\":1589:1592   */\n      dup7\n        /* \"#utility.yul\":1585:1599   */\n      add\n        /* \"#utility.yul\":1578:1616   */\n      mstore\n        /* \"#utility.yul\":1632:1671   */\n      tag_368\n        /* \"#utility.yul\":1666:1670   */\n      dup3\n        /* \"#utility.yul\":1650:1664   */\n      dup3\n        /* \"#utility.yul\":1632:1671   */\n      tag_348\n      jump\t// in\n    tag_368:\n        /* \"#utility.yul\":1625:1671   */\n      swap6\n        /* \"#utility.yul\":1233:1677   */\n      swap5\n      pop\n      pop\n      pop\n      pop\n      pop\n      jump\t// out\n        /* \"#utility.yul\":1682:2650   */\n    tag_43:\n        /* \"#utility.yul\":1863:1865   */\n      0x20\n        /* \"#utility.yul\":1852:1861   */\n      dup2\n        /* \"#utility.yul\":1845:1866   */\n      mstore\n        /* \"#utility.yul\":1875:1937   */\n      tag_370\n        /* \"#utility.yul\":1933:1935   */\n      0x20\n        /* \"#utility.yul\":1922:1931   */\n      dup3\n        /* \"#utility.yul\":1918:1936   */\n      add\n        /* \"#utility.yul\":1909:1915   */\n      dup4\n        /* \"#utility.yul\":1903:1916   */\n      mload\n        /* \"#utility.yul\":803:815   */\n      dup1\n      mload\n        /* \"#utility.yul\":791:816   */\n      dup3\n      mstore\n        /* \"#utility.yul\":865:869   */\n      0x20\n        /* \"#utility.yul\":854:870   */\n      dup1\n      dup3\n      add\n        /* \"#utility.yul\":848:871   */\n      mload\n        /* \"#utility.yul\":832:846   */\n      swap1\n      dup4\n      add\n        /* \"#utility.yul\":825:872   */\n      mstore\n        /* \"#utility.yul\":921:925   */\n      0x40\n        /* \"#utility.yul\":910:926   */\n      swap1\n      dup2\n      add\n        /* \"#utility.yul\":904:927   */\n      mload\n        /* \"#utility.yul\":888:902   */\n      swap2\n      add\n        /* \"#utility.yul\":881:928   */\n      mstore\n        /* \"#utility.yul\":728:934   */\n      jump\n        /* \"#utility.yul\":1875:1937   */\n    tag_370:\n        /* \"#utility.yul\":1826:1830   */\n      0x00\n        /* \"#utility.yul\":1984:1986   */\n      0x20\n        /* \"#utility.yul\":1976:1982   */\n      dup4\n        /* \"#utility.yul\":1972:1987   */\n      add\n        /* \"#utility.yul\":1966:1988   */\n      mload\n        /* \"#utility.yul\":2025:2029   */\n      0xe0\n        /* \"#utility.yul\":2019:2022   */\n      0x80\n        /* \"#utility.yul\":2008:2017   */\n      dup5\n        /* \"#utility.yul\":2004:2023   */\n      add\n        /* \"#utility.yul\":1997:2030   */\n      mstore\n        /* \"#utility.yul\":2053:2119   */\n      tag_371\n        /* \"#utility.yul\":2114:2117   */\n      0x0100\n        /* \"#utility.yul\":2103:2112   */\n      dup5\n        /* \"#utility.yul\":2099:2118   */\n      add\n        /* \"#utility.yul\":2085:2097   */\n      dup3\n        /* \"#utility.yul\":2053:2119   */\n      tag_349\n      jump\t// in\n    tag_371:\n        /* \"#utility.yul\":2039:2119   */\n      swap1\n      pop\n        /* \"#utility.yul\":2168:2172   */\n      0x40\n        /* \"#utility.yul\":2160:2166   */\n      dup5\n        /* \"#utility.yul\":2156:2173   */\n      add\n        /* \"#utility.yul\":2150:2174   */\n      mload\n        /* \"#utility.yul\":2243:2245   */\n      0x1f\n        /* \"#utility.yul\":2239:2246   */\n      not\n        /* \"#utility.yul\":2227:2236   */\n      dup5\n        /* \"#utility.yul\":2219:2225   */\n      dup4\n        /* \"#utility.yul\":2215:2237   */\n      sub\n        /* \"#utility.yul\":2211:2247   */\n      add\n        /* \"#utility.yul\":2205:2208   */\n      0xa0\n        /* \"#utility.yul\":2194:2203   */\n      dup6\n        /* \"#utility.yul\":2190:2209   */\n      add\n        /* \"#utility.yul\":2183:2248   */\n      mstore\n        /* \"#utility.yul\":2271:2326   */\n      tag_372\n        /* \"#utility.yul\":2319:2325   */\n      dup3\n        /* \"#utility.yul\":2303:2317   */\n      dup3\n        /* \"#utility.yul\":2271:2326   */\n      tag_349\n      jump\t// in\n    tag_372:\n        /* \"#utility.yul\":2257:2326   */\n      swap2\n      pop\n      pop\n        /* \"#utility.yul\":2375:2379   */\n      0x60\n        /* \"#utility.yul\":2367:2373   */\n      dup5\n        /* \"#utility.yul\":2363:2380   */\n      add\n        /* \"#utility.yul\":2357:2381   */\n      mload\n        /* \"#utility.yul\":2450:2452   */\n      0x1f\n        /* \"#utility.yul\":2446:2453   */\n      not\n        /* \"#utility.yul\":2434:2443   */\n      dup5\n        /* \"#utility.yul\":2426:2432   */\n      dup4\n        /* \"#utility.yul\":2422:2444   */\n      sub\n        /* \"#utility.yul\":2418:2454   */\n      add\n        /* \"#utility.yul\":2412:2415   */\n      0xc0\n        /* \"#utility.yul\":2401:2410   */\n      dup6\n        /* \"#utility.yul\":2397:2416   */\n      add\n        /* \"#utility.yul\":2390:2455   */\n      mstore\n        /* \"#utility.yul\":2478:2533   */\n      tag_373\n        /* \"#utility.yul\":2526:2532   */\n      dup3\n        /* \"#utility.yul\":2510:2524   */\n      dup3\n        /* \"#utility.yul\":2478:2533   */\n      tag_349\n      jump\t// in\n    tag_373:\n        /* \"#utility.yul\":2593:2596   */\n      0x80\n        /* \"#utility.yul\":2581:2597   */\n      swap6\n      swap1\n      swap6\n      add\n        /* \"#utility.yul\":2575:2598   */\n      mload\n      sub(shl(0xa0, 0x01), 0x01)\n        /* \"#utility.yul\":2571:2620   */\n      and\n        /* \"#utility.yul\":2564:2568   */\n      0xe0\n        /* \"#utility.yul\":2549:2569   */\n      swap5\n      swap1\n      swap5\n      add\n        /* \"#utility.yul\":2542:2621   */\n      swap4\n      swap1\n      swap4\n      mstore\n      pop\n        /* \"#utility.yul\":2464:2533   */\n      swap2\n      swap3\n        /* \"#utility.yul\":1682:2650   */\n      swap2\n      pop\n      pop\n      jump\t// out\n        /* \"#utility.yul\":3068:3241   */\n    tag_350:\n        /* \"#utility.yul\":3136:3156   */\n      dup1\n      calldataload\n      sub(shl(0xa0, 0x01), 0x01)\n        /* \"#utility.yul\":3185:3216   */\n      dup2\n      and\n        /* \"#utility.yul\":3175:3217   */\n      dup2\n      eq\n        /* \"#utility.yul\":3165:3235   */\n      tag_378\n      jumpi\n        /* \"#utility.yul\":3231:3232   */\n      0x00\n        /* \"#utility.yul\":3228:3229   */\n      dup1\n        /* \"#utility.yul\":3221:3233   */\n      revert\n        /* \"#utility.yul\":3165:3235   */\n    tag_378:\n        /* \"#utility.yul\":3068:3241   */\n      swap2\n      swap1\n      pop\n      jump\t// out\n        /* \"#utility.yul\":3246:3546   */\n    tag_55:\n        /* \"#utility.yul\":3314:3320   */\n      0x00\n        /* \"#utility.yul\":3322:3328   */\n      dup1\n        /* \"#utility.yul\":3375:3377   */\n      0x40\n        /* \"#utility.yul\":3363:3372   */\n      dup4\n        /* \"#utility.yul\":3354:3361   */\n      dup6\n        /* \"#utility.yul\":3350:3373   */\n      sub\n        /* \"#utility.yul\":3346:3378   */\n      slt\n        /* \"#utility.yul\":3343:3395   */\n      iszero\n      tag_380\n      jumpi\n        /* \"#utility.yul\":3391:3392   */\n      0x00\n        /* \"#utility.yul\":3388:3389   */\n      dup1\n        /* \"#utility.yul\":3381:3393   */\n      revert\n        /* \"#utility.yul\":3343:3395   */\n    tag_380:\n        /* \"#utility.yul\":3436:3459   */\n      dup3\n      calldataload\n      swap2\n      pop\n        /* \"#utility.yul\":3502:3540   */\n      tag_381\n        /* \"#utility.yul\":3536:3538   */\n      0x20\n        /* \"#utility.yul\":3521:3539   */\n      dup5\n      add\n        /* \"#utility.yul\":3502:3540   */\n      tag_350\n      jump\t// in\n    tag_381:\n        /* \"#utility.yul\":3492:3540   */\n      swap1\n      pop\n        /* \"#utility.yul\":3246:3546   */\n      swap3\n      pop\n      swap3\n      swap1\n      pop\n      jump\t// out\n        /* \"#utility.yul\":3856:4812   */\n    tag_68:\n        /* \"#utility.yul\":803:815   */\n      dup6\n      mload\n        /* \"#utility.yul\":791:816   */\n      dup2\n      mstore\n        /* \"#utility.yul\":865:869   */\n      0x20\n        /* \"#utility.yul\":854:870   */\n      dup1\n      dup8\n      add\n        /* \"#utility.yul\":848:871   */\n      mload\n        /* \"#utility.yul\":832:846   */\n      swap1\n      dup3\n      add\n        /* \"#utility.yul\":825:872   */\n      mstore\n        /* \"#utility.yul\":921:925   */\n      0x40\n        /* \"#utility.yul\":910:926   */\n      dup1\n      dup8\n      add\n        /* \"#utility.yul\":904:927   */\n      mload\n        /* \"#utility.yul\":888:902   */\n      swap1\n      dup3\n      add\n        /* \"#utility.yul\":881:928   */\n      mstore\n        /* \"#utility.yul\":4395:4398   */\n      0xe0\n        /* \"#utility.yul\":4390:4392   */\n      0x60\n        /* \"#utility.yul\":4379:4388   */\n      dup3\n        /* \"#utility.yul\":4375:4393   */\n      add\n        /* \"#utility.yul\":4368:4399   */\n      mstore\n        /* \"#utility.yul\":4294:4298   */\n      0x00\n        /* \"#utility.yul\":4422:4482   */\n      tag_387\n        /* \"#utility.yul\":4477:4480   */\n      0xe0\n        /* \"#utility.yul\":4466:4475   */\n      dup4\n        /* \"#utility.yul\":4462:4481   */\n      add\n        /* \"#utility.yul\":4454:4460   */\n      dup8\n        /* \"#utility.yul\":4422:4482   */\n      tag_349\n      jump\t// in\n    tag_387:\n        /* \"#utility.yul\":4531:4540   */\n      dup3\n        /* \"#utility.yul\":4523:4529   */\n      dup2\n        /* \"#utility.yul\":4519:4541   */\n      sub\n        /* \"#utility.yul\":4513:4516   */\n      0x80\n        /* \"#utility.yul\":4502:4511   */\n      dup5\n        /* \"#utility.yul\":4498:4517   */\n      add\n        /* \"#utility.yul\":4491:4542   */\n      mstore\n        /* \"#utility.yul\":4565:4612   */\n      tag_388\n        /* \"#utility.yul\":4605:4611   */\n      dup2\n        /* \"#utility.yul\":4597:4603   */\n      dup8\n        /* \"#utility.yul\":4565:4612   */\n      tag_349\n      jump\t// in\n    tag_388:\n        /* \"#utility.yul\":4551:4612   */\n      swap1\n      pop\n        /* \"#utility.yul\":4661:4670   */\n      dup3\n        /* \"#utility.yul\":4653:4659   */\n      dup2\n        /* \"#utility.yul\":4649:4671   */\n      sub\n        /* \"#utility.yul\":4643:4646   */\n      0xa0\n        /* \"#utility.yul\":4632:4641   */\n      dup5\n        /* \"#utility.yul\":4628:4647   */\n      add\n        /* \"#utility.yul\":4621:4672   */\n      mstore\n        /* \"#utility.yul\":4689:4736   */\n      tag_389\n        /* \"#utility.yul\":4729:4735   */\n      dup2\n        /* \"#utility.yul\":4721:4727   */\n      dup7\n        /* \"#utility.yul\":4689:4736   */\n      tag_349\n      jump\t// in\n    tag_389:\n        /* \"#utility.yul\":4681:4736   */\n      swap2\n      pop\n      pop\n        /* \"#utility.yul\":4802:4803   */\n      0x01\n        /* \"#utility.yul\":4798:4799   */\n      dup1\n        /* \"#utility.yul\":4793:4796   */\n      0xa0\n        /* \"#utility.yul\":4789:4800   */\n      shl\n        /* \"#utility.yul\":4785:4804   */\n      sub\n        /* \"#utility.yul\":4777:4783   */\n      dup4\n        /* \"#utility.yul\":4773:4805   */\n      and\n        /* \"#utility.yul\":4767:4770   */\n      0xc0\n        /* \"#utility.yul\":4756:4765   */\n      dup4\n        /* \"#utility.yul\":4752:4771   */\n      add\n        /* \"#utility.yul\":4745:4806   */\n      mstore\n        /* \"#utility.yul\":3856:4812   */\n      swap7\n      swap6\n      pop\n      pop\n      pop\n      pop\n      pop\n      pop\n      jump\t// out\n        /* \"#utility.yul\":4817:5003   */\n    tag_74:\n        /* \"#utility.yul\":4876:4882   */\n      0x00\n        /* \"#utility.yul\":4929:4931   */\n      0x20\n        /* \"#utility.yul\":4917:4926   */\n      dup3\n        /* \"#utility.yul\":4908:4915   */\n      dup5\n        /* \"#utility.yul\":4904:4927   */\n      sub\n        /* \"#utility.yul\":4900:4932   */\n      slt\n        /* \"#utility.yul\":4897:4949   */\n      iszero\n      tag_391\n      jumpi\n        /* \"#utility.yul\":4945:4946   */\n      0x00\n        /* \"#utility.yul\":4942:4943   */\n      dup1\n        /* \"#utility.yul\":4935:4947   */\n      revert\n        /* \"#utility.yul\":4897:4949   */\n    tag_391:\n        /* \"#utility.yul\":4968:4997   */\n      tag_360\n        /* \"#utility.yul\":4987:4996   */\n      dup3\n        /* \"#utility.yul\":4968:4997   */\n      tag_350\n      jump\t// in\n        /* \"#utility.yul\":5008:5135   */\n    tag_351:\n        /* \"#utility.yul\":5069:5079   */\n      0x4e487b71\n        /* \"#utility.yul\":5064:5067   */\n      0xe0\n        /* \"#utility.yul\":5060:5080   */\n      shl\n        /* \"#utility.yul\":5057:5058   */\n      0x00\n        /* \"#utility.yul\":5050:5081   */\n      mstore\n        /* \"#utility.yul\":5100:5104   */\n      0x41\n        /* \"#utility.yul\":5097:5098   */\n      0x04\n        /* \"#utility.yul\":5090:5105   */\n      mstore\n        /* \"#utility.yul\":5124:5128   */\n      0x24\n        /* \"#utility.yul\":5121:5122   */\n      0x00\n        /* \"#utility.yul\":5114:5129   */\n      revert\n        /* \"#utility.yul\":5140:5866   */\n    tag_352:\n        /* \"#utility.yul\":5183:5188   */\n      0x00\n        /* \"#utility.yul\":5236:5239   */\n      dup3\n        /* \"#utility.yul\":5229:5233   */\n      0x1f\n        /* \"#utility.yul\":5221:5227   */\n      dup4\n        /* \"#utility.yul\":5217:5234   */\n      add\n        /* \"#utility.yul\":5213:5240   */\n      slt\n        /* \"#utility.yul\":5203:5258   */\n      tag_395\n      jumpi\n        /* \"#utility.yul\":5254:5255   */\n      0x00\n        /* \"#utility.yul\":5251:5252   */\n      dup1\n        /* \"#utility.yul\":5244:5256   */\n      revert\n        /* \"#utility.yul\":5203:5258   */\n    tag_395:\n        /* \"#utility.yul\":5294:5300   */\n      dup2\n        /* \"#utility.yul\":5281:5301   */\n      calldataload\n        /* \"#utility.yul\":5324:5342   */\n      0xffffffffffffffff\n        /* \"#utility.yul\":5316:5322   */\n      dup2\n        /* \"#utility.yul\":5313:5343   */\n      gt\n        /* \"#utility.yul\":5310:5366   */\n      iszero\n      tag_397\n      jumpi\n        /* \"#utility.yul\":5346:5364   */\n      tag_397\n      tag_351\n      jump\t// in\n    tag_397:\n        /* \"#utility.yul\":5395:5397   */\n      0x40\n        /* \"#utility.yul\":5389:5398   */\n      mload\n        /* \"#utility.yul\":5487:5489   */\n      0x1f\n        /* \"#utility.yul\":5449:5466   */\n      dup3\n      add\n      not(0x1f)\n        /* \"#utility.yul\":5445:5476   */\n      swap1\n      dup2\n      and\n        /* \"#utility.yul\":5478:5480   */\n      0x3f\n        /* \"#utility.yul\":5441:5481   */\n      add\n        /* \"#utility.yul\":5437:5491   */\n      and\n        /* \"#utility.yul\":5425:5492   */\n      dup2\n      add\n        /* \"#utility.yul\":5522:5540   */\n      0xffffffffffffffff\n        /* \"#utility.yul\":5507:5541   */\n      dup2\n      gt\n        /* \"#utility.yul\":5543:5565   */\n      dup3\n      dup3\n      lt\n        /* \"#utility.yul\":5504:5566   */\n      or\n        /* \"#utility.yul\":5501:5589   */\n      iszero\n      tag_399\n      jumpi\n        /* \"#utility.yul\":5569:5587   */\n      tag_399\n      tag_351\n      jump\t// in\n    tag_399:\n        /* \"#utility.yul\":5605:5607   */\n      0x40\n        /* \"#utility.yul\":5598:5620   */\n      mstore\n        /* \"#utility.yul\":5629:5651   */\n      dup2\n      dup2\n      mstore\n        /* \"#utility.yul\":5670:5689   */\n      dup4\n      dup3\n      add\n        /* \"#utility.yul\":5691:5695   */\n      0x20\n        /* \"#utility.yul\":5666:5696   */\n      add\n        /* \"#utility.yul\":5663:5702   */\n      dup6\n      lt\n        /* \"#utility.yul\":5660:5719   */\n      iszero\n      tag_400\n      jumpi\n        /* \"#utility.yul\":5715:5716   */\n      0x00\n        /* \"#utility.yul\":5712:5713   */\n      dup1\n        /* \"#utility.yul\":5705:5717   */\n      revert\n        /* \"#utility.yul\":5660:5719   */\n    tag_400:\n        /* \"#utility.yul\":5779:5785   */\n      dup2\n        /* \"#utility.yul\":5772:5776   */\n      0x20\n        /* \"#utility.yul\":5764:5770   */\n      dup6\n        /* \"#utility.yul\":5760:5777   */\n      add\n        /* \"#utility.yul\":5753:5757   */\n      0x20\n        /* \"#utility.yul\":5745:5751   */\n      dup4\n        /* \"#utility.yul\":5741:5758   */\n      add\n        /* \"#utility.yul\":5728:5786   */\n      calldatacopy\n        /* \"#utility.yul\":5834:5835   */\n      0x00\n        /* \"#utility.yul\":5806:5825   */\n      swap2\n      dup2\n      add\n        /* \"#utility.yul\":5827:5831   */\n      0x20\n        /* \"#utility.yul\":5802:5832   */\n      add\n        /* \"#utility.yul\":5795:5836   */\n      swap2\n      swap1\n      swap2\n      mstore\n        /* \"#utility.yul\":5810:5816   */\n      swap4\n        /* \"#utility.yul\":5140:5866   */\n      swap3\n      pop\n      pop\n      pop\n      jump\t// out\n        /* \"#utility.yul\":5871:6598   */\n    tag_78:\n        /* \"#utility.yul\":5977:5983   */\n      0x00\n        /* \"#utility.yul\":5985:5991   */\n      dup1\n        /* \"#utility.yul\":5993:5999   */\n      0x00\n        /* \"#utility.yul\":6001:6007   */\n      dup1\n        /* \"#utility.yul\":6054:6057   */\n      0x80\n        /* \"#utility.yul\":6042:6051   */\n      dup6\n        /* \"#utility.yul\":6033:6040   */\n      dup8\n        /* \"#utility.yul\":6029:6052   */\n      sub\n        /* \"#utility.yul\":6025:6058   */\n      slt\n        /* \"#utility.yul\":6022:6075   */\n      iszero\n      tag_402\n      jumpi\n        /* \"#utility.yul\":6071:6072   */\n      0x00\n        /* \"#utility.yul\":6068:6069   */\n      dup1\n        /* \"#utility.yul\":6061:6073   */\n      revert\n        /* \"#utility.yul\":6022:6075   */\n    tag_402:\n        /* \"#utility.yul\":6116:6139   */\n      dup5\n      calldataload\n      swap4\n      pop\n        /* \"#utility.yul\":6214:6216   */\n      0x20\n        /* \"#utility.yul\":6199:6217   */\n      dup6\n      add\n        /* \"#utility.yul\":6186:6218   */\n      calldataload\n        /* \"#utility.yul\":6241:6259   */\n      0xffffffffffffffff\n        /* \"#utility.yul\":6230:6260   */\n      dup2\n      gt\n        /* \"#utility.yul\":6227:6277   */\n      iszero\n      tag_403\n      jumpi\n        /* \"#utility.yul\":6273:6274   */\n      0x00\n        /* \"#utility.yul\":6270:6271   */\n      dup1\n        /* \"#utility.yul\":6263:6275   */\n      revert\n        /* \"#utility.yul\":6227:6277   */\n    tag_403:\n        /* \"#utility.yul\":6296:6346   */\n      tag_404\n        /* \"#utility.yul\":6338:6345   */\n      dup8\n        /* \"#utility.yul\":6329:6335   */\n      dup3\n        /* \"#utility.yul\":6318:6327   */\n      dup9\n        /* \"#utility.yul\":6314:6336   */\n      add\n        /* \"#utility.yul\":6296:6346   */\n      tag_352\n      jump\t// in\n    tag_404:\n        /* \"#utility.yul\":6286:6346   */\n      swap4\n      pop\n      pop\n        /* \"#utility.yul\":6399:6401   */\n      0x40\n        /* \"#utility.yul\":6388:6397   */\n      dup6\n        /* \"#utility.yul\":6384:6402   */\n      add\n        /* \"#utility.yul\":6371:6403   */\n      calldataload\n        /* \"#utility.yul\":6428:6446   */\n      0xffffffffffffffff\n        /* \"#utility.yul\":6418:6426   */\n      dup2\n        /* \"#utility.yul\":6415:6447   */\n      gt\n        /* \"#utility.yul\":6412:6464   */\n      iszero\n      tag_405\n      jumpi\n        /* \"#utility.yul\":6460:6461   */\n      0x00\n        /* \"#utility.yul\":6457:6458   */\n      dup1\n        /* \"#utility.yul\":6450:6462   */\n      revert\n        /* \"#utility.yul\":6412:6464   */\n    tag_405:\n        /* \"#utility.yul\":6483:6535   */\n      tag_406\n        /* \"#utility.yul\":6527:6534   */\n      dup8\n        /* \"#utility.yul\":6516:6524   */\n      dup3\n        /* \"#utility.yul\":6505:6514   */\n      dup9\n        /* \"#utility.yul\":6501:6525   */\n      add\n        /* \"#utility.yul\":6483:6535   */\n      tag_352\n      jump\t// in\n    tag_406:\n        /* \"#utility.yul\":6473:6535   */\n      swap3\n      pop\n      pop\n        /* \"#utility.yul\":6554:6592   */\n      tag_407\n        /* \"#utility.yul\":6588:6590   */\n      0x60\n        /* \"#utility.yul\":6577:6586   */\n      dup7\n        /* \"#utility.yul\":6573:6591   */\n      add\n        /* \"#utility.yul\":6554:6592   */\n      tag_350\n      jump\t// in\n    tag_407:\n        /* \"#utility.yul\":6544:6592   */\n      swap1\n      pop\n        /* \"#utility.yul\":5871:6598   */\n      swap3\n      swap6\n      swap2\n      swap5\n      pop\n      swap3\n      pop\n      jump\t// out\n        /* \"#utility.yul\":6603:7214   */\n    tag_92:\n        /* \"#utility.yul\":6793:6795   */\n      0x20\n        /* \"#utility.yul\":6805:6826   */\n      dup1\n      dup3\n      mstore\n        /* \"#utility.yul\":6875:6888   */\n      dup3\n      mload\n        /* \"#utility.yul\":6778:6796   */\n      dup3\n      dup3\n      add\n        /* \"#utility.yul\":6897:6919   */\n      dup2\n      swap1\n      mstore\n        /* \"#utility.yul\":6745:6749   */\n      0x00\n      swap2\n        /* \"#utility.yul\":6976:6991   */\n      dup5\n      add\n      swap1\n        /* \"#utility.yul\":6950:6952   */\n      0x40\n        /* \"#utility.yul\":6935:6953   */\n      dup5\n      add\n      swap1\n        /* \"#utility.yul\":6745:6749   */\n      dup4\n        /* \"#utility.yul\":7019:7188   */\n    tag_409:\n        /* \"#utility.yul\":7033:7039   */\n      dup2\n        /* \"#utility.yul\":7030:7031   */\n      dup2\n        /* \"#utility.yul\":7027:7040   */\n      lt\n        /* \"#utility.yul\":7019:7188   */\n      iszero\n      tag_411\n      jumpi\n        /* \"#utility.yul\":7094:7107   */\n      dup4\n      mload\n        /* \"#utility.yul\":7082:7108   */\n      dup4\n      mstore\n        /* \"#utility.yul\":7137:7139   */\n      0x20\n        /* \"#utility.yul\":7163:7178   */\n      swap4\n      dup5\n      add\n      swap4\n        /* \"#utility.yul\":7128:7140   */\n      swap1\n      swap3\n      add\n      swap2\n        /* \"#utility.yul\":7055:7056   */\n      0x01\n        /* \"#utility.yul\":7048:7057   */\n      add\n        /* \"#utility.yul\":7019:7188   */\n      jump(tag_409)\n    tag_411:\n      pop\n        /* \"#utility.yul\":7205:7208   */\n      swap1\n      swap6\n        /* \"#utility.yul\":6603:7214   */\n      swap5\n      pop\n      pop\n      pop\n      pop\n      pop\n      jump\t// out\n        /* \"#utility.yul\":7219:7654   */\n    tag_101:\n        /* \"#utility.yul\":7452:7458   */\n      dup5\n        /* \"#utility.yul\":7441:7450   */\n      dup2\n        /* \"#utility.yul\":7434:7459   */\n      mstore\n        /* \"#utility.yul\":7495:7501   */\n      dup4\n        /* \"#utility.yul\":7490:7492   */\n      0x20\n        /* \"#utility.yul\":7479:7488   */\n      dup3\n        /* \"#utility.yul\":7475:7493   */\n      add\n        /* \"#utility.yul\":7468:7502   */\n      mstore\n        /* \"#utility.yul\":7538:7544   */\n      dup3\n        /* \"#utility.yul\":7533:7535   */\n      0x40\n        /* \"#utility.yul\":7522:7531   */\n      dup3\n        /* \"#utility.yul\":7518:7536   */\n      add\n        /* \"#utility.yul\":7511:7545   */\n      mstore\n        /* \"#utility.yul\":7581:7584   */\n      0x80\n        /* \"#utility.yul\":7576:7578   */\n      0x60\n        /* \"#utility.yul\":7565:7574   */\n      dup3\n        /* \"#utility.yul\":7561:7579   */\n      add\n        /* \"#utility.yul\":7554:7585   */\n      mstore\n        /* \"#utility.yul\":7415:7419   */\n      0x00\n        /* \"#utility.yul\":7602:7648   */\n      tag_413\n        /* \"#utility.yul\":7643:7646   */\n      0x80\n        /* \"#utility.yul\":7632:7641   */\n      dup4\n        /* \"#utility.yul\":7628:7647   */\n      add\n        /* \"#utility.yul\":7620:7626   */\n      dup5\n        /* \"#utility.yul\":7602:7648   */\n      tag_348\n      jump\t// in\n    tag_413:\n        /* \"#utility.yul\":7594:7648   */\n      swap7\n        /* \"#utility.yul\":7219:7654   */\n      swap6\n      pop\n      pop\n      pop\n      pop\n      pop\n      pop\n      jump\t// out\n        /* \"#utility.yul\":7659:8079   */\n    tag_107:\n        /* \"#utility.yul\":7736:7742   */\n      0x00\n        /* \"#utility.yul\":7744:7750   */\n      dup1\n        /* \"#utility.yul\":7752:7758   */\n      0x00\n        /* \"#utility.yul\":7805:7807   */\n      0x60\n        /* \"#utility.yul\":7793:7802   */\n      dup5\n        /* \"#utility.yul\":7784:7791   */\n      dup7\n        /* \"#utility.yul\":7780:7803   */\n      sub\n        /* \"#utility.yul\":7776:7808   */\n      slt\n        /* \"#utility.yul\":7773:7825   */\n      iszero\n      tag_415\n      jumpi\n        /* \"#utility.yul\":7821:7822   */\n      0x00\n        /* \"#utility.yul\":7818:7819   */\n      dup1\n        /* \"#utility.yul\":7811:7823   */\n      revert\n        /* \"#utility.yul\":7773:7825   */\n    tag_415:\n        /* \"#utility.yul\":7866:7889   */\n      dup4\n      calldataload\n      swap3\n      pop\n        /* \"#utility.yul\":7986:7988   */\n      0x20\n        /* \"#utility.yul\":7971:7989   */\n      dup5\n      add\n        /* \"#utility.yul\":7958:7990   */\n      calldataload\n      swap2\n      pop\n        /* \"#utility.yul\":8035:8073   */\n      tag_416\n        /* \"#utility.yul\":8069:8071   */\n      0x40\n        /* \"#utility.yul\":8054:8072   */\n      dup6\n      add\n        /* \"#utility.yul\":8035:8073   */\n      tag_350\n      jump\t// in\n    tag_416:\n        /* \"#utility.yul\":8025:8073   */\n      swap1\n      pop\n        /* \"#utility.yul\":7659:8079   */\n      swap3\n      pop\n      swap3\n      pop\n      swap3\n      jump\t// out\n        /* \"#utility.yul\":8266:8918   */\n    tag_125:\n        /* \"#utility.yul\":8363:8369   */\n      0x00\n        /* \"#utility.yul\":8371:8377   */\n      dup1\n        /* \"#utility.yul\":8379:8385   */\n      0x00\n        /* \"#utility.yul\":8432:8434   */\n      0x60\n        /* \"#utility.yul\":8420:8429   */\n      dup5\n        /* \"#utility.yul\":8411:8418   */\n      dup7\n        /* \"#utility.yul\":8407:8430   */\n      sub\n        /* \"#utility.yul\":8403:8435   */\n      slt\n        /* \"#utility.yul\":8400:8452   */\n      iszero\n      tag_419\n      jumpi\n        /* \"#utility.yul\":8448:8449   */\n      0x00\n        /* \"#utility.yul\":8445:8446   */\n      dup1\n        /* \"#utility.yul\":8438:8450   */\n      revert\n        /* \"#utility.yul\":8400:8452   */\n    tag_419:\n        /* \"#utility.yul\":8493:8516   */\n      dup4\n      calldataload\n      swap3\n      pop\n        /* \"#utility.yul\":8591:8593   */\n      0x20\n        /* \"#utility.yul\":8576:8594   */\n      dup5\n      add\n        /* \"#utility.yul\":8563:8595   */\n      calldataload\n        /* \"#utility.yul\":8618:8636   */\n      0xffffffffffffffff\n        /* \"#utility.yul\":8607:8637   */\n      dup2\n      gt\n        /* \"#utility.yul\":8604:8654   */\n      iszero\n      tag_420\n      jumpi\n        /* \"#utility.yul\":8650:8651   */\n      0x00\n        /* \"#utility.yul\":8647:8648   */\n      dup1\n        /* \"#utility.yul\":8640:8652   */\n      revert\n        /* \"#utility.yul\":8604:8654   */\n    tag_420:\n        /* \"#utility.yul\":8673:8723   */\n      tag_421\n        /* \"#utility.yul\":8715:8722   */\n      dup7\n        /* \"#utility.yul\":8706:8712   */\n      dup3\n        /* \"#utility.yul\":8695:8704   */\n      dup8\n        /* \"#utility.yul\":8691:8713   */\n      add\n        /* \"#utility.yul\":8673:8723   */\n      tag_352\n      jump\t// in\n    tag_421:\n        /* \"#utility.yul\":8663:8723   */\n      swap3\n      pop\n      pop\n        /* \"#utility.yul\":8776:8778   */\n      0x40\n        /* \"#utility.yul\":8765:8774   */\n      dup5\n        /* \"#utility.yul\":8761:8779   */\n      add\n        /* \"#utility.yul\":8748:8780   */\n      calldataload\n        /* \"#utility.yul\":8805:8823   */\n      0xffffffffffffffff\n        /* \"#utility.yul\":8795:8803   */\n      dup2\n        /* \"#utility.yul\":8792:8824   */\n      gt\n        /* \"#utility.yul\":8789:8841   */\n      iszero\n      tag_422\n      jumpi\n        /* \"#utility.yul\":8837:8838   */\n      0x00\n        /* \"#utility.yul\":8834:8835   */\n      dup1\n        /* \"#utility.yul\":8827:8839   */\n      revert\n        /* \"#utility.yul\":8789:8841   */\n    tag_422:\n        /* \"#utility.yul\":8860:8912   */\n      tag_423\n        /* \"#utility.yul\":8904:8911   */\n      dup7\n        /* \"#utility.yul\":8893:8901   */\n      dup3\n        /* \"#utility.yul\":8882:8891   */\n      dup8\n        /* \"#utility.yul\":8878:8902   */\n      add\n        /* \"#utility.yul\":8860:8912   */\n      tag_352\n      jump\t// in\n    tag_423:\n        /* \"#utility.yul\":8850:8912   */\n      swap2\n      pop\n      pop\n        /* \"#utility.yul\":8266:8918   */\n      swap3\n      pop\n      swap3\n      pop\n      swap3\n      jump\t// out\n        /* \"#utility.yul\":8923:9303   */\n    tag_138:\n        /* \"#utility.yul\":9002:9003   */\n      0x01\n        /* \"#utility.yul\":8998:9010   */\n      dup2\n      dup2\n      shr\n      swap1\n        /* \"#utility.yul\":9045:9057   */\n      dup3\n      and\n      dup1\n        /* \"#utility.yul\":9066:9127   */\n      tag_425\n      jumpi\n        /* \"#utility.yul\":9120:9124   */\n      0x7f\n        /* \"#utility.yul\":9112:9118   */\n      dup3\n        /* \"#utility.yul\":9108:9125   */\n      and\n        /* \"#utility.yul\":9098:9125   */\n      swap2\n      pop\n        /* \"#utility.yul\":9066:9127   */\n    tag_425:\n        /* \"#utility.yul\":9173:9175   */\n      0x20\n        /* \"#utility.yul\":9165:9171   */\n      dup3\n        /* \"#utility.yul\":9162:9176   */\n      lt\n        /* \"#utility.yul\":9142:9160   */\n      dup2\n        /* \"#utility.yul\":9139:9177   */\n      sub\n        /* \"#utility.yul\":9136:9297   */\n      tag_426\n      jumpi\n        /* \"#utility.yul\":9219:9229   */\n      0x4e487b71\n        /* \"#utility.yul\":9214:9217   */\n      0xe0\n        /* \"#utility.yul\":9210:9230   */\n      shl\n        /* \"#utility.yul\":9207:9208   */\n      0x00\n        /* \"#utility.yul\":9200:9231   */\n      mstore\n        /* \"#utility.yul\":9254:9258   */\n      0x22\n        /* \"#utility.yul\":9251:9252   */\n      0x04\n        /* \"#utility.yul\":9244:9259   */\n      mstore\n        /* \"#utility.yul\":9282:9286   */\n      0x24\n        /* \"#utility.yul\":9279:9280   */\n      0x00\n        /* \"#utility.yul\":9272:9287   */\n      revert\n        /* \"#utility.yul\":9136:9297   */\n    tag_426:\n      pop\n        /* \"#utility.yul\":8923:9303   */\n      swap2\n      swap1\n      pop\n      jump\t// out\n        /* \"#utility.yul\":9668:9795   */\n    tag_178:\n        /* \"#utility.yul\":9729:9739   */\n      0x4e487b71\n        /* \"#utility.yul\":9724:9727   */\n      0xe0\n        /* \"#utility.yul\":9720:9740   */\n      shl\n        /* \"#utility.yul\":9717:9718   */\n      0x00\n        /* \"#utility.yul\":9710:9741   */\n      mstore\n        /* \"#utility.yul\":9760:9764   */\n      0x32\n        /* \"#utility.yul\":9757:9758   */\n      0x04\n        /* \"#utility.yul\":9750:9765   */\n      mstore\n        /* \"#utility.yul\":9784:9788   */\n      0x24\n        /* \"#utility.yul\":9781:9782   */\n      0x00\n        /* \"#utility.yul\":9774:9789   */\n      revert\n        /* \"#utility.yul\":9800:9927   */\n    tag_353:\n        /* \"#utility.yul\":9861:9871   */\n      0x4e487b71\n        /* \"#utility.yul\":9856:9859   */\n      0xe0\n        /* \"#utility.yul\":9852:9872   */\n      shl\n        /* \"#utility.yul\":9849:9850   */\n      0x00\n        /* \"#utility.yul\":9842:9873   */\n      mstore\n        /* \"#utility.yul\":9892:9896   */\n      0x11\n        /* \"#utility.yul\":9889:9890   */\n      0x04\n        /* \"#utility.yul\":9882:9897   */\n      mstore\n        /* \"#utility.yul\":9916:9920   */\n      0x24\n        /* \"#utility.yul\":9913:9914   */\n      0x00\n        /* \"#utility.yul\":9906:9921   */\n      revert\n        /* \"#utility.yul\":9932:10060   */\n    tag_182:\n        /* \"#utility.yul\":9999:10008   */\n      dup2\n      dup2\n      sub\n        /* \"#utility.yul\":10020:10031   */\n      dup2\n      dup2\n      gt\n        /* \"#utility.yul\":10017:10054   */\n      iszero\n      tag_132\n      jumpi\n        /* \"#utility.yul\":10034:10052   */\n      tag_132\n      tag_353\n      jump\t// in\n        /* \"#utility.yul\":10065:10192   */\n    tag_191:\n        /* \"#utility.yul\":10126:10136   */\n      0x4e487b71\n        /* \"#utility.yul\":10121:10124   */\n      0xe0\n        /* \"#utility.yul\":10117:10137   */\n      shl\n        /* \"#utility.yul\":10114:10115   */\n      0x00\n        /* \"#utility.yul\":10107:10138   */\n      mstore\n        /* \"#utility.yul\":10157:10161   */\n      0x31\n        /* \"#utility.yul\":10154:10155   */\n      0x04\n        /* \"#utility.yul\":10147:10162   */\n      mstore\n        /* \"#utility.yul\":10181:10185   */\n      0x24\n        /* \"#utility.yul\":10178:10179   */\n      0x00\n        /* \"#utility.yul\":10171:10186   */\n      revert\n        /* \"#utility.yul\":11057:11575   */\n    tag_355:\n        /* \"#utility.yul\":11159:11161   */\n      0x1f\n        /* \"#utility.yul\":11154:11157   */\n      dup3\n        /* \"#utility.yul\":11151:11162   */\n      gt\n        /* \"#utility.yul\":11148:11569   */\n      iszero\n      tag_207\n      jumpi\n        /* \"#utility.yul\":11195:11200   */\n      dup1\n        /* \"#utility.yul\":11192:11193   */\n      0x00\n        /* \"#utility.yul\":11185:11201   */\n      mstore\n        /* \"#utility.yul\":11239:11243   */\n      0x20\n        /* \"#utility.yul\":11236:11237   */\n      0x00\n        /* \"#utility.yul\":11226:11244   */\n      keccak256\n        /* \"#utility.yul\":11309:11311   */\n      0x1f\n        /* \"#utility.yul\":11297:11307   */\n      dup5\n        /* \"#utility.yul\":11293:11312   */\n      add\n        /* \"#utility.yul\":11290:11291   */\n      0x05\n        /* \"#utility.yul\":11286:11313   */\n      shr\n        /* \"#utility.yul\":11280:11284   */\n      dup2\n        /* \"#utility.yul\":11276:11314   */\n      add\n        /* \"#utility.yul\":11345:11349   */\n      0x20\n        /* \"#utility.yul\":11333:11343   */\n      dup6\n        /* \"#utility.yul\":11330:11350   */\n      lt\n        /* \"#utility.yul\":11327:11374   */\n      iszero\n      tag_439\n      jumpi\n      pop\n        /* \"#utility.yul\":11368:11372   */\n      dup1\n        /* \"#utility.yul\":11327:11374   */\n    tag_439:\n        /* \"#utility.yul\":11423:11425   */\n      0x1f\n        /* \"#utility.yul\":11418:11421   */\n      dup5\n        /* \"#utility.yul\":11414:11426   */\n      add\n        /* \"#utility.yul\":11411:11412   */\n      0x05\n        /* \"#utility.yul\":11407:11427   */\n      shr\n        /* \"#utility.yul\":11401:11405   */\n      dup3\n        /* \"#utility.yul\":11397:11428   */\n      add\n        /* \"#utility.yul\":11387:11428   */\n      swap2\n      pop\n        /* \"#utility.yul\":11478:11559   */\n    tag_440:\n        /* \"#utility.yul\":11496:11498   */\n      dup2\n        /* \"#utility.yul\":11489:11494   */\n      dup2\n        /* \"#utility.yul\":11486:11499   */\n      lt\n        /* \"#utility.yul\":11478:11559   */\n      iszero\n      tag_442\n      jumpi\n        /* \"#utility.yul\":11555:11556   */\n      0x00\n        /* \"#utility.yul\":11541:11557   */\n      dup2\n      sstore\n        /* \"#utility.yul\":11522:11523   */\n      0x01\n        /* \"#utility.yul\":11511:11524   */\n      add\n        /* \"#utility.yul\":11478:11559   */\n      jump(tag_440)\n    tag_442:\n        /* \"#utility.yul\":11482:11485   */\n      pop\n      pop\n        /* \"#utility.yul\":11057:11575   */\n      pop\n      pop\n      pop\n      jump\t// out\n        /* \"#utility.yul\":11751:13050   */\n    tag_250:\n        /* \"#utility.yul\":11877:11880   */\n      dup2\n        /* \"#utility.yul\":11871:11881   */\n      mload\n        /* \"#utility.yul\":11904:11922   */\n      0xffffffffffffffff\n        /* \"#utility.yul\":11896:11902   */\n      dup2\n        /* \"#utility.yul\":11893:11923   */\n      gt\n        /* \"#utility.yul\":11890:11946   */\n      iszero\n      tag_446\n      jumpi\n        /* \"#utility.yul\":11926:11944   */\n      tag_446\n      tag_351\n      jump\t// in\n    tag_446:\n        /* \"#utility.yul\":11955:12052   */\n      tag_447\n        /* \"#utility.yul\":12045:12051   */\n      dup2\n        /* \"#utility.yul\":12005:12043   */\n      tag_448\n        /* \"#utility.yul\":12037:12041   */\n      dup5\n        /* \"#utility.yul\":12031:12042   */\n      sload\n        /* \"#utility.yul\":12005:12043   */\n      tag_138\n      jump\t// in\n    tag_448:\n        /* \"#utility.yul\":11999:12003   */\n      dup5\n        /* \"#utility.yul\":11955:12052   */\n      tag_355\n      jump\t// in\n    tag_447:\n        /* \"#utility.yul\":12101:12105   */\n      0x20\n        /* \"#utility.yul\":12132:12134   */\n      0x1f\n        /* \"#utility.yul\":12121:12135   */\n      dup3\n      gt\n        /* \"#utility.yul\":12149:12150   */\n      0x01\n        /* \"#utility.yul\":12144:12793   */\n      dup2\n      eq\n      tag_450\n      jumpi\n        /* \"#utility.yul\":12837:12838   */\n      0x00\n        /* \"#utility.yul\":12854:12860   */\n      dup4\n        /* \"#utility.yul\":12851:12940   */\n      iszero\n      tag_451\n      jumpi\n      pop\n        /* \"#utility.yul\":12906:12925   */\n      dup5\n      dup3\n      add\n        /* \"#utility.yul\":12900:12926   */\n      mload\n        /* \"#utility.yul\":12851:12940   */\n    tag_451:\n      not(0x00)\n        /* \"#utility.yul\":11708:11709   */\n      0x03\n        /* \"#utility.yul\":11704:11715   */\n      dup6\n      swap1\n      shl\n        /* \"#utility.yul\":11700:11724   */\n      shr\n        /* \"#utility.yul\":11696:11725   */\n      not\n        /* \"#utility.yul\":11686:11726   */\n      and\n        /* \"#utility.yul\":11732:11733   */\n      0x01\n        /* \"#utility.yul\":11728:11739   */\n      dup5\n      swap1\n      shl\n        /* \"#utility.yul\":11683:11740   */\n      or\n        /* \"#utility.yul\":12953:13034   */\n      dup5\n      sstore\n        /* \"#utility.yul\":12114:13044   */\n      jump(tag_442)\n        /* \"#utility.yul\":12144:12793   */\n    tag_450:\n        /* \"#utility.yul\":11004:11005   */\n      0x00\n        /* \"#utility.yul\":10997:11011   */\n      dup5\n      dup2\n      mstore\n        /* \"#utility.yul\":11041:11045   */\n      0x20\n        /* \"#utility.yul\":11028:11046   */\n      dup2\n      keccak256\n      not(0x1f)\n        /* \"#utility.yul\":12180:12200   */\n      dup6\n      and\n      swap2\n        /* \"#utility.yul\":12298:12520   */\n    tag_454:\n        /* \"#utility.yul\":12312:12319   */\n      dup3\n        /* \"#utility.yul\":12309:12310   */\n      dup2\n        /* \"#utility.yul\":12306:12320   */\n      lt\n        /* \"#utility.yul\":12298:12520   */\n      iszero\n      tag_456\n      jumpi\n        /* \"#utility.yul\":12394:12413   */\n      dup8\n      dup6\n      add\n        /* \"#utility.yul\":12388:12414   */\n      mload\n        /* \"#utility.yul\":12373:12415   */\n      dup3\n      sstore\n        /* \"#utility.yul\":12501:12505   */\n      0x20\n        /* \"#utility.yul\":12486:12506   */\n      swap5\n      dup6\n      add\n      swap5\n        /* \"#utility.yul\":12454:12455   */\n      0x01\n        /* \"#utility.yul\":12442:12456   */\n      swap1\n      swap3\n      add\n      swap2\n        /* \"#utility.yul\":12328:12340   */\n      add\n        /* \"#utility.yul\":12298:12520   */\n      jump(tag_454)\n    tag_456:\n        /* \"#utility.yul\":12302:12305   */\n      pop\n        /* \"#utility.yul\":12548:12554   */\n      dup5\n        /* \"#utility.yul\":12539:12546   */\n      dup3\n        /* \"#utility.yul\":12536:12555   */\n      lt\n        /* \"#utility.yul\":12533:12734   */\n      iszero\n      tag_457\n      jumpi\n        /* \"#utility.yul\":12609:12628   */\n      dup7\n      dup5\n      add\n        /* \"#utility.yul\":12603:12629   */\n      mload\n      not(0x00)\n        /* \"#utility.yul\":12692:12693   */\n      0x03\n        /* \"#utility.yul\":12688:12702   */\n      dup8\n      swap1\n      shl\n        /* \"#utility.yul\":12704:12707   */\n      0xf8\n        /* \"#utility.yul\":12684:12708   */\n      and\n        /* \"#utility.yul\":12680:12717   */\n      shr\n        /* \"#utility.yul\":12676:12718   */\n      not\n        /* \"#utility.yul\":12661:12719   */\n      and\n        /* \"#utility.yul\":12646:12720   */\n      dup2\n      sstore\n        /* \"#utility.yul\":12533:12734   */\n    tag_457:\n      pop\n      pop\n      pop\n      pop\n        /* \"#utility.yul\":12780:12781   */\n      0x01\n        /* \"#utility.yul\":12764:12778   */\n      swap1\n      dup2\n      shl\n        /* \"#utility.yul\":12760:12782   */\n      add\n        /* \"#utility.yul\":12747:12783   */\n      swap1\n      sstore\n      pop\n        /* \"#utility.yul\":11751:13050   */\n      jump\t// out\n        /* \"#utility.yul\":13055:13608   */\n    tag_255:\n        /* \"#utility.yul\":13308:13314   */\n      dup5\n        /* \"#utility.yul\":13297:13306   */\n      dup2\n        /* \"#utility.yul\":13290:13315   */\n      mstore\n        /* \"#utility.yul\":13351:13354   */\n      0x80\n        /* \"#utility.yul\":13346:13348   */\n      0x20\n        /* \"#utility.yul\":13335:13344   */\n      dup3\n        /* \"#utility.yul\":13331:13349   */\n      add\n        /* \"#utility.yul\":13324:13355   */\n      mstore\n        /* \"#utility.yul\":13271:13275   */\n      0x00\n        /* \"#utility.yul\":13378:13424   */\n      tag_459\n        /* \"#utility.yul\":13419:13422   */\n      0x80\n        /* \"#utility.yul\":13408:13417   */\n      dup4\n        /* \"#utility.yul\":13404:13423   */\n      add\n        /* \"#utility.yul\":13396:13402   */\n      dup7\n        /* \"#utility.yul\":13378:13424   */\n      tag_348\n      jump\t// in\n    tag_459:\n        /* \"#utility.yul\":13472:13481   */\n      dup3\n        /* \"#utility.yul\":13464:13470   */\n      dup2\n        /* \"#utility.yul\":13460:13482   */\n      sub\n        /* \"#utility.yul\":13455:13457   */\n      0x40\n        /* \"#utility.yul\":13444:13453   */\n      dup5\n        /* \"#utility.yul\":13440:13458   */\n      add\n        /* \"#utility.yul\":13433:13483   */\n      mstore\n        /* \"#utility.yul\":13500:13533   */\n      tag_460\n        /* \"#utility.yul\":13526:13532   */\n      dup2\n        /* \"#utility.yul\":13518:13524   */\n      dup7\n        /* \"#utility.yul\":13500:13533   */\n      tag_348\n      jump\t// in\n    tag_460:\n        /* \"#utility.yul\":13492:13533   */\n      swap2\n      pop\n      pop\n        /* \"#utility.yul\":13598:13599   */\n      0x01\n        /* \"#utility.yul\":13594:13595   */\n      dup1\n        /* \"#utility.yul\":13589:13592   */\n      0xa0\n        /* \"#utility.yul\":13585:13596   */\n      shl\n        /* \"#utility.yul\":13581:13600   */\n      sub\n        /* \"#utility.yul\":13573:13579   */\n      dup4\n        /* \"#utility.yul\":13569:13601   */\n      and\n        /* \"#utility.yul\":13564:13566   */\n      0x60\n        /* \"#utility.yul\":13553:13562   */\n      dup4\n        /* \"#utility.yul\":13549:13567   */\n      add\n        /* \"#utility.yul\":13542:13602   */\n      mstore\n        /* \"#utility.yul\":13055:13608   */\n      swap6\n      swap5\n      pop\n      pop\n      pop\n      pop\n      pop\n      jump\t// out\n        /* \"#utility.yul\":13613:13748   */\n    tag_290:\n        /* \"#utility.yul\":13652:13655   */\n      0x00\n        /* \"#utility.yul\":13673:13690   */\n      0x01\n      dup3\n      add\n        /* \"#utility.yul\":13670:13713   */\n      tag_463\n      jumpi\n        /* \"#utility.yul\":13693:13711   */\n      tag_463\n      tag_353\n      jump\t// in\n    tag_463:\n      pop\n        /* \"#utility.yul\":13740:13741   */\n      0x01\n        /* \"#utility.yul\":13729:13742   */\n      add\n      swap1\n        /* \"#utility.yul\":13613:13748   */\n      jump\t// out\n        /* \"#utility.yul\":14175:14629   */\n    tag_317:\n        /* \"#utility.yul\":14400:14406   */\n      dup4\n        /* \"#utility.yul\":14389:14398   */\n      dup2\n        /* \"#utility.yul\":14382:14407   */\n      mstore\n        /* \"#utility.yul\":14443:14445   */\n      0x60\n        /* \"#utility.yul\":14438:14440   */\n      0x20\n        /* \"#utility.yul\":14427:14436   */\n      dup3\n        /* \"#utility.yul\":14423:14441   */\n      add\n        /* \"#utility.yul\":14416:14446   */\n      mstore\n        /* \"#utility.yul\":14363:14367   */\n      0x00\n        /* \"#utility.yul\":14469:14514   */\n      tag_466\n        /* \"#utility.yul\":14510:14512   */\n      0x60\n        /* \"#utility.yul\":14499:14508   */\n      dup4\n        /* \"#utility.yul\":14495:14513   */\n      add\n        /* \"#utility.yul\":14487:14493   */\n      dup6\n        /* \"#utility.yul\":14469:14514   */\n      tag_348\n      jump\t// in\n    tag_466:\n        /* \"#utility.yul\":14562:14571   */\n      dup3\n        /* \"#utility.yul\":14554:14560   */\n      dup2\n        /* \"#utility.yul\":14550:14572   */\n      sub\n        /* \"#utility.yul\":14545:14547   */\n      0x40\n        /* \"#utility.yul\":14534:14543   */\n      dup5\n        /* \"#utility.yul\":14530:14548   */\n      add\n        /* \"#utility.yul\":14523:14573   */\n      mstore\n        /* \"#utility.yul\":14590:14623   */\n      tag_413\n        /* \"#utility.yul\":14616:14622   */\n      dup2\n        /* \"#utility.yul\":14608:14614   */\n      dup6\n        /* \"#utility.yul\":14590:14623   */\n      tag_348\n      jump\t// in\n\n    auxdata: 0xa26469706673582212203b8d246eb46f08166a2bf0345fe5f86153d19ed97736c33bd3a9d63f713a960964736f6c634300081a0033\n}\n",
				"bytecode": {
					"linkReferences": {},
					"object": "6080604052348015600e575f80fd5b5060175f336020565b505f60015560c6565b5f828152602081815260408083206001600160a01b038516845290915281205460ff1660bd575f838152602081815260408083206001600160a01b03861684529091529020805460ff1916600117905560763390565b6001600160a01b0316826001600160a01b0316847f2f8788117e7eff1d82e926ec794901d17c78024a50270940304540a733656f0d60405160405180910390a450600160c0565b505f5b92915050565b611e39806100d35f395ff3fe608060405234801561000f575f80fd5b506004361061016d575f3560e01c8063874ae942116100d9578063ab93d87311610093578063d547741f1161006e578063d547741f14610375578063e3a3c52214610388578063eab1ddf2146103af578063f3943970146103c2575f80fd5b8063ab93d87314610347578063aea322611461035a578063b702204914610362575f80fd5b8063874ae942146102cf5780638ec4f505146102e25780638fec82c5146102f557806391d148541461030a57806399cdcc5c1461031d578063a217fddf14610340575f80fd5b806336568abe1161012a57806336568abe146102385780634e266aea1461024b5780634eabbe771461026f5780637e458492146102965780637f832973146102a957806380c3f96d146102bc575f80fd5b806301ffc9a7146101715780631a0058f5146101995780632115e7bf146101b9578063248a9ca3146101ee57806329507f73146102105780632f2ff15d14610225575b5f80fd5b61018461017f36600461179f565b6103e9565b60405190151581526020015b60405180910390f35b6101ac6101a73660046117cd565b61041f565b604051610190919061185a565b6101e07f2a5f906c256a5d799494fcd066e1f6c077689de1cdb65052a1624de4bace99bf81565b604051908152602001610190565b6101e06101fc3660046117cd565b5f9081526020819052604090206001015490565b61022361021e366004611913565b610854565b005b610223610233366004611913565b610a12565b610223610246366004611913565b610a3c565b61025e6102593660046117cd565b610a74565b60405161019095949392919061193d565b6101e07fddaa901e2fe3bda354fe0ede2785152d5c109282a613fe024a056a3e66c41bb381565b6102236102a43660046119ab565b610e89565b6102236102b7366004611a63565b610ec1565b6102236102ca3660046119ab565b611023565b6102236102dd366004611a63565b611057565b6102236102f03660046119ab565b611127565b6102fd61115b565b6040516101909190611ae1565b610184610318366004611913565b6111b9565b61033061032b3660046117cd565b6111e1565b6040516101909493929190611b23565b6101e05f81565b6101e0610355366004611b51565b6112a0565b6001546101e0565b6102236103703660046119ab565b611467565b610223610383366004611913565b61149b565b6101e07f273dcf2136c7d8ef632bb8ef13dbca69a8f36fa620c7468671b3153d46a211c081565b6102236103bd366004611b83565b6114bf565b6101e07f7c6181838a71a779e445600d4c6ecbe16bacf2b3c5bda69c29fada66d1b645d181565b5f6001600160e01b03198216637965db0b60e01b148061041957506301ffc9a760e01b6001600160e01b03198316145b92915050565b610427611711565b5f82815260026020818152604092839020835161010081018552815460a08201908152600183015460c08301529382015460e08201529283528351606081019094526003810180546001600160a01b0316855260048201805494959294868501948401919061049590611bf0565b80601f01602080910402602001604051908101604052809291908181526020018280546104c190611bf0565b801561050c5780601f106104e35761010080835404028352916020019161050c565b820191905f5260205f20905b8154815290600101906020018083116104ef57829003601f168201915b5050505050815260200160028201805461052590611bf0565b80601f016020809104026020016040519081016040528092919081815260200182805461055190611bf0565b801561059c5780601f106105735761010080835404028352916020019161059c565b820191905f5260205f20905b81548152906001019060200180831161057f57829003601f168201915b50505091909252505050815260408051606081019091526006830180546001600160a01b03168252600784018054602094850194840191906105dd90611bf0565b80601f016020809104026020016040519081016040528092919081815260200182805461060990611bf0565b80156106545780601f1061062b57610100808354040283529160200191610654565b820191905f5260205f20905b81548152906001019060200180831161063757829003601f168201915b5050505050815260200160028201805461066d90611bf0565b80601f016020809104026020016040519081016040528092919081815260200182805461069990611bf0565b80156106e45780601f106106bb576101008083540402835291602001916106e4565b820191905f5260205f20905b8154815290600101906020018083116106c757829003601f168201915b50505091909252505050815260408051606081019091526009830180546001600160a01b03168252600a840180546020948501948401919061072590611bf0565b80601f016020809104026020016040519081016040528092919081815260200182805461075190611bf0565b801561079c5780601f106107735761010080835404028352916020019161079c565b820191905f5260205f20905b81548152906001019060200180831161077f57829003601f168201915b505050505081526020016002820180546107b590611bf0565b80601f01602080910402602001604051908101604052809291908181526020018280546107e190611bf0565b801561082c5780601f106108035761010080835404028352916020019161082c565b820191905f5260205f20905b81548152906001019060200180831161080f57829003601f168201915b505050919092525050508152600c91909101546001600160a01b031660209091015292915050565b5f828152600260205260409020600c01546001600160a01b031633146108c15760405162461bcd60e51b815260206004820152601f60248201527f4f6e6c792063757272656e74206f776e65722063616e207472616e736665720060448201526064015b60405180910390fd5b5f828152600260209081526040808320600c0180546001600160a01b038681166001600160a01b0319831617909255168084526003909252822090915b815481101561099f578482828154811061091a5761091a611c28565b905f5260205f20015403610997578154829061093890600190611c50565b8154811061094857610948611c28565b905f5260205f20015482828154811061096357610963611c28565b905f5260205f2001819055508180548061097f5761097f611c63565b600190038181905f5260205f20015f9055905561099f565b6001016108fe565b506001600160a01b038381165f8181526003602090815260408083208054600181018255908452928290209092018890558151888152938616908401528201527f16b85f49bf01212961345d3016c9a531894accf62eb7680f2045d79185cc0ec09060600160405180910390a150505050565b5f82815260208190526040902060010154610a2c816115d3565b610a3683836115e0565b50505050565b6001600160a01b0381163314610a655760405163334bd91960e11b815260040160405180910390fd5b610a6f828261166f565b505050565b600260208181525f92835260409283902083516060808201865282548252600183015482850152938201548186015284519384019094526003810180546001600160a01b03168452600482018054929493919291840191610ad490611bf0565b80601f0160208091040260200160405190810160405280929190818152602001828054610b0090611bf0565b8015610b4b5780601f10610b2257610100808354040283529160200191610b4b565b820191905f5260205f20905b815481529060010190602001808311610b2e57829003601f168201915b50505050508152602001600282018054610b6490611bf0565b80601f0160208091040260200160405190810160405280929190818152602001828054610b9090611bf0565b8015610bdb5780601f10610bb257610100808354040283529160200191610bdb565b820191905f5260205f20905b815481529060010190602001808311610bbe57829003601f168201915b50505091909252505060408051606081019091526006840180546001600160a01b031682526007850180549495949293509091602084019190610c1d90611bf0565b80601f0160208091040260200160405190810160405280929190818152602001828054610c4990611bf0565b8015610c945780601f10610c6b57610100808354040283529160200191610c94565b820191905f5260205f20905b815481529060010190602001808311610c7757829003601f168201915b50505050508152602001600282018054610cad90611bf0565b80601f0160208091040260200160405190810160405280929190818152602001828054610cd990611bf0565b8015610d245780601f10610cfb57610100808354040283529160200191610d24565b820191905f5260205f20905b815481529060010190602001808311610d0757829003601f168201915b50505091909252505060408051606081019091526009840180546001600160a01b03168252600a850180549495949293509091602084019190610d6690611bf0565b80601f0160208091040260200160405190810160405280929190818152602001828054610d9290611bf0565b8015610ddd5780601f10610db457610100808354040283529160200191610ddd565b820191905f5260205f20905b815481529060010190602001808311610dc057829003601f168201915b50505050508152602001600282018054610df690611bf0565b80601f0160208091040260200160405190810160405280929190818152602001828054610e2290611bf0565b8015610e6d5780601f10610e4457610100808354040283529160200191610e6d565b820191905f5260205f20905b815481529060010190602001808311610e5057829003601f168201915b50505091909252505050600c909101546001600160a01b031685565b5f610e93816115d3565b610ebd7f273dcf2136c7d8ef632bb8ef13dbca69a8f36fa620c7468671b3153d46a211c083610a12565b5050565b7fddaa901e2fe3bda354fe0ede2785152d5c109282a613fe024a056a3e66c41bb3610eeb816115d3565b5f858152600260205260409020600c01546001600160a01b03163314610f535760405162461bcd60e51b815260206004820152601d60248201527f4f6e6c792063757272656e74206f776e65722063616e2075706461746500000060448201526064016108b8565b5f8581526002602052604090206003810190600401610f728682611cc2565b5060028101610f818582611cc2565b5080546001600160a01b031916331781555f6001600160a01b038416610fc0575f878152600260205260409020600c01546001600160a01b0316610fc2565b835b90507f4ea766b3bd9e7c93b3e34a817a346f1f50f27facb4df941fa10747a5bfc9213487878784604051610ff99493929190611d7d565b60405180910390a16001600160a01b0384161561101a5761101a8785610854565b50505050505050565b5f61102d816115d3565b610ebd7f7c6181838a71a779e445600d4c6ecbe16bacf2b3c5bda69c29fada66d1b645d183610a12565b7f273dcf2136c7d8ef632bb8ef13dbca69a8f36fa620c7468671b3153d46a211c0611081816115d3565b5f85815260026020526040902060068101906007016110a08682611cc2565b50600281016110af8582611cc2565b5080546001600160a01b031916331781555f6001600160a01b0384166110ee575f878152600260205260409020600c01546001600160a01b03166110f0565b835b90507fffe7da8cd425dbb269909e7defc11396e896f2dba686ba28d711f4db1cff02fe87878784604051610ff99493929190611d7d565b5f611131816115d3565b610ebd7f2a5f906c256a5d799494fcd066e1f6c077689de1cdb65052a1624de4bace99bf83610a12565b335f908152600360209081526040918290208054835181840281018401909452808452606093928301828280156111af57602002820191905f5260205f20905b81548152602001906001019080831161119b575b5050505050905090565b5f918252602082815260408084206001600160a01b0393909316845291905290205460ff1690565b5f81815260026020819052604082208054918101546008820180548594859460609490938993819061121290611bf0565b80601f016020809104026020016040519081016040528092919081815260200182805461123e90611bf0565b80156112895780601f1061126057610100808354040283529160200191611289565b820191905f5260205f20905b81548152906001019060200180831161126c57829003601f168201915b505050505090509450945094509450509193509193565b5f7f7c6181838a71a779e445600d4c6ecbe16bacf2b3c5bda69c29fada66d1b645d16112cb816115d3565b60018054905f6112da83611dc1565b9091555050600180545f908152600260208181526040928390208351606081018552428082528184018c90529085018a905281559384018990559083018790558151808301909252600b82526a139bdd0814dd185c9d195960aa1b9082015260048201906113489082611cc2565b5060408051808201909152600d81526c139bdd08125b9cdc1958dd1959609a1b6020820152600782019061137c9082611cc2565b5060408051808201909152600c81526b139bdd08149958d95a5d995960a21b6020820152600a8201906113af9082611cc2565b50600c810180546001600160a01b031916339081179091555f81815260036020908152604080832060018054825480830184559286529484902090910193909355915482514281529182018a90529181018890526001600160a01b03871660608201527f167d4490114704a52fff91fd9e2b0410e6472a338563551876cd1d2b72a98dc69060800160405180910390a36001600160a01b0384161561145a5761145a60015485610854565b5050600154949350505050565b5f611471816115d3565b610ebd7fddaa901e2fe3bda354fe0ede2785152d5c109282a613fe024a056a3e66c41bb383610a12565b5f828152602081905260409020600101546114b5816115d3565b610a36838361166f565b7f2a5f906c256a5d799494fcd066e1f6c077689de1cdb65052a1624de4bace99bf6114e9816115d3565b5f848152600260205260409020600c01546001600160a01b031633146115515760405162461bcd60e51b815260206004820152601d60248201527f4f6e6c792063757272656e74206f776e65722063616e2075706461746500000060448201526064016108b8565b5f8481526002602052604090206009810190600a016115708582611cc2565b506002810161157f8482611cc2565b5080546001600160a01b031916331781556040517f1709afb7f48585816a5b8da1f6f52317a1b01989a29d8c9e39f14cceaf987a1c906115c490879087908790611dd9565b60405180910390a15050505050565b6115dd81336116d8565b50565b5f6115eb83836111b9565b611668575f838152602081815260408083206001600160a01b03861684529091529020805460ff191660011790556116203390565b6001600160a01b0316826001600160a01b0316847f2f8788117e7eff1d82e926ec794901d17c78024a50270940304540a733656f0d60405160405180910390a4506001610419565b505f610419565b5f61167a83836111b9565b15611668575f838152602081815260408083206001600160a01b0386168085529252808320805460ff1916905551339286917ff6391f5c32d9c69d2a47ea670b442974b53935d1edc7fd64eb21e047a839171b9190a4506001610419565b6116e282826111b9565b610ebd5760405163e2517d3f60e01b81526001600160a01b0382166004820152602481018390526044016108b8565b6040518060a0016040528061173d60405180606001604052805f81526020015f81526020015f81525090565b815260408051606080820183525f80835260208084018390528385018390528086019390935283518083018552818152808401839052808501839052848601528351808301855281815292830182905292820181905283015260809091015290565b5f602082840312156117af575f80fd5b81356001600160e01b0319811681146117c6575f80fd5b9392505050565b5f602082840312156117dd575f80fd5b5035919050565b5f81518084528060208401602086015e5f602082860101526020601f19601f83011685010191505092915050565b60018060a01b0381511682525f60208201516060602085015261183860608501826117e4565b90506040830151848203604086015261185182826117e4565b95945050505050565b602081526118806020820183518051825260208082015190830152604090810151910152565b5f602083015160e0608084015261189b610100840182611812565b90506040840151601f198483030160a08501526118b88282611812565b9150506060840151601f198483030160c08501526118d68282611812565b608095909501516001600160a01b031660e09490940193909352509192915050565b80356001600160a01b038116811461190e575f80fd5b919050565b5f8060408385031215611924575f80fd5b82359150611934602084016118f8565b90509250929050565b85518152602080870151908201526040808701519082015260e060608201525f61196a60e0830187611812565b828103608084015261197c8187611812565b905082810360a08401526119908186611812565b91505060018060a01b03831660c08301529695505050505050565b5f602082840312156119bb575f80fd5b6117c6826118f8565b634e487b7160e01b5f52604160045260245ffd5b5f82601f8301126119e7575f80fd5b813567ffffffffffffffff811115611a0157611a016119c4565b604051601f8201601f19908116603f0116810167ffffffffffffffff81118282101715611a3057611a306119c4565b604052818152838201602001851015611a47575f80fd5b816020850160208301375f918101602001919091529392505050565b5f805f8060808587031215611a76575f80fd5b84359350602085013567ffffffffffffffff811115611a93575f80fd5b611a9f878288016119d8565b935050604085013567ffffffffffffffff811115611abb575f80fd5b611ac7878288016119d8565b925050611ad6606086016118f8565b905092959194509250565b602080825282518282018190525f918401906040840190835b81811015611b18578351835260209384019390920191600101611afa565b509095945050505050565b848152836020820152826040820152608060608201525f611b4760808301846117e4565b9695505050505050565b5f805f60608486031215611b63575f80fd5b8335925060208401359150611b7a604085016118f8565b90509250925092565b5f805f60608486031215611b95575f80fd5b83359250602084013567ffffffffffffffff811115611bb2575f80fd5b611bbe868287016119d8565b925050604084013567ffffffffffffffff811115611bda575f80fd5b611be6868287016119d8565b9150509250925092565b600181811c90821680611c0457607f821691505b602082108103611c2257634e487b7160e01b5f52602260045260245ffd5b50919050565b634e487b7160e01b5f52603260045260245ffd5b634e487b7160e01b5f52601160045260245ffd5b8181038181111561041957610419611c3c565b634e487b7160e01b5f52603160045260245ffd5b601f821115610a6f57805f5260205f20601f840160051c81016020851015611c9c5750805b601f840160051c820191505b81811015611cbb575f8155600101611ca8565b5050505050565b815167ffffffffffffffff811115611cdc57611cdc6119c4565b611cf081611cea8454611bf0565b84611c77565b6020601f821160018114611d22575f8315611d0b5750848201515b5f19600385901b1c1916600184901b178455611cbb565b5f84815260208120601f198516915b82811015611d515787850151825560209485019460019092019101611d31565b5084821015611d6e57868401515f19600387901b60f8161c191681555b50505050600190811b01905550565b848152608060208201525f611d9560808301866117e4565b8281036040840152611da781866117e4565b91505060018060a01b038316606083015295945050505050565b5f60018201611dd257611dd2611c3c565b5060010190565b838152606060208201525f611df160608301856117e4565b8281036040840152611b4781856117e456fea26469706673582212203b8d246eb46f08166a2bf0345fe5f86153d19ed97736c33bd3a9d63f713a960964736f6c634300081a0033",
					"opcodes": "PUSH1 0x80 PUSH1 0x40 MSTORE CALLVALUE DUP1 ISZERO PUSH1 0xE JUMPI PUSH0 DUP1 REVERT JUMPDEST POP PUSH1 0x17 PUSH0 CALLER PUSH1 0x20 JUMP JUMPDEST POP PUSH0 PUSH1 0x1 SSTORE PUSH1 0xC6 JUMP JUMPDEST PUSH0 DUP3 DUP2 MSTORE PUSH1 0x20 DUP2 DUP2 MSTORE PUSH1 0x40 DUP1 DUP4 KECCAK256 PUSH1 0x1 PUSH1 0x1 PUSH1 0xA0 SHL SUB DUP6 AND DUP5 MSTORE SWAP1 SWAP2 MSTORE DUP2 KECCAK256 SLOAD PUSH1 0xFF AND PUSH1 0xBD JUMPI PUSH0 DUP4 DUP2 MSTORE PUSH1 0x20 DUP2 DUP2 MSTORE PUSH1 0x40 DUP1 DUP4 KECCAK256 PUSH1 0x1 PUSH1 0x1 PUSH1 0xA0 SHL SUB DUP7 AND DUP5 MSTORE SWAP1 SWAP2 MSTORE SWAP1 KECCAK256 DUP1 SLOAD PUSH1 0xFF NOT AND PUSH1 0x1 OR SWAP1 SSTORE PUSH1 0x76 CALLER SWAP1 JUMP JUMPDEST PUSH1 0x1 PUSH1 0x1 PUSH1 0xA0 SHL SUB AND DUP3 PUSH1 0x1 PUSH1 0x1 PUSH1 0xA0 SHL SUB AND DUP5 PUSH32 0x2F8788117E7EFF1D82E926EC794901D17C78024A50270940304540A733656F0D PUSH1 0x40 MLOAD PUSH1 0x40 MLOAD DUP1 SWAP2 SUB SWAP1 LOG4 POP PUSH1 0x1 PUSH1 0xC0 JUMP JUMPDEST POP PUSH0 JUMPDEST SWAP3 SWAP2 POP POP JUMP JUMPDEST PUSH2 0x1E39 DUP1 PUSH2 0xD3 PUSH0 CODECOPY PUSH0 RETURN INVALID PUSH1 0x80 PUSH1 0x40 MSTORE CALLVALUE DUP1 ISZERO PUSH2 0xF JUMPI PUSH0 DUP1 REVERT JUMPDEST POP PUSH1 0x4 CALLDATASIZE LT PUSH2 0x16D JUMPI PUSH0 CALLDATALOAD PUSH1 0xE0 SHR DUP1 PUSH4 0x874AE942 GT PUSH2 0xD9 JUMPI DUP1 PUSH4 0xAB93D873 GT PUSH2 0x93 JUMPI DUP1 PUSH4 0xD547741F GT PUSH2 0x6E JUMPI DUP1 PUSH4 0xD547741F EQ PUSH2 0x375 JUMPI DUP1 PUSH4 0xE3A3C522 EQ PUSH2 0x388 JUMPI DUP1 PUSH4 0xEAB1DDF2 EQ PUSH2 0x3AF JUMPI DUP1 PUSH4 0xF3943970 EQ PUSH2 0x3C2 JUMPI PUSH0 DUP1 REVERT JUMPDEST DUP1 PUSH4 0xAB93D873 EQ PUSH2 0x347 JUMPI DUP1 PUSH4 0xAEA32261 EQ PUSH2 0x35A JUMPI DUP1 PUSH4 0xB7022049 EQ PUSH2 0x362 JUMPI PUSH0 DUP1 REVERT JUMPDEST DUP1 PUSH4 0x874AE942 EQ PUSH2 0x2CF JUMPI DUP1 PUSH4 0x8EC4F505 EQ PUSH2 0x2E2 JUMPI DUP1 PUSH4 0x8FEC82C5 EQ PUSH2 0x2F5 JUMPI DUP1 PUSH4 0x91D14854 EQ PUSH2 0x30A JUMPI DUP1 PUSH4 0x99CDCC5C EQ PUSH2 0x31D JUMPI DUP1 PUSH4 0xA217FDDF EQ PUSH2 0x340 JUMPI PUSH0 DUP1 REVERT JUMPDEST DUP1 PUSH4 0x36568ABE GT PUSH2 0x12A JUMPI DUP1 PUSH4 0x36568ABE EQ PUSH2 0x238 JUMPI DUP1 PUSH4 0x4E266AEA EQ PUSH2 0x24B JUMPI DUP1 PUSH4 0x4EABBE77 EQ PUSH2 0x26F JUMPI DUP1 PUSH4 0x7E458492 EQ PUSH2 0x296 JUMPI DUP1 PUSH4 0x7F832973 EQ PUSH2 0x2A9 JUMPI DUP1 PUSH4 0x80C3F96D EQ PUSH2 0x2BC JUMPI PUSH0 DUP1 REVERT JUMPDEST DUP1 PUSH4 0x1FFC9A7 EQ PUSH2 0x171 JUMPI DUP1 PUSH4 0x1A0058F5 EQ PUSH2 0x199 JUMPI DUP1 PUSH4 0x2115E7BF EQ PUSH2 0x1B9 JUMPI DUP1 PUSH4 0x248A9CA3 EQ PUSH2 0x1EE JUMPI DUP1 PUSH4 0x29507F73 EQ PUSH2 0x210 JUMPI DUP1 PUSH4 0x2F2FF15D EQ PUSH2 0x225 JUMPI JUMPDEST PUSH0 DUP1 REVERT JUMPDEST PUSH2 0x184 PUSH2 0x17F CALLDATASIZE PUSH1 0x4 PUSH2 0x179F JUMP JUMPDEST PUSH2 0x3E9 JUMP JUMPDEST PUSH1 0x40 MLOAD SWAP1 ISZERO ISZERO DUP2 MSTORE PUSH1 0x20 ADD JUMPDEST PUSH1 0x40 MLOAD DUP1 SWAP2 SUB SWAP1 RETURN JUMPDEST PUSH2 0x1AC PUSH2 0x1A7 CALLDATASIZE PUSH1 0x4 PUSH2 0x17CD JUMP JUMPDEST PUSH2 0x41F JUMP JUMPDEST PUSH1 0x40 MLOAD PUSH2 0x190 SWAP2 SWAP1 PUSH2 0x185A JUMP JUMPDEST PUSH2 0x1E0 PUSH32 0x2A5F906C256A5D799494FCD066E1F6C077689DE1CDB65052A1624DE4BACE99BF DUP2 JUMP JUMPDEST PUSH1 0x40 MLOAD SWAP1 DUP2 MSTORE PUSH1 0x20 ADD PUSH2 0x190 JUMP JUMPDEST PUSH2 0x1E0 PUSH2 0x1FC CALLDATASIZE PUSH1 0x4 PUSH2 0x17CD JUMP JUMPDEST PUSH0 SWAP1 DUP2 MSTORE PUSH1 0x20 DUP2 SWAP1 MSTORE PUSH1 0x40 SWAP1 KECCAK256 PUSH1 0x1 ADD SLOAD SWAP1 JUMP JUMPDEST PUSH2 0x223 PUSH2 0x21E CALLDATASIZE PUSH1 0x4 PUSH2 0x1913 JUMP JUMPDEST PUSH2 0x854 JUMP JUMPDEST STOP JUMPDEST PUSH2 0x223 PUSH2 0x233 CALLDATASIZE PUSH1 0x4 PUSH2 0x1913 JUMP JUMPDEST PUSH2 0xA12 JUMP JUMPDEST PUSH2 0x223 PUSH2 0x246 CALLDATASIZE PUSH1 0x4 PUSH2 0x1913 JUMP JUMPDEST PUSH2 0xA3C JUMP JUMPDEST PUSH2 0x25E PUSH2 0x259 CALLDATASIZE PUSH1 0x4 PUSH2 0x17CD JUMP JUMPDEST PUSH2 0xA74 JUMP JUMPDEST PUSH1 0x40 MLOAD PUSH2 0x190 SWAP6 SWAP5 SWAP4 SWAP3 SWAP2 SWAP1 PUSH2 0x193D JUMP JUMPDEST PUSH2 0x1E0 PUSH32 0xDDAA901E2FE3BDA354FE0EDE2785152D5C109282A613FE024A056A3E66C41BB3 DUP2 JUMP JUMPDEST PUSH2 0x223 PUSH2 0x2A4 CALLDATASIZE PUSH1 0x4 PUSH2 0x19AB JUMP JUMPDEST PUSH2 0xE89 JUMP JUMPDEST PUSH2 0x223 PUSH2 0x2B7 CALLDATASIZE PUSH1 0x4 PUSH2 0x1A63 JUMP JUMPDEST PUSH2 0xEC1 JUMP JUMPDEST PUSH2 0x223 PUSH2 0x2CA CALLDATASIZE PUSH1 0x4 PUSH2 0x19AB JUMP JUMPDEST PUSH2 0x1023 JUMP JUMPDEST PUSH2 0x223 PUSH2 0x2DD CALLDATASIZE PUSH1 0x4 PUSH2 0x1A63 JUMP JUMPDEST PUSH2 0x1057 JUMP JUMPDEST PUSH2 0x223 PUSH2 0x2F0 CALLDATASIZE PUSH1 0x4 PUSH2 0x19AB JUMP JUMPDEST PUSH2 0x1127 JUMP JUMPDEST PUSH2 0x2FD PUSH2 0x115B JUMP JUMPDEST PUSH1 0x40 MLOAD PUSH2 0x190 SWAP2 SWAP1 PUSH2 0x1AE1 JUMP JUMPDEST PUSH2 0x184 PUSH2 0x318 CALLDATASIZE PUSH1 0x4 PUSH2 0x1913 JUMP JUMPDEST PUSH2 0x11B9 JUMP JUMPDEST PUSH2 0x330 PUSH2 0x32B CALLDATASIZE PUSH1 0x4 PUSH2 0x17CD JUMP JUMPDEST PUSH2 0x11E1 JUMP JUMPDEST PUSH1 0x40 MLOAD PUSH2 0x190 SWAP5 SWAP4 SWAP3 SWAP2 SWAP1 PUSH2 0x1B23 JUMP JUMPDEST PUSH2 0x1E0 PUSH0 DUP2 JUMP JUMPDEST PUSH2 0x1E0 PUSH2 0x355 CALLDATASIZE PUSH1 0x4 PUSH2 0x1B51 JUMP JUMPDEST PUSH2 0x12A0 JUMP JUMPDEST PUSH1 0x1 SLOAD PUSH2 0x1E0 JUMP JUMPDEST PUSH2 0x223 PUSH2 0x370 CALLDATASIZE PUSH1 0x4 PUSH2 0x19AB JUMP JUMPDEST PUSH2 0x1467 JUMP JUMPDEST PUSH2 0x223 PUSH2 0x383 CALLDATASIZE PUSH1 0x4 PUSH2 0x1913 JUMP JUMPDEST PUSH2 0x149B JUMP JUMPDEST PUSH2 0x1E0 PUSH32 0x273DCF2136C7D8EF632BB8EF13DBCA69A8F36FA620C7468671B3153D46A211C0 DUP2 JUMP JUMPDEST PUSH2 0x223 PUSH2 0x3BD CALLDATASIZE PUSH1 0x4 PUSH2 0x1B83 JUMP JUMPDEST PUSH2 0x14BF JUMP JUMPDEST PUSH2 0x1E0 PUSH32 0x7C6181838A71A779E445600D4C6ECBE16BACF2B3C5BDA69C29FADA66D1B645D1 DUP2 JUMP JUMPDEST PUSH0 PUSH1 0x1 PUSH1 0x1 PUSH1 0xE0 SHL SUB NOT DUP3 AND PUSH4 0x7965DB0B PUSH1 0xE0 SHL EQ DUP1 PUSH2 0x419 JUMPI POP PUSH4 0x1FFC9A7 PUSH1 0xE0 SHL PUSH1 0x1 PUSH1 0x1 PUSH1 0xE0 SHL SUB NOT DUP4 AND EQ JUMPDEST SWAP3 SWAP2 POP POP JUMP JUMPDEST PUSH2 0x427 PUSH2 0x1711 JUMP JUMPDEST PUSH0 DUP3 DUP2 MSTORE PUSH1 0x2 PUSH1 0x20 DUP2 DUP2 MSTORE PUSH1 0x40 SWAP3 DUP4 SWAP1 KECCAK256 DUP4 MLOAD PUSH2 0x100 DUP2 ADD DUP6 MSTORE DUP2 SLOAD PUSH1 0xA0 DUP3 ADD SWAP1 DUP2 MSTORE PUSH1 0x1 DUP4 ADD SLOAD PUSH1 0xC0 DUP4 ADD MSTORE SWAP4 DUP3 ADD SLOAD PUSH1 0xE0 DUP3 ADD MSTORE SWAP3 DUP4 MSTORE DUP4 MLOAD PUSH1 0x60 DUP2 ADD SWAP1 SWAP5 MSTORE PUSH1 0x3 DUP2 ADD DUP1 SLOAD PUSH1 0x1 PUSH1 0x1 PUSH1 0xA0 SHL SUB AND DUP6 MSTORE PUSH1 0x4 DUP3 ADD DUP1 SLOAD SWAP5 SWAP6 SWAP3 SWAP5 DUP7 DUP6 ADD SWAP5 DUP5 ADD SWAP2 SWAP1 PUSH2 0x495 SWAP1 PUSH2 0x1BF0 JUMP JUMPDEST DUP1 PUSH1 0x1F ADD PUSH1 0x20 DUP1 SWAP2 DIV MUL PUSH1 0x20 ADD PUSH1 0x40 MLOAD SWAP1 DUP2 ADD PUSH1 0x40 MSTORE DUP1 SWAP3 SWAP2 SWAP1 DUP2 DUP2 MSTORE PUSH1 0x20 ADD DUP3 DUP1 SLOAD PUSH2 0x4C1 SWAP1 PUSH2 0x1BF0 JUMP JUMPDEST DUP1 ISZERO PUSH2 0x50C JUMPI DUP1 PUSH1 0x1F LT PUSH2 0x4E3 JUMPI PUSH2 0x100 DUP1 DUP4 SLOAD DIV MUL DUP4 MSTORE SWAP2 PUSH1 0x20 ADD SWAP2 PUSH2 0x50C JUMP JUMPDEST DUP3 ADD SWAP2 SWAP1 PUSH0 MSTORE PUSH1 0x20 PUSH0 KECCAK256 SWAP1 JUMPDEST DUP2 SLOAD DUP2 MSTORE SWAP1 PUSH1 0x1 ADD SWAP1 PUSH1 0x20 ADD DUP1 DUP4 GT PUSH2 0x4EF JUMPI DUP3 SWAP1 SUB PUSH1 0x1F AND DUP3 ADD SWAP2 JUMPDEST POP POP POP POP POP DUP2 MSTORE PUSH1 0x20 ADD PUSH1 0x2 DUP3 ADD DUP1 SLOAD PUSH2 0x525 SWAP1 PUSH2 0x1BF0 JUMP JUMPDEST DUP1 PUSH1 0x1F ADD PUSH1 0x20 DUP1 SWAP2 DIV MUL PUSH1 0x20 ADD PUSH1 0x40 MLOAD SWAP1 DUP2 ADD PUSH1 0x40 MSTORE DUP1 SWAP3 SWAP2 SWAP1 DUP2 DUP2 MSTORE PUSH1 0x20 ADD DUP3 DUP1 SLOAD PUSH2 0x551 SWAP1 PUSH2 0x1BF0 JUMP JUMPDEST DUP1 ISZERO PUSH2 0x59C JUMPI DUP1 PUSH1 0x1F LT PUSH2 0x573 JUMPI PUSH2 0x100 DUP1 DUP4 SLOAD DIV MUL DUP4 MSTORE SWAP2 PUSH1 0x20 ADD SWAP2 PUSH2 0x59C JUMP JUMPDEST DUP3 ADD SWAP2 SWAP1 PUSH0 MSTORE PUSH1 0x20 PUSH0 KECCAK256 SWAP1 JUMPDEST DUP2 SLOAD DUP2 MSTORE SWAP1 PUSH1 0x1 ADD SWAP1 PUSH1 0x20 ADD DUP1 DUP4 GT PUSH2 0x57F JUMPI DUP3 SWAP1 SUB PUSH1 0x1F AND DUP3 ADD SWAP2 JUMPDEST POP POP POP SWAP2 SWAP1 SWAP3 MSTORE POP POP POP DUP2 MSTORE PUSH1 0x40 DUP1 MLOAD PUSH1 0x60 DUP2 ADD SWAP1 SWAP2 MSTORE PUSH1 0x6 DUP4 ADD DUP1 SLOAD PUSH1 0x1 PUSH1 0x1 PUSH1 0xA0 SHL SUB AND DUP3 MSTORE PUSH1 0x7 DUP5 ADD DUP1 SLOAD PUSH1 0x20 SWAP5 DUP6 ADD SWAP5 DUP5 ADD SWAP2 SWAP1 PUSH2 0x5DD SWAP1 PUSH2 0x1BF0 JUMP JUMPDEST DUP1 PUSH1 0x1F ADD PUSH1 0x20 DUP1 SWAP2 DIV MUL PUSH1 0x20 ADD PUSH1 0x40 MLOAD SWAP1 DUP2 ADD PUSH1 0x40 MSTORE DUP1 SWAP3 SWAP2 SWAP1 DUP2 DUP2 MSTORE PUSH1 0x20 ADD DUP3 DUP1 SLOAD PUSH2 0x609 SWAP1 PUSH2 0x1BF0 JUMP JUMPDEST DUP1 ISZERO PUSH2 0x654 JUMPI DUP1 PUSH1 0x1F LT PUSH2 0x62B JUMPI PUSH2 0x100 DUP1 DUP4 SLOAD DIV MUL DUP4 MSTORE SWAP2 PUSH1 0x20 ADD SWAP2 PUSH2 0x654 JUMP JUMPDEST DUP3 ADD SWAP2 SWAP1 PUSH0 MSTORE PUSH1 0x20 PUSH0 KECCAK256 SWAP1 JUMPDEST DUP2 SLOAD DUP2 MSTORE SWAP1 PUSH1 0x1 ADD SWAP1 PUSH1 0x20 ADD DUP1 DUP4 GT PUSH2 0x637 JUMPI DUP3 SWAP1 SUB PUSH1 0x1F AND DUP3 ADD SWAP2 JUMPDEST POP POP POP POP POP DUP2 MSTORE PUSH1 0x20 ADD PUSH1 0x2 DUP3 ADD DUP1 SLOAD PUSH2 0x66D SWAP1 PUSH2 0x1BF0 JUMP JUMPDEST DUP1 PUSH1 0x1F ADD PUSH1 0x20 DUP1 SWAP2 DIV MUL PUSH1 0x20 ADD PUSH1 0x40 MLOAD SWAP1 DUP2 ADD PUSH1 0x40 MSTORE DUP1 SWAP3 SWAP2 SWAP1 DUP2 DUP2 MSTORE PUSH1 0x20 ADD DUP3 DUP1 SLOAD PUSH2 0x699 SWAP1 PUSH2 0x1BF0 JUMP JUMPDEST DUP1 ISZERO PUSH2 0x6E4 JUMPI DUP1 PUSH1 0x1F LT PUSH2 0x6BB JUMPI PUSH2 0x100 DUP1 DUP4 SLOAD DIV MUL DUP4 MSTORE SWAP2 PUSH1 0x20 ADD SWAP2 PUSH2 0x6E4 JUMP JUMPDEST DUP3 ADD SWAP2 SWAP1 PUSH0 MSTORE PUSH1 0x20 PUSH0 KECCAK256 SWAP1 JUMPDEST DUP2 SLOAD DUP2 MSTORE SWAP1 PUSH1 0x1 ADD SWAP1 PUSH1 0x20 ADD DUP1 DUP4 GT PUSH2 0x6C7 JUMPI DUP3 SWAP1 SUB PUSH1 0x1F AND DUP3 ADD SWAP2 JUMPDEST POP POP POP SWAP2 SWAP1 SWAP3 MSTORE POP POP POP DUP2 MSTORE PUSH1 0x40 DUP1 MLOAD PUSH1 0x60 DUP2 ADD SWAP1 SWAP2 MSTORE PUSH1 0x9 DUP4 ADD DUP1 SLOAD PUSH1 0x1 PUSH1 0x1 PUSH1 0xA0 SHL SUB AND DUP3 MSTORE PUSH1 0xA DUP5 ADD DUP1 SLOAD PUSH1 0x20 SWAP5 DUP6 ADD SWAP5 DUP5 ADD SWAP2 SWAP1 PUSH2 0x725 SWAP1 PUSH2 0x1BF0 JUMP JUMPDEST DUP1 PUSH1 0x1F ADD PUSH1 0x20 DUP1 SWAP2 DIV MUL PUSH1 0x20 ADD PUSH1 0x40 MLOAD SWAP1 DUP2 ADD PUSH1 0x40 MSTORE DUP1 SWAP3 SWAP2 SWAP1 DUP2 DUP2 MSTORE PUSH1 0x20 ADD DUP3 DUP1 SLOAD PUSH2 0x751 SWAP1 PUSH2 0x1BF0 JUMP JUMPDEST DUP1 ISZERO PUSH2 0x79C JUMPI DUP1 PUSH1 0x1F LT PUSH2 0x773 JUMPI PUSH2 0x100 DUP1 DUP4 SLOAD DIV MUL DUP4 MSTORE SWAP2 PUSH1 0x20 ADD SWAP2 PUSH2 0x79C JUMP JUMPDEST DUP3 ADD SWAP2 SWAP1 PUSH0 MSTORE PUSH1 0x20 PUSH0 KECCAK256 SWAP1 JUMPDEST DUP2 SLOAD DUP2 MSTORE SWAP1 PUSH1 0x1 ADD SWAP1 PUSH1 0x20 ADD DUP1 DUP4 GT PUSH2 0x77F JUMPI DUP3 SWAP1 SUB PUSH1 0x1F AND DUP3 ADD SWAP2 JUMPDEST POP POP POP POP POP DUP2 MSTORE PUSH1 0x20 ADD PUSH1 0x2 DUP3 ADD DUP1 SLOAD PUSH2 0x7B5 SWAP1 PUSH2 0x1BF0 JUMP JUMPDEST DUP1 PUSH1 0x1F ADD PUSH1 0x20 DUP1 SWAP2 DIV MUL PUSH1 0x20 ADD PUSH1 0x40 MLOAD SWAP1 DUP2 ADD PUSH1 0x40 MSTORE DUP1 SWAP3 SWAP2 SWAP1 DUP2 DUP2 MSTORE PUSH1 0x20 ADD DUP3 DUP1 SLOAD PUSH2 0x7E1 SWAP1 PUSH2 0x1BF0 JUMP JUMPDEST DUP1 ISZERO PUSH2 0x82C JUMPI DUP1 PUSH1 0x1F LT PUSH2 0x803 JUMPI PUSH2 0x100 DUP1 DUP4 SLOAD DIV MUL DUP4 MSTORE SWAP2 PUSH1 0x20 ADD SWAP2 PUSH2 0x82C JUMP JUMPDEST DUP3 ADD SWAP2 SWAP1 PUSH0 MSTORE PUSH1 0x20 PUSH0 KECCAK256 SWAP1 JUMPDEST DUP2 SLOAD DUP2 MSTORE SWAP1 PUSH1 0x1 ADD SWAP1 PUSH1 0x20 ADD DUP1 DUP4 GT PUSH2 0x80F JUMPI DUP3 SWAP1 SUB PUSH1 0x1F AND DUP3 ADD SWAP2 JUMPDEST POP POP POP SWAP2 SWAP1 SWAP3 MSTORE POP POP POP DUP2 MSTORE PUSH1 0xC SWAP2 SWAP1 SWAP2 ADD SLOAD PUSH1 0x1 PUSH1 0x1 PUSH1 0xA0 SHL SUB AND PUSH1 0x20 SWAP1 SWAP2 ADD MSTORE SWAP3 SWAP2 POP POP JUMP JUMPDEST PUSH0 DUP3 DUP2 MSTORE PUSH1 0x2 PUSH1 0x20 MSTORE PUSH1 0x40 SWAP1 KECCAK256 PUSH1 0xC ADD SLOAD PUSH1 0x1 PUSH1 0x1 PUSH1 0xA0 SHL SUB AND CALLER EQ PUSH2 0x8C1 JUMPI PUSH1 0x40 MLOAD PUSH3 0x461BCD PUSH1 0xE5 SHL DUP2 MSTORE PUSH1 0x20 PUSH1 0x4 DUP3 ADD MSTORE PUSH1 0x1F PUSH1 0x24 DUP3 ADD MSTORE PUSH32 0x4F6E6C792063757272656E74206F776E65722063616E207472616E7366657200 PUSH1 0x44 DUP3 ADD MSTORE PUSH1 0x64 ADD JUMPDEST PUSH1 0x40 MLOAD DUP1 SWAP2 SUB SWAP1 REVERT JUMPDEST PUSH0 DUP3 DUP2 MSTORE PUSH1 0x2 PUSH1 0x20 SWAP1 DUP2 MSTORE PUSH1 0x40 DUP1 DUP4 KECCAK256 PUSH1 0xC ADD DUP1 SLOAD PUSH1 0x1 PUSH1 0x1 PUSH1 0xA0 SHL SUB DUP7 DUP2 AND PUSH1 0x1 PUSH1 0x1 PUSH1 0xA0 SHL SUB NOT DUP4 AND OR SWAP1 SWAP3 SSTORE AND DUP1 DUP5 MSTORE PUSH1 0x3 SWAP1 SWAP3 MSTORE DUP3 KECCAK256 SWAP1 SWAP2 JUMPDEST DUP2 SLOAD DUP2 LT ISZERO PUSH2 0x99F JUMPI DUP5 DUP3 DUP3 DUP2 SLOAD DUP2 LT PUSH2 0x91A JUMPI PUSH2 0x91A PUSH2 0x1C28 JUMP JUMPDEST SWAP1 PUSH0 MSTORE PUSH1 0x20 PUSH0 KECCAK256 ADD SLOAD SUB PUSH2 0x997 JUMPI DUP2 SLOAD DUP3 SWAP1 PUSH2 0x938 SWAP1 PUSH1 0x1 SWAP1 PUSH2 0x1C50 JUMP JUMPDEST DUP2 SLOAD DUP2 LT PUSH2 0x948 JUMPI PUSH2 0x948 PUSH2 0x1C28 JUMP JUMPDEST SWAP1 PUSH0 MSTORE PUSH1 0x20 PUSH0 KECCAK256 ADD SLOAD DUP3 DUP3 DUP2 SLOAD DUP2 LT PUSH2 0x963 JUMPI PUSH2 0x963 PUSH2 0x1C28 JUMP JUMPDEST SWAP1 PUSH0 MSTORE PUSH1 0x20 PUSH0 KECCAK256 ADD DUP2 SWAP1 SSTORE POP DUP2 DUP1 SLOAD DUP1 PUSH2 0x97F JUMPI PUSH2 0x97F PUSH2 0x1C63 JUMP JUMPDEST PUSH1 0x1 SWAP1 SUB DUP2 DUP2 SWAP1 PUSH0 MSTORE PUSH1 0x20 PUSH0 KECCAK256 ADD PUSH0 SWAP1 SSTORE SWAP1 SSTORE PUSH2 0x99F JUMP JUMPDEST PUSH1 0x1 ADD PUSH2 0x8FE JUMP JUMPDEST POP PUSH1 0x1 PUSH1 0x1 PUSH1 0xA0 SHL SUB DUP4 DUP2 AND PUSH0 DUP2 DUP2 MSTORE PUSH1 0x3 PUSH1 0x20 SWAP1 DUP2 MSTORE PUSH1 0x40 DUP1 DUP4 KECCAK256 DUP1 SLOAD PUSH1 0x1 DUP2 ADD DUP3 SSTORE SWAP1 DUP5 MSTORE SWAP3 DUP3 SWAP1 KECCAK256 SWAP1 SWAP3 ADD DUP9 SWAP1 SSTORE DUP2 MLOAD DUP9 DUP2 MSTORE SWAP4 DUP7 AND SWAP1 DUP5 ADD MSTORE DUP3 ADD MSTORE PUSH32 0x16B85F49BF01212961345D3016C9A531894ACCF62EB7680F2045D79185CC0EC0 SWAP1 PUSH1 0x60 ADD PUSH1 0x40 MLOAD DUP1 SWAP2 SUB SWAP1 LOG1 POP POP POP POP JUMP JUMPDEST PUSH0 DUP3 DUP2 MSTORE PUSH1 0x20 DUP2 SWAP1 MSTORE PUSH1 0x40 SWAP1 KECCAK256 PUSH1 0x1 ADD SLOAD PUSH2 0xA2C DUP2 PUSH2 0x15D3 JUMP JUMPDEST PUSH2 0xA36 DUP4 DUP4 PUSH2 0x15E0 JUMP JUMPDEST POP POP POP POP JUMP JUMPDEST PUSH1 0x1 PUSH1 0x1 PUSH1 0xA0 SHL SUB DUP2 AND CALLER EQ PUSH2 0xA65 JUMPI PUSH1 0x40 MLOAD PUSH4 0x334BD919 PUSH1 0xE1 SHL DUP2 MSTORE PUSH1 0x4 ADD PUSH1 0x40 MLOAD DUP1 SWAP2 SUB SWAP1 REVERT JUMPDEST PUSH2 0xA6F DUP3 DUP3 PUSH2 0x166F JUMP JUMPDEST POP POP POP JUMP JUMPDEST PUSH1 0x2 PUSH1 0x20 DUP2 DUP2 MSTORE PUSH0 SWAP3 DUP4 MSTORE PUSH1 0x40 SWAP3 DUP4 SWAP1 KECCAK256 DUP4 MLOAD PUSH1 0x60 DUP1 DUP3 ADD DUP7 MSTORE DUP3 SLOAD DUP3 MSTORE PUSH1 0x1 DUP4 ADD SLOAD DUP3 DUP6 ADD MSTORE SWAP4 DUP3 ADD SLOAD DUP2 DUP7 ADD MSTORE DUP5 MLOAD SWAP4 DUP5 ADD SWAP1 SWAP5 MSTORE PUSH1 0x3 DUP2 ADD DUP1 SLOAD PUSH1 0x1 PUSH1 0x1 PUSH1 0xA0 SHL SUB AND DUP5 MSTORE PUSH1 0x4 DUP3 ADD DUP1 SLOAD SWAP3 SWAP5 SWAP4 SWAP2 SWAP3 SWAP2 DUP5 ADD SWAP2 PUSH2 0xAD4 SWAP1 PUSH2 0x1BF0 JUMP JUMPDEST DUP1 PUSH1 0x1F ADD PUSH1 0x20 DUP1 SWAP2 DIV MUL PUSH1 0x20 ADD PUSH1 0x40 MLOAD SWAP1 DUP2 ADD PUSH1 0x40 MSTORE DUP1 SWAP3 SWAP2 SWAP1 DUP2 DUP2 MSTORE PUSH1 0x20 ADD DUP3 DUP1 SLOAD PUSH2 0xB00 SWAP1 PUSH2 0x1BF0 JUMP JUMPDEST DUP1 ISZERO PUSH2 0xB4B JUMPI DUP1 PUSH1 0x1F LT PUSH2 0xB22 JUMPI PUSH2 0x100 DUP1 DUP4 SLOAD DIV MUL DUP4 MSTORE SWAP2 PUSH1 0x20 ADD SWAP2 PUSH2 0xB4B JUMP JUMPDEST DUP3 ADD SWAP2 SWAP1 PUSH0 MSTORE PUSH1 0x20 PUSH0 KECCAK256 SWAP1 JUMPDEST DUP2 SLOAD DUP2 MSTORE SWAP1 PUSH1 0x1 ADD SWAP1 PUSH1 0x20 ADD DUP1 DUP4 GT PUSH2 0xB2E JUMPI DUP3 SWAP1 SUB PUSH1 0x1F AND DUP3 ADD SWAP2 JUMPDEST POP POP POP POP POP DUP2 MSTORE PUSH1 0x20 ADD PUSH1 0x2 DUP3 ADD DUP1 SLOAD PUSH2 0xB64 SWAP1 PUSH2 0x1BF0 JUMP JUMPDEST DUP1 PUSH1 0x1F ADD PUSH1 0x20 DUP1 SWAP2 DIV MUL PUSH1 0x20 ADD PUSH1 0x40 MLOAD SWAP1 DUP2 ADD PUSH1 0x40 MSTORE DUP1 SWAP3 SWAP2 SWAP1 DUP2 DUP2 MSTORE PUSH1 0x20 ADD DUP3 DUP1 SLOAD PUSH2 0xB90 SWAP1 PUSH2 0x1BF0 JUMP JUMPDEST DUP1 ISZERO PUSH2 0xBDB JUMPI DUP1 PUSH1 0x1F LT PUSH2 0xBB2 JUMPI PUSH2 0x100 DUP1 DUP4 SLOAD DIV MUL DUP4 MSTORE SWAP2 PUSH1 0x20 ADD SWAP2 PUSH2 0xBDB JUMP JUMPDEST DUP3 ADD SWAP2 SWAP1 PUSH0 MSTORE PUSH1 0x20 PUSH0 KECCAK256 SWAP1 JUMPDEST DUP2 SLOAD DUP2 MSTORE SWAP1 PUSH1 0x1 ADD SWAP1 PUSH1 0x20 ADD DUP1 DUP4 GT PUSH2 0xBBE JUMPI DUP3 SWAP1 SUB PUSH1 0x1F AND DUP3 ADD SWAP2 JUMPDEST POP POP POP SWAP2 SWAP1 SWAP3 MSTORE POP POP PUSH1 0x40 DUP1 MLOAD PUSH1 0x60 DUP2 ADD SWAP1 SWAP2 MSTORE PUSH1 0x6 DUP5 ADD DUP1 SLOAD PUSH1 0x1 PUSH1 0x1 PUSH1 0xA0 SHL SUB AND DUP3 MSTORE PUSH1 0x7 DUP6 ADD DUP1 SLOAD SWAP5 SWAP6 SWAP5 SWAP3 SWAP4 POP SWAP1 SWAP2 PUSH1 0x20 DUP5 ADD SWAP2 SWAP1 PUSH2 0xC1D SWAP1 PUSH2 0x1BF0 JUMP JUMPDEST DUP1 PUSH1 0x1F ADD PUSH1 0x20 DUP1 SWAP2 DIV MUL PUSH1 0x20 ADD PUSH1 0x40 MLOAD SWAP1 DUP2 ADD PUSH1 0x40 MSTORE DUP1 SWAP3 SWAP2 SWAP1 DUP2 DUP2 MSTORE PUSH1 0x20 ADD DUP3 DUP1 SLOAD PUSH2 0xC49 SWAP1 PUSH2 0x1BF0 JUMP JUMPDEST DUP1 ISZERO PUSH2 0xC94 JUMPI DUP1 PUSH1 0x1F LT PUSH2 0xC6B JUMPI PUSH2 0x100 DUP1 DUP4 SLOAD DIV MUL DUP4 MSTORE SWAP2 PUSH1 0x20 ADD SWAP2 PUSH2 0xC94 JUMP JUMPDEST DUP3 ADD SWAP2 SWAP1 PUSH0 MSTORE PUSH1 0x20 PUSH0 KECCAK256 SWAP1 JUMPDEST DUP2 SLOAD DUP2 MSTORE SWAP1 PUSH1 0x1 ADD SWAP1 PUSH1 0x20 ADD DUP1 DUP4 GT PUSH2 0xC77 JUMPI DUP3 SWAP1 SUB PUSH1 0x1F AND DUP3 ADD SWAP2 JUMPDEST POP POP POP POP POP DUP2 MSTORE PUSH1 0x20 ADD PUSH1 0x2 DUP3 ADD DUP1 SLOAD PUSH2 0xCAD SWAP1 PUSH2 0x1BF0 JUMP JUMPDEST DUP1 PUSH1 0x1F ADD PUSH1 0x20 DUP1 SWAP2 DIV MUL PUSH1 0x20 ADD PUSH1 0x40 MLOAD SWAP1 DUP2 ADD PUSH1 0x40 MSTORE DUP1 SWAP3 SWAP2 SWAP1 DUP2 DUP2 MSTORE PUSH1 0x20 ADD DUP3 DUP1 SLOAD PUSH2 0xCD9 SWAP1 PUSH2 0x1BF0 JUMP JUMPDEST DUP1 ISZERO PUSH2 0xD24 JUMPI DUP1 PUSH1 0x1F LT PUSH2 0xCFB JUMPI PUSH2 0x100 DUP1 DUP4 SLOAD DIV MUL DUP4 MSTORE SWAP2 PUSH1 0x20 ADD SWAP2 PUSH2 0xD24 JUMP JUMPDEST DUP3 ADD SWAP2 SWAP1 PUSH0 MSTORE PUSH1 0x20 PUSH0 KECCAK256 SWAP1 JUMPDEST DUP2 SLOAD DUP2 MSTORE SWAP1 PUSH1 0x1 ADD SWAP1 PUSH1 0x20 ADD DUP1 DUP4 GT PUSH2 0xD07 JUMPI DUP3 SWAP1 SUB PUSH1 0x1F AND DUP3 ADD SWAP2 JUMPDEST POP POP POP SWAP2 SWAP1 SWAP3 MSTORE POP POP PUSH1 0x40 DUP1 MLOAD PUSH1 0x60 DUP2 ADD SWAP1 SWAP2 MSTORE PUSH1 0x9 DUP5 ADD DUP1 SLOAD PUSH1 0x1 PUSH1 0x1 PUSH1 0xA0 SHL SUB AND DUP3 MSTORE PUSH1 0xA DUP6 ADD DUP1 SLOAD SWAP5 SWAP6 SWAP5 SWAP3 SWAP4 POP SWAP1 SWAP2 PUSH1 0x20 DUP5 ADD SWAP2 SWAP1 PUSH2 0xD66 SWAP1 PUSH2 0x1BF0 JUMP JUMPDEST DUP1 PUSH1 0x1F ADD PUSH1 0x20 DUP1 SWAP2 DIV MUL PUSH1 0x20 ADD PUSH1 0x40 MLOAD SWAP1 DUP2 ADD PUSH1 0x40 MSTORE DUP1 SWAP3 SWAP2 SWAP1 DUP2 DUP2 MSTORE PUSH1 0x20 ADD DUP3 DUP1 SLOAD PUSH2 0xD92 SWAP1 PUSH2 0x1BF0 JUMP JUMPDEST DUP1 ISZERO PUSH2 0xDDD JUMPI DUP1 PUSH1 0x1F LT PUSH2 0xDB4 JUMPI PUSH2 0x100 DUP1 DUP4 SLOAD DIV MUL DUP4 MSTORE SWAP2 PUSH1 0x20 ADD SWAP2 PUSH2 0xDDD JUMP JUMPDEST DUP3 ADD SWAP2 SWAP1 PUSH0 MSTORE PUSH1 0x20 PUSH0 KECCAK256 SWAP1 JUMPDEST DUP2 SLOAD DUP2 MSTORE SWAP1 PUSH1 0x1 ADD SWAP1 PUSH1 0x20 ADD DUP1 DUP4 GT PUSH2 0xDC0 JUMPI DUP3 SWAP1 SUB PUSH1 0x1F AND DUP3 ADD SWAP2 JUMPDEST POP POP POP POP POP DUP2 MSTORE PUSH1 0x20 ADD PUSH1 0x2 DUP3 ADD DUP1 SLOAD PUSH2 0xDF6 SWAP1 PUSH2 0x1BF0 JUMP JUMPDEST DUP1 PUSH1 0x1F ADD PUSH1 0x20 DUP1 SWAP2 DIV MUL PUSH1 0x20 ADD PUSH1 0x40 MLOAD SWAP1 DUP2 ADD PUSH1 0x40 MSTORE DUP1 SWAP3 SWAP2 SWAP1 DUP2 DUP2 MSTORE PUSH1 0x20 ADD DUP3 DUP1 SLOAD PUSH2 0xE22 SWAP1 PUSH2 0x1BF0 JUMP JUMPDEST DUP1 ISZERO PUSH2 0xE6D JUMPI DUP1 PUSH1 0x1F LT PUSH2 0xE44 JUMPI PUSH2 0x100 DUP1 DUP4 SLOAD DIV MUL DUP4 MSTORE SWAP2 PUSH1 0x20 ADD SWAP2 PUSH2 0xE6D JUMP JUMPDEST DUP3 ADD SWAP2 SWAP1 PUSH0 MSTORE PUSH1 0x20 PUSH0 KECCAK256 SWAP1 JUMPDEST DUP2 SLOAD DUP2 MSTORE SWAP1 PUSH1 0x1 ADD SWAP1 PUSH1 0x20 ADD DUP1 DUP4 GT PUSH2 0xE50 JUMPI DUP3 SWAP1 SUB PUSH1 0x1F AND DUP3 ADD SWAP2 JUMPDEST POP POP POP SWAP2 SWAP1 SWAP3 MSTORE POP POP POP PUSH1 0xC SWAP1 SWAP2 ADD SLOAD PUSH1 0x1 PUSH1 0x1 PUSH1 0xA0 SHL SUB AND DUP6 JUMP JUMPDEST PUSH0 PUSH2 0xE93 DUP2 PUSH2 0x15D3 JUMP JUMPDEST PUSH2 0xEBD PUSH32 0x273DCF2136C7D8EF632BB8EF13DBCA69A8F36FA620C7468671B3153D46A211C0 DUP4 PUSH2 0xA12 JUMP JUMPDEST POP POP JUMP JUMPDEST PUSH32 0xDDAA901E2FE3BDA354FE0EDE2785152D5C109282A613FE024A056A3E66C41BB3 PUSH2 0xEEB DUP2 PUSH2 0x15D3 JUMP JUMPDEST PUSH0 DUP6 DUP2 MSTORE PUSH1 0x2 PUSH1 0x20 MSTORE PUSH1 0x40 SWAP1 KECCAK256 PUSH1 0xC ADD SLOAD PUSH1 0x1 PUSH1 0x1 PUSH1 0xA0 SHL SUB AND CALLER EQ PUSH2 0xF53 JUMPI PUSH1 0x40 MLOAD PUSH3 0x461BCD PUSH1 0xE5 SHL DUP2 MSTORE PUSH1 0x20 PUSH1 0x4 DUP3 ADD MSTORE PUSH1 0x1D PUSH1 0x24 DUP3 ADD MSTORE PUSH32 0x4F6E6C792063757272656E74206F776E65722063616E20757064617465000000 PUSH1 0x44 DUP3 ADD MSTORE PUSH1 0x64 ADD PUSH2 0x8B8 JUMP JUMPDEST PUSH0 DUP6 DUP2 MSTORE PUSH1 0x2 PUSH1 0x20 MSTORE PUSH1 0x40 SWAP1 KECCAK256 PUSH1 0x3 DUP2 ADD SWAP1 PUSH1 0x4 ADD PUSH2 0xF72 DUP7 DUP3 PUSH2 0x1CC2 JUMP JUMPDEST POP PUSH1 0x2 DUP2 ADD PUSH2 0xF81 DUP6 DUP3 PUSH2 0x1CC2 JUMP JUMPDEST POP DUP1 SLOAD PUSH1 0x1 PUSH1 0x1 PUSH1 0xA0 SHL SUB NOT AND CALLER OR DUP2 SSTORE PUSH0 PUSH1 0x1 PUSH1 0x1 PUSH1 0xA0 SHL SUB DUP5 AND PUSH2 0xFC0 JUMPI PUSH0 DUP8 DUP2 MSTORE PUSH1 0x2 PUSH1 0x20 MSTORE PUSH1 0x40 SWAP1 KECCAK256 PUSH1 0xC ADD SLOAD PUSH1 0x1 PUSH1 0x1 PUSH1 0xA0 SHL SUB AND PUSH2 0xFC2 JUMP JUMPDEST DUP4 JUMPDEST SWAP1 POP PUSH32 0x4EA766B3BD9E7C93B3E34A817A346F1F50F27FACB4DF941FA10747A5BFC92134 DUP8 DUP8 DUP8 DUP5 PUSH1 0x40 MLOAD PUSH2 0xFF9 SWAP5 SWAP4 SWAP3 SWAP2 SWAP1 PUSH2 0x1D7D JUMP JUMPDEST PUSH1 0x40 MLOAD DUP1 SWAP2 SUB SWAP1 LOG1 PUSH1 0x1 PUSH1 0x1 PUSH1 0xA0 SHL SUB DUP5 AND ISZERO PUSH2 0x101A JUMPI PUSH2 0x101A DUP8 DUP6 PUSH2 0x854 JUMP JUMPDEST POP POP POP POP POP POP POP JUMP JUMPDEST PUSH0 PUSH2 0x102D DUP2 PUSH2 0x15D3 JUMP JUMPDEST PUSH2 0xEBD PUSH32 0x7C6181838A71A779E445600D4C6ECBE16BACF2B3C5BDA69C29FADA66D1B645D1 DUP4 PUSH2 0xA12 JUMP JUMPDEST PUSH32 0x273DCF2136C7D8EF632BB8EF13DBCA69A8F36FA620C7468671B3153D46A211C0 PUSH2 0x1081 DUP2 PUSH2 0x15D3 JUMP JUMPDEST PUSH0 DUP6 DUP2 MSTORE PUSH1 0x2 PUSH1 0x20 MSTORE PUSH1 0x40 SWAP1 KECCAK256 PUSH1 0x6 DUP2 ADD SWAP1 PUSH1 0x7 ADD PUSH2 0x10A0 DUP7 DUP3 PUSH2 0x1CC2 JUMP JUMPDEST POP PUSH1 0x2 DUP2 ADD PUSH2 0x10AF DUP6 DUP3 PUSH2 0x1CC2 JUMP JUMPDEST POP DUP1 SLOAD PUSH1 0x1 PUSH1 0x1 PUSH1 0xA0 SHL SUB NOT AND CALLER OR DUP2 SSTORE PUSH0 PUSH1 0x1 PUSH1 0x1 PUSH1 0xA0 SHL SUB DUP5 AND PUSH2 0x10EE JUMPI PUSH0 DUP8 DUP2 MSTORE PUSH1 0x2 PUSH1 0x20 MSTORE PUSH1 0x40 SWAP1 KECCAK256 PUSH1 0xC ADD SLOAD PUSH1 0x1 PUSH1 0x1 PUSH1 0xA0 SHL SUB AND PUSH2 0x10F0 JUMP JUMPDEST DUP4 JUMPDEST SWAP1 POP PUSH32 0xFFE7DA8CD425DBB269909E7DEFC11396E896F2DBA686BA28D711F4DB1CFF02FE DUP8 DUP8 DUP8 DUP5 PUSH1 0x40 MLOAD PUSH2 0xFF9 SWAP5 SWAP4 SWAP3 SWAP2 SWAP1 PUSH2 0x1D7D JUMP JUMPDEST PUSH0 PUSH2 0x1131 DUP2 PUSH2 0x15D3 JUMP JUMPDEST PUSH2 0xEBD PUSH32 0x2A5F906C256A5D799494FCD066E1F6C077689DE1CDB65052A1624DE4BACE99BF DUP4 PUSH2 0xA12 JUMP JUMPDEST CALLER PUSH0 SWAP1 DUP2 MSTORE PUSH1 0x3 PUSH1 0x20 SWAP1 DUP2 MSTORE PUSH1 0x40 SWAP2 DUP3 SWAP1 KECCAK256 DUP1 SLOAD DUP4 MLOAD DUP2 DUP5 MUL DUP2 ADD DUP5 ADD SWAP1 SWAP5 MSTORE DUP1 DUP5 MSTORE PUSH1 0x60 SWAP4 SWAP3 DUP4 ADD DUP3 DUP3 DUP1 ISZERO PUSH2 0x11AF JUMPI PUSH1 0x20 MUL DUP3 ADD SWAP2 SWAP1 PUSH0 MSTORE PUSH1 0x20 PUSH0 KECCAK256 SWAP1 JUMPDEST DUP2 SLOAD DUP2 MSTORE PUSH1 0x20 ADD SWAP1 PUSH1 0x1 ADD SWAP1 DUP1 DUP4 GT PUSH2 0x119B JUMPI JUMPDEST POP POP POP POP POP SWAP1 POP SWAP1 JUMP JUMPDEST PUSH0 SWAP2 DUP3 MSTORE PUSH1 0x20 DUP3 DUP2 MSTORE PUSH1 0x40 DUP1 DUP5 KECCAK256 PUSH1 0x1 PUSH1 0x1 PUSH1 0xA0 SHL SUB SWAP4 SWAP1 SWAP4 AND DUP5 MSTORE SWAP2 SWAP1 MSTORE SWAP1 KECCAK256 SLOAD PUSH1 0xFF AND SWAP1 JUMP JUMPDEST PUSH0 DUP2 DUP2 MSTORE PUSH1 0x2 PUSH1 0x20 DUP2 SWAP1 MSTORE PUSH1 0x40 DUP3 KECCAK256 DUP1 SLOAD SWAP2 DUP2 ADD SLOAD PUSH1 0x8 DUP3 ADD DUP1 SLOAD DUP6 SWAP5 DUP6 SWAP5 PUSH1 0x60 SWAP5 SWAP1 SWAP4 DUP10 SWAP4 DUP2 SWAP1 PUSH2 0x1212 SWAP1 PUSH2 0x1BF0 JUMP JUMPDEST DUP1 PUSH1 0x1F ADD PUSH1 0x20 DUP1 SWAP2 DIV MUL PUSH1 0x20 ADD PUSH1 0x40 MLOAD SWAP1 DUP2 ADD PUSH1 0x40 MSTORE DUP1 SWAP3 SWAP2 SWAP1 DUP2 DUP2 MSTORE PUSH1 0x20 ADD DUP3 DUP1 SLOAD PUSH2 0x123E SWAP1 PUSH2 0x1BF0 JUMP JUMPDEST DUP1 ISZERO PUSH2 0x1289 JUMPI DUP1 PUSH1 0x1F LT PUSH2 0x1260 JUMPI PUSH2 0x100 DUP1 DUP4 SLOAD DIV MUL DUP4 MSTORE SWAP2 PUSH1 0x20 ADD SWAP2 PUSH2 0x1289 JUMP JUMPDEST DUP3 ADD SWAP2 SWAP1 PUSH0 MSTORE PUSH1 0x20 PUSH0 KECCAK256 SWAP1 JUMPDEST DUP2 SLOAD DUP2 MSTORE SWAP1 PUSH1 0x1 ADD SWAP1 PUSH1 0x20 ADD DUP1 DUP4 GT PUSH2 0x126C JUMPI DUP3 SWAP1 SUB PUSH1 0x1F AND DUP3 ADD SWAP2 JUMPDEST POP POP POP POP POP SWAP1 POP SWAP5 POP SWAP5 POP SWAP5 POP SWAP5 POP POP SWAP2 SWAP4 POP SWAP2 SWAP4 JUMP JUMPDEST PUSH0 PUSH32 0x7C6181838A71A779E445600D4C6ECBE16BACF2B3C5BDA69C29FADA66D1B645D1 PUSH2 0x12CB DUP2 PUSH2 0x15D3 JUMP JUMPDEST PUSH1 0x1 DUP1 SLOAD SWAP1 PUSH0 PUSH2 0x12DA DUP4 PUSH2 0x1DC1 JUMP JUMPDEST SWAP1 SWAP2 SSTORE POP POP PUSH1 0x1 DUP1 SLOAD PUSH0 SWAP1 DUP2 MSTORE PUSH1 0x2 PUSH1 0x20 DUP2 DUP2 MSTORE PUSH1 0x40 SWAP3 DUP4 SWAP1 KECCAK256 DUP4 MLOAD PUSH1 0x60 DUP2 ADD DUP6 MSTORE TIMESTAMP DUP1 DUP3 MSTORE DUP2 DUP5 ADD DUP13 SWAP1 MSTORE SWAP1 DUP6 ADD DUP11 SWAP1 MSTORE DUP2 SSTORE SWAP4 DUP5 ADD DUP10 SWAP1 SSTORE SWAP1 DUP4 ADD DUP8 SWAP1 SSTORE DUP2 MLOAD DUP1 DUP4 ADD SWAP1 SWAP3 MSTORE PUSH1 0xB DUP3 MSTORE PUSH11 0x139BDD0814DD185C9D1959 PUSH1 0xAA SHL SWAP1 DUP3 ADD MSTORE PUSH1 0x4 DUP3 ADD SWAP1 PUSH2 0x1348 SWAP1 DUP3 PUSH2 0x1CC2 JUMP JUMPDEST POP PUSH1 0x40 DUP1 MLOAD DUP1 DUP3 ADD SWAP1 SWAP2 MSTORE PUSH1 0xD DUP2 MSTORE PUSH13 0x139BDD08125B9CDC1958DD1959 PUSH1 0x9A SHL PUSH1 0x20 DUP3 ADD MSTORE PUSH1 0x7 DUP3 ADD SWAP1 PUSH2 0x137C SWAP1 DUP3 PUSH2 0x1CC2 JUMP JUMPDEST POP PUSH1 0x40 DUP1 MLOAD DUP1 DUP3 ADD SWAP1 SWAP2 MSTORE PUSH1 0xC DUP2 MSTORE PUSH12 0x139BDD08149958D95A5D9959 PUSH1 0xA2 SHL PUSH1 0x20 DUP3 ADD MSTORE PUSH1 0xA DUP3 ADD SWAP1 PUSH2 0x13AF SWAP1 DUP3 PUSH2 0x1CC2 JUMP JUMPDEST POP PUSH1 0xC DUP2 ADD DUP1 SLOAD PUSH1 0x1 PUSH1 0x1 PUSH1 0xA0 SHL SUB NOT AND CALLER SWAP1 DUP2 OR SWAP1 SWAP2 SSTORE PUSH0 DUP2 DUP2 MSTORE PUSH1 0x3 PUSH1 0x20 SWAP1 DUP2 MSTORE PUSH1 0x40 DUP1 DUP4 KECCAK256 PUSH1 0x1 DUP1 SLOAD DUP3 SLOAD DUP1 DUP4 ADD DUP5 SSTORE SWAP3 DUP7 MSTORE SWAP5 DUP5 SWAP1 KECCAK256 SWAP1 SWAP2 ADD SWAP4 SWAP1 SWAP4 SSTORE SWAP2 SLOAD DUP3 MLOAD TIMESTAMP DUP2 MSTORE SWAP2 DUP3 ADD DUP11 SWAP1 MSTORE SWAP2 DUP2 ADD DUP9 SWAP1 MSTORE PUSH1 0x1 PUSH1 0x1 PUSH1 0xA0 SHL SUB DUP8 AND PUSH1 0x60 DUP3 ADD MSTORE PUSH32 0x167D4490114704A52FFF91FD9E2B0410E6472A338563551876CD1D2B72A98DC6 SWAP1 PUSH1 0x80 ADD PUSH1 0x40 MLOAD DUP1 SWAP2 SUB SWAP1 LOG3 PUSH1 0x1 PUSH1 0x1 PUSH1 0xA0 SHL SUB DUP5 AND ISZERO PUSH2 0x145A JUMPI PUSH2 0x145A PUSH1 0x1 SLOAD DUP6 PUSH2 0x854 JUMP JUMPDEST POP POP PUSH1 0x1 SLOAD SWAP5 SWAP4 POP POP POP POP JUMP JUMPDEST PUSH0 PUSH2 0x1471 DUP2 PUSH2 0x15D3 JUMP JUMPDEST PUSH2 0xEBD PUSH32 0xDDAA901E2FE3BDA354FE0EDE2785152D5C109282A613FE024A056A3E66C41BB3 DUP4 PUSH2 0xA12 JUMP JUMPDEST PUSH0 DUP3 DUP2 MSTORE PUSH1 0x20 DUP2 SWAP1 MSTORE PUSH1 0x40 SWAP1 KECCAK256 PUSH1 0x1 ADD SLOAD PUSH2 0x14B5 DUP2 PUSH2 0x15D3 JUMP JUMPDEST PUSH2 0xA36 DUP4 DUP4 PUSH2 0x166F JUMP JUMPDEST PUSH32 0x2A5F906C256A5D799494FCD066E1F6C077689DE1CDB65052A1624DE4BACE99BF PUSH2 0x14E9 DUP2 PUSH2 0x15D3 JUMP JUMPDEST PUSH0 DUP5 DUP2 MSTORE PUSH1 0x2 PUSH1 0x20 MSTORE PUSH1 0x40 SWAP1 KECCAK256 PUSH1 0xC ADD SLOAD PUSH1 0x1 PUSH1 0x1 PUSH1 0xA0 SHL SUB AND CALLER EQ PUSH2 0x1551 JUMPI PUSH1 0x40 MLOAD PUSH3 0x461BCD PUSH1 0xE5 SHL DUP2 MSTORE PUSH1 0x20 PUSH1 0x4 DUP3 ADD MSTORE PUSH1 0x1D PUSH1 0x24 DUP3 ADD MSTORE PUSH32 0x4F6E6C792063757272656E74206F776E65722063616E20757064617465000000 PUSH1 0x44 DUP3 ADD MSTORE PUSH1 0x64 ADD PUSH2 0x8B8 JUMP JUMPDEST PUSH0 DUP5 DUP2 MSTORE PUSH1 0x2 PUSH1 0x20 MSTORE PUSH1 0x40 SWAP1 KECCAK256 PUSH1 0x9 DUP2 ADD SWAP1 PUSH1 0xA ADD PUSH2 0x1570 DUP6 DUP3 PUSH2 0x1CC2 JUMP JUMPDEST POP PUSH1 0x2 DUP2 ADD PUSH2 0x157F DUP5 DUP3 PUSH2 0x1CC2 JUMP JUMPDEST POP DUP1 SLOAD PUSH1 0x1 PUSH1 0x1 PUSH1 0xA0 SHL SUB NOT AND CALLER OR DUP2 SSTORE PUSH1 0x40 MLOAD PUSH32 0x1709AFB7F48585816A5B8DA1F6F52317A1B01989A29D8C9E39F14CCEAF987A1C SWAP1 PUSH2 0x15C4 SWAP1 DUP8 SWAP1 DUP8 SWAP1 DUP8 SWAP1 PUSH2 0x1DD9 JUMP JUMPDEST PUSH1 0x40 MLOAD DUP1 SWAP2 SUB SWAP1 LOG1 POP POP POP POP POP JUMP JUMPDEST PUSH2 0x15DD DUP2 CALLER PUSH2 0x16D8 JUMP JUMPDEST POP JUMP JUMPDEST PUSH0 PUSH2 0x15EB DUP4 DUP4 PUSH2 0x11B9 JUMP JUMPDEST PUSH2 0x1668 JUMPI PUSH0 DUP4 DUP2 MSTORE PUSH1 0x20 DUP2 DUP2 MSTORE PUSH1 0x40 DUP1 DUP4 KECCAK256 PUSH1 0x1 PUSH1 0x1 PUSH1 0xA0 SHL SUB DUP7 AND DUP5 MSTORE SWAP1 SWAP2 MSTORE SWAP1 KECCAK256 DUP1 SLOAD PUSH1 0xFF NOT AND PUSH1 0x1 OR SWAP1 SSTORE PUSH2 0x1620 CALLER SWAP1 JUMP JUMPDEST PUSH1 0x1 PUSH1 0x1 PUSH1 0xA0 SHL SUB AND DUP3 PUSH1 0x1 PUSH1 0x1 PUSH1 0xA0 SHL SUB AND DUP5 PUSH32 0x2F8788117E7EFF1D82E926EC794901D17C78024A50270940304540A733656F0D PUSH1 0x40 MLOAD PUSH1 0x40 MLOAD DUP1 SWAP2 SUB SWAP1 LOG4 POP PUSH1 0x1 PUSH2 0x419 JUMP JUMPDEST POP PUSH0 PUSH2 0x419 JUMP JUMPDEST PUSH0 PUSH2 0x167A DUP4 DUP4 PUSH2 0x11B9 JUMP JUMPDEST ISZERO PUSH2 0x1668 JUMPI PUSH0 DUP4 DUP2 MSTORE PUSH1 0x20 DUP2 DUP2 MSTORE PUSH1 0x40 DUP1 DUP4 KECCAK256 PUSH1 0x1 PUSH1 0x1 PUSH1 0xA0 SHL SUB DUP7 AND DUP1 DUP6 MSTORE SWAP3 MSTORE DUP1 DUP4 KECCAK256 DUP1 SLOAD PUSH1 0xFF NOT AND SWAP1 SSTORE MLOAD CALLER SWAP3 DUP7 SWAP2 PUSH32 0xF6391F5C32D9C69D2A47EA670B442974B53935D1EDC7FD64EB21E047A839171B SWAP2 SWAP1 LOG4 POP PUSH1 0x1 PUSH2 0x419 JUMP JUMPDEST PUSH2 0x16E2 DUP3 DUP3 PUSH2 0x11B9 JUMP JUMPDEST PUSH2 0xEBD JUMPI PUSH1 0x40 MLOAD PUSH4 0xE2517D3F PUSH1 0xE0 SHL DUP2 MSTORE PUSH1 0x1 PUSH1 0x1 PUSH1 0xA0 SHL SUB DUP3 AND PUSH1 0x4 DUP3 ADD MSTORE PUSH1 0x24 DUP2 ADD DUP4 SWAP1 MSTORE PUSH1 0x44 ADD PUSH2 0x8B8 JUMP JUMPDEST PUSH1 0x40 MLOAD DUP1 PUSH1 0xA0 ADD PUSH1 0x40 MSTORE DUP1 PUSH2 0x173D PUSH1 0x40 MLOAD DUP1 PUSH1 0x60 ADD PUSH1 0x40 MSTORE DUP1 PUSH0 DUP2 MSTORE PUSH1 0x20 ADD PUSH0 DUP2 MSTORE PUSH1 0x20 ADD PUSH0 DUP2 MSTORE POP SWAP1 JUMP JUMPDEST DUP2 MSTORE PUSH1 0x40 DUP1 MLOAD PUSH1 0x60 DUP1 DUP3 ADD DUP4 MSTORE PUSH0 DUP1 DUP4 MSTORE PUSH1 0x20 DUP1 DUP5 ADD DUP4 SWAP1 MSTORE DUP4 DUP6 ADD DUP4 SWAP1 MSTORE DUP1 DUP7 ADD SWAP4 SWAP1 SWAP4 MSTORE DUP4 MLOAD DUP1 DUP4 ADD DUP6 MSTORE DUP2 DUP2 MSTORE DUP1 DUP5 ADD DUP4 SWAP1 MSTORE DUP1 DUP6 ADD DUP4 SWAP1 MSTORE DUP5 DUP7 ADD MSTORE DUP4 MLOAD DUP1 DUP4 ADD DUP6 MSTORE DUP2 DUP2 MSTORE SWAP3 DUP4 ADD DUP3 SWAP1 MSTORE SWAP3 DUP3 ADD DUP2 SWAP1 MSTORE DUP4 ADD MSTORE PUSH1 0x80 SWAP1 SWAP2 ADD MSTORE SWAP1 JUMP JUMPDEST PUSH0 PUSH1 0x20 DUP3 DUP5 SUB SLT ISZERO PUSH2 0x17AF JUMPI PUSH0 DUP1 REVERT JUMPDEST DUP2 CALLDATALOAD PUSH1 0x1 PUSH1 0x1 PUSH1 0xE0 SHL SUB NOT DUP2 AND DUP2 EQ PUSH2 0x17C6 JUMPI PUSH0 DUP1 REVERT JUMPDEST SWAP4 SWAP3 POP POP POP JUMP JUMPDEST PUSH0 PUSH1 0x20 DUP3 DUP5 SUB SLT ISZERO PUSH2 0x17DD JUMPI PUSH0 DUP1 REVERT JUMPDEST POP CALLDATALOAD SWAP2 SWAP1 POP JUMP JUMPDEST PUSH0 DUP2 MLOAD DUP1 DUP5 MSTORE DUP1 PUSH1 0x20 DUP5 ADD PUSH1 0x20 DUP7 ADD MCOPY PUSH0 PUSH1 0x20 DUP3 DUP7 ADD ADD MSTORE PUSH1 0x20 PUSH1 0x1F NOT PUSH1 0x1F DUP4 ADD AND DUP6 ADD ADD SWAP2 POP POP SWAP3 SWAP2 POP POP JUMP JUMPDEST PUSH1 0x1 DUP1 PUSH1 0xA0 SHL SUB DUP2 MLOAD AND DUP3 MSTORE PUSH0 PUSH1 0x20 DUP3 ADD MLOAD PUSH1 0x60 PUSH1 0x20 DUP6 ADD MSTORE PUSH2 0x1838 PUSH1 0x60 DUP6 ADD DUP3 PUSH2 0x17E4 JUMP JUMPDEST SWAP1 POP PUSH1 0x40 DUP4 ADD MLOAD DUP5 DUP3 SUB PUSH1 0x40 DUP7 ADD MSTORE PUSH2 0x1851 DUP3 DUP3 PUSH2 0x17E4 JUMP JUMPDEST SWAP6 SWAP5 POP POP POP POP POP JUMP JUMPDEST PUSH1 0x20 DUP2 MSTORE PUSH2 0x1880 PUSH1 0x20 DUP3 ADD DUP4 MLOAD DUP1 MLOAD DUP3 MSTORE PUSH1 0x20 DUP1 DUP3 ADD MLOAD SWAP1 DUP4 ADD MSTORE PUSH1 0x40 SWAP1 DUP2 ADD MLOAD SWAP2 ADD MSTORE JUMP JUMPDEST PUSH0 PUSH1 0x20 DUP4 ADD MLOAD PUSH1 0xE0 PUSH1 0x80 DUP5 ADD MSTORE PUSH2 0x189B PUSH2 0x100 DUP5 ADD DUP3 PUSH2 0x1812 JUMP JUMPDEST SWAP1 POP PUSH1 0x40 DUP5 ADD MLOAD PUSH1 0x1F NOT DUP5 DUP4 SUB ADD PUSH1 0xA0 DUP6 ADD MSTORE PUSH2 0x18B8 DUP3 DUP3 PUSH2 0x1812 JUMP JUMPDEST SWAP2 POP POP PUSH1 0x60 DUP5 ADD MLOAD PUSH1 0x1F NOT DUP5 DUP4 SUB ADD PUSH1 0xC0 DUP6 ADD MSTORE PUSH2 0x18D6 DUP3 DUP3 PUSH2 0x1812 JUMP JUMPDEST PUSH1 0x80 SWAP6 SWAP1 SWAP6 ADD MLOAD PUSH1 0x1 PUSH1 0x1 PUSH1 0xA0 SHL SUB AND PUSH1 0xE0 SWAP5 SWAP1 SWAP5 ADD SWAP4 SWAP1 SWAP4 MSTORE POP SWAP2 SWAP3 SWAP2 POP POP JUMP JUMPDEST DUP1 CALLDATALOAD PUSH1 0x1 PUSH1 0x1 PUSH1 0xA0 SHL SUB DUP2 AND DUP2 EQ PUSH2 0x190E JUMPI PUSH0 DUP1 REVERT JUMPDEST SWAP2 SWAP1 POP JUMP JUMPDEST PUSH0 DUP1 PUSH1 0x40 DUP4 DUP6 SUB SLT ISZERO PUSH2 0x1924 JUMPI PUSH0 DUP1 REVERT JUMPDEST DUP3 CALLDATALOAD SWAP2 POP PUSH2 0x1934 PUSH1 0x20 DUP5 ADD PUSH2 0x18F8 JUMP JUMPDEST SWAP1 POP SWAP3 POP SWAP3 SWAP1 POP JUMP JUMPDEST DUP6 MLOAD DUP2 MSTORE PUSH1 0x20 DUP1 DUP8 ADD MLOAD SWAP1 DUP3 ADD MSTORE PUSH1 0x40 DUP1 DUP8 ADD MLOAD SWAP1 DUP3 ADD MSTORE PUSH1 0xE0 PUSH1 0x60 DUP3 ADD MSTORE PUSH0 PUSH2 0x196A PUSH1 0xE0 DUP4 ADD DUP8 PUSH2 0x1812 JUMP JUMPDEST DUP3 DUP2 SUB PUSH1 0x80 DUP5 ADD MSTORE PUSH2 0x197C DUP2 DUP8 PUSH2 0x1812 JUMP JUMPDEST SWAP1 POP DUP3 DUP2 SUB PUSH1 0xA0 DUP5 ADD MSTORE PUSH2 0x1990 DUP2 DUP7 PUSH2 0x1812 JUMP JUMPDEST SWAP2 POP POP PUSH1 0x1 DUP1 PUSH1 0xA0 SHL SUB DUP4 AND PUSH1 0xC0 DUP4 ADD MSTORE SWAP7 SWAP6 POP POP POP POP POP POP JUMP JUMPDEST PUSH0 PUSH1 0x20 DUP3 DUP5 SUB SLT ISZERO PUSH2 0x19BB JUMPI PUSH0 DUP1 REVERT JUMPDEST PUSH2 0x17C6 DUP3 PUSH2 0x18F8 JUMP JUMPDEST PUSH4 0x4E487B71 PUSH1 0xE0 SHL PUSH0 MSTORE PUSH1 0x41 PUSH1 0x4 MSTORE PUSH1 0x24 PUSH0 REVERT JUMPDEST PUSH0 DUP3 PUSH1 0x1F DUP4 ADD SLT PUSH2 0x19E7 JUMPI PUSH0 DUP1 REVERT JUMPDEST DUP2 CALLDATALOAD PUSH8 0xFFFFFFFFFFFFFFFF DUP2 GT ISZERO PUSH2 0x1A01 JUMPI PUSH2 0x1A01 PUSH2 0x19C4 JUMP JUMPDEST PUSH1 0x40 MLOAD PUSH1 0x1F DUP3 ADD PUSH1 0x1F NOT SWAP1 DUP2 AND PUSH1 0x3F ADD AND DUP2 ADD PUSH8 0xFFFFFFFFFFFFFFFF DUP2 GT DUP3 DUP3 LT OR ISZERO PUSH2 0x1A30 JUMPI PUSH2 0x1A30 PUSH2 0x19C4 JUMP JUMPDEST PUSH1 0x40 MSTORE DUP2 DUP2 MSTORE DUP4 DUP3 ADD PUSH1 0x20 ADD DUP6 LT ISZERO PUSH2 0x1A47 JUMPI PUSH0 DUP1 REVERT JUMPDEST DUP2 PUSH1 0x20 DUP6 ADD PUSH1 0x20 DUP4 ADD CALLDATACOPY PUSH0 SWAP2 DUP2 ADD PUSH1 0x20 ADD SWAP2 SWAP1 SWAP2 MSTORE SWAP4 SWAP3 POP POP POP JUMP JUMPDEST PUSH0 DUP1 PUSH0 DUP1 PUSH1 0x80 DUP6 DUP8 SUB SLT ISZERO PUSH2 0x1A76 JUMPI PUSH0 DUP1 REVERT JUMPDEST DUP5 CALLDATALOAD SWAP4 POP PUSH1 0x20 DUP6 ADD CALLDATALOAD PUSH8 0xFFFFFFFFFFFFFFFF DUP2 GT ISZERO PUSH2 0x1A93 JUMPI PUSH0 DUP1 REVERT JUMPDEST PUSH2 0x1A9F DUP8 DUP3 DUP9 ADD PUSH2 0x19D8 JUMP JUMPDEST SWAP4 POP POP PUSH1 0x40 DUP6 ADD CALLDATALOAD PUSH8 0xFFFFFFFFFFFFFFFF DUP2 GT ISZERO PUSH2 0x1ABB JUMPI PUSH0 DUP1 REVERT JUMPDEST PUSH2 0x1AC7 DUP8 DUP3 DUP9 ADD PUSH2 0x19D8 JUMP JUMPDEST SWAP3 POP POP PUSH2 0x1AD6 PUSH1 0x60 DUP7 ADD PUSH2 0x18F8 JUMP JUMPDEST SWAP1 POP SWAP3 SWAP6 SWAP2 SWAP5 POP SWAP3 POP JUMP JUMPDEST PUSH1 0x20 DUP1 DUP3 MSTORE DUP3 MLOAD DUP3 DUP3 ADD DUP2 SWAP1 MSTORE PUSH0 SWAP2 DUP5 ADD SWAP1 PUSH1 0x40 DUP5 ADD SWAP1 DUP4 JUMPDEST DUP2 DUP2 LT ISZERO PUSH2 0x1B18 JUMPI DUP4 MLOAD DUP4 MSTORE PUSH1 0x20 SWAP4 DUP5 ADD SWAP4 SWAP1 SWAP3 ADD SWAP2 PUSH1 0x1 ADD PUSH2 0x1AFA JUMP JUMPDEST POP SWAP1 SWAP6 SWAP5 POP POP POP POP POP JUMP JUMPDEST DUP5 DUP2 MSTORE DUP4 PUSH1 0x20 DUP3 ADD MSTORE DUP3 PUSH1 0x40 DUP3 ADD MSTORE PUSH1 0x80 PUSH1 0x60 DUP3 ADD MSTORE PUSH0 PUSH2 0x1B47 PUSH1 0x80 DUP4 ADD DUP5 PUSH2 0x17E4 JUMP JUMPDEST SWAP7 SWAP6 POP POP POP POP POP POP JUMP JUMPDEST PUSH0 DUP1 PUSH0 PUSH1 0x60 DUP5 DUP7 SUB SLT ISZERO PUSH2 0x1B63 JUMPI PUSH0 DUP1 REVERT JUMPDEST DUP4 CALLDATALOAD SWAP3 POP PUSH1 0x20 DUP5 ADD CALLDATALOAD SWAP2 POP PUSH2 0x1B7A PUSH1 0x40 DUP6 ADD PUSH2 0x18F8 JUMP JUMPDEST SWAP1 POP SWAP3 POP SWAP3 POP SWAP3 JUMP JUMPDEST PUSH0 DUP1 PUSH0 PUSH1 0x60 DUP5 DUP7 SUB SLT ISZERO PUSH2 0x1B95 JUMPI PUSH0 DUP1 REVERT JUMPDEST DUP4 CALLDATALOAD SWAP3 POP PUSH1 0x20 DUP5 ADD CALLDATALOAD PUSH8 0xFFFFFFFFFFFFFFFF DUP2 GT ISZERO PUSH2 0x1BB2 JUMPI PUSH0 DUP1 REVERT JUMPDEST PUSH2 0x1BBE DUP7 DUP3 DUP8 ADD PUSH2 0x19D8 JUMP JUMPDEST SWAP3 POP POP PUSH1 0x40 DUP5 ADD CALLDATALOAD PUSH8 0xFFFFFFFFFFFFFFFF DUP2 GT ISZERO PUSH2 0x1BDA JUMPI PUSH0 DUP1 REVERT JUMPDEST PUSH2 0x1BE6 DUP7 DUP3 DUP8 ADD PUSH2 0x19D8 JUMP JUMPDEST SWAP2 POP POP SWAP3 POP SWAP3 POP SWAP3 JUMP JUMPDEST PUSH1 0x1 DUP2 DUP2 SHR SWAP1 DUP3 AND DUP1 PUSH2 0x1C04 JUMPI PUSH1 0x7F DUP3 AND SWAP2 POP JUMPDEST PUSH1 0x20 DUP3 LT DUP2 SUB PUSH2 0x1C22 JUMPI PUSH4 0x4E487B71 PUSH1 0xE0 SHL PUSH0 MSTORE PUSH1 0x22 PUSH1 0x4 MSTORE PUSH1 0x24 PUSH0 REVERT JUMPDEST POP SWAP2 SWAP1 POP JUMP JUMPDEST PUSH4 0x4E487B71 PUSH1 0xE0 SHL PUSH0 MSTORE PUSH1 0x32 PUSH1 0x4 MSTORE PUSH1 0x24 PUSH0 REVERT JUMPDEST PUSH4 0x4E487B71 PUSH1 0xE0 SHL PUSH0 MSTORE PUSH1 0x11 PUSH1 0x4 MSTORE PUSH1 0x24 PUSH0 REVERT JUMPDEST DUP2 DUP2 SUB DUP2 DUP2 GT ISZERO PUSH2 0x419 JUMPI PUSH2 0x419 PUSH2 0x1C3C JUMP JUMPDEST PUSH4 0x4E487B71 PUSH1 0xE0 SHL PUSH0 MSTORE PUSH1 0x31 PUSH1 0x4 MSTORE PUSH1 0x24 PUSH0 REVERT JUMPDEST PUSH1 0x1F DUP3 GT ISZERO PUSH2 0xA6F JUMPI DUP1 PUSH0 MSTORE PUSH1 0x20 PUSH0 KECCAK256 PUSH1 0x1F DUP5 ADD PUSH1 0x5 SHR DUP2 ADD PUSH1 0x20 DUP6 LT ISZERO PUSH2 0x1C9C JUMPI POP DUP1 JUMPDEST PUSH1 0x1F DUP5 ADD PUSH1 0x5 SHR DUP3 ADD SWAP2 POP JUMPDEST DUP2 DUP2 LT ISZERO PUSH2 0x1CBB JUMPI PUSH0 DUP2 SSTORE PUSH1 0x1 ADD PUSH2 0x1CA8 JUMP JUMPDEST POP POP POP POP POP JUMP JUMPDEST DUP2 MLOAD PUSH8 0xFFFFFFFFFFFFFFFF DUP2 GT ISZERO PUSH2 0x1CDC JUMPI PUSH2 0x1CDC PUSH2 0x19C4 JUMP JUMPDEST PUSH2 0x1CF0 DUP2 PUSH2 0x1CEA DUP5 SLOAD PUSH2 0x1BF0 JUMP JUMPDEST DUP5 PUSH2 0x1C77 JUMP JUMPDEST PUSH1 0x20 PUSH1 0x1F DUP3 GT PUSH1 0x1 DUP2 EQ PUSH2 0x1D22 JUMPI PUSH0 DUP4 ISZERO PUSH2 0x1D0B JUMPI POP DUP5 DUP3 ADD MLOAD JUMPDEST PUSH0 NOT PUSH1 0x3 DUP6 SWAP1 SHL SHR NOT AND PUSH1 0x1 DUP5 SWAP1 SHL OR DUP5 SSTORE PUSH2 0x1CBB JUMP JUMPDEST PUSH0 DUP5 DUP2 MSTORE PUSH1 0x20 DUP2 KECCAK256 PUSH1 0x1F NOT DUP6 AND SWAP2 JUMPDEST DUP3 DUP2 LT ISZERO PUSH2 0x1D51 JUMPI DUP8 DUP6 ADD MLOAD DUP3 SSTORE PUSH1 0x20 SWAP5 DUP6 ADD SWAP5 PUSH1 0x1 SWAP1 SWAP3 ADD SWAP2 ADD PUSH2 0x1D31 JUMP JUMPDEST POP DUP5 DUP3 LT ISZERO PUSH2 0x1D6E JUMPI DUP7 DUP5 ADD MLOAD PUSH0 NOT PUSH1 0x3 DUP8 SWAP1 SHL PUSH1 0xF8 AND SHR NOT AND DUP2 SSTORE JUMPDEST POP POP POP POP PUSH1 0x1 SWAP1 DUP2 SHL ADD SWAP1 SSTORE POP JUMP JUMPDEST DUP5 DUP2 MSTORE PUSH1 0x80 PUSH1 0x20 DUP3 ADD MSTORE PUSH0 PUSH2 0x1D95 PUSH1 0x80 DUP4 ADD DUP7 PUSH2 0x17E4 JUMP JUMPDEST DUP3 DUP2 SUB PUSH1 0x40 DUP5 ADD MSTORE PUSH2 0x1DA7 DUP2 DUP7 PUSH2 0x17E4 JUMP JUMPDEST SWAP2 POP POP PUSH1 0x1 DUP1 PUSH1 0xA0 SHL SUB DUP4 AND PUSH1 0x60 DUP4 ADD MSTORE SWAP6 SWAP5 POP POP POP POP POP JUMP JUMPDEST PUSH0 PUSH1 0x1 DUP3 ADD PUSH2 0x1DD2 JUMPI PUSH2 0x1DD2 PUSH2 0x1C3C JUMP JUMPDEST POP PUSH1 0x1 ADD SWAP1 JUMP JUMPDEST DUP4 DUP2 MSTORE PUSH1 0x60 PUSH1 0x20 DUP3 ADD MSTORE PUSH0 PUSH2 0x1DF1 PUSH1 0x60 DUP4 ADD DUP6 PUSH2 0x17E4 JUMP JUMPDEST DUP3 DUP2 SUB PUSH1 0x40 DUP5 ADD MSTORE PUSH2 0x1B47 DUP2 DUP6 PUSH2 0x17E4 JUMP INVALID LOG2 PUSH5 0x6970667358 0x22 SLT KECCAK256 EXTCODESIZE DUP14 0x24 PUSH15 0xB46F08166A2BF0345FE5F86153D19E 0xD9 PUSH24 0x36C33BD3A9D63F713A960964736F6C634300081A00330000 "
				},
				"gasEstimates": {
					"creation": {
						"codeDepositCost": "1547400",
						"executionCost": "35300",
						"totalCost": "1582700"
					},
					"external": {
						"DEFAULT_ADMIN_ROLE()": "326",
						"FARMER_ROLE()": "304",
						"INSPECTOR_ROLE()": "260",
						"RETAILER_ROLE()": "262",
						"TRANSPORTER_ROLE()": "261",
						"addFarmer(address)": "infinite",
						"addInspector(address)": "infinite",
						"addRetailer(address)": "infinite",
						"addTransporter(address)": "infinite",
						"createBatch(uint256,uint256,address)": "infinite",
						"getBatchInfo(uint256)": "infinite",
						"getLatestBatchId()": "2358",
						"getMyBatches()": "infinite",
						"getPublicBatchInfo(uint256)": "infinite",
						"getRoleAdmin(bytes32)": "2534",
						"grantRole(bytes32,address)": "infinite",
						"hasRole(bytes32,address)": "2737",
						"milkBatches(uint256)": "infinite",
						"renounceRole(bytes32,address)": "29041",
						"revokeRole(bytes32,address)": "infinite",
						"supportsInterface(bytes4)": "447",
						"transferOwnership(uint256,address)": "infinite",
						"updateInspectionStatus(uint256,string,string,address)": "infinite",
						"updateReceivingStatus(uint256,string,string)": "infinite",
						"updateTransportStatus(uint256,string,string,address)": "infinite"
					}
				},
				"methodIdentifiers": {
					"DEFAULT_ADMIN_ROLE()": "a217fddf",
					"FARMER_ROLE()": "f3943970",
					"INSPECTOR_ROLE()": "e3a3c522",
					"RETAILER_ROLE()": "2115e7bf",
					"TRANSPORTER_ROLE()": "4eabbe77",
					"addFarmer(address)": "80c3f96d",
					"addInspector(address)": "7e458492",
					"addRetailer(address)": "8ec4f505",
					"addTransporter(address)": "b7022049",
					"createBatch(uint256,uint256,address)": "ab93d873",
					"getBatchInfo(uint256)": "1a0058f5",
					"getLatestBatchId()": "aea32261",
					"getMyBatches()": "8fec82c5",
					"getPublicBatchInfo(uint256)": "99cdcc5c",
					"getRoleAdmin(bytes32)": "248a9ca3",
					"grantRole(bytes32,address)": "2f2ff15d",
					"hasRole(bytes32,address)": "91d14854",
					"milkBatches(uint256)": "4e266aea",
					"renounceRole(bytes32,address)": "36568abe",
					"revokeRole(bytes32,address)": "d547741f",
					"supportsInterface(bytes4)": "01ffc9a7",
					"transferOwnership(uint256,address)": "29507f73",
					"updateInspectionStatus(uint256,string,string,address)": "874ae942",
					"updateReceivingStatus(uint256,string,string)": "eab1ddf2",
					"updateTransportStatus(uint256,string,string,address)": "7f832973"
				}
			},
			"storageLayout": {
				"storage": [
					{
						"astId": 26,
						"contract": "contracts/MilkSupplyChain.sol:MilkSupplyChain",
						"label": "_roles",
						"offset": 0,
						"slot": "0",
						"type": "t_mapping(t_bytes32,t_struct(RoleData)21_storage)"
					},
					{
						"astId": 583,
						"contract": "contracts/MilkSupplyChain.sol:MilkSupplyChain",
						"label": "batchCounter",
						"offset": 0,
						"slot": "1",
						"type": "t_uint256"
					},
					{
						"astId": 588,
						"contract": "contracts/MilkSupplyChain.sol:MilkSupplyChain",
						"label": "milkBatches",
						"offset": 0,
						"slot": "2",
						"type": "t_mapping(t_uint256,t_struct(MilkBatch)581_storage)"
					},
					{
						"astId": 593,
						"contract": "contracts/MilkSupplyChain.sol:MilkSupplyChain",
						"label": "myBatches",
						"offset": 0,
						"slot": "3",
						"type": "t_mapping(t_address,t_array(t_uint256)dyn_storage)"
					}
				],
				"types": {
					"t_address": {
						"encoding": "inplace",
						"label": "address",
						"numberOfBytes": "20"
					},
					"t_array(t_uint256)dyn_storage": {
						"base": "t_uint256",
						"encoding": "dynamic_array",
						"label": "uint256[]",
						"numberOfBytes": "32"
					},
					"t_bool": {
						"encoding": "inplace",
						"label": "bool",
						"numberOfBytes": "1"
					},
					"t_bytes32": {
						"encoding": "inplace",
						"label": "bytes32",
						"numberOfBytes": "32"
					},
					"t_mapping(t_address,t_array(t_uint256)dyn_storage)": {
						"encoding": "mapping",
						"key": "t_address",
						"label": "mapping(address => uint256[])",
						"numberOfBytes": "32",
						"value": "t_array(t_uint256)dyn_storage"
					},
					"t_mapping(t_address,t_bool)": {
						"encoding": "mapping",
						"key": "t_address",
						"label": "mapping(address => bool)",
						"numberOfBytes": "32",
						"value": "t_bool"
					},
					"t_mapping(t_bytes32,t_struct(RoleData)21_storage)": {
						"encoding": "mapping",
						"key": "t_bytes32",
						"label": "mapping(bytes32 => struct AccessControl.RoleData)",
						"numberOfBytes": "32",
						"value": "t_struct(RoleData)21_storage"
					},
					"t_mapping(t_uint256,t_struct(MilkBatch)581_storage)": {
						"encoding": "mapping",
						"key": "t_uint256",
						"label": "mapping(uint256 => struct MilkSupplyChain.MilkBatch)",
						"numberOfBytes": "32",
						"value": "t_struct(MilkBatch)581_storage"
					},
					"t_string_storage": {
						"encoding": "bytes",
						"label": "string",
						"numberOfBytes": "32"
					},
					"t_struct(BatchInfo)545_storage": {
						"encoding": "inplace",
						"label": "struct MilkSupplyChain.BatchInfo",
						"members": [
							{
								"astId": 540,
								"contract": "contracts/MilkSupplyChain.sol:MilkSupplyChain",
								"label": "productionDate",
								"offset": 0,
								"slot": "0",
								"type": "t_uint256"
							},
							{
								"astId": 542,
								"contract": "contracts/MilkSupplyChain.sol:MilkSupplyChain",
								"label": "weight",
								"offset": 0,
								"slot": "1",
								"type": "t_uint256"
							},
							{
								"astId": 544,
								"contract": "contracts/MilkSupplyChain.sol:MilkSupplyChain",
								"label": "expiryDate",
								"offset": 0,
								"slot": "2",
								"type": "t_uint256"
							}
						],
						"numberOfBytes": "96"
					},
					"t_struct(InspectionInfo)559_storage": {
						"encoding": "inplace",
						"label": "struct MilkSupplyChain.InspectionInfo",
						"members": [
							{
								"astId": 554,
								"contract": "contracts/MilkSupplyChain.sol:MilkSupplyChain",
								"label": "inspector",
								"offset": 0,
								"slot": "0",
								"type": "t_address"
							},
							{
								"astId": 556,
								"contract": "contracts/MilkSupplyChain.sol:MilkSupplyChain",
								"label": "status",
								"offset": 0,
								"slot": "1",
								"type": "t_string_storage"
							},
							{
								"astId": 558,
								"contract": "contracts/MilkSupplyChain.sol:MilkSupplyChain",
								"label": "reportCID",
								"offset": 0,
								"slot": "2",
								"type": "t_string_storage"
							}
						],
						"numberOfBytes": "96"
					},
					"t_struct(MilkBatch)581_storage": {
						"encoding": "inplace",
						"label": "struct MilkSupplyChain.MilkBatch",
						"members": [
							{
								"astId": 569,
								"contract": "contracts/MilkSupplyChain.sol:MilkSupplyChain",
								"label": "batchInfo",
								"offset": 0,
								"slot": "0",
								"type": "t_struct(BatchInfo)545_storage"
							},
							{
								"astId": 572,
								"contract": "contracts/MilkSupplyChain.sol:MilkSupplyChain",
								"label": "transportInfo",
								"offset": 0,
								"slot": "3",
								"type": "t_struct(TransportInfo)552_storage"
							},
							{
								"astId": 575,
								"contract": "contracts/MilkSupplyChain.sol:MilkSupplyChain",
								"label": "inspectionInfo",
								"offset": 0,
								"slot": "6",
								"type": "t_struct(InspectionInfo)559_storage"
							},
							{
								"astId": 578,
								"contract": "contracts/MilkSupplyChain.sol:MilkSupplyChain",
								"label": "receivingInfo",
								"offset": 0,
								"slot": "9",
								"type": "t_struct(ReceivingInfo)566_storage"
							},
							{
								"astId": 580,
								"contract": "contracts/MilkSupplyChain.sol:MilkSupplyChain",
								"label": "currentOwner",
								"offset": 0,
								"slot": "12",
								"type": "t_address"
							}
						],
						"numberOfBytes": "416"
					},
					"t_struct(ReceivingInfo)566_storage": {
						"encoding": "inplace",
						"label": "struct MilkSupplyChain.ReceivingInfo",
						"members": [
							{
								"astId": 561,
								"contract": "contracts/MilkSupplyChain.sol:MilkSupplyChain",
								"label": "retailer",
								"offset": 0,
								"slot": "0",
								"type": "t_address"
							},
							{
								"astId": 563,
								"contract": "contracts/MilkSupplyChain.sol:MilkSupplyChain",
								"label": "status",
								"offset": 0,
								"slot": "1",
								"type": "t_string_storage"
							},
							{
								"astId": 565,
								"contract": "contracts/MilkSupplyChain.sol:MilkSupplyChain",
								"label": "reportCID",
								"offset": 0,
								"slot": "2",
								"type": "t_string_storage"
							}
						],
						"numberOfBytes": "96"
					},
					"t_struct(RoleData)21_storage": {
						"encoding": "inplace",
						"label": "struct AccessControl.RoleData",
						"members": [
							{
								"astId": 18,
								"contract": "contracts/MilkSupplyChain.sol:MilkSupplyChain",
								"label": "hasRole",
								"offset": 0,
								"slot": "0",
								"type": "t_mapping(t_address,t_bool)"
							},
							{
								"astId": 20,
								"contract": "contracts/MilkSupplyChain.sol:MilkSupplyChain",
								"label": "adminRole",
								"offset": 0,
								"slot": "1",
								"type": "t_bytes32"
							}
						],
						"numberOfBytes": "64"
					},
					"t_struct(TransportInfo)552_storage": {
						"encoding": "inplace",
						"label": "struct MilkSupplyChain.TransportInfo",
						"members": [
							{
								"astId": 547,
								"contract": "contracts/MilkSupplyChain.sol:MilkSupplyChain",
								"label": "transporter",
								"offset": 0,
								"slot": "0",
								"type": "t_address"
							},
							{
								"astId": 549,
								"contract": "contracts/MilkSupplyChain.sol:MilkSupplyChain",
								"label": "status",
								"offset": 0,
								"slot": "1",
								"type": "t_string_storage"
							},
							{
								"astId": 551,
								"contract": "contracts/MilkSupplyChain.sol:MilkSupplyChain",
								"label": "reportCID",
								"offset": 0,
								"slot": "2",
								"type": "t_string_storage"
							}
						],
						"numberOfBytes": "96"
					},
					"t_uint256": {
						"encoding": "inplace",
						"label": "uint256",
						"numberOfBytes": "32"
					}
				}
			},
			"userdoc": {
				"kind": "user",
				"methods": {},
				"version": 1
			}
		}
	}
}