{
	"contracts/AutoPayment.sol": {
		"AutoPayment": {
			"abi": [
				{
					"inputs": [
						{
							"internalType": "address",
							"name": "_milkSupplyChainAddress",
							"type": "address"
						}
					],
					"stateMutability": "nonpayable",
					"type": "constructor"
				},
				{
					"inputs": [],
					"name": "AccessControlBadConfirmation",
					"type": "error"
				},
				{
					"inputs": [
						{
							"internalType": "address",
							"name": "account",
							"type": "address"
						},
						{
							"internalType": "bytes32",
							"name": "neededRole",
							"type": "bytes32"
						}
					],
					"name": "AccessControlUnauthorizedAccount",
					"type": "error"
				},
				{
					"anonymous": false,
					"inputs": [
						{
							"indexed": false,
							"internalType": "uint256",
							"name": "batchId",
							"type": "uint256"
						},
						{
							"indexed": false,
							"internalType": "address",
							"name": "farmer",
							"type": "address"
						},
						{
							"indexed": false,
							"internalType": "uint256",
							"name": "amount",
							"type": "uint256"
						}
					],
					"name": "PaymentMadeToFarmer",
					"type": "event"
				},
				{
					"anonymous": false,
					"inputs": [
						{
							"indexed": false,
							"internalType": "uint256",
							"name": "batchId",
							"type": "uint256"
						},
						{
							"indexed": false,
							"internalType": "address",
							"name": "inspector",
							"type": "address"
						},
						{
							"indexed": false,
							"internalType": "uint256",
							"name": "amount",
							"type": "uint256"
						}
					],
					"name": "PaymentMadeToInspector",
					"type": "event"
				},
				{
					"anonymous": false,
					"inputs": [
						{
							"indexed": true,
							"internalType": "bytes32",
							"name": "role",
							"type": "bytes32"
						},
						{
							"indexed": true,
							"internalType": "bytes32",
							"name": "previousAdminRole",
							"type": "bytes32"
						},
						{
							"indexed": true,
							"internalType": "bytes32",
							"name": "newAdminRole",
							"type": "bytes32"
						}
					],
					"name": "RoleAdminChanged",
					"type": "event"
				},
				{
					"anonymous": false,
					"inputs": [
						{
							"indexed": true,
							"internalType": "bytes32",
							"name": "role",
							"type": "bytes32"
						},
						{
							"indexed": true,
							"internalType": "address",
							"name": "account",
							"type": "address"
						},
						{
							"indexed": true,
							"internalType": "address",
							"name": "sender",
							"type": "address"
						}
					],
					"name": "RoleGranted",
					"type": "event"
				},
				{
					"anonymous": false,
					"inputs": [
						{
							"indexed": true,
							"internalType": "bytes32",
							"name": "role",
							"type": "bytes32"
						},
						{
							"indexed": true,
							"internalType": "address",
							"name": "account",
							"type": "address"
						},
						{
							"indexed": true,
							"internalType": "address",
							"name": "sender",
							"type": "address"
						}
					],
					"name": "RoleRevoked",
					"type": "event"
				},
				{
					"inputs": [],
					"name": "DEFAULT_ADMIN_ROLE",
					"outputs": [
						{
							"internalType": "bytes32",
							"name": "",
							"type": "bytes32"
						}
					],
					"stateMutability": "view",
					"type": "function"
				},
				{
					"inputs": [],
					"name": "FARMER_ROLE",
					"outputs": [
						{
							"internalType": "bytes32",
							"name": "",
							"type": "bytes32"
						}
					],
					"stateMutability": "view",
					"type": "function"
				},
				{
					"inputs": [],
					"name": "INSPECTOR_ROLE",
					"outputs": [
						{
							"internalType": "bytes32",
							"name": "",
							"type": "bytes32"
						}
					],
					"stateMutability": "view",
					"type": "function"
				},
				{
					"inputs": [],
					"name": "RETAILER_ROLE",
					"outputs": [
						{
							"internalType": "bytes32",
							"name": "",
							"type": "bytes32"
						}
					],
					"stateMutability": "view",
					"type": "function"
				},
				{
					"inputs": [
						{
							"internalType": "address",
							"name": "account",
							"type": "address"
						}
					],
					"name": "addFarmer",
					"outputs": [],
					"stateMutability": "nonpayable",
					"type": "function"
				},
				{
					"inputs": [
						{
							"internalType": "address",
							"name": "account",
							"type": "address"
						}
					],
					"name": "addInspector",
					"outputs": [],
					"stateMutability": "nonpayable",
					"type": "function"
				},
				{
					"inputs": [
						{
							"internalType": "address",
							"name": "account",
							"type": "address"
						}
					],
					"name": "addRetailer",
					"outputs": [],
					"stateMutability": "nonpayable",
					"type": "function"
				},
				{
					"inputs": [
						{
							"internalType": "uint256",
							"name": "batchId",
							"type": "uint256"
						},
						{
							"internalType": "uint256",
							"name": "paymentAmountEth",
							"type": "uint256"
						},
						{
							"internalType": "address",
							"name": "farmer",
							"type": "address"
						}
					],
					"name": "checkAndPayToFarmer",
					"outputs": [],
					"stateMutability": "nonpayable",
					"type": "function"
				},
				{
					"inputs": [
						{
							"internalType": "uint256",
							"name": "batchId",
							"type": "uint256"
						},
						{
							"internalType": "uint256",
							"name": "paymentAmountEth",
							"type": "uint256"
						}
					],
					"name": "checkAndPayToInspector",
					"outputs": [],
					"stateMutability": "nonpayable",
					"type": "function"
				},
				{
					"inputs": [],
					"name": "depositFundsInspector",
					"outputs": [],
					"stateMutability": "payable",
					"type": "function"
				},
				{
					"inputs": [],
					"name": "depositFundsRetailer",
					"outputs": [],
					"stateMutability": "payable",
					"type": "function"
				},
				{
					"inputs": [],
					"name": "getContractBalance",
					"outputs": [
						{
							"internalType": "uint256",
							"name": "",
							"type": "uint256"
						}
					],
					"stateMutability": "view",
					"type": "function"
				},
				{
					"inputs": [
						{
							"internalType": "bytes32",
							"name": "role",
							"type": "bytes32"
						}
					],
					"name": "getRoleAdmin",
					"outputs": [
						{
							"internalType": "bytes32",
							"name": "",
							"type": "bytes32"
						}
					],
					"stateMutability": "view",
					"type": "function"
				},
				{
					"inputs": [
						{
							"internalType": "bytes32",
							"name": "role",
							"type": "bytes32"
						},
						{
							"internalType": "address",
							"name": "account",
							"type": "address"
						}
					],
					"name": "grantRole",
					"outputs": [],
					"stateMutability": "nonpayable",
					"type": "function"
				},
				{
					"inputs": [
						{
							"internalType": "bytes32",
							"name": "role",
							"type": "bytes32"
						},
						{
							"internalType": "address",
							"name": "account",
							"type": "address"
						}
					],
					"name": "hasRole",
					"outputs": [
						{
							"internalType": "bool",
							"name": "",
							"type": "bool"
						}
					],
					"stateMutability": "view",
					"type": "function"
				},
				{
					"inputs": [],
					"name": "milkSupplyChain",
					"outputs": [
						{
							"internalType": "contract IMilkSupplyChain",
							"name": "",
							"type": "address"
						}
					],
					"stateMutability": "view",
					"type": "function"
				},
				{
					"inputs": [
						{
							"internalType": "uint256",
							"name": "",
							"type": "uint256"
						}
					],
					"name": "paidToFarmer",
					"outputs": [
						{
							"internalType": "bool",
							"name": "",
							"type": "bool"
						}
					],
					"stateMutability": "view",
					"type": "function"
				},
				{
					"inputs": [
						{
							"internalType": "uint256",
							"name": "",
							"type": "uint256"
						}
					],
					"name": "paidToInspector",
					"outputs": [
						{
							"internalType": "bool",
							"name": "",
							"type": "bool"
						}
					],
					"stateMutability": "view",
					"type": "function"
				},
				{
					"inputs": [
						{
							"internalType": "bytes32",
							"name": "role",
							"type": "bytes32"
						},
						{
							"internalType": "address",
							"name": "callerConfirmation",
							"type": "address"
						}
					],
					"name": "renounceRole",
					"outputs": [],
					"stateMutability": "nonpayable",
					"type": "function"
				},
				{
					"inputs": [
						{
							"internalType": "bytes32",
							"name": "role",
							"type": "bytes32"
						},
						{
							"internalType": "address",
							"name": "account",
							"type": "address"
						}
					],
					"name": "revokeRole",
					"outputs": [],
					"stateMutability": "nonpayable",
					"type": "function"
				},
				{
					"inputs": [
						{
							"internalType": "bytes4",
							"name": "interfaceId",
							"type": "bytes4"
						}
					],
					"name": "supportsInterface",
					"outputs": [
						{
							"internalType": "bool",
							"name": "",
							"type": "bool"
						}
					],
					"stateMutability": "view",
					"type": "function"
				},
				{
					"inputs": [
						{
							"internalType": "uint256",
							"name": "amountEth",
							"type": "uint256"
						}
					],
					"name": "withdrawFunds",
					"outputs": [],
					"stateMutability": "nonpayable",
					"type": "function"
				}
			],
			"devdoc": {
				"errors": {
					"AccessControlBadConfirmation()": [
						{
							"details": "The caller of a function is not the expected one. NOTE: Don't confuse with {AccessControlUnauthorizedAccount}."
						}
					],
					"AccessControlUnauthorizedAccount(address,bytes32)": [
						{
							"details": "The `account` is missing a role."
						}
					]
				},
				"events": {
					"RoleAdminChanged(bytes32,bytes32,bytes32)": {
						"details": "Emitted when `newAdminRole` is set as ``role``'s admin role, replacing `previousAdminRole` `DEFAULT_ADMIN_ROLE` is the starting admin for all roles, despite {RoleAdminChanged} not being emitted signaling this."
					},
					"RoleGranted(bytes32,address,address)": {
						"details": "Emitted when `account` is granted `role`. `sender` is the account that originated the contract call, an admin role bearer except when using {AccessControl-_setupRole}."
					},
					"RoleRevoked(bytes32,address,address)": {
						"details": "Emitted when `account` is revoked `role`. `sender` is the account that originated the contract call:   - if using `revokeRole`, it is the admin role bearer   - if using `renounceRole`, it is the role bearer (i.e. `account`)"
					}
				},
				"kind": "dev",
				"methods": {
					"getRoleAdmin(bytes32)": {
						"details": "Returns the admin role that controls `role`. See {grantRole} and {revokeRole}. To change a role's admin, use {_setRoleAdmin}."
					},
					"grantRole(bytes32,address)": {
						"details": "Grants `role` to `account`. If `account` had not been already granted `role`, emits a {RoleGranted} event. Requirements: - the caller must have ``role``'s admin role. May emit a {RoleGranted} event."
					},
					"hasRole(bytes32,address)": {
						"details": "Returns `true` if `account` has been granted `role`."
					},
					"renounceRole(bytes32,address)": {
						"details": "Revokes `role` from the calling account. Roles are often managed via {grantRole} and {revokeRole}: this function's purpose is to provide a mechanism for accounts to lose their privileges if they are compromised (such as when a trusted device is misplaced). If the calling account had been revoked `role`, emits a {RoleRevoked} event. Requirements: - the caller must be `callerConfirmation`. May emit a {RoleRevoked} event."
					},
					"revokeRole(bytes32,address)": {
						"details": "Revokes `role` from `account`. If `account` had been granted `role`, emits a {RoleRevoked} event. Requirements: - the caller must have ``role``'s admin role. May emit a {RoleRevoked} event."
					},
					"supportsInterface(bytes4)": {
						"details": "See {IERC165-supportsInterface}."
					}
				},
				"version": 1
			},
			"evm": {
				"assembly": "    /* \"contracts/AutoPayment.sol\":936:4367  contract AutoPayment is AccessControl {... */\n  mstore(0x40, 0x80)\n    /* \"contracts/AutoPayment.sol\":1523:1699  constructor(address _milkSupplyChainAddress) {... */\n  callvalue\n  dup1\n  iszero\n  tag_1\n  jumpi\n  0x00\n  dup1\n  revert\ntag_1:\n  pop\n  mload(0x40)\n  sub(codesize, bytecodeSize)\n  dup1\n  bytecodeSize\n  dup4\n  codecopy\n  dup2\n  add\n  0x40\n  dup2\n  swap1\n  mstore\n  tag_2\n  swap2\n  tag_3\n  jump\t// in\ntag_2:\n    /* \"contracts/AutoPayment.sol\":1579:1594  milkSupplyChain */\n  0x01\n    /* \"contracts/AutoPayment.sol\":1579:1638  milkSupplyChain = IMilkSupplyChain(_milkSupplyChainAddress) */\n  dup1\n  sload\n  not(sub(shl(0xa0, 0x01), 0x01))\n  and\n  sub(shl(0xa0, 0x01), 0x01)\n  dup4\n  and\n  or\n  swap1\n  sstore\n    /* \"contracts/AutoPayment.sol\":1649:1691  _grantRole(DEFAULT_ADMIN_ROLE, msg.sender) */\n  tag_6\n  0x00\n    /* \"contracts/AutoPayment.sol\":1680:1690  msg.sender */\n  caller\n    /* \"contracts/AutoPayment.sol\":1649:1659  _grantRole */\n  tag_7\n    /* \"contracts/AutoPayment.sol\":1649:1691  _grantRole(DEFAULT_ADMIN_ROLE, msg.sender) */\n  jump\t// in\ntag_6:\n  pop\n    /* \"contracts/AutoPayment.sol\":1523:1699  constructor(address _milkSupplyChainAddress) {... */\n  pop\n    /* \"contracts/AutoPayment.sol\":936:4367  contract AutoPayment is AccessControl {... */\n  jump(tag_18)\n    /* \"@openzeppelin/contracts/access/AccessControl.sol\":6179:6495  function _grantRole(bytes32 role, address account) internal virtual returns (bool) {... */\ntag_7:\n    /* \"@openzeppelin/contracts/access/AccessControl.sol\":6256:6260  bool */\n  0x00\n    /* \"@openzeppelin/contracts/access/AccessControl.sol\":2954:2966  _roles[role] */\n  dup3\n  dup2\n  mstore\n  0x20\n  dup2\n  dup2\n  mstore\n  0x40\n  dup1\n  dup4\n  keccak256\n  sub(shl(0xa0, 0x01), 0x01)\n    /* \"@openzeppelin/contracts/access/AccessControl.sol\":2954:2983  _roles[role].hasRole[account] */\n  dup6\n  and\n  dup5\n  mstore\n  swap1\n  swap2\n  mstore\n  dup2\n  keccak256\n  sload\n  0xff\n  and\n    /* \"@openzeppelin/contracts/access/AccessControl.sol\":6272:6489  if (!hasRole(role, account)) {... */\n  tag_12\n  jumpi\n    /* \"@openzeppelin/contracts/access/AccessControl.sol\":6315:6321  _roles */\n  0x00\n    /* \"@openzeppelin/contracts/access/AccessControl.sol\":6315:6327  _roles[role] */\n  dup4\n  dup2\n  mstore\n  0x20\n  dup2\n  dup2\n  mstore\n  0x40\n  dup1\n  dup4\n  keccak256\n  sub(shl(0xa0, 0x01), 0x01)\n    /* \"@openzeppelin/contracts/access/AccessControl.sol\":6315:6344  _roles[role].hasRole[account] */\n  dup7\n  and\n  dup5\n  mstore\n  swap1\n  swap2\n  mstore\n  swap1\n  keccak256\n    /* \"@openzeppelin/contracts/access/AccessControl.sol\":6315:6351  _roles[role].hasRole[account] = true */\n  dup1\n  sload\n  not(0xff)\n  and\n    /* \"@openzeppelin/contracts/access/AccessControl.sol\":6347:6351  true */\n  0x01\n    /* \"@openzeppelin/contracts/access/AccessControl.sol\":6315:6351  _roles[role].hasRole[account] = true */\n  or\n  swap1\n  sstore\n    /* \"@openzeppelin/contracts/access/AccessControl.sol\":6397:6409  _msgSender() */\n  tag_13\n    /* \"@openzeppelin/contracts/utils/Context.sol\":735:745  msg.sender */\n  caller\n  swap1\n    /* \"@openzeppelin/contracts/utils/Context.sol\":656:752  function _msgSender() internal view virtual returns (address) {... */\n  jump\n    /* \"@openzeppelin/contracts/access/AccessControl.sol\":6397:6409  _msgSender() */\ntag_13:\n  sub(shl(0xa0, 0x01), 0x01)\n    /* \"@openzeppelin/contracts/access/AccessControl.sol\":6370:6410  RoleGranted(role, account, _msgSender()) */\n  and\n    /* \"@openzeppelin/contracts/access/AccessControl.sol\":6388:6395  account */\n  dup3\n  sub(shl(0xa0, 0x01), 0x01)\n    /* \"@openzeppelin/contracts/access/AccessControl.sol\":6370:6410  RoleGranted(role, account, _msgSender()) */\n  and\n    /* \"@openzeppelin/contracts/access/AccessControl.sol\":6382:6386  role */\n  dup5\n    /* \"@openzeppelin/contracts/access/AccessControl.sol\":6370:6410  RoleGranted(role, account, _msgSender()) */\n  0x2f8788117e7eff1d82e926ec794901d17c78024a50270940304540a733656f0d\n  mload(0x40)\n  mload(0x40)\n  dup1\n  swap2\n  sub\n  swap1\n  log4\n  pop\n    /* \"@openzeppelin/contracts/access/AccessControl.sol\":6431:6435  true */\n  0x01\n    /* \"@openzeppelin/contracts/access/AccessControl.sol\":6424:6435  return true */\n  jump(tag_15)\n    /* \"@openzeppelin/contracts/access/AccessControl.sol\":6272:6489  if (!hasRole(role, account)) {... */\ntag_12:\n  pop\n    /* \"@openzeppelin/contracts/access/AccessControl.sol\":6473:6478  false */\n  0x00\n    /* \"@openzeppelin/contracts/access/AccessControl.sol\":6272:6489  if (!hasRole(role, account)) {... */\ntag_15:\n    /* \"@openzeppelin/contracts/access/AccessControl.sol\":6179:6495  function _grantRole(bytes32 role, address account) internal virtual returns (bool) {... */\n  swap3\n  swap2\n  pop\n  pop\n  jump\t// out\n    /* \"#utility.yul\":14:304   */\ntag_3:\n    /* \"#utility.yul\":84:90   */\n  0x00\n    /* \"#utility.yul\":137:139   */\n  0x20\n    /* \"#utility.yul\":125:134   */\n  dup3\n    /* \"#utility.yul\":116:123   */\n  dup5\n    /* \"#utility.yul\":112:135   */\n  sub\n    /* \"#utility.yul\":108:140   */\n  slt\n    /* \"#utility.yul\":105:157   */\n  iszero\n  tag_20\n  jumpi\n    /* \"#utility.yul\":153:154   */\n  0x00\n    /* \"#utility.yul\":150:151   */\n  dup1\n    /* \"#utility.yul\":143:155   */\n  revert\n    /* \"#utility.yul\":105:157   */\ntag_20:\n    /* \"#utility.yul\":179:195   */\n  dup2\n  mload\n  sub(shl(0xa0, 0x01), 0x01)\n    /* \"#utility.yul\":224:255   */\n  dup2\n  and\n    /* \"#utility.yul\":214:256   */\n  dup2\n  eq\n    /* \"#utility.yul\":204:274   */\n  tag_21\n  jumpi\n    /* \"#utility.yul\":270:271   */\n  0x00\n    /* \"#utility.yul\":267:268   */\n  dup1\n    /* \"#utility.yul\":260:272   */\n  revert\n    /* \"#utility.yul\":204:274   */\ntag_21:\n    /* \"#utility.yul\":293:298   */\n  swap4\n    /* \"#utility.yul\":14:304   */\n  swap3\n  pop\n  pop\n  pop\n  jump\t// out\ntag_18:\n    /* \"contracts/AutoPayment.sol\":936:4367  contract AutoPayment is AccessControl {... */\n  dataSize(sub_0)\n  dup1\n  dataOffset(sub_0)\n  0x00\n  codecopy\n  0x00\n  return\nstop\n\nsub_0: assembly {\n        /* \"contracts/AutoPayment.sol\":936:4367  contract AutoPayment is AccessControl {... */\n      mstore(0x40, 0x80)\n      jumpi(tag_1, lt(calldatasize, 0x04))\n      shr(0xe0, calldataload(0x00))\n      dup1\n      0x80c3f96d\n      gt\n      tag_24\n      jumpi\n      dup1\n      0xd547741f\n      gt\n      tag_25\n      jumpi\n      dup1\n      0xd547741f\n      eq\n      tag_18\n      jumpi\n      dup1\n      0xdad19d7c\n      eq\n      tag_19\n      jumpi\n      dup1\n      0xe3a3c522\n      eq\n      tag_20\n      jumpi\n      dup1\n      0xe3ceefcf\n      eq\n      tag_21\n      jumpi\n      dup1\n      0xe5cfed69\n      eq\n      tag_22\n      jumpi\n      dup1\n      0xf3943970\n      eq\n      tag_23\n      jumpi\n      0x00\n      dup1\n      revert\n    tag_25:\n      dup1\n      0x80c3f96d\n      eq\n      tag_13\n      jumpi\n      dup1\n      0x8ec4f505\n      eq\n      tag_14\n      jumpi\n      dup1\n      0x91d14854\n      eq\n      tag_15\n      jumpi\n      dup1\n      0x9cf4ad89\n      eq\n      tag_16\n      jumpi\n      dup1\n      0xa217fddf\n      eq\n      tag_17\n      jumpi\n      0x00\n      dup1\n      revert\n    tag_24:\n      dup1\n      0x2f2ff15d\n      gt\n      tag_26\n      jumpi\n      dup1\n      0x2f2ff15d\n      eq\n      tag_7\n      jumpi\n      dup1\n      0x30756015\n      eq\n      tag_8\n      jumpi\n      dup1\n      0x36568abe\n      eq\n      tag_9\n      jumpi\n      dup1\n      0x5dad8e38\n      eq\n      tag_10\n      jumpi\n      dup1\n      0x6f9fb98a\n      eq\n      tag_11\n      jumpi\n      dup1\n      0x7e458492\n      eq\n      tag_12\n      jumpi\n      0x00\n      dup1\n      revert\n    tag_26:\n      dup1\n      0x01ffc9a7\n      eq\n      tag_2\n      jumpi\n      dup1\n      0x0e162f11\n      eq\n      tag_3\n      jumpi\n      dup1\n      0x155dd5ee\n      eq\n      tag_4\n      jumpi\n      dup1\n      0x2115e7bf\n      eq\n      tag_5\n      jumpi\n      dup1\n      0x248a9ca3\n      eq\n      tag_6\n      jumpi\n    tag_1:\n      0x00\n      dup1\n      revert\n        /* \"@openzeppelin/contracts/access/AccessControl.sol\":2565:2767  function supportsInterface(bytes4 interfaceId) public view virtual override returns (bool) {... */\n    tag_2:\n      callvalue\n      dup1\n      iszero\n      tag_27\n      jumpi\n      0x00\n      dup1\n      revert\n    tag_27:\n      pop\n      tag_28\n      tag_29\n      calldatasize\n      0x04\n      tag_30\n      jump\t// in\n    tag_29:\n      tag_31\n      jump\t// in\n    tag_28:\n      mload(0x40)\n        /* \"#utility.yul\":470:484   */\n      swap1\n      iszero\n        /* \"#utility.yul\":463:485   */\n      iszero\n        /* \"#utility.yul\":445:486   */\n      dup2\n      mstore\n        /* \"#utility.yul\":433:435   */\n      0x20\n        /* \"#utility.yul\":418:436   */\n      add\n        /* \"@openzeppelin/contracts/access/AccessControl.sol\":2565:2767  function supportsInterface(bytes4 interfaceId) public view virtual override returns (bool) {... */\n    tag_32:\n      mload(0x40)\n      dup1\n      swap2\n      sub\n      swap1\n      return\n        /* \"contracts/AutoPayment.sol\":3140:3936  function checkAndPayToInspector(uint256 batchId, uint256 paymentAmountEth) public onlyRole(RETAILER_ROLE) {... */\n    tag_3:\n      callvalue\n      dup1\n      iszero\n      tag_34\n      jumpi\n      0x00\n      dup1\n      revert\n    tag_34:\n      pop\n      tag_35\n      tag_36\n      calldatasize\n      0x04\n      tag_37\n      jump\t// in\n    tag_36:\n      tag_38\n      jump\t// in\n    tag_35:\n      stop\n        /* \"contracts/AutoPayment.sol\":1902:2286  function withdrawFunds(uint256 amountEth) public {... */\n    tag_4:\n      callvalue\n      dup1\n      iszero\n      tag_39\n      jumpi\n      0x00\n      dup1\n      revert\n    tag_39:\n      pop\n      tag_35\n      tag_41\n      calldatasize\n      0x04\n      tag_42\n      jump\t// in\n    tag_41:\n      tag_43\n      jump\t// in\n        /* \"contracts/AutoPayment.sol\":1278:1344  bytes32 public constant RETAILER_ROLE = keccak256(\"RETAILER_ROLE\") */\n    tag_5:\n      callvalue\n      dup1\n      iszero\n      tag_44\n      jumpi\n      0x00\n      dup1\n      revert\n    tag_44:\n      pop\n      tag_45\n      0x00\n      dup1\n      mload\n      0x20\n      data_6642667809542bd73ad235f35fbbe14137a0701685c52cf7a9609dd85fc4edd4\n      dup4\n      codecopy\n      dup2\n      mload\n      swap2\n      mstore\n      dup2\n      jump\n    tag_45:\n      mload(0x40)\n        /* \"#utility.yul\":1225:1250   */\n      swap1\n      dup2\n      mstore\n        /* \"#utility.yul\":1213:1215   */\n      0x20\n        /* \"#utility.yul\":1198:1216   */\n      add\n        /* \"contracts/AutoPayment.sol\":1278:1344  bytes32 public constant RETAILER_ROLE = keccak256(\"RETAILER_ROLE\") */\n      tag_32\n        /* \"#utility.yul\":1079:1256   */\n      jump\n        /* \"@openzeppelin/contracts/access/AccessControl.sol\":3810:3930  function getRoleAdmin(bytes32 role) public view virtual returns (bytes32) {... */\n    tag_6:\n      callvalue\n      dup1\n      iszero\n      tag_49\n      jumpi\n      0x00\n      dup1\n      revert\n    tag_49:\n      pop\n      tag_45\n      tag_51\n      calldatasize\n      0x04\n      tag_42\n      jump\t// in\n    tag_51:\n        /* \"@openzeppelin/contracts/access/AccessControl.sol\":3875:3882  bytes32 */\n      0x00\n        /* \"@openzeppelin/contracts/access/AccessControl.sol\":3901:3913  _roles[role] */\n      swap1\n      dup2\n      mstore\n      0x20\n      dup2\n      swap1\n      mstore\n      0x40\n      swap1\n      keccak256\n        /* \"@openzeppelin/contracts/access/AccessControl.sol\":3901:3923  _roles[role].adminRole */\n      0x01\n      add\n      sload\n      swap1\n        /* \"@openzeppelin/contracts/access/AccessControl.sol\":3810:3930  function getRoleAdmin(bytes32 role) public view virtual returns (bytes32) {... */\n      jump\n        /* \"@openzeppelin/contracts/access/AccessControl.sol\":4226:4362  function grantRole(bytes32 role, address account) public virtual onlyRole(getRoleAdmin(role)) {... */\n    tag_7:\n      callvalue\n      dup1\n      iszero\n      tag_55\n      jumpi\n      0x00\n      dup1\n      revert\n    tag_55:\n      pop\n      tag_35\n      tag_57\n      calldatasize\n      0x04\n      tag_58\n      jump\t// in\n    tag_57:\n      tag_59\n      jump\t// in\n        /* \"contracts/AutoPayment.sol\":1805:1894  function depositFundsRetailer() public payable onlyRole(RETAILER_ROLE) {... */\n    tag_8:\n      tag_35\n      tag_61\n      jump\t// in\n        /* \"@openzeppelin/contracts/access/AccessControl.sol\":5328:5573  function renounceRole(bytes32 role, address callerConfirmation) public virtual {... */\n    tag_9:\n      callvalue\n      dup1\n      iszero\n      tag_62\n      jumpi\n      0x00\n      dup1\n      revert\n    tag_62:\n      pop\n      tag_35\n      tag_64\n      calldatasize\n      0x04\n      tag_58\n      jump\t// in\n    tag_64:\n      tag_65\n      jump\t// in\n        /* \"contracts/AutoPayment.sol\":1027:1071  mapping(uint256 => bool) public paidToFarmer */\n    tag_10:\n      callvalue\n      dup1\n      iszero\n      tag_66\n      jumpi\n      0x00\n      dup1\n      revert\n    tag_66:\n      pop\n      tag_28\n      tag_68\n      calldatasize\n      0x04\n      tag_42\n      jump\t// in\n    tag_68:\n      mstore(0x20, 0x02)\n      0x00\n      swap1\n      dup2\n      mstore\n      0x40\n      swap1\n      keccak256\n      sload\n      0xff\n      and\n      dup2\n      jump\n        /* \"contracts/AutoPayment.sol\":3944:4051  function getContractBalance() public view returns (uint256) {... */\n    tag_11:\n      callvalue\n      dup1\n      iszero\n      tag_71\n      jumpi\n      0x00\n      dup1\n      revert\n    tag_71:\n      pop\n        /* \"contracts/AutoPayment.sol\":4022:4043  address(this).balance */\n      selfbalance\n        /* \"contracts/AutoPayment.sol\":3944:4051  function getContractBalance() public view returns (uint256) {... */\n      jump(tag_45)\n        /* \"contracts/AutoPayment.sol\":4160:4259  function addInspector(address account) public {... */\n    tag_12:\n      callvalue\n      dup1\n      iszero\n      tag_76\n      jumpi\n      0x00\n      dup1\n      revert\n    tag_76:\n      pop\n      tag_35\n      tag_78\n      calldatasize\n      0x04\n      tag_79\n      jump\t// in\n    tag_78:\n      tag_80\n      jump\t// in\n        /* \"contracts/AutoPayment.sol\":4059:4152  function addFarmer(address account) public {... */\n    tag_13:\n      callvalue\n      dup1\n      iszero\n      tag_81\n      jumpi\n      0x00\n      dup1\n      revert\n    tag_81:\n      pop\n      tag_35\n      tag_83\n      calldatasize\n      0x04\n      tag_79\n      jump\t// in\n    tag_83:\n      tag_84\n      jump\t// in\n        /* \"contracts/AutoPayment.sol\":4267:4364  function addRetailer(address account) public {... */\n    tag_14:\n      callvalue\n      dup1\n      iszero\n      tag_85\n      jumpi\n      0x00\n      dup1\n      revert\n    tag_85:\n      pop\n      tag_35\n      tag_87\n      calldatasize\n      0x04\n      tag_79\n      jump\t// in\n    tag_87:\n      tag_88\n      jump\t// in\n        /* \"@openzeppelin/contracts/access/AccessControl.sol\":2854:2990  function hasRole(bytes32 role, address account) public view virtual returns (bool) {... */\n    tag_15:\n      callvalue\n      dup1\n      iszero\n      tag_89\n      jumpi\n      0x00\n      dup1\n      revert\n    tag_89:\n      pop\n      tag_28\n      tag_91\n      calldatasize\n      0x04\n      tag_58\n      jump\t// in\n    tag_91:\n      tag_92\n      jump\t// in\n        /* \"contracts/AutoPayment.sol\":981:1020  IMilkSupplyChain public milkSupplyChain */\n    tag_16:\n      callvalue\n      dup1\n      iszero\n      tag_94\n      jumpi\n      0x00\n      dup1\n      revert\n    tag_94:\n      pop\n      sload(0x01)\n      tag_95\n      swap1\n      sub(shl(0xa0, 0x01), 0x01)\n      and\n      dup2\n      jump\n    tag_95:\n      mload(0x40)\n      sub(shl(0xa0, 0x01), 0x01)\n        /* \"#utility.yul\":2622:2654   */\n      swap1\n      swap2\n      and\n        /* \"#utility.yul\":2604:2655   */\n      dup2\n      mstore\n        /* \"#utility.yul\":2592:2594   */\n      0x20\n        /* \"#utility.yul\":2577:2595   */\n      add\n        /* \"contracts/AutoPayment.sol\":981:1020  IMilkSupplyChain public milkSupplyChain */\n      tag_32\n        /* \"#utility.yul\":2434:2661   */\n      jump\n        /* \"@openzeppelin/contracts/access/AccessControl.sol\":2187:2236  bytes32 public constant DEFAULT_ADMIN_ROLE = 0x00 */\n    tag_17:\n      callvalue\n      dup1\n      iszero\n      tag_99\n      jumpi\n      0x00\n      dup1\n      revert\n    tag_99:\n      pop\n      tag_45\n        /* \"@openzeppelin/contracts/access/AccessControl.sol\":2232:2236  0x00 */\n      0x00\n        /* \"@openzeppelin/contracts/access/AccessControl.sol\":2187:2236  bytes32 public constant DEFAULT_ADMIN_ROLE = 0x00 */\n      dup2\n      jump\n        /* \"@openzeppelin/contracts/access/AccessControl.sol\":4642:4780  function revokeRole(bytes32 role, address account) public virtual onlyRole(getRoleAdmin(role)) {... */\n    tag_18:\n      callvalue\n      dup1\n      iszero\n      tag_103\n      jumpi\n      0x00\n      dup1\n      revert\n    tag_103:\n      pop\n      tag_35\n      tag_105\n      calldatasize\n      0x04\n      tag_58\n      jump\t// in\n    tag_105:\n      tag_106\n      jump\t// in\n        /* \"contracts/AutoPayment.sol\":1078:1125  mapping(uint256 => bool) public paidToInspector */\n    tag_19:\n      callvalue\n      dup1\n      iszero\n      tag_107\n      jumpi\n      0x00\n      dup1\n      revert\n    tag_107:\n      pop\n      tag_28\n      tag_109\n      calldatasize\n      0x04\n      tag_42\n      jump\t// in\n    tag_109:\n      mstore(0x20, 0x03)\n      0x00\n      swap1\n      dup2\n      mstore\n      0x40\n      swap1\n      keccak256\n      sload\n      0xff\n      and\n      dup2\n      jump\n        /* \"contracts/AutoPayment.sol\":1203:1271  bytes32 public constant INSPECTOR_ROLE = keccak256(\"INSPECTOR_ROLE\") */\n    tag_20:\n      callvalue\n      dup1\n      iszero\n      tag_112\n      jumpi\n      0x00\n      dup1\n      revert\n    tag_112:\n      pop\n      tag_45\n      0x00\n      dup1\n      mload\n      0x20\n      data_5be2b2c608f196794631fe9214c59edb032ff391e243f9a5f539ae7097b374f4\n      dup4\n      codecopy\n      dup2\n      mload\n      swap2\n      mstore\n      dup2\n      jump\n        /* \"contracts/AutoPayment.sol\":1707:1797  function depositFundsInspector() public payable onlyRole(INSPECTOR_ROLE) {... */\n    tag_21:\n      tag_35\n      tag_117\n      jump\t// in\n        /* \"contracts/AutoPayment.sol\":2294:3132  function checkAndPayToFarmer(uint256 batchId, uint256 paymentAmountEth, address farmer) public onlyRole(INSPECTOR_ROLE) {... */\n    tag_22:\n      callvalue\n      dup1\n      iszero\n      tag_118\n      jumpi\n      0x00\n      dup1\n      revert\n    tag_118:\n      pop\n      tag_35\n      tag_120\n      calldatasize\n      0x04\n      tag_121\n      jump\t// in\n    tag_120:\n      tag_122\n      jump\t// in\n        /* \"contracts/AutoPayment.sol\":1134:1196  bytes32 public constant FARMER_ROLE = keccak256(\"FARMER_ROLE\") */\n    tag_23:\n      callvalue\n      dup1\n      iszero\n      tag_123\n      jumpi\n      0x00\n      dup1\n      revert\n    tag_123:\n      pop\n      tag_45\n        /* \"contracts/AutoPayment.sol\":1172:1196  keccak256(\"FARMER_ROLE\") */\n      0x7c6181838a71a779e445600d4c6ecbe16bacf2b3c5bda69c29fada66d1b645d1\n        /* \"contracts/AutoPayment.sol\":1134:1196  bytes32 public constant FARMER_ROLE = keccak256(\"FARMER_ROLE\") */\n      dup2\n      jump\n        /* \"@openzeppelin/contracts/access/AccessControl.sol\":2565:2767  function supportsInterface(bytes4 interfaceId) public view virtual override returns (bool) {... */\n    tag_31:\n        /* \"@openzeppelin/contracts/access/AccessControl.sol\":2650:2654  bool */\n      0x00\n      not(sub(shl(0xe0, 0x01), 0x01))\n        /* \"@openzeppelin/contracts/access/AccessControl.sol\":2673:2720  interfaceId == type(IAccessControl).interfaceId */\n      dup3\n      and\n      shl(0xe0, 0x7965db0b)\n      eq\n      dup1\n        /* \"@openzeppelin/contracts/access/AccessControl.sol\":2673:2760  interfaceId == type(IAccessControl).interfaceId || super.supportsInterface(interfaceId) */\n      tag_129\n      jumpi\n      pop\n      shl(0xe0, 0x01ffc9a7)\n      not(sub(shl(0xe0, 0x01), 0x01))\n        /* \"@openzeppelin/contracts/utils/introspection/ERC165.sol\":861:901  interfaceId == type(IERC165).interfaceId */\n      dup4\n      and\n      eq\n        /* \"@openzeppelin/contracts/access/AccessControl.sol\":2724:2760  super.supportsInterface(interfaceId) */\n    tag_129:\n        /* \"@openzeppelin/contracts/access/AccessControl.sol\":2666:2760  return interfaceId == type(IAccessControl).interfaceId || super.supportsInterface(interfaceId) */\n      swap3\n        /* \"@openzeppelin/contracts/access/AccessControl.sol\":2565:2767  function supportsInterface(bytes4 interfaceId) public view virtual override returns (bool) {... */\n      swap2\n      pop\n      pop\n      jump\t// out\n        /* \"contracts/AutoPayment.sol\":3140:3936  function checkAndPayToInspector(uint256 batchId, uint256 paymentAmountEth) public onlyRole(RETAILER_ROLE) {... */\n    tag_38:\n      0x00\n      dup1\n      mload\n      0x20\n      data_6642667809542bd73ad235f35fbbe14137a0701685c52cf7a9609dd85fc4edd4\n      dup4\n      codecopy\n      dup2\n      mload\n      swap2\n      mstore\n        /* \"@openzeppelin/contracts/access/AccessControl.sol\":2464:2480  _checkRole(role) */\n      tag_132\n        /* \"@openzeppelin/contracts/access/AccessControl.sol\":2475:2479  role */\n      dup2\n        /* \"@openzeppelin/contracts/access/AccessControl.sol\":2464:2474  _checkRole */\n      tag_133\n        /* \"@openzeppelin/contracts/access/AccessControl.sol\":2464:2480  _checkRole(role) */\n      jump\t// in\n    tag_132:\n        /* \"contracts/AutoPayment.sol\":3266:3290  paidToInspector[batchId] */\n      0x00\n      dup4\n      dup2\n      mstore\n        /* \"contracts/AutoPayment.sol\":3266:3281  paidToInspector */\n      0x03\n        /* \"contracts/AutoPayment.sol\":3266:3290  paidToInspector[batchId] */\n      0x20\n      mstore\n      0x40\n      swap1\n      keccak256\n      sload\n      0xff\n      and\n        /* \"contracts/AutoPayment.sol\":3265:3290  !paidToInspector[batchId] */\n      iszero\n        /* \"contracts/AutoPayment.sol\":3257:3326  require(!paidToInspector[batchId], \"Batch already paid to inspector\") */\n      tag_135\n      jumpi\n      mload(0x40)\n      shl(0xe5, 0x461bcd)\n      dup2\n      mstore\n        /* \"#utility.yul\":3360:3362   */\n      0x20\n        /* \"contracts/AutoPayment.sol\":3257:3326  require(!paidToInspector[batchId], \"Batch already paid to inspector\") */\n      0x04\n      dup3\n      add\n        /* \"#utility.yul\":3342:3363   */\n      mstore\n        /* \"#utility.yul\":3399:3401   */\n      0x1f\n        /* \"#utility.yul\":3379:3397   */\n      0x24\n      dup3\n      add\n        /* \"#utility.yul\":3372:3402   */\n      mstore\n        /* \"#utility.yul\":3438:3471   */\n      0x426174636820616c7265616479207061696420746f20696e73706563746f7200\n        /* \"#utility.yul\":3418:3436   */\n      0x44\n      dup3\n      add\n        /* \"#utility.yul\":3411:3472   */\n      mstore\n        /* \"#utility.yul\":3489:3507   */\n      0x64\n      add\n        /* \"contracts/AutoPayment.sol\":3257:3326  require(!paidToInspector[batchId], \"Batch already paid to inspector\") */\n    tag_136:\n      mload(0x40)\n      dup1\n      swap2\n      sub\n      swap1\n      revert\n    tag_135:\n        /* \"contracts/AutoPayment.sol\":3381:3396  milkSupplyChain */\n      sload(0x01)\n        /* \"contracts/AutoPayment.sol\":3381:3418  milkSupplyChain.getBatchInfo(batchId) */\n      mload(0x40)\n      shl(0xe0, 0x1a0058f5)\n      dup2\n      mstore\n      0x04\n      dup2\n      add\n        /* \"#utility.yul\":1225:1250   */\n      dup6\n      swap1\n      mstore\n        /* \"contracts/AutoPayment.sol\":3339:3378  IMilkSupplyChain.MilkBatch memory batch */\n      0x00\n      swap2\n      sub(shl(0xa0, 0x01), 0x01)\n        /* \"contracts/AutoPayment.sol\":3381:3396  milkSupplyChain */\n      and\n      swap1\n        /* \"contracts/AutoPayment.sol\":3381:3409  milkSupplyChain.getBatchInfo */\n      0x1a0058f5\n      swap1\n        /* \"#utility.yul\":1198:1216   */\n      0x24\n      add\n        /* \"contracts/AutoPayment.sol\":3381:3418  milkSupplyChain.getBatchInfo(batchId) */\n      0x00\n      mload(0x40)\n      dup1\n      dup4\n      sub\n      dup2\n      dup7\n      gas\n      staticcall\n      iszero\n      dup1\n      iszero\n      tag_140\n      jumpi\n      returndatasize\n      0x00\n      dup1\n      returndatacopy\n      revert(0x00, returndatasize)\n    tag_140:\n      pop\n      pop\n      pop\n      pop\n      mload(0x40)\n      returndatasize\n      0x00\n      dup3\n      returndatacopy\n      0x1f\n      returndatasize\n      swap1\n      dup2\n      add\n      not(0x1f)\n      and\n      dup3\n      add\n      0x40\n      mstore\n      tag_141\n      swap2\n      swap1\n      dup2\n      add\n      swap1\n      tag_142\n      jump\t// in\n    tag_141:\n        /* \"contracts/AutoPayment.sol\":3497:3514  bytes(\"Received\") */\n      0x40\n      dup1\n      mload\n      dup1\n      dup3\n      add\n      swap1\n      swap2\n      mstore\n      0x08\n      dup2\n      mstore\n      shl(0xc2, 0x149958d95a5d9959)\n      0x20\n      swap2\n      dup3\n      add\n      mstore\n        /* \"contracts/AutoPayment.sol\":3455:3474  batch.receivingInfo */\n      0x60\n      dup3\n      add\n      mload\n        /* \"contracts/AutoPayment.sol\":3455:3481  batch.receivingInfo.status */\n      dup2\n      add\n      mload\n        /* \"contracts/AutoPayment.sol\":3439:3483  keccak256(bytes(batch.receivingInfo.status)) */\n      dup1\n      mload\n      swap2\n      add\n      keccak256\n        /* \"contracts/AutoPayment.sol\":3339:3418  IMilkSupplyChain.MilkBatch memory batch = milkSupplyChain.getBatchInfo(batchId) */\n      swap1\n      swap2\n      pop\n        /* \"contracts/AutoPayment.sol\":3487:3515  keccak256(bytes(\"Received\")) */\n      0x5287480bf4f699e943d1ba1a0fe57cf262edac506f3c957910c0e3e4eb8da9da\n        /* \"contracts/AutoPayment.sol\":3439:3515  keccak256(bytes(batch.receivingInfo.status)) == keccak256(bytes(\"Received\")) */\n      eq\n        /* \"contracts/AutoPayment.sol\":3431:3538  require(keccak256(bytes(batch.receivingInfo.status)) == keccak256(bytes(\"Received\")), \"Batch not received\") */\n      tag_143\n      jumpi\n      mload(0x40)\n      shl(0xe5, 0x461bcd)\n      dup2\n      mstore\n        /* \"#utility.yul\":7670:7672   */\n      0x20\n        /* \"contracts/AutoPayment.sol\":3431:3538  require(keccak256(bytes(batch.receivingInfo.status)) == keccak256(bytes(\"Received\")), \"Batch not received\") */\n      0x04\n      dup3\n      add\n        /* \"#utility.yul\":7652:7673   */\n      mstore\n        /* \"#utility.yul\":7709:7711   */\n      0x12\n        /* \"#utility.yul\":7689:7707   */\n      0x24\n      dup3\n      add\n        /* \"#utility.yul\":7682:7712   */\n      mstore\n      shl(0x72, 0x10985d18da081b9bdd081c9958d95a5d9959)\n        /* \"#utility.yul\":7728:7746   */\n      0x44\n      dup3\n      add\n        /* \"#utility.yul\":7721:7769   */\n      mstore\n        /* \"#utility.yul\":7786:7804   */\n      0x64\n      add\n        /* \"contracts/AutoPayment.sol\":3431:3538  require(keccak256(bytes(batch.receivingInfo.status)) == keccak256(bytes(\"Received\")), \"Batch not received\") */\n      tag_136\n        /* \"#utility.yul\":7468:7810   */\n      jump\n        /* \"contracts/AutoPayment.sol\":3431:3538  require(keccak256(bytes(batch.receivingInfo.status)) == keccak256(bytes(\"Received\")), \"Batch not received\") */\n    tag_143:\n        /* \"contracts/AutoPayment.sol\":3551:3572  uint256 paymentAmount */\n      0x00\n        /* \"contracts/AutoPayment.sol\":3575:3601  paymentAmountEth * 1 ether */\n      tag_146\n        /* \"contracts/AutoPayment.sol\":3575:3591  paymentAmountEth */\n      dup5\n        /* \"contracts/AutoPayment.sol\":3594:3601  1 ether */\n      0x0de0b6b3a7640000\n        /* \"contracts/AutoPayment.sol\":3575:3601  paymentAmountEth * 1 ether */\n      tag_147\n      jump\t// in\n    tag_146:\n        /* \"contracts/AutoPayment.sol\":3551:3601  uint256 paymentAmount = paymentAmountEth * 1 ether */\n      swap1\n      pop\n        /* \"contracts/AutoPayment.sol\":3667:3680  paymentAmount */\n      dup1\n        /* \"contracts/AutoPayment.sol\":3642:3663  address(this).balance */\n      selfbalance\n        /* \"contracts/AutoPayment.sol\":3642:3680  address(this).balance >= paymentAmount */\n      lt\n      iszero\n        /* \"contracts/AutoPayment.sol\":3634:3714  require(address(this).balance >= paymentAmount, \"Insufficient contract balance\") */\n      tag_148\n      jumpi\n      mload(0x40)\n      shl(0xe5, 0x461bcd)\n      dup2\n      mstore\n        /* \"#utility.yul\":8287:8289   */\n      0x20\n        /* \"contracts/AutoPayment.sol\":3634:3714  require(address(this).balance >= paymentAmount, \"Insufficient contract balance\") */\n      0x04\n      dup3\n      add\n        /* \"#utility.yul\":8269:8290   */\n      mstore\n        /* \"#utility.yul\":8326:8328   */\n      0x1d\n        /* \"#utility.yul\":8306:8324   */\n      0x24\n      dup3\n      add\n        /* \"#utility.yul\":8299:8329   */\n      mstore\n        /* \"#utility.yul\":8365:8396   */\n      0x496e73756666696369656e7420636f6e74726163742062616c616e6365000000\n        /* \"#utility.yul\":8345:8363   */\n      0x44\n      dup3\n      add\n        /* \"#utility.yul\":8338:8397   */\n      mstore\n        /* \"#utility.yul\":8414:8432   */\n      0x64\n      add\n        /* \"contracts/AutoPayment.sol\":3634:3714  require(address(this).balance >= paymentAmount, \"Insufficient contract balance\") */\n      tag_136\n        /* \"#utility.yul\":8085:8438   */\n      jump\n        /* \"contracts/AutoPayment.sol\":3634:3714  require(address(this).balance >= paymentAmount, \"Insufficient contract balance\") */\n    tag_148:\n        /* \"contracts/AutoPayment.sol\":3727:3751  paidToInspector[batchId] */\n      0x00\n      dup6\n      dup2\n      mstore\n        /* \"contracts/AutoPayment.sol\":3727:3742  paidToInspector */\n      0x03\n        /* \"contracts/AutoPayment.sol\":3727:3751  paidToInspector[batchId] */\n      0x20\n      mstore\n      0x40\n      dup1\n      dup3\n      keccak256\n        /* \"contracts/AutoPayment.sol\":3727:3758  paidToInspector[batchId] = true */\n      dup1\n      sload\n      not(0xff)\n      and\n        /* \"contracts/AutoPayment.sol\":3754:3758  true */\n      0x01\n        /* \"contracts/AutoPayment.sol\":3727:3758  paidToInspector[batchId] = true */\n      or\n      swap1\n      sstore\n        /* \"contracts/AutoPayment.sol\":3777:3797  batch.inspectionInfo */\n      dup4\n      dup2\n      add\n      mload\n        /* \"contracts/AutoPayment.sol\":3777:3807  batch.inspectionInfo.inspector */\n      mload\n        /* \"contracts/AutoPayment.sol\":3769:3832  payable(batch.inspectionInfo.inspector).transfer(paymentAmount) */\n      swap1\n      mload\n      sub(shl(0xa0, 0x01), 0x01)\n        /* \"contracts/AutoPayment.sol\":3769:3817  payable(batch.inspectionInfo.inspector).transfer */\n      swap1\n      swap2\n      and\n      swap2\n        /* \"contracts/AutoPayment.sol\":3769:3832  payable(batch.inspectionInfo.inspector).transfer(paymentAmount) */\n      dup4\n      iszero\n      0x08fc\n      mul\n      swap2\n        /* \"contracts/AutoPayment.sol\":3818:3831  paymentAmount */\n      dup5\n      swap2\n        /* \"contracts/AutoPayment.sol\":3769:3832  payable(batch.inspectionInfo.inspector).transfer(paymentAmount) */\n      dup2\n        /* \"contracts/AutoPayment.sol\":3727:3751  paidToInspector[batchId] */\n      dup2\n        /* \"contracts/AutoPayment.sol\":3769:3832  payable(batch.inspectionInfo.inspector).transfer(paymentAmount) */\n      dup2\n        /* \"contracts/AutoPayment.sol\":3818:3831  paymentAmount */\n      dup6\n        /* \"contracts/AutoPayment.sol\":3769:3817  payable(batch.inspectionInfo.inspector).transfer */\n      dup9\n        /* \"contracts/AutoPayment.sol\":3769:3832  payable(batch.inspectionInfo.inspector).transfer(paymentAmount) */\n      dup9\n      call\n      swap4\n      pop\n      pop\n      pop\n      pop\n      iszero\n      dup1\n      iszero\n      tag_152\n      jumpi\n      returndatasize\n      0x00\n      dup1\n      returndatacopy\n      revert(0x00, returndatasize)\n    tag_152:\n      pop\n        /* \"contracts/AutoPayment.sol\":3882:3902  batch.inspectionInfo */\n      0x40\n      dup1\n      dup4\n      add\n      mload\n        /* \"contracts/AutoPayment.sol\":3882:3912  batch.inspectionInfo.inspector */\n      mload\n        /* \"contracts/AutoPayment.sol\":3850:3928  PaymentMadeToInspector(batchId, batch.inspectionInfo.inspector, paymentAmount) */\n      dup2\n      mload\n        /* \"#utility.yul\":8645:8670   */\n      dup8\n      dup2\n      mstore\n      sub(shl(0xa0, 0x01), 0x01)\n        /* \"#utility.yul\":8706:8738   */\n      swap1\n      swap2\n      and\n        /* \"#utility.yul\":8701:8703   */\n      0x20\n        /* \"#utility.yul\":8686:8704   */\n      dup3\n      add\n        /* \"#utility.yul\":8679:8739   */\n      mstore\n        /* \"#utility.yul\":8755:8773   */\n      swap1\n      dup2\n      add\n        /* \"#utility.yul\":8748:8782   */\n      dup3\n      swap1\n      mstore\n        /* \"contracts/AutoPayment.sol\":3850:3928  PaymentMadeToInspector(batchId, batch.inspectionInfo.inspector, paymentAmount) */\n      0x153acac1ec7d3b94913455669ddf9101a97f8b3a2ec2daea1935d9a95a926525\n      swap1\n        /* \"#utility.yul\":8633:8635   */\n      0x60\n        /* \"#utility.yul\":8618:8636   */\n      add\n        /* \"contracts/AutoPayment.sol\":3850:3928  PaymentMadeToInspector(batchId, batch.inspectionInfo.inspector, paymentAmount) */\n      mload(0x40)\n      dup1\n      swap2\n      sub\n      swap1\n      log1\n        /* \"contracts/AutoPayment.sol\":3246:3936  {... */\n      pop\n      pop\n        /* \"contracts/AutoPayment.sol\":3140:3936  function checkAndPayToInspector(uint256 batchId, uint256 paymentAmountEth) public onlyRole(RETAILER_ROLE) {... */\n      pop\n      pop\n      pop\n      jump\t// out\n        /* \"contracts/AutoPayment.sol\":1902:2286  function withdrawFunds(uint256 amountEth) public {... */\n    tag_43:\n        /* \"contracts/AutoPayment.sol\":1970:2005  hasRole(INSPECTOR_ROLE, msg.sender) */\n      tag_156\n      0x00\n      dup1\n      mload\n      0x20\n      data_5be2b2c608f196794631fe9214c59edb032ff391e243f9a5f539ae7097b374f4\n      dup4\n      codecopy\n      dup2\n      mload\n      swap2\n      mstore\n        /* \"contracts/AutoPayment.sol\":1994:2004  msg.sender */\n      caller\n        /* \"contracts/AutoPayment.sol\":1970:1977  hasRole */\n      tag_92\n        /* \"contracts/AutoPayment.sol\":1970:2005  hasRole(INSPECTOR_ROLE, msg.sender) */\n      jump\t// in\n    tag_156:\n        /* \"contracts/AutoPayment.sol\":1970:2043  hasRole(INSPECTOR_ROLE, msg.sender) || hasRole(RETAILER_ROLE, msg.sender) */\n      dup1\n      tag_158\n      jumpi\n      pop\n        /* \"contracts/AutoPayment.sol\":2009:2043  hasRole(RETAILER_ROLE, msg.sender) */\n      tag_158\n      0x00\n      dup1\n      mload\n      0x20\n      data_6642667809542bd73ad235f35fbbe14137a0701685c52cf7a9609dd85fc4edd4\n      dup4\n      codecopy\n      dup2\n      mload\n      swap2\n      mstore\n        /* \"contracts/AutoPayment.sol\":2032:2042  msg.sender */\n      caller\n        /* \"contracts/AutoPayment.sol\":2009:2016  hasRole */\n      tag_92\n        /* \"contracts/AutoPayment.sol\":2009:2043  hasRole(RETAILER_ROLE, msg.sender) */\n      jump\t// in\n    tag_158:\n        /* \"contracts/AutoPayment.sol\":1962:2087  require(hasRole(INSPECTOR_ROLE, msg.sender) || hasRole(RETAILER_ROLE, msg.sender), \"Only inspector or retailer can withdraw\") */\n      tag_159\n      jumpi\n      mload(0x40)\n      shl(0xe5, 0x461bcd)\n      dup2\n      mstore\n        /* \"#utility.yul\":8995:8997   */\n      0x20\n        /* \"contracts/AutoPayment.sol\":1962:2087  require(hasRole(INSPECTOR_ROLE, msg.sender) || hasRole(RETAILER_ROLE, msg.sender), \"Only inspector or retailer can withdraw\") */\n      0x04\n      dup3\n      add\n        /* \"#utility.yul\":8977:8998   */\n      mstore\n        /* \"#utility.yul\":9034:9036   */\n      0x27\n        /* \"#utility.yul\":9014:9032   */\n      0x24\n      dup3\n      add\n        /* \"#utility.yul\":9007:9037   */\n      mstore\n        /* \"#utility.yul\":9073:9107   */\n      0x4f6e6c7920696e73706563746f72206f722072657461696c65722063616e2077\n        /* \"#utility.yul\":9053:9071   */\n      0x44\n      dup3\n      add\n        /* \"#utility.yul\":9046:9108   */\n      mstore\n      shl(0xc8, 0x69746864726177)\n        /* \"#utility.yul\":9124:9142   */\n      0x64\n      dup3\n      add\n        /* \"#utility.yul\":9117:9154   */\n      mstore\n        /* \"#utility.yul\":9171:9190   */\n      0x84\n      add\n        /* \"contracts/AutoPayment.sol\":1962:2087  require(hasRole(INSPECTOR_ROLE, msg.sender) || hasRole(RETAILER_ROLE, msg.sender), \"Only inspector or retailer can withdraw\") */\n      tag_136\n        /* \"#utility.yul\":8793:9196   */\n      jump\n        /* \"contracts/AutoPayment.sol\":1962:2087  require(hasRole(INSPECTOR_ROLE, msg.sender) || hasRole(RETAILER_ROLE, msg.sender), \"Only inspector or retailer can withdraw\") */\n    tag_159:\n        /* \"contracts/AutoPayment.sol\":2098:2112  uint256 amount */\n      0x00\n        /* \"contracts/AutoPayment.sol\":2115:2134  amountEth * 1 ether */\n      tag_162\n        /* \"contracts/AutoPayment.sol\":2115:2124  amountEth */\n      dup3\n        /* \"contracts/AutoPayment.sol\":2127:2134  1 ether */\n      0x0de0b6b3a7640000\n        /* \"contracts/AutoPayment.sol\":2115:2134  amountEth * 1 ether */\n      tag_147\n      jump\t// in\n    tag_162:\n        /* \"contracts/AutoPayment.sol\":2098:2134  uint256 amount = amountEth * 1 ether */\n      swap1\n      pop\n        /* \"contracts/AutoPayment.sol\":2200:2206  amount */\n      dup1\n        /* \"contracts/AutoPayment.sol\":2175:2196  address(this).balance */\n      selfbalance\n        /* \"contracts/AutoPayment.sol\":2175:2206  address(this).balance >= amount */\n      lt\n      iszero\n        /* \"contracts/AutoPayment.sol\":2167:2231  require(address(this).balance >= amount, \"Insufficient balance\") */\n      tag_163\n      jumpi\n      mload(0x40)\n      shl(0xe5, 0x461bcd)\n      dup2\n      mstore\n        /* \"#utility.yul\":9403:9405   */\n      0x20\n        /* \"contracts/AutoPayment.sol\":2167:2231  require(address(this).balance >= amount, \"Insufficient balance\") */\n      0x04\n      dup3\n      add\n        /* \"#utility.yul\":9385:9406   */\n      mstore\n        /* \"#utility.yul\":9442:9444   */\n      0x14\n        /* \"#utility.yul\":9422:9440   */\n      0x24\n      dup3\n      add\n        /* \"#utility.yul\":9415:9445   */\n      mstore\n      shl(0x60, 0x496e73756666696369656e742062616c616e6365)\n        /* \"#utility.yul\":9461:9479   */\n      0x44\n      dup3\n      add\n        /* \"#utility.yul\":9454:9504   */\n      mstore\n        /* \"#utility.yul\":9521:9539   */\n      0x64\n      add\n        /* \"contracts/AutoPayment.sol\":2167:2231  require(address(this).balance >= amount, \"Insufficient balance\") */\n      tag_136\n        /* \"#utility.yul\":9201:9545   */\n      jump\n        /* \"contracts/AutoPayment.sol\":2167:2231  require(address(this).balance >= amount, \"Insufficient balance\") */\n    tag_163:\n        /* \"contracts/AutoPayment.sol\":2242:2278  payable(msg.sender).transfer(amount) */\n      mload(0x40)\n        /* \"contracts/AutoPayment.sol\":2250:2260  msg.sender */\n      caller\n      swap1\n        /* \"contracts/AutoPayment.sol\":2242:2278  payable(msg.sender).transfer(amount) */\n      dup3\n      iszero\n      0x08fc\n      mul\n      swap1\n        /* \"contracts/AutoPayment.sol\":2271:2277  amount */\n      dup4\n      swap1\n        /* \"contracts/AutoPayment.sol\":2242:2278  payable(msg.sender).transfer(amount) */\n      0x00\n      dup2\n      dup2\n      dup2\n        /* \"contracts/AutoPayment.sol\":2271:2277  amount */\n      dup6\n        /* \"contracts/AutoPayment.sol\":2250:2260  msg.sender */\n      dup9\n        /* \"contracts/AutoPayment.sol\":2242:2278  payable(msg.sender).transfer(amount) */\n      dup9\n      call\n      swap4\n      pop\n      pop\n      pop\n      pop\n      iszero\n      dup1\n      iszero\n      tag_167\n      jumpi\n      returndatasize\n      0x00\n      dup1\n      returndatacopy\n      revert(0x00, returndatasize)\n    tag_167:\n      pop\n        /* \"contracts/AutoPayment.sol\":1951:2286  {... */\n      pop\n        /* \"contracts/AutoPayment.sol\":1902:2286  function withdrawFunds(uint256 amountEth) public {... */\n      pop\n      jump\t// out\n        /* \"@openzeppelin/contracts/access/AccessControl.sol\":4226:4362  function grantRole(bytes32 role, address account) public virtual onlyRole(getRoleAdmin(role)) {... */\n    tag_59:\n        /* \"@openzeppelin/contracts/access/AccessControl.sol\":3875:3882  bytes32 */\n      0x00\n        /* \"@openzeppelin/contracts/access/AccessControl.sol\":3901:3913  _roles[role] */\n      dup3\n      dup2\n      mstore\n      0x20\n      dup2\n      swap1\n      mstore\n      0x40\n      swap1\n      keccak256\n        /* \"@openzeppelin/contracts/access/AccessControl.sol\":3901:3923  _roles[role].adminRole */\n      0x01\n      add\n      sload\n        /* \"@openzeppelin/contracts/access/AccessControl.sol\":2464:2480  _checkRole(role) */\n      tag_171\n        /* \"@openzeppelin/contracts/access/AccessControl.sol\":2475:2479  role */\n      dup2\n        /* \"@openzeppelin/contracts/access/AccessControl.sol\":2464:2474  _checkRole */\n      tag_133\n        /* \"@openzeppelin/contracts/access/AccessControl.sol\":2464:2480  _checkRole(role) */\n      jump\t// in\n    tag_171:\n        /* \"@openzeppelin/contracts/access/AccessControl.sol\":4330:4355  _grantRole(role, account) */\n      tag_173\n        /* \"@openzeppelin/contracts/access/AccessControl.sol\":4341:4345  role */\n      dup4\n        /* \"@openzeppelin/contracts/access/AccessControl.sol\":4347:4354  account */\n      dup4\n        /* \"@openzeppelin/contracts/access/AccessControl.sol\":4330:4340  _grantRole */\n      tag_174\n        /* \"@openzeppelin/contracts/access/AccessControl.sol\":4330:4355  _grantRole(role, account) */\n      jump\t// in\n    tag_173:\n      pop\n        /* \"@openzeppelin/contracts/access/AccessControl.sol\":4226:4362  function grantRole(bytes32 role, address account) public virtual onlyRole(getRoleAdmin(role)) {... */\n      pop\n      pop\n      pop\n      jump\t// out\n        /* \"contracts/AutoPayment.sol\":1805:1894  function depositFundsRetailer() public payable onlyRole(RETAILER_ROLE) {... */\n    tag_61:\n      0x00\n      dup1\n      mload\n      0x20\n      data_6642667809542bd73ad235f35fbbe14137a0701685c52cf7a9609dd85fc4edd4\n      dup4\n      codecopy\n      dup2\n      mload\n      swap2\n      mstore\n        /* \"@openzeppelin/contracts/access/AccessControl.sol\":2464:2480  _checkRole(role) */\n      tag_176\n        /* \"@openzeppelin/contracts/access/AccessControl.sol\":2475:2479  role */\n      dup2\n        /* \"@openzeppelin/contracts/access/AccessControl.sol\":2464:2474  _checkRole */\n      tag_133\n        /* \"@openzeppelin/contracts/access/AccessControl.sol\":2464:2480  _checkRole(role) */\n      jump\t// in\n    tag_176:\n        /* \"contracts/AutoPayment.sol\":1805:1894  function depositFundsRetailer() public payable onlyRole(RETAILER_ROLE) {... */\n      pop\n      jump\t// out\n        /* \"@openzeppelin/contracts/access/AccessControl.sol\":5328:5573  function renounceRole(bytes32 role, address callerConfirmation) public virtual {... */\n    tag_65:\n      sub(shl(0xa0, 0x01), 0x01)\n        /* \"@openzeppelin/contracts/access/AccessControl.sol\":5421:5455  callerConfirmation != _msgSender() */\n      dup2\n      and\n        /* \"@openzeppelin/contracts/utils/Context.sol\":735:745  msg.sender */\n      caller\n        /* \"@openzeppelin/contracts/access/AccessControl.sol\":5421:5455  callerConfirmation != _msgSender() */\n      eq\n        /* \"@openzeppelin/contracts/access/AccessControl.sol\":5417:5519  if (callerConfirmation != _msgSender()) {... */\n      tag_181\n      jumpi\n        /* \"@openzeppelin/contracts/access/AccessControl.sol\":5478:5508  AccessControlBadConfirmation() */\n      mload(0x40)\n      shl(0xe1, 0x334bd919)\n      dup2\n      mstore\n      0x04\n      add\n      mload(0x40)\n      dup1\n      swap2\n      sub\n      swap1\n      revert\n        /* \"@openzeppelin/contracts/access/AccessControl.sol\":5417:5519  if (callerConfirmation != _msgSender()) {... */\n    tag_181:\n        /* \"@openzeppelin/contracts/access/AccessControl.sol\":5529:5566  _revokeRole(role, callerConfirmation) */\n      tag_167\n        /* \"@openzeppelin/contracts/access/AccessControl.sol\":5541:5545  role */\n      dup3\n        /* \"@openzeppelin/contracts/access/AccessControl.sol\":5547:5565  callerConfirmation */\n      dup3\n        /* \"@openzeppelin/contracts/access/AccessControl.sol\":5529:5540  _revokeRole */\n      tag_183\n        /* \"@openzeppelin/contracts/access/AccessControl.sol\":5529:5566  _revokeRole(role, callerConfirmation) */\n      jump\t// in\n        /* \"contracts/AutoPayment.sol\":4160:4259  function addInspector(address account) public {... */\n    tag_80:\n        /* \"contracts/AutoPayment.sol\":4217:4251  grantRole(INSPECTOR_ROLE, account) */\n      tag_176\n      0x00\n      dup1\n      mload\n      0x20\n      data_5be2b2c608f196794631fe9214c59edb032ff391e243f9a5f539ae7097b374f4\n      dup4\n      codecopy\n      dup2\n      mload\n      swap2\n      mstore\n        /* \"contracts/AutoPayment.sol\":4243:4250  account */\n      dup3\n        /* \"contracts/AutoPayment.sol\":4217:4226  grantRole */\n      tag_59\n        /* \"contracts/AutoPayment.sol\":4217:4251  grantRole(INSPECTOR_ROLE, account) */\n      jump\t// in\n        /* \"contracts/AutoPayment.sol\":4059:4152  function addFarmer(address account) public {... */\n    tag_84:\n        /* \"contracts/AutoPayment.sol\":4113:4144  grantRole(FARMER_ROLE, account) */\n      tag_176\n        /* \"contracts/AutoPayment.sol\":1172:1196  keccak256(\"FARMER_ROLE\") */\n      0x7c6181838a71a779e445600d4c6ecbe16bacf2b3c5bda69c29fada66d1b645d1\n        /* \"contracts/AutoPayment.sol\":4136:4143  account */\n      dup3\n        /* \"contracts/AutoPayment.sol\":4113:4122  grantRole */\n      tag_59\n        /* \"contracts/AutoPayment.sol\":4113:4144  grantRole(FARMER_ROLE, account) */\n      jump\t// in\n        /* \"contracts/AutoPayment.sol\":4267:4364  function addRetailer(address account) public {... */\n    tag_88:\n        /* \"contracts/AutoPayment.sol\":4323:4356  grantRole(RETAILER_ROLE, account) */\n      tag_176\n      0x00\n      dup1\n      mload\n      0x20\n      data_6642667809542bd73ad235f35fbbe14137a0701685c52cf7a9609dd85fc4edd4\n      dup4\n      codecopy\n      dup2\n      mload\n      swap2\n      mstore\n        /* \"contracts/AutoPayment.sol\":4348:4355  account */\n      dup3\n        /* \"contracts/AutoPayment.sol\":4323:4332  grantRole */\n      tag_59\n        /* \"contracts/AutoPayment.sol\":4323:4356  grantRole(RETAILER_ROLE, account) */\n      jump\t// in\n        /* \"@openzeppelin/contracts/access/AccessControl.sol\":2854:2990  function hasRole(bytes32 role, address account) public view virtual returns (bool) {... */\n    tag_92:\n        /* \"@openzeppelin/contracts/access/AccessControl.sol\":2931:2935  bool */\n      0x00\n        /* \"@openzeppelin/contracts/access/AccessControl.sol\":2954:2966  _roles[role] */\n      swap2\n      dup3\n      mstore\n      0x20\n      dup3\n      dup2\n      mstore\n      0x40\n      dup1\n      dup5\n      keccak256\n      sub(shl(0xa0, 0x01), 0x01)\n        /* \"@openzeppelin/contracts/access/AccessControl.sol\":2954:2983  _roles[role].hasRole[account] */\n      swap4\n      swap1\n      swap4\n      and\n      dup5\n      mstore\n      swap2\n      swap1\n      mstore\n      swap1\n      keccak256\n      sload\n      0xff\n      and\n      swap1\n        /* \"@openzeppelin/contracts/access/AccessControl.sol\":2854:2990  function hasRole(bytes32 role, address account) public view virtual returns (bool) {... */\n      jump\t// out\n        /* \"@openzeppelin/contracts/access/AccessControl.sol\":4642:4780  function revokeRole(bytes32 role, address account) public virtual onlyRole(getRoleAdmin(role)) {... */\n    tag_106:\n        /* \"@openzeppelin/contracts/access/AccessControl.sol\":3875:3882  bytes32 */\n      0x00\n        /* \"@openzeppelin/contracts/access/AccessControl.sol\":3901:3913  _roles[role] */\n      dup3\n      dup2\n      mstore\n      0x20\n      dup2\n      swap1\n      mstore\n      0x40\n      swap1\n      keccak256\n        /* \"@openzeppelin/contracts/access/AccessControl.sol\":3901:3923  _roles[role].adminRole */\n      0x01\n      add\n      sload\n        /* \"@openzeppelin/contracts/access/AccessControl.sol\":2464:2480  _checkRole(role) */\n      tag_194\n        /* \"@openzeppelin/contracts/access/AccessControl.sol\":2475:2479  role */\n      dup2\n        /* \"@openzeppelin/contracts/access/AccessControl.sol\":2464:2474  _checkRole */\n      tag_133\n        /* \"@openzeppelin/contracts/access/AccessControl.sol\":2464:2480  _checkRole(role) */\n      jump\t// in\n    tag_194:\n        /* \"@openzeppelin/contracts/access/AccessControl.sol\":4747:4773  _revokeRole(role, account) */\n      tag_173\n        /* \"@openzeppelin/contracts/access/AccessControl.sol\":4759:4763  role */\n      dup4\n        /* \"@openzeppelin/contracts/access/AccessControl.sol\":4765:4772  account */\n      dup4\n        /* \"@openzeppelin/contracts/access/AccessControl.sol\":4747:4758  _revokeRole */\n      tag_183\n        /* \"@openzeppelin/contracts/access/AccessControl.sol\":4747:4773  _revokeRole(role, account) */\n      jump\t// in\n        /* \"contracts/AutoPayment.sol\":1707:1797  function depositFundsInspector() public payable onlyRole(INSPECTOR_ROLE) {... */\n    tag_117:\n      0x00\n      dup1\n      mload\n      0x20\n      data_5be2b2c608f196794631fe9214c59edb032ff391e243f9a5f539ae7097b374f4\n      dup4\n      codecopy\n      dup2\n      mload\n      swap2\n      mstore\n        /* \"@openzeppelin/contracts/access/AccessControl.sol\":2464:2480  _checkRole(role) */\n      tag_176\n        /* \"@openzeppelin/contracts/access/AccessControl.sol\":2475:2479  role */\n      dup2\n        /* \"@openzeppelin/contracts/access/AccessControl.sol\":2464:2474  _checkRole */\n      tag_133\n        /* \"@openzeppelin/contracts/access/AccessControl.sol\":2464:2480  _checkRole(role) */\n      jump\t// in\n        /* \"contracts/AutoPayment.sol\":2294:3132  function checkAndPayToFarmer(uint256 batchId, uint256 paymentAmountEth, address farmer) public onlyRole(INSPECTOR_ROLE) {... */\n    tag_122:\n      0x00\n      dup1\n      mload\n      0x20\n      data_5be2b2c608f196794631fe9214c59edb032ff391e243f9a5f539ae7097b374f4\n      dup4\n      codecopy\n      dup2\n      mload\n      swap2\n      mstore\n        /* \"@openzeppelin/contracts/access/AccessControl.sol\":2464:2480  _checkRole(role) */\n      tag_201\n        /* \"@openzeppelin/contracts/access/AccessControl.sol\":2475:2479  role */\n      dup2\n        /* \"@openzeppelin/contracts/access/AccessControl.sol\":2464:2474  _checkRole */\n      tag_133\n        /* \"@openzeppelin/contracts/access/AccessControl.sol\":2464:2480  _checkRole(role) */\n      jump\t// in\n    tag_201:\n        /* \"contracts/AutoPayment.sol\":2434:2455  paidToFarmer[batchId] */\n      0x00\n      dup5\n      dup2\n      mstore\n        /* \"contracts/AutoPayment.sol\":2434:2446  paidToFarmer */\n      0x02\n        /* \"contracts/AutoPayment.sol\":2434:2455  paidToFarmer[batchId] */\n      0x20\n      mstore\n      0x40\n      swap1\n      keccak256\n      sload\n      0xff\n      and\n        /* \"contracts/AutoPayment.sol\":2433:2455  !paidToFarmer[batchId] */\n      iszero\n        /* \"contracts/AutoPayment.sol\":2425:2488  require(!paidToFarmer[batchId], \"Batch already paid to farmer\") */\n      tag_203\n      jumpi\n      mload(0x40)\n      shl(0xe5, 0x461bcd)\n      dup2\n      mstore\n        /* \"#utility.yul\":9752:9754   */\n      0x20\n        /* \"contracts/AutoPayment.sol\":2425:2488  require(!paidToFarmer[batchId], \"Batch already paid to farmer\") */\n      0x04\n      dup3\n      add\n        /* \"#utility.yul\":9734:9755   */\n      mstore\n        /* \"#utility.yul\":9791:9793   */\n      0x1c\n        /* \"#utility.yul\":9771:9789   */\n      0x24\n      dup3\n      add\n        /* \"#utility.yul\":9764:9794   */\n      mstore\n        /* \"#utility.yul\":9830:9860   */\n      0x426174636820616c7265616479207061696420746f206661726d657200000000\n        /* \"#utility.yul\":9810:9828   */\n      0x44\n      dup3\n      add\n        /* \"#utility.yul\":9803:9861   */\n      mstore\n        /* \"#utility.yul\":9878:9896   */\n      0x64\n      add\n        /* \"contracts/AutoPayment.sol\":2425:2488  require(!paidToFarmer[batchId], \"Batch already paid to farmer\") */\n      tag_136\n        /* \"#utility.yul\":9550:9902   */\n      jump\n        /* \"contracts/AutoPayment.sol\":2425:2488  require(!paidToFarmer[batchId], \"Batch already paid to farmer\") */\n    tag_203:\n        /* \"contracts/AutoPayment.sol\":2507:2535  hasRole(FARMER_ROLE, farmer) */\n      tag_206\n        /* \"contracts/AutoPayment.sol\":1172:1196  keccak256(\"FARMER_ROLE\") */\n      0x7c6181838a71a779e445600d4c6ecbe16bacf2b3c5bda69c29fada66d1b645d1\n        /* \"contracts/AutoPayment.sol\":2528:2534  farmer */\n      dup4\n        /* \"contracts/AutoPayment.sol\":2507:2514  hasRole */\n      tag_92\n        /* \"contracts/AutoPayment.sol\":2507:2535  hasRole(FARMER_ROLE, farmer) */\n      jump\t// in\n    tag_206:\n        /* \"contracts/AutoPayment.sol\":2499:2574  require(hasRole(FARMER_ROLE, farmer), \"Address is not a registered farmer\") */\n      tag_207\n      jumpi\n      mload(0x40)\n      shl(0xe5, 0x461bcd)\n      dup2\n      mstore\n        /* \"#utility.yul\":10109:10111   */\n      0x20\n        /* \"contracts/AutoPayment.sol\":2499:2574  require(hasRole(FARMER_ROLE, farmer), \"Address is not a registered farmer\") */\n      0x04\n      dup3\n      add\n        /* \"#utility.yul\":10091:10112   */\n      mstore\n        /* \"#utility.yul\":10148:10150   */\n      0x22\n        /* \"#utility.yul\":10128:10146   */\n      0x24\n      dup3\n      add\n        /* \"#utility.yul\":10121:10151   */\n      mstore\n        /* \"#utility.yul\":10187:10221   */\n      0x41646472657373206973206e6f7420612072656769737465726564206661726d\n        /* \"#utility.yul\":10167:10185   */\n      0x44\n      dup3\n      add\n        /* \"#utility.yul\":10160:10222   */\n      mstore\n      shl(0xf1, 0x32b9)\n        /* \"#utility.yul\":10238:10256   */\n      0x64\n      dup3\n      add\n        /* \"#utility.yul\":10231:10263   */\n      mstore\n        /* \"#utility.yul\":10280:10299   */\n      0x84\n      add\n        /* \"contracts/AutoPayment.sol\":2499:2574  require(hasRole(FARMER_ROLE, farmer), \"Address is not a registered farmer\") */\n      tag_136\n        /* \"#utility.yul\":9907:10305   */\n      jump\n        /* \"contracts/AutoPayment.sol\":2499:2574  require(hasRole(FARMER_ROLE, farmer), \"Address is not a registered farmer\") */\n    tag_207:\n        /* \"contracts/AutoPayment.sol\":2629:2644  milkSupplyChain */\n      sload(0x01)\n        /* \"contracts/AutoPayment.sol\":2629:2666  milkSupplyChain.getBatchInfo(batchId) */\n      mload(0x40)\n      shl(0xe0, 0x1a0058f5)\n      dup2\n      mstore\n      0x04\n      dup2\n      add\n        /* \"#utility.yul\":1225:1250   */\n      dup7\n      swap1\n      mstore\n        /* \"contracts/AutoPayment.sol\":2587:2626  IMilkSupplyChain.MilkBatch memory batch */\n      0x00\n      swap2\n      sub(shl(0xa0, 0x01), 0x01)\n        /* \"contracts/AutoPayment.sol\":2629:2644  milkSupplyChain */\n      and\n      swap1\n        /* \"contracts/AutoPayment.sol\":2629:2657  milkSupplyChain.getBatchInfo */\n      0x1a0058f5\n      swap1\n        /* \"#utility.yul\":1198:1216   */\n      0x24\n      add\n        /* \"contracts/AutoPayment.sol\":2629:2666  milkSupplyChain.getBatchInfo(batchId) */\n      0x00\n      mload(0x40)\n      dup1\n      dup4\n      sub\n      dup2\n      dup7\n      gas\n      staticcall\n      iszero\n      dup1\n      iszero\n      tag_212\n      jumpi\n      returndatasize\n      0x00\n      dup1\n      returndatacopy\n      revert(0x00, returndatasize)\n    tag_212:\n      pop\n      pop\n      pop\n      pop\n      mload(0x40)\n      returndatasize\n      0x00\n      dup3\n      returndatacopy\n      0x1f\n      returndatasize\n      swap1\n      dup2\n      add\n      not(0x1f)\n      and\n      dup3\n      add\n      0x40\n      mstore\n      tag_213\n      swap2\n      swap1\n      dup2\n      add\n      swap1\n      tag_142\n      jump\t// in\n    tag_213:\n        /* \"contracts/AutoPayment.sol\":2746:2761  bytes(\"Passed\") */\n      0x40\n      dup1\n      mload\n      dup1\n      dup3\n      add\n      dup3\n      mstore\n      0x06\n      dup2\n      mstore\n      shl(0xd2, 0x14185cdcd959)\n      0x20\n      swap2\n      dup3\n      add\n      mstore\n        /* \"contracts/AutoPayment.sol\":2703:2723  batch.inspectionInfo */\n      swap1\n      dup3\n      add\n      mload\n        /* \"contracts/AutoPayment.sol\":2703:2730  batch.inspectionInfo.status */\n      dup2\n      add\n      mload\n        /* \"contracts/AutoPayment.sol\":2687:2732  keccak256(bytes(batch.inspectionInfo.status)) */\n      dup1\n      mload\n      swap2\n      add\n      keccak256\n        /* \"contracts/AutoPayment.sol\":2587:2666  IMilkSupplyChain.MilkBatch memory batch = milkSupplyChain.getBatchInfo(batchId) */\n      swap1\n      swap2\n      pop\n        /* \"contracts/AutoPayment.sol\":2736:2762  keccak256(bytes(\"Passed\")) */\n      0xbed6572eec767bc2f21efcdf6ff789a583d373cbf4dea48d812dc785b929cd40\n        /* \"contracts/AutoPayment.sol\":2687:2762  keccak256(bytes(batch.inspectionInfo.status)) == keccak256(bytes(\"Passed\")) */\n      eq\n        /* \"contracts/AutoPayment.sol\":2679:2788  require(keccak256(bytes(batch.inspectionInfo.status)) == keccak256(bytes(\"Passed\")), \"Inspection not passed\") */\n      tag_214\n      jumpi\n      mload(0x40)\n      shl(0xe5, 0x461bcd)\n      dup2\n      mstore\n        /* \"#utility.yul\":10512:10514   */\n      0x20\n        /* \"contracts/AutoPayment.sol\":2679:2788  require(keccak256(bytes(batch.inspectionInfo.status)) == keccak256(bytes(\"Passed\")), \"Inspection not passed\") */\n      0x04\n      dup3\n      add\n        /* \"#utility.yul\":10494:10515   */\n      mstore\n        /* \"#utility.yul\":10551:10553   */\n      0x15\n        /* \"#utility.yul\":10531:10549   */\n      0x24\n      dup3\n      add\n        /* \"#utility.yul\":10524:10554   */\n      mstore\n      shl(0x5a, 0x125b9cdc1958dd1a5bdb881b9bdd081c185cdcd959)\n        /* \"#utility.yul\":10570:10588   */\n      0x44\n      dup3\n      add\n        /* \"#utility.yul\":10563:10614   */\n      mstore\n        /* \"#utility.yul\":10631:10649   */\n      0x64\n      add\n        /* \"contracts/AutoPayment.sol\":2679:2788  require(keccak256(bytes(batch.inspectionInfo.status)) == keccak256(bytes(\"Passed\")), \"Inspection not passed\") */\n      tag_136\n        /* \"#utility.yul\":10310:10655   */\n      jump\n        /* \"contracts/AutoPayment.sol\":2679:2788  require(keccak256(bytes(batch.inspectionInfo.status)) == keccak256(bytes(\"Passed\")), \"Inspection not passed\") */\n    tag_214:\n        /* \"contracts/AutoPayment.sol\":2801:2822  uint256 paymentAmount */\n      0x00\n        /* \"contracts/AutoPayment.sol\":2825:2851  paymentAmountEth * 1 ether */\n      tag_217\n        /* \"contracts/AutoPayment.sol\":2825:2841  paymentAmountEth */\n      dup6\n        /* \"contracts/AutoPayment.sol\":2844:2851  1 ether */\n      0x0de0b6b3a7640000\n        /* \"contracts/AutoPayment.sol\":2825:2851  paymentAmountEth * 1 ether */\n      tag_147\n      jump\t// in\n    tag_217:\n        /* \"contracts/AutoPayment.sol\":2801:2851  uint256 paymentAmount = paymentAmountEth * 1 ether */\n      swap1\n      pop\n        /* \"contracts/AutoPayment.sol\":2917:2930  paymentAmount */\n      dup1\n        /* \"contracts/AutoPayment.sol\":2892:2913  address(this).balance */\n      selfbalance\n        /* \"contracts/AutoPayment.sol\":2892:2930  address(this).balance >= paymentAmount */\n      lt\n      iszero\n        /* \"contracts/AutoPayment.sol\":2884:2964  require(address(this).balance >= paymentAmount, \"Insufficient contract balance\") */\n      tag_218\n      jumpi\n      mload(0x40)\n      shl(0xe5, 0x461bcd)\n      dup2\n      mstore\n        /* \"#utility.yul\":8287:8289   */\n      0x20\n        /* \"contracts/AutoPayment.sol\":2884:2964  require(address(this).balance >= paymentAmount, \"Insufficient contract balance\") */\n      0x04\n      dup3\n      add\n        /* \"#utility.yul\":8269:8290   */\n      mstore\n        /* \"#utility.yul\":8326:8328   */\n      0x1d\n        /* \"#utility.yul\":8306:8324   */\n      0x24\n      dup3\n      add\n        /* \"#utility.yul\":8299:8329   */\n      mstore\n        /* \"#utility.yul\":8365:8396   */\n      0x496e73756666696369656e7420636f6e74726163742062616c616e6365000000\n        /* \"#utility.yul\":8345:8363   */\n      0x44\n      dup3\n      add\n        /* \"#utility.yul\":8338:8397   */\n      mstore\n        /* \"#utility.yul\":8414:8432   */\n      0x64\n      add\n        /* \"contracts/AutoPayment.sol\":2884:2964  require(address(this).balance >= paymentAmount, \"Insufficient contract balance\") */\n      tag_136\n        /* \"#utility.yul\":8085:8438   */\n      jump\n        /* \"contracts/AutoPayment.sol\":2884:2964  require(address(this).balance >= paymentAmount, \"Insufficient contract balance\") */\n    tag_218:\n        /* \"contracts/AutoPayment.sol\":2977:2998  paidToFarmer[batchId] */\n      0x00\n      dup7\n      dup2\n      mstore\n        /* \"contracts/AutoPayment.sol\":2977:2989  paidToFarmer */\n      0x02\n        /* \"contracts/AutoPayment.sol\":2977:2998  paidToFarmer[batchId] */\n      0x20\n      mstore\n      0x40\n      dup1\n      dup3\n      keccak256\n        /* \"contracts/AutoPayment.sol\":2977:3005  paidToFarmer[batchId] = true */\n      dup1\n      sload\n      not(0xff)\n      and\n        /* \"contracts/AutoPayment.sol\":3001:3005  true */\n      0x01\n        /* \"contracts/AutoPayment.sol\":2977:3005  paidToFarmer[batchId] = true */\n      or\n      swap1\n      sstore\n        /* \"contracts/AutoPayment.sol\":3016:3055  payable(farmer).transfer(paymentAmount) */\n      mload\n      sub(shl(0xa0, 0x01), 0x01)\n        /* \"contracts/AutoPayment.sol\":3016:3040  payable(farmer).transfer */\n      dup7\n      and\n      swap2\n        /* \"contracts/AutoPayment.sol\":3016:3055  payable(farmer).transfer(paymentAmount) */\n      dup4\n      iszero\n      0x08fc\n      mul\n      swap2\n        /* \"contracts/AutoPayment.sol\":3041:3054  paymentAmount */\n      dup5\n      swap2\n        /* \"contracts/AutoPayment.sol\":3016:3055  payable(farmer).transfer(paymentAmount) */\n      dup2\n        /* \"contracts/AutoPayment.sol\":2977:2998  paidToFarmer[batchId] */\n      dup2\n        /* \"contracts/AutoPayment.sol\":3016:3055  payable(farmer).transfer(paymentAmount) */\n      dup2\n        /* \"contracts/AutoPayment.sol\":3041:3054  paymentAmount */\n      dup6\n        /* \"contracts/AutoPayment.sol\":3016:3040  payable(farmer).transfer */\n      dup9\n        /* \"contracts/AutoPayment.sol\":3016:3055  payable(farmer).transfer(paymentAmount) */\n      dup9\n      call\n      swap4\n      pop\n      pop\n      pop\n      pop\n      iszero\n      dup1\n      iszero\n      tag_221\n      jumpi\n      returndatasize\n      0x00\n      dup1\n      returndatacopy\n      revert(0x00, returndatasize)\n    tag_221:\n      pop\n        /* \"contracts/AutoPayment.sol\":3073:3124  PaymentMadeToFarmer(batchId, farmer, paymentAmount) */\n      0x40\n      dup1\n      mload\n        /* \"#utility.yul\":8645:8670   */\n      dup8\n      dup2\n      mstore\n      sub(shl(0xa0, 0x01), 0x01)\n        /* \"#utility.yul\":8706:8738   */\n      dup7\n      and\n        /* \"#utility.yul\":8701:8703   */\n      0x20\n        /* \"#utility.yul\":8686:8704   */\n      dup3\n      add\n        /* \"#utility.yul\":8679:8739   */\n      mstore\n        /* \"#utility.yul\":8755:8773   */\n      swap1\n      dup2\n      add\n        /* \"#utility.yul\":8748:8782   */\n      dup3\n      swap1\n      mstore\n        /* \"contracts/AutoPayment.sol\":3073:3124  PaymentMadeToFarmer(batchId, farmer, paymentAmount) */\n      0xd27bb5336fde76d11784ba19250a85541e04a26c6763acd8fb94a99e594c08ec\n      swap1\n        /* \"#utility.yul\":8633:8635   */\n      0x60\n        /* \"#utility.yul\":8618:8636   */\n      add\n        /* \"contracts/AutoPayment.sol\":3073:3124  PaymentMadeToFarmer(batchId, farmer, paymentAmount) */\n      mload(0x40)\n      dup1\n      swap2\n      sub\n      swap1\n      log1\n        /* \"contracts/AutoPayment.sol\":2414:3132  {... */\n      pop\n      pop\n        /* \"contracts/AutoPayment.sol\":2294:3132  function checkAndPayToFarmer(uint256 batchId, uint256 paymentAmountEth, address farmer) public onlyRole(INSPECTOR_ROLE) {... */\n      pop\n      pop\n      pop\n      pop\n      jump\t// out\n        /* \"@openzeppelin/contracts/access/AccessControl.sol\":3199:3302  function _checkRole(bytes32 role) internal view virtual {... */\n    tag_133:\n        /* \"@openzeppelin/contracts/access/AccessControl.sol\":3265:3295  _checkRole(role, _msgSender()) */\n      tag_176\n        /* \"@openzeppelin/contracts/access/AccessControl.sol\":3276:3280  role */\n      dup2\n        /* \"@openzeppelin/contracts/utils/Context.sol\":735:745  msg.sender */\n      caller\n        /* \"@openzeppelin/contracts/access/AccessControl.sol\":3265:3275  _checkRole */\n      tag_227\n        /* \"@openzeppelin/contracts/access/AccessControl.sol\":3265:3295  _checkRole(role, _msgSender()) */\n      jump\t// in\n        /* \"@openzeppelin/contracts/access/AccessControl.sol\":6179:6495  function _grantRole(bytes32 role, address account) internal virtual returns (bool) {... */\n    tag_174:\n        /* \"@openzeppelin/contracts/access/AccessControl.sol\":6256:6260  bool */\n      0x00\n        /* \"@openzeppelin/contracts/access/AccessControl.sol\":6277:6299  hasRole(role, account) */\n      tag_229\n        /* \"@openzeppelin/contracts/access/AccessControl.sol\":6285:6289  role */\n      dup4\n        /* \"@openzeppelin/contracts/access/AccessControl.sol\":6291:6298  account */\n      dup4\n        /* \"@openzeppelin/contracts/access/AccessControl.sol\":6277:6284  hasRole */\n      tag_92\n        /* \"@openzeppelin/contracts/access/AccessControl.sol\":6277:6299  hasRole(role, account) */\n      jump\t// in\n    tag_229:\n        /* \"@openzeppelin/contracts/access/AccessControl.sol\":6272:6489  if (!hasRole(role, account)) {... */\n      tag_230\n      jumpi\n        /* \"@openzeppelin/contracts/access/AccessControl.sol\":6315:6321  _roles */\n      0x00\n        /* \"@openzeppelin/contracts/access/AccessControl.sol\":6315:6327  _roles[role] */\n      dup4\n      dup2\n      mstore\n      0x20\n      dup2\n      dup2\n      mstore\n      0x40\n      dup1\n      dup4\n      keccak256\n      sub(shl(0xa0, 0x01), 0x01)\n        /* \"@openzeppelin/contracts/access/AccessControl.sol\":6315:6344  _roles[role].hasRole[account] */\n      dup7\n      and\n      dup5\n      mstore\n      swap1\n      swap2\n      mstore\n      swap1\n      keccak256\n        /* \"@openzeppelin/contracts/access/AccessControl.sol\":6315:6351  _roles[role].hasRole[account] = true */\n      dup1\n      sload\n      not(0xff)\n      and\n        /* \"@openzeppelin/contracts/access/AccessControl.sol\":6347:6351  true */\n      0x01\n        /* \"@openzeppelin/contracts/access/AccessControl.sol\":6315:6351  _roles[role].hasRole[account] = true */\n      or\n      swap1\n      sstore\n        /* \"@openzeppelin/contracts/access/AccessControl.sol\":6397:6409  _msgSender() */\n      tag_231\n        /* \"@openzeppelin/contracts/utils/Context.sol\":735:745  msg.sender */\n      caller\n      swap1\n        /* \"@openzeppelin/contracts/utils/Context.sol\":656:752  function _msgSender() internal view virtual returns (address) {... */\n      jump\n        /* \"@openzeppelin/contracts/access/AccessControl.sol\":6397:6409  _msgSender() */\n    tag_231:\n      sub(shl(0xa0, 0x01), 0x01)\n        /* \"@openzeppelin/contracts/access/AccessControl.sol\":6370:6410  RoleGranted(role, account, _msgSender()) */\n      and\n        /* \"@openzeppelin/contracts/access/AccessControl.sol\":6388:6395  account */\n      dup3\n      sub(shl(0xa0, 0x01), 0x01)\n        /* \"@openzeppelin/contracts/access/AccessControl.sol\":6370:6410  RoleGranted(role, account, _msgSender()) */\n      and\n        /* \"@openzeppelin/contracts/access/AccessControl.sol\":6382:6386  role */\n      dup5\n        /* \"@openzeppelin/contracts/access/AccessControl.sol\":6370:6410  RoleGranted(role, account, _msgSender()) */\n      0x2f8788117e7eff1d82e926ec794901d17c78024a50270940304540a733656f0d\n      mload(0x40)\n      mload(0x40)\n      dup1\n      swap2\n      sub\n      swap1\n      log4\n      pop\n        /* \"@openzeppelin/contracts/access/AccessControl.sol\":6431:6435  true */\n      0x01\n        /* \"@openzeppelin/contracts/access/AccessControl.sol\":6424:6435  return true */\n      jump(tag_129)\n        /* \"@openzeppelin/contracts/access/AccessControl.sol\":6272:6489  if (!hasRole(role, account)) {... */\n    tag_230:\n      pop\n        /* \"@openzeppelin/contracts/access/AccessControl.sol\":6473:6478  false */\n      0x00\n        /* \"@openzeppelin/contracts/access/AccessControl.sol\":6466:6478  return false */\n      jump(tag_129)\n        /* \"@openzeppelin/contracts/access/AccessControl.sol\":6730:7047  function _revokeRole(bytes32 role, address account) internal virtual returns (bool) {... */\n    tag_183:\n        /* \"@openzeppelin/contracts/access/AccessControl.sol\":6808:6812  bool */\n      0x00\n        /* \"@openzeppelin/contracts/access/AccessControl.sol\":6828:6850  hasRole(role, account) */\n      tag_235\n        /* \"@openzeppelin/contracts/access/AccessControl.sol\":6836:6840  role */\n      dup4\n        /* \"@openzeppelin/contracts/access/AccessControl.sol\":6842:6849  account */\n      dup4\n        /* \"@openzeppelin/contracts/access/AccessControl.sol\":6828:6835  hasRole */\n      tag_92\n        /* \"@openzeppelin/contracts/access/AccessControl.sol\":6828:6850  hasRole(role, account) */\n      jump\t// in\n    tag_235:\n        /* \"@openzeppelin/contracts/access/AccessControl.sol\":6824:7041  if (hasRole(role, account)) {... */\n      iszero\n      tag_230\n      jumpi\n        /* \"@openzeppelin/contracts/access/AccessControl.sol\":6898:6903  false */\n      0x00\n        /* \"@openzeppelin/contracts/access/AccessControl.sol\":6866:6878  _roles[role] */\n      dup4\n      dup2\n      mstore\n      0x20\n      dup2\n      dup2\n      mstore\n      0x40\n      dup1\n      dup4\n      keccak256\n      sub(shl(0xa0, 0x01), 0x01)\n        /* \"@openzeppelin/contracts/access/AccessControl.sol\":6866:6895  _roles[role].hasRole[account] */\n      dup7\n      and\n      dup1\n      dup6\n      mstore\n      swap3\n      mstore\n      dup1\n      dup4\n      keccak256\n        /* \"@openzeppelin/contracts/access/AccessControl.sol\":6866:6903  _roles[role].hasRole[account] = false */\n      dup1\n      sload\n      not(0xff)\n      and\n      swap1\n      sstore\n        /* \"@openzeppelin/contracts/access/AccessControl.sol\":6922:6962  RoleRevoked(role, account, _msgSender()) */\n      mload\n        /* \"@openzeppelin/contracts/utils/Context.sol\":735:745  msg.sender */\n      caller\n      swap3\n        /* \"@openzeppelin/contracts/access/AccessControl.sol\":6866:6878  _roles[role] */\n      dup7\n      swap2\n        /* \"@openzeppelin/contracts/access/AccessControl.sol\":6922:6962  RoleRevoked(role, account, _msgSender()) */\n      0xf6391f5c32d9c69d2a47ea670b442974b53935d1edc7fd64eb21e047a839171b\n      swap2\n        /* \"@openzeppelin/contracts/access/AccessControl.sol\":6898:6903  false */\n      swap1\n        /* \"@openzeppelin/contracts/access/AccessControl.sol\":6922:6962  RoleRevoked(role, account, _msgSender()) */\n      log4\n      pop\n        /* \"@openzeppelin/contracts/access/AccessControl.sol\":6983:6987  true */\n      0x01\n        /* \"@openzeppelin/contracts/access/AccessControl.sol\":6976:6987  return true */\n      jump(tag_129)\n        /* \"@openzeppelin/contracts/access/AccessControl.sol\":3432:3629  function _checkRole(bytes32 role, address account) internal view virtual {... */\n    tag_227:\n        /* \"@openzeppelin/contracts/access/AccessControl.sol\":3520:3542  hasRole(role, account) */\n      tag_240\n        /* \"@openzeppelin/contracts/access/AccessControl.sol\":3528:3532  role */\n      dup3\n        /* \"@openzeppelin/contracts/access/AccessControl.sol\":3534:3541  account */\n      dup3\n        /* \"@openzeppelin/contracts/access/AccessControl.sol\":3520:3527  hasRole */\n      tag_92\n        /* \"@openzeppelin/contracts/access/AccessControl.sol\":3520:3542  hasRole(role, account) */\n      jump\t// in\n    tag_240:\n        /* \"@openzeppelin/contracts/access/AccessControl.sol\":3515:3623  if (!hasRole(role, account)) {... */\n      tag_241\n      jumpi\n        /* \"@openzeppelin/contracts/access/AccessControl.sol\":3565:3612  AccessControlUnauthorizedAccount(account, role) */\n      mload(0x40)\n      shl(0xe0, 0xe2517d3f)\n      dup2\n      mstore\n      sub(shl(0xa0, 0x01), 0x01)\n        /* \"#utility.yul\":10852:10884   */\n      dup3\n      and\n        /* \"@openzeppelin/contracts/access/AccessControl.sol\":3565:3612  AccessControlUnauthorizedAccount(account, role) */\n      0x04\n      dup3\n      add\n        /* \"#utility.yul\":10834:10885   */\n      mstore\n        /* \"#utility.yul\":10901:10919   */\n      0x24\n      dup2\n      add\n        /* \"#utility.yul\":10894:10928   */\n      dup4\n      swap1\n      mstore\n        /* \"#utility.yul\":10807:10825   */\n      0x44\n      add\n        /* \"@openzeppelin/contracts/access/AccessControl.sol\":3565:3612  AccessControlUnauthorizedAccount(account, role) */\n      tag_136\n        /* \"#utility.yul\":10660:10934   */\n      jump\n        /* \"@openzeppelin/contracts/access/AccessControl.sol\":3515:3623  if (!hasRole(role, account)) {... */\n    tag_241:\n        /* \"@openzeppelin/contracts/access/AccessControl.sol\":3432:3629  function _checkRole(bytes32 role, address account) internal view virtual {... */\n      pop\n      pop\n      jump\t// out\n        /* \"#utility.yul\":14:300   */\n    tag_30:\n        /* \"#utility.yul\":72:78   */\n      0x00\n        /* \"#utility.yul\":125:127   */\n      0x20\n        /* \"#utility.yul\":113:122   */\n      dup3\n        /* \"#utility.yul\":104:111   */\n      dup5\n        /* \"#utility.yul\":100:123   */\n      sub\n        /* \"#utility.yul\":96:128   */\n      slt\n        /* \"#utility.yul\":93:145   */\n      iszero\n      tag_254\n      jumpi\n        /* \"#utility.yul\":141:142   */\n      0x00\n        /* \"#utility.yul\":138:139   */\n      dup1\n        /* \"#utility.yul\":131:143   */\n      revert\n        /* \"#utility.yul\":93:145   */\n    tag_254:\n        /* \"#utility.yul\":167:190   */\n      dup2\n      calldataload\n      not(sub(shl(0xe0, 0x01), 0x01))\n        /* \"#utility.yul\":219:251   */\n      dup2\n      and\n        /* \"#utility.yul\":209:252   */\n      dup2\n      eq\n        /* \"#utility.yul\":199:270   */\n      tag_255\n      jumpi\n        /* \"#utility.yul\":266:267   */\n      0x00\n        /* \"#utility.yul\":263:264   */\n      dup1\n        /* \"#utility.yul\":256:268   */\n      revert\n        /* \"#utility.yul\":199:270   */\n    tag_255:\n        /* \"#utility.yul\":289:294   */\n      swap4\n        /* \"#utility.yul\":14:300   */\n      swap3\n      pop\n      pop\n      pop\n      jump\t// out\n        /* \"#utility.yul\":497:843   */\n    tag_37:\n        /* \"#utility.yul\":565:571   */\n      0x00\n        /* \"#utility.yul\":573:579   */\n      dup1\n        /* \"#utility.yul\":626:628   */\n      0x40\n        /* \"#utility.yul\":614:623   */\n      dup4\n        /* \"#utility.yul\":605:612   */\n      dup6\n        /* \"#utility.yul\":601:624   */\n      sub\n        /* \"#utility.yul\":597:629   */\n      slt\n        /* \"#utility.yul\":594:646   */\n      iszero\n      tag_258\n      jumpi\n        /* \"#utility.yul\":642:643   */\n      0x00\n        /* \"#utility.yul\":639:640   */\n      dup1\n        /* \"#utility.yul\":632:644   */\n      revert\n        /* \"#utility.yul\":594:646   */\n    tag_258:\n      pop\n      pop\n        /* \"#utility.yul\":687:710   */\n      dup1\n      calldataload\n      swap3\n        /* \"#utility.yul\":807:809   */\n      0x20\n        /* \"#utility.yul\":792:810   */\n      swap1\n      swap2\n      add\n        /* \"#utility.yul\":779:811   */\n      calldataload\n      swap2\n      pop\n        /* \"#utility.yul\":497:843   */\n      jump\t// out\n        /* \"#utility.yul\":848:1074   */\n    tag_42:\n        /* \"#utility.yul\":907:913   */\n      0x00\n        /* \"#utility.yul\":960:962   */\n      0x20\n        /* \"#utility.yul\":948:957   */\n      dup3\n        /* \"#utility.yul\":939:946   */\n      dup5\n        /* \"#utility.yul\":935:958   */\n      sub\n        /* \"#utility.yul\":931:963   */\n      slt\n        /* \"#utility.yul\":928:980   */\n      iszero\n      tag_260\n      jumpi\n        /* \"#utility.yul\":976:977   */\n      0x00\n        /* \"#utility.yul\":973:974   */\n      dup1\n        /* \"#utility.yul\":966:978   */\n      revert\n        /* \"#utility.yul\":928:980   */\n    tag_260:\n      pop\n        /* \"#utility.yul\":1021:1044   */\n      calldataload\n      swap2\n        /* \"#utility.yul\":848:1074   */\n      swap1\n      pop\n      jump\t// out\n        /* \"#utility.yul\":1492:1623   */\n    tag_244:\n      sub(shl(0xa0, 0x01), 0x01)\n        /* \"#utility.yul\":1567:1598   */\n      dup2\n      and\n        /* \"#utility.yul\":1557:1599   */\n      dup2\n      eq\n        /* \"#utility.yul\":1547:1617   */\n      tag_176\n      jumpi\n        /* \"#utility.yul\":1613:1614   */\n      0x00\n        /* \"#utility.yul\":1610:1611   */\n      dup1\n        /* \"#utility.yul\":1603:1615   */\n      revert\n        /* \"#utility.yul\":1628:1995   */\n    tag_58:\n        /* \"#utility.yul\":1696:1702   */\n      0x00\n        /* \"#utility.yul\":1704:1710   */\n      dup1\n        /* \"#utility.yul\":1757:1759   */\n      0x40\n        /* \"#utility.yul\":1745:1754   */\n      dup4\n        /* \"#utility.yul\":1736:1743   */\n      dup6\n        /* \"#utility.yul\":1732:1755   */\n      sub\n        /* \"#utility.yul\":1728:1760   */\n      slt\n        /* \"#utility.yul\":1725:1777   */\n      iszero\n      tag_267\n      jumpi\n        /* \"#utility.yul\":1773:1774   */\n      0x00\n        /* \"#utility.yul\":1770:1771   */\n      dup1\n        /* \"#utility.yul\":1763:1775   */\n      revert\n        /* \"#utility.yul\":1725:1777   */\n    tag_267:\n        /* \"#utility.yul\":1818:1841   */\n      dup3\n      calldataload\n      swap2\n      pop\n        /* \"#utility.yul\":1917:1919   */\n      0x20\n        /* \"#utility.yul\":1902:1920   */\n      dup4\n      add\n        /* \"#utility.yul\":1889:1921   */\n      calldataload\n        /* \"#utility.yul\":1930:1963   */\n      tag_268\n        /* \"#utility.yul\":1889:1921   */\n      dup2\n        /* \"#utility.yul\":1930:1963   */\n      tag_244\n      jump\t// in\n    tag_268:\n        /* \"#utility.yul\":1982:1989   */\n      dup1\n        /* \"#utility.yul\":1972:1989   */\n      swap2\n      pop\n      pop\n        /* \"#utility.yul\":1628:1995   */\n      swap3\n      pop\n      swap3\n      swap1\n      pop\n      jump\t// out\n        /* \"#utility.yul\":2182:2429   */\n    tag_79:\n        /* \"#utility.yul\":2241:2247   */\n      0x00\n        /* \"#utility.yul\":2294:2296   */\n      0x20\n        /* \"#utility.yul\":2282:2291   */\n      dup3\n        /* \"#utility.yul\":2273:2280   */\n      dup5\n        /* \"#utility.yul\":2269:2292   */\n      sub\n        /* \"#utility.yul\":2265:2297   */\n      slt\n        /* \"#utility.yul\":2262:2314   */\n      iszero\n      tag_271\n      jumpi\n        /* \"#utility.yul\":2310:2311   */\n      0x00\n        /* \"#utility.yul\":2307:2308   */\n      dup1\n        /* \"#utility.yul\":2300:2312   */\n      revert\n        /* \"#utility.yul\":2262:2314   */\n    tag_271:\n        /* \"#utility.yul\":2349:2358   */\n      dup2\n        /* \"#utility.yul\":2336:2359   */\n      calldataload\n        /* \"#utility.yul\":2368:2399   */\n      tag_255\n        /* \"#utility.yul\":2393:2398   */\n      dup2\n        /* \"#utility.yul\":2368:2399   */\n      tag_244\n      jump\t// in\n        /* \"#utility.yul\":2666:3153   */\n    tag_121:\n        /* \"#utility.yul\":2743:2749   */\n      0x00\n        /* \"#utility.yul\":2751:2757   */\n      dup1\n        /* \"#utility.yul\":2759:2765   */\n      0x00\n        /* \"#utility.yul\":2812:2814   */\n      0x60\n        /* \"#utility.yul\":2800:2809   */\n      dup5\n        /* \"#utility.yul\":2791:2798   */\n      dup7\n        /* \"#utility.yul\":2787:2810   */\n      sub\n        /* \"#utility.yul\":2783:2815   */\n      slt\n        /* \"#utility.yul\":2780:2832   */\n      iszero\n      tag_275\n      jumpi\n        /* \"#utility.yul\":2828:2829   */\n      0x00\n        /* \"#utility.yul\":2825:2826   */\n      dup1\n        /* \"#utility.yul\":2818:2830   */\n      revert\n        /* \"#utility.yul\":2780:2832   */\n    tag_275:\n        /* \"#utility.yul\":2873:2896   */\n      dup4\n      calldataload\n      swap3\n      pop\n        /* \"#utility.yul\":2993:2995   */\n      0x20\n        /* \"#utility.yul\":2978:2996   */\n      dup5\n      add\n        /* \"#utility.yul\":2965:2997   */\n      calldataload\n      swap2\n      pop\n        /* \"#utility.yul\":3075:3077   */\n      0x40\n        /* \"#utility.yul\":3060:3078   */\n      dup5\n      add\n        /* \"#utility.yul\":3047:3079   */\n      calldataload\n        /* \"#utility.yul\":3088:3121   */\n      tag_276\n        /* \"#utility.yul\":3047:3079   */\n      dup2\n        /* \"#utility.yul\":3088:3121   */\n      tag_244\n      jump\t// in\n    tag_276:\n        /* \"#utility.yul\":3140:3147   */\n      dup1\n        /* \"#utility.yul\":3130:3147   */\n      swap2\n      pop\n      pop\n        /* \"#utility.yul\":2666:3153   */\n      swap3\n      pop\n      swap3\n      pop\n      swap3\n      jump\t// out\n        /* \"#utility.yul\":3518:3645   */\n    tag_245:\n        /* \"#utility.yul\":3579:3589   */\n      0x4e487b71\n        /* \"#utility.yul\":3574:3577   */\n      0xe0\n        /* \"#utility.yul\":3570:3590   */\n      shl\n        /* \"#utility.yul\":3567:3568   */\n      0x00\n        /* \"#utility.yul\":3560:3591   */\n      mstore\n        /* \"#utility.yul\":3610:3614   */\n      0x41\n        /* \"#utility.yul\":3607:3608   */\n      0x04\n        /* \"#utility.yul\":3600:3615   */\n      mstore\n        /* \"#utility.yul\":3634:3638   */\n      0x24\n        /* \"#utility.yul\":3631:3632   */\n      0x00\n        /* \"#utility.yul\":3624:3639   */\n      revert\n        /* \"#utility.yul\":3650:3898   */\n    tag_246:\n        /* \"#utility.yul\":3717:3719   */\n      0x40\n        /* \"#utility.yul\":3711:3720   */\n      mload\n        /* \"#utility.yul\":3759:3763   */\n      0x60\n        /* \"#utility.yul\":3747:3764   */\n      dup2\n      add\n        /* \"#utility.yul\":3794:3812   */\n      0xffffffffffffffff\n        /* \"#utility.yul\":3779:3813   */\n      dup2\n      gt\n        /* \"#utility.yul\":3815:3837   */\n      dup3\n      dup3\n      lt\n        /* \"#utility.yul\":3776:3838   */\n      or\n        /* \"#utility.yul\":3773:3861   */\n      iszero\n      tag_281\n      jumpi\n        /* \"#utility.yul\":3841:3859   */\n      tag_281\n      tag_245\n      jump\t// in\n    tag_281:\n        /* \"#utility.yul\":3877:3879   */\n      0x40\n        /* \"#utility.yul\":3870:3892   */\n      mstore\n        /* \"#utility.yul\":3650:3898   */\n      swap1\n      jump\t// out\n        /* \"#utility.yul\":3903:4156   */\n    tag_247:\n        /* \"#utility.yul\":3975:3977   */\n      0x40\n        /* \"#utility.yul\":3969:3978   */\n      mload\n        /* \"#utility.yul\":4017:4021   */\n      0xa0\n        /* \"#utility.yul\":4005:4022   */\n      dup2\n      add\n        /* \"#utility.yul\":4052:4070   */\n      0xffffffffffffffff\n        /* \"#utility.yul\":4037:4071   */\n      dup2\n      gt\n        /* \"#utility.yul\":4073:4095   */\n      dup3\n      dup3\n      lt\n        /* \"#utility.yul\":4034:4096   */\n      or\n        /* \"#utility.yul\":4031:4119   */\n      iszero\n      tag_281\n      jumpi\n        /* \"#utility.yul\":4099:4117   */\n      tag_281\n      tag_245\n      jump\t// in\n        /* \"#utility.yul\":4161:4651   */\n    tag_248:\n        /* \"#utility.yul\":4228:4233   */\n      0x00\n        /* \"#utility.yul\":4276:4280   */\n      0x60\n        /* \"#utility.yul\":4264:4273   */\n      dup3\n        /* \"#utility.yul\":4259:4262   */\n      dup5\n        /* \"#utility.yul\":4255:4274   */\n      sub\n        /* \"#utility.yul\":4251:4281   */\n      slt\n        /* \"#utility.yul\":4248:4298   */\n      iszero\n      tag_286\n      jumpi\n        /* \"#utility.yul\":4294:4295   */\n      0x00\n        /* \"#utility.yul\":4291:4292   */\n      dup1\n        /* \"#utility.yul\":4284:4296   */\n      revert\n        /* \"#utility.yul\":4248:4298   */\n    tag_286:\n        /* \"#utility.yul\":4316:4333   */\n      tag_287\n      tag_246\n      jump\t// in\n    tag_287:\n        /* \"#utility.yul\":4378:4394   */\n      dup3\n      mload\n        /* \"#utility.yul\":4403:4425   */\n      dup2\n      mstore\n        /* \"#utility.yul\":4491:4493   */\n      0x20\n        /* \"#utility.yul\":4476:4494   */\n      dup1\n      dup5\n      add\n        /* \"#utility.yul\":4470:4495   */\n      mload\n        /* \"#utility.yul\":4511:4525   */\n      swap1\n      dup3\n      add\n        /* \"#utility.yul\":4504:4535   */\n      mstore\n        /* \"#utility.yul\":4601:4603   */\n      0x40\n        /* \"#utility.yul\":4586:4604   */\n      swap3\n      dup4\n      add\n        /* \"#utility.yul\":4580:4605   */\n      mload\n        /* \"#utility.yul\":4621:4635   */\n      swap3\n      dup2\n      add\n        /* \"#utility.yul\":4614:4645   */\n      swap3\n      swap1\n      swap3\n      mstore\n      pop\n        /* \"#utility.yul\":4307:4333   */\n      swap2\n        /* \"#utility.yul\":4161:4651   */\n      swap1\n      pop\n      jump\t// out\n        /* \"#utility.yul\":4656:4794   */\n    tag_249:\n        /* \"#utility.yul\":4735:4748   */\n      dup1\n      mload\n        /* \"#utility.yul\":4757:4788   */\n      tag_289\n        /* \"#utility.yul\":4735:4748   */\n      dup2\n        /* \"#utility.yul\":4757:4788   */\n      tag_244\n      jump\t// in\n    tag_289:\n        /* \"#utility.yul\":4656:4794   */\n      swap2\n      swap1\n      pop\n      jump\t// out\n        /* \"#utility.yul\":4799:5542   */\n    tag_250:\n        /* \"#utility.yul\":4853:4858   */\n      0x00\n        /* \"#utility.yul\":4906:4909   */\n      dup3\n        /* \"#utility.yul\":4899:4903   */\n      0x1f\n        /* \"#utility.yul\":4891:4897   */\n      dup4\n        /* \"#utility.yul\":4887:4904   */\n      add\n        /* \"#utility.yul\":4883:4910   */\n      slt\n        /* \"#utility.yul\":4873:4928   */\n      tag_291\n      jumpi\n        /* \"#utility.yul\":4924:4925   */\n      0x00\n        /* \"#utility.yul\":4921:4922   */\n      dup1\n        /* \"#utility.yul\":4914:4926   */\n      revert\n        /* \"#utility.yul\":4873:4928   */\n    tag_291:\n        /* \"#utility.yul\":4957:4963   */\n      dup2\n        /* \"#utility.yul\":4951:4964   */\n      mload\n        /* \"#utility.yul\":4987:5005   */\n      0xffffffffffffffff\n        /* \"#utility.yul\":4979:4985   */\n      dup2\n        /* \"#utility.yul\":4976:5006   */\n      gt\n        /* \"#utility.yul\":4973:5029   */\n      iszero\n      tag_293\n      jumpi\n        /* \"#utility.yul\":5009:5027   */\n      tag_293\n      tag_245\n      jump\t// in\n    tag_293:\n        /* \"#utility.yul\":5078:5080   */\n      0x40\n        /* \"#utility.yul\":5072:5081   */\n      mload\n        /* \"#utility.yul\":5170:5172   */\n      0x1f\n        /* \"#utility.yul\":5132:5149   */\n      dup3\n      add\n      not(0x1f)\n        /* \"#utility.yul\":5128:5159   */\n      swap1\n      dup2\n      and\n        /* \"#utility.yul\":5161:5163   */\n      0x3f\n        /* \"#utility.yul\":5124:5164   */\n      add\n        /* \"#utility.yul\":5120:5174   */\n      and\n        /* \"#utility.yul\":5108:5175   */\n      dup2\n      add\n        /* \"#utility.yul\":5205:5223   */\n      0xffffffffffffffff\n        /* \"#utility.yul\":5190:5224   */\n      dup2\n      gt\n        /* \"#utility.yul\":5226:5248   */\n      dup3\n      dup3\n      lt\n        /* \"#utility.yul\":5187:5249   */\n      or\n        /* \"#utility.yul\":5184:5272   */\n      iszero\n      tag_295\n      jumpi\n        /* \"#utility.yul\":5252:5270   */\n      tag_295\n      tag_245\n      jump\t// in\n    tag_295:\n        /* \"#utility.yul\":5288:5290   */\n      0x40\n        /* \"#utility.yul\":5281:5303   */\n      mstore\n        /* \"#utility.yul\":5312:5334   */\n      dup2\n      dup2\n      mstore\n        /* \"#utility.yul\":5353:5372   */\n      dup4\n      dup3\n      add\n        /* \"#utility.yul\":5374:5378   */\n      0x20\n        /* \"#utility.yul\":5349:5379   */\n      add\n        /* \"#utility.yul\":5346:5385   */\n      dup6\n      lt\n        /* \"#utility.yul\":5343:5402   */\n      iszero\n      tag_296\n      jumpi\n        /* \"#utility.yul\":5398:5399   */\n      0x00\n        /* \"#utility.yul\":5395:5396   */\n      dup1\n        /* \"#utility.yul\":5388:5400   */\n      revert\n        /* \"#utility.yul\":5343:5402   */\n    tag_296:\n        /* \"#utility.yul\":5455:5461   */\n      dup2\n        /* \"#utility.yul\":5448:5452   */\n      0x20\n        /* \"#utility.yul\":5440:5446   */\n      dup6\n        /* \"#utility.yul\":5436:5453   */\n      add\n        /* \"#utility.yul\":5429:5433   */\n      0x20\n        /* \"#utility.yul\":5421:5427   */\n      dup4\n        /* \"#utility.yul\":5417:5434   */\n      add\n        /* \"#utility.yul\":5411:5462   */\n      mcopy\n        /* \"#utility.yul\":5510:5511   */\n      0x00\n        /* \"#utility.yul\":5482:5501   */\n      swap2\n      dup2\n      add\n        /* \"#utility.yul\":5503:5507   */\n      0x20\n        /* \"#utility.yul\":5478:5508   */\n      add\n        /* \"#utility.yul\":5471:5512   */\n      swap2\n      swap1\n      swap2\n      mstore\n        /* \"#utility.yul\":5486:5492   */\n      swap4\n        /* \"#utility.yul\":4799:5542   */\n      swap3\n      pop\n      pop\n      pop\n      jump\t// out\n        /* \"#utility.yul\":5547:6242   */\n    tag_251:\n        /* \"#utility.yul\":5618:5623   */\n      0x00\n        /* \"#utility.yul\":5666:5670   */\n      0x60\n        /* \"#utility.yul\":5654:5663   */\n      dup3\n        /* \"#utility.yul\":5649:5652   */\n      dup5\n        /* \"#utility.yul\":5645:5664   */\n      sub\n        /* \"#utility.yul\":5641:5671   */\n      slt\n        /* \"#utility.yul\":5638:5688   */\n      iszero\n      tag_298\n      jumpi\n        /* \"#utility.yul\":5684:5685   */\n      0x00\n        /* \"#utility.yul\":5681:5682   */\n      dup1\n        /* \"#utility.yul\":5674:5686   */\n      revert\n        /* \"#utility.yul\":5638:5688   */\n    tag_298:\n        /* \"#utility.yul\":5706:5723   */\n      tag_299\n      tag_246\n      jump\t// in\n    tag_299:\n        /* \"#utility.yul\":5697:5723   */\n      swap1\n      pop\n        /* \"#utility.yul\":5753:5762   */\n      dup2\n        /* \"#utility.yul\":5747:5763   */\n      mload\n        /* \"#utility.yul\":5772:5805   */\n      tag_300\n        /* \"#utility.yul\":5797:5804   */\n      dup2\n        /* \"#utility.yul\":5772:5805   */\n      tag_244\n      jump\t// in\n    tag_300:\n        /* \"#utility.yul\":5814:5836   */\n      dup2\n      mstore\n        /* \"#utility.yul\":5880:5882   */\n      0x20\n        /* \"#utility.yul\":5865:5883   */\n      dup3\n      add\n        /* \"#utility.yul\":5859:5884   */\n      mload\n        /* \"#utility.yul\":5907:5925   */\n      0xffffffffffffffff\n        /* \"#utility.yul\":5896:5926   */\n      dup2\n      gt\n        /* \"#utility.yul\":5893:5943   */\n      iszero\n      tag_301\n      jumpi\n        /* \"#utility.yul\":5939:5940   */\n      0x00\n        /* \"#utility.yul\":5936:5937   */\n      dup1\n        /* \"#utility.yul\":5929:5941   */\n      revert\n        /* \"#utility.yul\":5893:5943   */\n    tag_301:\n        /* \"#utility.yul\":5975:6032   */\n      tag_302\n        /* \"#utility.yul\":6028:6031   */\n      dup5\n        /* \"#utility.yul\":6019:6025   */\n      dup3\n        /* \"#utility.yul\":6008:6017   */\n      dup6\n        /* \"#utility.yul\":6004:6026   */\n      add\n        /* \"#utility.yul\":5975:6032   */\n      tag_250\n      jump\t// in\n    tag_302:\n        /* \"#utility.yul\":5970:5972   */\n      0x20\n        /* \"#utility.yul\":5963:5968   */\n      dup4\n        /* \"#utility.yul\":5959:5973   */\n      add\n        /* \"#utility.yul\":5952:6033   */\n      mstore\n      pop\n        /* \"#utility.yul\":6079:6081   */\n      0x40\n        /* \"#utility.yul\":6068:6077   */\n      dup3\n        /* \"#utility.yul\":6064:6082   */\n      add\n        /* \"#utility.yul\":6058:6083   */\n      mload\n        /* \"#utility.yul\":6108:6126   */\n      0xffffffffffffffff\n        /* \"#utility.yul\":6098:6106   */\n      dup2\n        /* \"#utility.yul\":6095:6127   */\n      gt\n        /* \"#utility.yul\":6092:6144   */\n      iszero\n      tag_303\n      jumpi\n        /* \"#utility.yul\":6140:6141   */\n      0x00\n        /* \"#utility.yul\":6137:6138   */\n      dup1\n        /* \"#utility.yul\":6130:6142   */\n      revert\n        /* \"#utility.yul\":6092:6144   */\n    tag_303:\n        /* \"#utility.yul\":6176:6235   */\n      tag_304\n        /* \"#utility.yul\":6231:6234   */\n      dup5\n        /* \"#utility.yul\":6220:6228   */\n      dup3\n        /* \"#utility.yul\":6209:6218   */\n      dup6\n        /* \"#utility.yul\":6205:6229   */\n      add\n        /* \"#utility.yul\":6176:6235   */\n      tag_250\n      jump\t// in\n    tag_304:\n        /* \"#utility.yul\":6171:6173   */\n      0x40\n        /* \"#utility.yul\":6164:6169   */\n      dup4\n        /* \"#utility.yul\":6160:6174   */\n      add\n        /* \"#utility.yul\":6153:6236   */\n      mstore\n      pop\n        /* \"#utility.yul\":5547:6242   */\n      swap3\n      swap2\n      pop\n      pop\n      jump\t// out\n        /* \"#utility.yul\":6247:7463   */\n    tag_142:\n        /* \"#utility.yul\":6343:6349   */\n      0x00\n        /* \"#utility.yul\":6396:6398   */\n      0x20\n        /* \"#utility.yul\":6384:6393   */\n      dup3\n        /* \"#utility.yul\":6375:6382   */\n      dup5\n        /* \"#utility.yul\":6371:6394   */\n      sub\n        /* \"#utility.yul\":6367:6399   */\n      slt\n        /* \"#utility.yul\":6364:6416   */\n      iszero\n      tag_306\n      jumpi\n        /* \"#utility.yul\":6412:6413   */\n      0x00\n        /* \"#utility.yul\":6409:6410   */\n      dup1\n        /* \"#utility.yul\":6402:6414   */\n      revert\n        /* \"#utility.yul\":6364:6416   */\n    tag_306:\n        /* \"#utility.yul\":6445:6454   */\n      dup2\n        /* \"#utility.yul\":6439:6455   */\n      mload\n        /* \"#utility.yul\":6478:6496   */\n      0xffffffffffffffff\n        /* \"#utility.yul\":6470:6476   */\n      dup2\n        /* \"#utility.yul\":6467:6497   */\n      gt\n        /* \"#utility.yul\":6464:6514   */\n      iszero\n      tag_307\n      jumpi\n        /* \"#utility.yul\":6510:6511   */\n      0x00\n        /* \"#utility.yul\":6507:6508   */\n      dup1\n        /* \"#utility.yul\":6500:6512   */\n      revert\n        /* \"#utility.yul\":6464:6514   */\n    tag_307:\n        /* \"#utility.yul\":6533:6555   */\n      dup3\n      add\n        /* \"#utility.yul\":6589:6593   */\n      0xe0\n        /* \"#utility.yul\":6571:6587   */\n      dup2\n      dup6\n      sub\n        /* \"#utility.yul\":6567:6594   */\n      slt\n        /* \"#utility.yul\":6564:6611   */\n      iszero\n      tag_308\n      jumpi\n        /* \"#utility.yul\":6607:6608   */\n      0x00\n        /* \"#utility.yul\":6604:6605   */\n      dup1\n        /* \"#utility.yul\":6597:6609   */\n      revert\n        /* \"#utility.yul\":6564:6611   */\n    tag_308:\n        /* \"#utility.yul\":6633:6655   */\n      tag_309\n      tag_247\n      jump\t// in\n    tag_309:\n        /* \"#utility.yul\":6678:6729   */\n      tag_310\n        /* \"#utility.yul\":6721:6728   */\n      dup6\n        /* \"#utility.yul\":6717:6719   */\n      dup4\n        /* \"#utility.yul\":6678:6729   */\n      tag_248\n      jump\t// in\n    tag_310:\n        /* \"#utility.yul\":6671:6676   */\n      dup2\n        /* \"#utility.yul\":6664:6730   */\n      mstore\n        /* \"#utility.yul\":6769:6771   */\n      0x60\n        /* \"#utility.yul\":6765:6767   */\n      dup3\n        /* \"#utility.yul\":6761:6772   */\n      add\n        /* \"#utility.yul\":6755:6773   */\n      mload\n        /* \"#utility.yul\":6798:6816   */\n      0xffffffffffffffff\n        /* \"#utility.yul\":6788:6796   */\n      dup2\n        /* \"#utility.yul\":6785:6817   */\n      gt\n        /* \"#utility.yul\":6782:6834   */\n      iszero\n      tag_311\n      jumpi\n        /* \"#utility.yul\":6830:6831   */\n      0x00\n        /* \"#utility.yul\":6827:6828   */\n      dup1\n        /* \"#utility.yul\":6820:6832   */\n      revert\n        /* \"#utility.yul\":6782:6834   */\n    tag_311:\n        /* \"#utility.yul\":6866:6936   */\n      tag_312\n        /* \"#utility.yul\":6928:6935   */\n      dup7\n        /* \"#utility.yul\":6917:6925   */\n      dup3\n        /* \"#utility.yul\":6913:6915   */\n      dup6\n        /* \"#utility.yul\":6909:6926   */\n      add\n        /* \"#utility.yul\":6866:6936   */\n      tag_251\n      jump\t// in\n    tag_312:\n        /* \"#utility.yul\":6861:6863   */\n      0x20\n        /* \"#utility.yul\":6854:6859   */\n      dup4\n        /* \"#utility.yul\":6850:6864   */\n      add\n        /* \"#utility.yul\":6843:6937   */\n      mstore\n      pop\n        /* \"#utility.yul\":6976:6979   */\n      0x80\n        /* \"#utility.yul\":6972:6974   */\n      dup3\n        /* \"#utility.yul\":6968:6980   */\n      add\n        /* \"#utility.yul\":6962:6981   */\n      mload\n        /* \"#utility.yul\":7006:7024   */\n      0xffffffffffffffff\n        /* \"#utility.yul\":6996:7004   */\n      dup2\n        /* \"#utility.yul\":6993:7025   */\n      gt\n        /* \"#utility.yul\":6990:7042   */\n      iszero\n      tag_313\n      jumpi\n        /* \"#utility.yul\":7038:7039   */\n      0x00\n        /* \"#utility.yul\":7035:7036   */\n      dup1\n        /* \"#utility.yul\":7028:7040   */\n      revert\n        /* \"#utility.yul\":6990:7042   */\n    tag_313:\n        /* \"#utility.yul\":7076:7146   */\n      tag_314\n        /* \"#utility.yul\":7138:7145   */\n      dup7\n        /* \"#utility.yul\":7127:7135   */\n      dup3\n        /* \"#utility.yul\":7123:7125   */\n      dup6\n        /* \"#utility.yul\":7119:7136   */\n      add\n        /* \"#utility.yul\":7076:7146   */\n      tag_251\n      jump\t// in\n    tag_314:\n        /* \"#utility.yul\":7069:7073   */\n      0x40\n        /* \"#utility.yul\":7062:7067   */\n      dup4\n        /* \"#utility.yul\":7058:7074   */\n      add\n        /* \"#utility.yul\":7051:7147   */\n      mstore\n      pop\n        /* \"#utility.yul\":7186:7190   */\n      0xa0\n        /* \"#utility.yul\":7182:7184   */\n      dup3\n        /* \"#utility.yul\":7178:7191   */\n      add\n        /* \"#utility.yul\":7172:7192   */\n      mload\n        /* \"#utility.yul\":7217:7235   */\n      0xffffffffffffffff\n        /* \"#utility.yul\":7207:7215   */\n      dup2\n        /* \"#utility.yul\":7204:7236   */\n      gt\n        /* \"#utility.yul\":7201:7253   */\n      iszero\n      tag_315\n      jumpi\n        /* \"#utility.yul\":7249:7250   */\n      0x00\n        /* \"#utility.yul\":7246:7247   */\n      dup1\n        /* \"#utility.yul\":7239:7251   */\n      revert\n        /* \"#utility.yul\":7201:7253   */\n    tag_315:\n        /* \"#utility.yul\":7285:7355   */\n      tag_316\n        /* \"#utility.yul\":7347:7354   */\n      dup7\n        /* \"#utility.yul\":7336:7344   */\n      dup3\n        /* \"#utility.yul\":7332:7334   */\n      dup6\n        /* \"#utility.yul\":7328:7345   */\n      add\n        /* \"#utility.yul\":7285:7355   */\n      tag_251\n      jump\t// in\n    tag_316:\n        /* \"#utility.yul\":7280:7282   */\n      0x60\n        /* \"#utility.yul\":7273:7278   */\n      dup4\n        /* \"#utility.yul\":7269:7283   */\n      add\n        /* \"#utility.yul\":7262:7356   */\n      mstore\n      pop\n        /* \"#utility.yul\":7389:7432   */\n      tag_317\n        /* \"#utility.yul\":7427:7430   */\n      0xc0\n        /* \"#utility.yul\":7423:7425   */\n      dup4\n        /* \"#utility.yul\":7419:7431   */\n      add\n        /* \"#utility.yul\":7389:7432   */\n      tag_249\n      jump\t// in\n    tag_317:\n        /* \"#utility.yul\":7383:7386   */\n      0x80\n        /* \"#utility.yul\":7372:7387   */\n      dup3\n      add\n        /* \"#utility.yul\":7365:7433   */\n      mstore\n        /* \"#utility.yul\":7376:7381   */\n      swap5\n        /* \"#utility.yul\":6247:7463   */\n      swap4\n      pop\n      pop\n      pop\n      pop\n      jump\t// out\n        /* \"#utility.yul\":7815:8080   */\n    tag_147:\n        /* \"#utility.yul\":7888:7897   */\n      dup1\n      dup3\n      mul\n        /* \"#utility.yul\":7919:7928   */\n      dup2\n      iszero\n        /* \"#utility.yul\":7936:7951   */\n      dup3\n      dup3\n      div\n        /* \"#utility.yul\":7930:7952   */\n      dup5\n      eq\n        /* \"#utility.yul\":7916:7953   */\n      or\n        /* \"#utility.yul\":7906:8074   */\n      tag_129\n      jumpi\n        /* \"#utility.yul\":7996:8006   */\n      0x4e487b71\n        /* \"#utility.yul\":7991:7994   */\n      0xe0\n        /* \"#utility.yul\":7987:8007   */\n      shl\n        /* \"#utility.yul\":7984:7985   */\n      0x00\n        /* \"#utility.yul\":7977:8008   */\n      mstore\n        /* \"#utility.yul\":8031:8035   */\n      0x11\n        /* \"#utility.yul\":8028:8029   */\n      0x04\n        /* \"#utility.yul\":8021:8036   */\n      mstore\n        /* \"#utility.yul\":8059:8063   */\n      0x24\n        /* \"#utility.yul\":8056:8057   */\n      0x00\n        /* \"#utility.yul\":8049:8064   */\n      revert\n    stop\n    data_5be2b2c608f196794631fe9214c59edb032ff391e243f9a5f539ae7097b374f4 273dcf2136c7d8ef632bb8ef13dbca69a8f36fa620c7468671b3153d46a211c0\n    data_6642667809542bd73ad235f35fbbe14137a0701685c52cf7a9609dd85fc4edd4 2a5f906c256a5d799494fcd066e1f6c077689de1cdb65052a1624de4bace99bf\n\n    auxdata: 0xa2646970667358221220b4a06cc03f37ebfa92332a09885e6e9ff54cc000adbaafaf61b73307f72155b564736f6c634300081a0033\n}\n",
				"bytecode": {
					"linkReferences": {},
					"object": "608060405234801561000f575f80fd5b506040516112bf3803806112bf83398101604081905261002e91610103565b600180546001600160a01b0319166001600160a01b0383161790556100535f3361005a565b5050610130565b5f828152602081815260408083206001600160a01b038516845290915281205460ff166100fa575f838152602081815260408083206001600160a01b03861684529091529020805460ff191660011790556100b23390565b6001600160a01b0316826001600160a01b0316847f2f8788117e7eff1d82e926ec794901d17c78024a50270940304540a733656f0d60405160405180910390a45060016100fd565b505f5b92915050565b5f60208284031215610113575f80fd5b81516001600160a01b0381168114610129575f80fd5b9392505050565b6111828061013d5f395ff3fe608060405260043610610131575f3560e01c806380c3f96d116100a8578063d547741f1161006d578063d547741f14610351578063dad19d7c14610370578063e3a3c5221461039e578063e3ceefcf146103be578063e5cfed69146103c6578063f3943970146103e5575f80fd5b806380c3f96d146102aa5780638ec4f505146102c957806391d14854146102e85780639cf4ad8914610307578063a217fddf1461033e575f80fd5b80632f2ff15d116100f95780632f2ff15d14610205578063307560151461022457806336568abe1461022c5780635dad8e381461024b5780636f9fb98a146102795780637e4584921461028b575f80fd5b806301ffc9a7146101355780630e162f1114610169578063155dd5ee1461018a5780632115e7bf146101a9578063248a9ca3146101d7575b5f80fd5b348015610140575f80fd5b5061015461014f366004610d55565b610418565b60405190151581526020015b60405180910390f35b348015610174575f80fd5b50610188610183366004610d83565b61044e565b005b348015610195575f80fd5b506101886101a4366004610da3565b6106d4565b3480156101b4575f80fd5b506101c95f8051602061112d83398151915281565b604051908152602001610160565b3480156101e2575f80fd5b506101c96101f1366004610da3565b5f9081526020819052604090206001015490565b348015610210575f80fd5b5061018861021f366004610dce565b6107ef565b610188610819565b348015610237575f80fd5b50610188610246366004610dce565b610833565b348015610256575f80fd5b50610154610265366004610da3565b60026020525f908152604090205460ff1681565b348015610284575f80fd5b50476101c9565b348015610296575f80fd5b506101886102a5366004610dfc565b610866565b3480156102b5575f80fd5b506101886102c4366004610dfc565b61087d565b3480156102d4575f80fd5b506101886102e3366004610dfc565b6108a7565b3480156102f3575f80fd5b50610154610302366004610dce565b6108be565b348015610312575f80fd5b50600154610326906001600160a01b031681565b6040516001600160a01b039091168152602001610160565b348015610349575f80fd5b506101c95f81565b34801561035c575f80fd5b5061018861036b366004610dce565b6108e6565b34801561037b575f80fd5b5061015461038a366004610da3565b60036020525f908152604090205460ff1681565b3480156103a9575f80fd5b506101c95f8051602061110d83398151915281565b61018861090a565b3480156103d1575f80fd5b506101886103e0366004610e17565b610921565b3480156103f0575f80fd5b506101c97f7c6181838a71a779e445600d4c6ecbe16bacf2b3c5bda69c29fada66d1b645d181565b5f6001600160e01b03198216637965db0b60e01b148061044857506301ffc9a760e01b6001600160e01b03198316145b92915050565b5f8051602061112d83398151915261046581610c16565b5f8381526003602052604090205460ff16156104c85760405162461bcd60e51b815260206004820152601f60248201527f426174636820616c7265616479207061696420746f20696e73706563746f720060448201526064015b60405180910390fd5b600154604051631a0058f560e01b8152600481018590525f916001600160a01b031690631a0058f5906024015f60405180830381865afa15801561050e573d5f803e3d5ffd5b505050506040513d5f823e601f3d908101601f191682016040526105359190810190611004565b604080518082019091526008815267149958d95a5d995960c21b602091820152606082015181015180519101209091507f5287480bf4f699e943d1ba1a0fe57cf262edac506f3c957910c0e3e4eb8da9da146105c85760405162461bcd60e51b815260206004820152601260248201527110985d18da081b9bdd081c9958d95a5d995960721b60448201526064016104bf565b5f6105db84670de0b6b3a76400006110e9565b90508047101561062d5760405162461bcd60e51b815260206004820152601d60248201527f496e73756666696369656e7420636f6e74726163742062616c616e636500000060448201526064016104bf565b5f85815260036020526040808220805460ff19166001179055838101515190516001600160a01b039091169183156108fc02918491818181858888f1935050505015801561067d573d5f803e3d5ffd5b506040808301515181518781526001600160a01b0390911660208201529081018290527f153acac1ec7d3b94913455669ddf9101a97f8b3a2ec2daea1935d9a95a9265259060600160405180910390a15050505050565b6106eb5f8051602061110d833981519152336108be565b8061070857506107085f8051602061112d833981519152336108be565b6107645760405162461bcd60e51b815260206004820152602760248201527f4f6e6c7920696e73706563746f72206f722072657461696c65722063616e20776044820152666974686472617760c81b60648201526084016104bf565b5f61077782670de0b6b3a76400006110e9565b9050804710156107c05760405162461bcd60e51b8152602060048201526014602482015273496e73756666696369656e742062616c616e636560601b60448201526064016104bf565b604051339082156108fc029083905f818181858888f193505050501580156107ea573d5f803e3d5ffd5b505050565b5f8281526020819052604090206001015461080981610c16565b6108138383610c20565b50505050565b5f8051602061112d83398151915261083081610c16565b50565b6001600160a01b038116331461085c5760405163334bd91960e11b815260040160405180910390fd5b6107ea8282610caf565b6108305f8051602061110d833981519152826107ef565b6108307f7c6181838a71a779e445600d4c6ecbe16bacf2b3c5bda69c29fada66d1b645d1826107ef565b6108305f8051602061112d833981519152826107ef565b5f918252602082815260408084206001600160a01b0393909316845291905290205460ff1690565b5f8281526020819052604090206001015461090081610c16565b6108138383610caf565b5f8051602061110d83398151915261083081610c16565b5f8051602061110d83398151915261093881610c16565b5f8481526002602052604090205460ff16156109965760405162461bcd60e51b815260206004820152601c60248201527f426174636820616c7265616479207061696420746f206661726d65720000000060448201526064016104bf565b6109c07f7c6181838a71a779e445600d4c6ecbe16bacf2b3c5bda69c29fada66d1b645d1836108be565b610a175760405162461bcd60e51b815260206004820152602260248201527f41646472657373206973206e6f7420612072656769737465726564206661726d60448201526132b960f11b60648201526084016104bf565b600154604051631a0058f560e01b8152600481018690525f916001600160a01b031690631a0058f5906024015f60405180830381865afa158015610a5d573d5f803e3d5ffd5b505050506040513d5f823e601f3d908101601f19168201604052610a849190810190611004565b604080518082018252600681526514185cdcd95960d21b6020918201529082015181015180519101209091507fbed6572eec767bc2f21efcdf6ff789a583d373cbf4dea48d812dc785b929cd4014610b165760405162461bcd60e51b8152602060048201526015602482015274125b9cdc1958dd1a5bdb881b9bdd081c185cdcd959605a1b60448201526064016104bf565b5f610b2985670de0b6b3a76400006110e9565b905080471015610b7b5760405162461bcd60e51b815260206004820152601d60248201527f496e73756666696369656e7420636f6e74726163742062616c616e636500000060448201526064016104bf565b5f86815260026020526040808220805460ff19166001179055516001600160a01b0386169183156108fc02918491818181858888f19350505050158015610bc4573d5f803e3d5ffd5b50604080518781526001600160a01b03861660208201529081018290527fd27bb5336fde76d11784ba19250a85541e04a26c6763acd8fb94a99e594c08ec9060600160405180910390a1505050505050565b6108308133610d18565b5f610c2b83836108be565b610ca8575f838152602081815260408083206001600160a01b03861684529091529020805460ff19166001179055610c603390565b6001600160a01b0316826001600160a01b0316847f2f8788117e7eff1d82e926ec794901d17c78024a50270940304540a733656f0d60405160405180910390a4506001610448565b505f610448565b5f610cba83836108be565b15610ca8575f838152602081815260408083206001600160a01b0386168085529252808320805460ff1916905551339286917ff6391f5c32d9c69d2a47ea670b442974b53935d1edc7fd64eb21e047a839171b9190a4506001610448565b610d2282826108be565b610d515760405163e2517d3f60e01b81526001600160a01b0382166004820152602481018390526044016104bf565b5050565b5f60208284031215610d65575f80fd5b81356001600160e01b031981168114610d7c575f80fd5b9392505050565b5f8060408385031215610d94575f80fd5b50508035926020909101359150565b5f60208284031215610db3575f80fd5b5035919050565b6001600160a01b0381168114610830575f80fd5b5f8060408385031215610ddf575f80fd5b823591506020830135610df181610dba565b809150509250929050565b5f60208284031215610e0c575f80fd5b8135610d7c81610dba565b5f805f60608486031215610e29575f80fd5b83359250602084013591506040840135610e4281610dba565b809150509250925092565b634e487b7160e01b5f52604160045260245ffd5b6040516060810167ffffffffffffffff81118282101715610e8457610e84610e4d565b60405290565b60405160a0810167ffffffffffffffff81118282101715610e8457610e84610e4d565b5f60608284031215610ebd575f80fd5b610ec5610e61565b82518152602080840151908201526040928301519281019290925250919050565b8051610ef181610dba565b919050565b5f82601f830112610f05575f80fd5b815167ffffffffffffffff811115610f1f57610f1f610e4d565b604051601f8201601f19908116603f0116810167ffffffffffffffff81118282101715610f4e57610f4e610e4d565b604052818152838201602001851015610f65575f80fd5b8160208501602083015e5f918101602001919091529392505050565b5f60608284031215610f91575f80fd5b610f99610e61565b90508151610fa681610dba565b8152602082015167ffffffffffffffff811115610fc1575f80fd5b610fcd84828501610ef6565b602083015250604082015167ffffffffffffffff811115610fec575f80fd5b610ff884828501610ef6565b60408301525092915050565b5f60208284031215611014575f80fd5b815167ffffffffffffffff81111561102a575f80fd5b820160e0818503121561103b575f80fd5b611043610e8a565b61104d8583610ead565b8152606082015167ffffffffffffffff811115611068575f80fd5b61107486828501610f81565b602083015250608082015167ffffffffffffffff811115611093575f80fd5b61109f86828501610f81565b60408301525060a082015167ffffffffffffffff8111156110be575f80fd5b6110ca86828501610f81565b6060830152506110dc60c08301610ee6565b6080820152949350505050565b808202811582820484141761044857634e487b7160e01b5f52601160045260245ffdfe273dcf2136c7d8ef632bb8ef13dbca69a8f36fa620c7468671b3153d46a211c02a5f906c256a5d799494fcd066e1f6c077689de1cdb65052a1624de4bace99bfa2646970667358221220b4a06cc03f37ebfa92332a09885e6e9ff54cc000adbaafaf61b73307f72155b564736f6c634300081a0033",
					"opcodes": "PUSH1 0x80 PUSH1 0x40 MSTORE CALLVALUE DUP1 ISZERO PUSH2 0xF JUMPI PUSH0 DUP1 REVERT JUMPDEST POP PUSH1 0x40 MLOAD PUSH2 0x12BF CODESIZE SUB DUP1 PUSH2 0x12BF DUP4 CODECOPY DUP2 ADD PUSH1 0x40 DUP2 SWAP1 MSTORE PUSH2 0x2E SWAP2 PUSH2 0x103 JUMP JUMPDEST PUSH1 0x1 DUP1 SLOAD PUSH1 0x1 PUSH1 0x1 PUSH1 0xA0 SHL SUB NOT AND PUSH1 0x1 PUSH1 0x1 PUSH1 0xA0 SHL SUB DUP4 AND OR SWAP1 SSTORE PUSH2 0x53 PUSH0 CALLER PUSH2 0x5A JUMP JUMPDEST POP POP PUSH2 0x130 JUMP JUMPDEST PUSH0 DUP3 DUP2 MSTORE PUSH1 0x20 DUP2 DUP2 MSTORE PUSH1 0x40 DUP1 DUP4 KECCAK256 PUSH1 0x1 PUSH1 0x1 PUSH1 0xA0 SHL SUB DUP6 AND DUP5 MSTORE SWAP1 SWAP2 MSTORE DUP2 KECCAK256 SLOAD PUSH1 0xFF AND PUSH2 0xFA JUMPI PUSH0 DUP4 DUP2 MSTORE PUSH1 0x20 DUP2 DUP2 MSTORE PUSH1 0x40 DUP1 DUP4 KECCAK256 PUSH1 0x1 PUSH1 0x1 PUSH1 0xA0 SHL SUB DUP7 AND DUP5 MSTORE SWAP1 SWAP2 MSTORE SWAP1 KECCAK256 DUP1 SLOAD PUSH1 0xFF NOT AND PUSH1 0x1 OR SWAP1 SSTORE PUSH2 0xB2 CALLER SWAP1 JUMP JUMPDEST PUSH1 0x1 PUSH1 0x1 PUSH1 0xA0 SHL SUB AND DUP3 PUSH1 0x1 PUSH1 0x1 PUSH1 0xA0 SHL SUB AND DUP5 PUSH32 0x2F8788117E7EFF1D82E926EC794901D17C78024A50270940304540A733656F0D PUSH1 0x40 MLOAD PUSH1 0x40 MLOAD DUP1 SWAP2 SUB SWAP1 LOG4 POP PUSH1 0x1 PUSH2 0xFD JUMP JUMPDEST POP PUSH0 JUMPDEST SWAP3 SWAP2 POP POP JUMP JUMPDEST PUSH0 PUSH1 0x20 DUP3 DUP5 SUB SLT ISZERO PUSH2 0x113 JUMPI PUSH0 DUP1 REVERT JUMPDEST DUP2 MLOAD PUSH1 0x1 PUSH1 0x1 PUSH1 0xA0 SHL SUB DUP2 AND DUP2 EQ PUSH2 0x129 JUMPI PUSH0 DUP1 REVERT JUMPDEST SWAP4 SWAP3 POP POP POP JUMP JUMPDEST PUSH2 0x1182 DUP1 PUSH2 0x13D PUSH0 CODECOPY PUSH0 RETURN INVALID PUSH1 0x80 PUSH1 0x40 MSTORE PUSH1 0x4 CALLDATASIZE LT PUSH2 0x131 JUMPI PUSH0 CALLDATALOAD PUSH1 0xE0 SHR DUP1 PUSH4 0x80C3F96D GT PUSH2 0xA8 JUMPI DUP1 PUSH4 0xD547741F GT PUSH2 0x6D JUMPI DUP1 PUSH4 0xD547741F EQ PUSH2 0x351 JUMPI DUP1 PUSH4 0xDAD19D7C EQ PUSH2 0x370 JUMPI DUP1 PUSH4 0xE3A3C522 EQ PUSH2 0x39E JUMPI DUP1 PUSH4 0xE3CEEFCF EQ PUSH2 0x3BE JUMPI DUP1 PUSH4 0xE5CFED69 EQ PUSH2 0x3C6 JUMPI DUP1 PUSH4 0xF3943970 EQ PUSH2 0x3E5 JUMPI PUSH0 DUP1 REVERT JUMPDEST DUP1 PUSH4 0x80C3F96D EQ PUSH2 0x2AA JUMPI DUP1 PUSH4 0x8EC4F505 EQ PUSH2 0x2C9 JUMPI DUP1 PUSH4 0x91D14854 EQ PUSH2 0x2E8 JUMPI DUP1 PUSH4 0x9CF4AD89 EQ PUSH2 0x307 JUMPI DUP1 PUSH4 0xA217FDDF EQ PUSH2 0x33E JUMPI PUSH0 DUP1 REVERT JUMPDEST DUP1 PUSH4 0x2F2FF15D GT PUSH2 0xF9 JUMPI DUP1 PUSH4 0x2F2FF15D EQ PUSH2 0x205 JUMPI DUP1 PUSH4 0x30756015 EQ PUSH2 0x224 JUMPI DUP1 PUSH4 0x36568ABE EQ PUSH2 0x22C JUMPI DUP1 PUSH4 0x5DAD8E38 EQ PUSH2 0x24B JUMPI DUP1 PUSH4 0x6F9FB98A EQ PUSH2 0x279 JUMPI DUP1 PUSH4 0x7E458492 EQ PUSH2 0x28B JUMPI PUSH0 DUP1 REVERT JUMPDEST DUP1 PUSH4 0x1FFC9A7 EQ PUSH2 0x135 JUMPI DUP1 PUSH4 0xE162F11 EQ PUSH2 0x169 JUMPI DUP1 PUSH4 0x155DD5EE EQ PUSH2 0x18A JUMPI DUP1 PUSH4 0x2115E7BF EQ PUSH2 0x1A9 JUMPI DUP1 PUSH4 0x248A9CA3 EQ PUSH2 0x1D7 JUMPI JUMPDEST PUSH0 DUP1 REVERT JUMPDEST CALLVALUE DUP1 ISZERO PUSH2 0x140 JUMPI PUSH0 DUP1 REVERT JUMPDEST POP PUSH2 0x154 PUSH2 0x14F CALLDATASIZE PUSH1 0x4 PUSH2 0xD55 JUMP JUMPDEST PUSH2 0x418 JUMP JUMPDEST PUSH1 0x40 MLOAD SWAP1 ISZERO ISZERO DUP2 MSTORE PUSH1 0x20 ADD JUMPDEST PUSH1 0x40 MLOAD DUP1 SWAP2 SUB SWAP1 RETURN JUMPDEST CALLVALUE DUP1 ISZERO PUSH2 0x174 JUMPI PUSH0 DUP1 REVERT JUMPDEST POP PUSH2 0x188 PUSH2 0x183 CALLDATASIZE PUSH1 0x4 PUSH2 0xD83 JUMP JUMPDEST PUSH2 0x44E JUMP JUMPDEST STOP JUMPDEST CALLVALUE DUP1 ISZERO PUSH2 0x195 JUMPI PUSH0 DUP1 REVERT JUMPDEST POP PUSH2 0x188 PUSH2 0x1A4 CALLDATASIZE PUSH1 0x4 PUSH2 0xDA3 JUMP JUMPDEST PUSH2 0x6D4 JUMP JUMPDEST CALLVALUE DUP1 ISZERO PUSH2 0x1B4 JUMPI PUSH0 DUP1 REVERT JUMPDEST POP PUSH2 0x1C9 PUSH0 DUP1 MLOAD PUSH1 0x20 PUSH2 0x112D DUP4 CODECOPY DUP2 MLOAD SWAP2 MSTORE DUP2 JUMP JUMPDEST PUSH1 0x40 MLOAD SWAP1 DUP2 MSTORE PUSH1 0x20 ADD PUSH2 0x160 JUMP JUMPDEST CALLVALUE DUP1 ISZERO PUSH2 0x1E2 JUMPI PUSH0 DUP1 REVERT JUMPDEST POP PUSH2 0x1C9 PUSH2 0x1F1 CALLDATASIZE PUSH1 0x4 PUSH2 0xDA3 JUMP JUMPDEST PUSH0 SWAP1 DUP2 MSTORE PUSH1 0x20 DUP2 SWAP1 MSTORE PUSH1 0x40 SWAP1 KECCAK256 PUSH1 0x1 ADD SLOAD SWAP1 JUMP JUMPDEST CALLVALUE DUP1 ISZERO PUSH2 0x210 JUMPI PUSH0 DUP1 REVERT JUMPDEST POP PUSH2 0x188 PUSH2 0x21F CALLDATASIZE PUSH1 0x4 PUSH2 0xDCE JUMP JUMPDEST PUSH2 0x7EF JUMP JUMPDEST PUSH2 0x188 PUSH2 0x819 JUMP JUMPDEST CALLVALUE DUP1 ISZERO PUSH2 0x237 JUMPI PUSH0 DUP1 REVERT JUMPDEST POP PUSH2 0x188 PUSH2 0x246 CALLDATASIZE PUSH1 0x4 PUSH2 0xDCE JUMP JUMPDEST PUSH2 0x833 JUMP JUMPDEST CALLVALUE DUP1 ISZERO PUSH2 0x256 JUMPI PUSH0 DUP1 REVERT JUMPDEST POP PUSH2 0x154 PUSH2 0x265 CALLDATASIZE PUSH1 0x4 PUSH2 0xDA3 JUMP JUMPDEST PUSH1 0x2 PUSH1 0x20 MSTORE PUSH0 SWAP1 DUP2 MSTORE PUSH1 0x40 SWAP1 KECCAK256 SLOAD PUSH1 0xFF AND DUP2 JUMP JUMPDEST CALLVALUE DUP1 ISZERO PUSH2 0x284 JUMPI PUSH0 DUP1 REVERT JUMPDEST POP SELFBALANCE PUSH2 0x1C9 JUMP JUMPDEST CALLVALUE DUP1 ISZERO PUSH2 0x296 JUMPI PUSH0 DUP1 REVERT JUMPDEST POP PUSH2 0x188 PUSH2 0x2A5 CALLDATASIZE PUSH1 0x4 PUSH2 0xDFC JUMP JUMPDEST PUSH2 0x866 JUMP JUMPDEST CALLVALUE DUP1 ISZERO PUSH2 0x2B5 JUMPI PUSH0 DUP1 REVERT JUMPDEST POP PUSH2 0x188 PUSH2 0x2C4 CALLDATASIZE PUSH1 0x4 PUSH2 0xDFC JUMP JUMPDEST PUSH2 0x87D JUMP JUMPDEST CALLVALUE DUP1 ISZERO PUSH2 0x2D4 JUMPI PUSH0 DUP1 REVERT JUMPDEST POP PUSH2 0x188 PUSH2 0x2E3 CALLDATASIZE PUSH1 0x4 PUSH2 0xDFC JUMP JUMPDEST PUSH2 0x8A7 JUMP JUMPDEST CALLVALUE DUP1 ISZERO PUSH2 0x2F3 JUMPI PUSH0 DUP1 REVERT JUMPDEST POP PUSH2 0x154 PUSH2 0x302 CALLDATASIZE PUSH1 0x4 PUSH2 0xDCE JUMP JUMPDEST PUSH2 0x8BE JUMP JUMPDEST CALLVALUE DUP1 ISZERO PUSH2 0x312 JUMPI PUSH0 DUP1 REVERT JUMPDEST POP PUSH1 0x1 SLOAD PUSH2 0x326 SWAP1 PUSH1 0x1 PUSH1 0x1 PUSH1 0xA0 SHL SUB AND DUP2 JUMP JUMPDEST PUSH1 0x40 MLOAD PUSH1 0x1 PUSH1 0x1 PUSH1 0xA0 SHL SUB SWAP1 SWAP2 AND DUP2 MSTORE PUSH1 0x20 ADD PUSH2 0x160 JUMP JUMPDEST CALLVALUE DUP1 ISZERO PUSH2 0x349 JUMPI PUSH0 DUP1 REVERT JUMPDEST POP PUSH2 0x1C9 PUSH0 DUP2 JUMP JUMPDEST CALLVALUE DUP1 ISZERO PUSH2 0x35C JUMPI PUSH0 DUP1 REVERT JUMPDEST POP PUSH2 0x188 PUSH2 0x36B CALLDATASIZE PUSH1 0x4 PUSH2 0xDCE JUMP JUMPDEST PUSH2 0x8E6 JUMP JUMPDEST CALLVALUE DUP1 ISZERO PUSH2 0x37B JUMPI PUSH0 DUP1 REVERT JUMPDEST POP PUSH2 0x154 PUSH2 0x38A CALLDATASIZE PUSH1 0x4 PUSH2 0xDA3 JUMP JUMPDEST PUSH1 0x3 PUSH1 0x20 MSTORE PUSH0 SWAP1 DUP2 MSTORE PUSH1 0x40 SWAP1 KECCAK256 SLOAD PUSH1 0xFF AND DUP2 JUMP JUMPDEST CALLVALUE DUP1 ISZERO PUSH2 0x3A9 JUMPI PUSH0 DUP1 REVERT JUMPDEST POP PUSH2 0x1C9 PUSH0 DUP1 MLOAD PUSH1 0x20 PUSH2 0x110D DUP4 CODECOPY DUP2 MLOAD SWAP2 MSTORE DUP2 JUMP JUMPDEST PUSH2 0x188 PUSH2 0x90A JUMP JUMPDEST CALLVALUE DUP1 ISZERO PUSH2 0x3D1 JUMPI PUSH0 DUP1 REVERT JUMPDEST POP PUSH2 0x188 PUSH2 0x3E0 CALLDATASIZE PUSH1 0x4 PUSH2 0xE17 JUMP JUMPDEST PUSH2 0x921 JUMP JUMPDEST CALLVALUE DUP1 ISZERO PUSH2 0x3F0 JUMPI PUSH0 DUP1 REVERT JUMPDEST POP PUSH2 0x1C9 PUSH32 0x7C6181838A71A779E445600D4C6ECBE16BACF2B3C5BDA69C29FADA66D1B645D1 DUP2 JUMP JUMPDEST PUSH0 PUSH1 0x1 PUSH1 0x1 PUSH1 0xE0 SHL SUB NOT DUP3 AND PUSH4 0x7965DB0B PUSH1 0xE0 SHL EQ DUP1 PUSH2 0x448 JUMPI POP PUSH4 0x1FFC9A7 PUSH1 0xE0 SHL PUSH1 0x1 PUSH1 0x1 PUSH1 0xE0 SHL SUB NOT DUP4 AND EQ JUMPDEST SWAP3 SWAP2 POP POP JUMP JUMPDEST PUSH0 DUP1 MLOAD PUSH1 0x20 PUSH2 0x112D DUP4 CODECOPY DUP2 MLOAD SWAP2 MSTORE PUSH2 0x465 DUP2 PUSH2 0xC16 JUMP JUMPDEST PUSH0 DUP4 DUP2 MSTORE PUSH1 0x3 PUSH1 0x20 MSTORE PUSH1 0x40 SWAP1 KECCAK256 SLOAD PUSH1 0xFF AND ISZERO PUSH2 0x4C8 JUMPI PUSH1 0x40 MLOAD PUSH3 0x461BCD PUSH1 0xE5 SHL DUP2 MSTORE PUSH1 0x20 PUSH1 0x4 DUP3 ADD MSTORE PUSH1 0x1F PUSH1 0x24 DUP3 ADD MSTORE PUSH32 0x426174636820616C7265616479207061696420746F20696E73706563746F7200 PUSH1 0x44 DUP3 ADD MSTORE PUSH1 0x64 ADD JUMPDEST PUSH1 0x40 MLOAD DUP1 SWAP2 SUB SWAP1 REVERT JUMPDEST PUSH1 0x1 SLOAD PUSH1 0x40 MLOAD PUSH4 0x1A0058F5 PUSH1 0xE0 SHL DUP2 MSTORE PUSH1 0x4 DUP2 ADD DUP6 SWAP1 MSTORE PUSH0 SWAP2 PUSH1 0x1 PUSH1 0x1 PUSH1 0xA0 SHL SUB AND SWAP1 PUSH4 0x1A0058F5 SWAP1 PUSH1 0x24 ADD PUSH0 PUSH1 0x40 MLOAD DUP1 DUP4 SUB DUP2 DUP7 GAS STATICCALL ISZERO DUP1 ISZERO PUSH2 0x50E JUMPI RETURNDATASIZE PUSH0 DUP1 RETURNDATACOPY RETURNDATASIZE PUSH0 REVERT JUMPDEST POP POP POP POP PUSH1 0x40 MLOAD RETURNDATASIZE PUSH0 DUP3 RETURNDATACOPY PUSH1 0x1F RETURNDATASIZE SWAP1 DUP2 ADD PUSH1 0x1F NOT AND DUP3 ADD PUSH1 0x40 MSTORE PUSH2 0x535 SWAP2 SWAP1 DUP2 ADD SWAP1 PUSH2 0x1004 JUMP JUMPDEST PUSH1 0x40 DUP1 MLOAD DUP1 DUP3 ADD SWAP1 SWAP2 MSTORE PUSH1 0x8 DUP2 MSTORE PUSH8 0x149958D95A5D9959 PUSH1 0xC2 SHL PUSH1 0x20 SWAP2 DUP3 ADD MSTORE PUSH1 0x60 DUP3 ADD MLOAD DUP2 ADD MLOAD DUP1 MLOAD SWAP2 ADD KECCAK256 SWAP1 SWAP2 POP PUSH32 0x5287480BF4F699E943D1BA1A0FE57CF262EDAC506F3C957910C0E3E4EB8DA9DA EQ PUSH2 0x5C8 JUMPI PUSH1 0x40 MLOAD PUSH3 0x461BCD PUSH1 0xE5 SHL DUP2 MSTORE PUSH1 0x20 PUSH1 0x4 DUP3 ADD MSTORE PUSH1 0x12 PUSH1 0x24 DUP3 ADD MSTORE PUSH18 0x10985D18DA081B9BDD081C9958D95A5D9959 PUSH1 0x72 SHL PUSH1 0x44 DUP3 ADD MSTORE PUSH1 0x64 ADD PUSH2 0x4BF JUMP JUMPDEST PUSH0 PUSH2 0x5DB DUP5 PUSH8 0xDE0B6B3A7640000 PUSH2 0x10E9 JUMP JUMPDEST SWAP1 POP DUP1 SELFBALANCE LT ISZERO PUSH2 0x62D JUMPI PUSH1 0x40 MLOAD PUSH3 0x461BCD PUSH1 0xE5 SHL DUP2 MSTORE PUSH1 0x20 PUSH1 0x4 DUP3 ADD MSTORE PUSH1 0x1D PUSH1 0x24 DUP3 ADD MSTORE PUSH32 0x496E73756666696369656E7420636F6E74726163742062616C616E6365000000 PUSH1 0x44 DUP3 ADD MSTORE PUSH1 0x64 ADD PUSH2 0x4BF JUMP JUMPDEST PUSH0 DUP6 DUP2 MSTORE PUSH1 0x3 PUSH1 0x20 MSTORE PUSH1 0x40 DUP1 DUP3 KECCAK256 DUP1 SLOAD PUSH1 0xFF NOT AND PUSH1 0x1 OR SWAP1 SSTORE DUP4 DUP2 ADD MLOAD MLOAD SWAP1 MLOAD PUSH1 0x1 PUSH1 0x1 PUSH1 0xA0 SHL SUB SWAP1 SWAP2 AND SWAP2 DUP4 ISZERO PUSH2 0x8FC MUL SWAP2 DUP5 SWAP2 DUP2 DUP2 DUP2 DUP6 DUP9 DUP9 CALL SWAP4 POP POP POP POP ISZERO DUP1 ISZERO PUSH2 0x67D JUMPI RETURNDATASIZE PUSH0 DUP1 RETURNDATACOPY RETURNDATASIZE PUSH0 REVERT JUMPDEST POP PUSH1 0x40 DUP1 DUP4 ADD MLOAD MLOAD DUP2 MLOAD DUP8 DUP2 MSTORE PUSH1 0x1 PUSH1 0x1 PUSH1 0xA0 SHL SUB SWAP1 SWAP2 AND PUSH1 0x20 DUP3 ADD MSTORE SWAP1 DUP2 ADD DUP3 SWAP1 MSTORE PUSH32 0x153ACAC1EC7D3B94913455669DDF9101A97F8B3A2EC2DAEA1935D9A95A926525 SWAP1 PUSH1 0x60 ADD PUSH1 0x40 MLOAD DUP1 SWAP2 SUB SWAP1 LOG1 POP POP POP POP POP JUMP JUMPDEST PUSH2 0x6EB PUSH0 DUP1 MLOAD PUSH1 0x20 PUSH2 0x110D DUP4 CODECOPY DUP2 MLOAD SWAP2 MSTORE CALLER PUSH2 0x8BE JUMP JUMPDEST DUP1 PUSH2 0x708 JUMPI POP PUSH2 0x708 PUSH0 DUP1 MLOAD PUSH1 0x20 PUSH2 0x112D DUP4 CODECOPY DUP2 MLOAD SWAP2 MSTORE CALLER PUSH2 0x8BE JUMP JUMPDEST PUSH2 0x764 JUMPI PUSH1 0x40 MLOAD PUSH3 0x461BCD PUSH1 0xE5 SHL DUP2 MSTORE PUSH1 0x20 PUSH1 0x4 DUP3 ADD MSTORE PUSH1 0x27 PUSH1 0x24 DUP3 ADD MSTORE PUSH32 0x4F6E6C7920696E73706563746F72206F722072657461696C65722063616E2077 PUSH1 0x44 DUP3 ADD MSTORE PUSH7 0x69746864726177 PUSH1 0xC8 SHL PUSH1 0x64 DUP3 ADD MSTORE PUSH1 0x84 ADD PUSH2 0x4BF JUMP JUMPDEST PUSH0 PUSH2 0x777 DUP3 PUSH8 0xDE0B6B3A7640000 PUSH2 0x10E9 JUMP JUMPDEST SWAP1 POP DUP1 SELFBALANCE LT ISZERO PUSH2 0x7C0 JUMPI PUSH1 0x40 MLOAD PUSH3 0x461BCD PUSH1 0xE5 SHL DUP2 MSTORE PUSH1 0x20 PUSH1 0x4 DUP3 ADD MSTORE PUSH1 0x14 PUSH1 0x24 DUP3 ADD MSTORE PUSH20 0x496E73756666696369656E742062616C616E6365 PUSH1 0x60 SHL PUSH1 0x44 DUP3 ADD MSTORE PUSH1 0x64 ADD PUSH2 0x4BF JUMP JUMPDEST PUSH1 0x40 MLOAD CALLER SWAP1 DUP3 ISZERO PUSH2 0x8FC MUL SWAP1 DUP4 SWAP1 PUSH0 DUP2 DUP2 DUP2 DUP6 DUP9 DUP9 CALL SWAP4 POP POP POP POP ISZERO DUP1 ISZERO PUSH2 0x7EA JUMPI RETURNDATASIZE PUSH0 DUP1 RETURNDATACOPY RETURNDATASIZE PUSH0 REVERT JUMPDEST POP POP POP JUMP JUMPDEST PUSH0 DUP3 DUP2 MSTORE PUSH1 0x20 DUP2 SWAP1 MSTORE PUSH1 0x40 SWAP1 KECCAK256 PUSH1 0x1 ADD SLOAD PUSH2 0x809 DUP2 PUSH2 0xC16 JUMP JUMPDEST PUSH2 0x813 DUP4 DUP4 PUSH2 0xC20 JUMP JUMPDEST POP POP POP POP JUMP JUMPDEST PUSH0 DUP1 MLOAD PUSH1 0x20 PUSH2 0x112D DUP4 CODECOPY DUP2 MLOAD SWAP2 MSTORE PUSH2 0x830 DUP2 PUSH2 0xC16 JUMP JUMPDEST POP JUMP JUMPDEST PUSH1 0x1 PUSH1 0x1 PUSH1 0xA0 SHL SUB DUP2 AND CALLER EQ PUSH2 0x85C JUMPI PUSH1 0x40 MLOAD PUSH4 0x334BD919 PUSH1 0xE1 SHL DUP2 MSTORE PUSH1 0x4 ADD PUSH1 0x40 MLOAD DUP1 SWAP2 SUB SWAP1 REVERT JUMPDEST PUSH2 0x7EA DUP3 DUP3 PUSH2 0xCAF JUMP JUMPDEST PUSH2 0x830 PUSH0 DUP1 MLOAD PUSH1 0x20 PUSH2 0x110D DUP4 CODECOPY DUP2 MLOAD SWAP2 MSTORE DUP3 PUSH2 0x7EF JUMP JUMPDEST PUSH2 0x830 PUSH32 0x7C6181838A71A779E445600D4C6ECBE16BACF2B3C5BDA69C29FADA66D1B645D1 DUP3 PUSH2 0x7EF JUMP JUMPDEST PUSH2 0x830 PUSH0 DUP1 MLOAD PUSH1 0x20 PUSH2 0x112D DUP4 CODECOPY DUP2 MLOAD SWAP2 MSTORE DUP3 PUSH2 0x7EF JUMP JUMPDEST PUSH0 SWAP2 DUP3 MSTORE PUSH1 0x20 DUP3 DUP2 MSTORE PUSH1 0x40 DUP1 DUP5 KECCAK256 PUSH1 0x1 PUSH1 0x1 PUSH1 0xA0 SHL SUB SWAP4 SWAP1 SWAP4 AND DUP5 MSTORE SWAP2 SWAP1 MSTORE SWAP1 KECCAK256 SLOAD PUSH1 0xFF AND SWAP1 JUMP JUMPDEST PUSH0 DUP3 DUP2 MSTORE PUSH1 0x20 DUP2 SWAP1 MSTORE PUSH1 0x40 SWAP1 KECCAK256 PUSH1 0x1 ADD SLOAD PUSH2 0x900 DUP2 PUSH2 0xC16 JUMP JUMPDEST PUSH2 0x813 DUP4 DUP4 PUSH2 0xCAF JUMP JUMPDEST PUSH0 DUP1 MLOAD PUSH1 0x20 PUSH2 0x110D DUP4 CODECOPY DUP2 MLOAD SWAP2 MSTORE PUSH2 0x830 DUP2 PUSH2 0xC16 JUMP JUMPDEST PUSH0 DUP1 MLOAD PUSH1 0x20 PUSH2 0x110D DUP4 CODECOPY DUP2 MLOAD SWAP2 MSTORE PUSH2 0x938 DUP2 PUSH2 0xC16 JUMP JUMPDEST PUSH0 DUP5 DUP2 MSTORE PUSH1 0x2 PUSH1 0x20 MSTORE PUSH1 0x40 SWAP1 KECCAK256 SLOAD PUSH1 0xFF AND ISZERO PUSH2 0x996 JUMPI PUSH1 0x40 MLOAD PUSH3 0x461BCD PUSH1 0xE5 SHL DUP2 MSTORE PUSH1 0x20 PUSH1 0x4 DUP3 ADD MSTORE PUSH1 0x1C PUSH1 0x24 DUP3 ADD MSTORE PUSH32 0x426174636820616C7265616479207061696420746F206661726D657200000000 PUSH1 0x44 DUP3 ADD MSTORE PUSH1 0x64 ADD PUSH2 0x4BF JUMP JUMPDEST PUSH2 0x9C0 PUSH32 0x7C6181838A71A779E445600D4C6ECBE16BACF2B3C5BDA69C29FADA66D1B645D1 DUP4 PUSH2 0x8BE JUMP JUMPDEST PUSH2 0xA17 JUMPI PUSH1 0x40 MLOAD PUSH3 0x461BCD PUSH1 0xE5 SHL DUP2 MSTORE PUSH1 0x20 PUSH1 0x4 DUP3 ADD MSTORE PUSH1 0x22 PUSH1 0x24 DUP3 ADD MSTORE PUSH32 0x41646472657373206973206E6F7420612072656769737465726564206661726D PUSH1 0x44 DUP3 ADD MSTORE PUSH2 0x32B9 PUSH1 0xF1 SHL PUSH1 0x64 DUP3 ADD MSTORE PUSH1 0x84 ADD PUSH2 0x4BF JUMP JUMPDEST PUSH1 0x1 SLOAD PUSH1 0x40 MLOAD PUSH4 0x1A0058F5 PUSH1 0xE0 SHL DUP2 MSTORE PUSH1 0x4 DUP2 ADD DUP7 SWAP1 MSTORE PUSH0 SWAP2 PUSH1 0x1 PUSH1 0x1 PUSH1 0xA0 SHL SUB AND SWAP1 PUSH4 0x1A0058F5 SWAP1 PUSH1 0x24 ADD PUSH0 PUSH1 0x40 MLOAD DUP1 DUP4 SUB DUP2 DUP7 GAS STATICCALL ISZERO DUP1 ISZERO PUSH2 0xA5D JUMPI RETURNDATASIZE PUSH0 DUP1 RETURNDATACOPY RETURNDATASIZE PUSH0 REVERT JUMPDEST POP POP POP POP PUSH1 0x40 MLOAD RETURNDATASIZE PUSH0 DUP3 RETURNDATACOPY PUSH1 0x1F RETURNDATASIZE SWAP1 DUP2 ADD PUSH1 0x1F NOT AND DUP3 ADD PUSH1 0x40 MSTORE PUSH2 0xA84 SWAP2 SWAP1 DUP2 ADD SWAP1 PUSH2 0x1004 JUMP JUMPDEST PUSH1 0x40 DUP1 MLOAD DUP1 DUP3 ADD DUP3 MSTORE PUSH1 0x6 DUP2 MSTORE PUSH6 0x14185CDCD959 PUSH1 0xD2 SHL PUSH1 0x20 SWAP2 DUP3 ADD MSTORE SWAP1 DUP3 ADD MLOAD DUP2 ADD MLOAD DUP1 MLOAD SWAP2 ADD KECCAK256 SWAP1 SWAP2 POP PUSH32 0xBED6572EEC767BC2F21EFCDF6FF789A583D373CBF4DEA48D812DC785B929CD40 EQ PUSH2 0xB16 JUMPI PUSH1 0x40 MLOAD PUSH3 0x461BCD PUSH1 0xE5 SHL DUP2 MSTORE PUSH1 0x20 PUSH1 0x4 DUP3 ADD MSTORE PUSH1 0x15 PUSH1 0x24 DUP3 ADD MSTORE PUSH21 0x125B9CDC1958DD1A5BDB881B9BDD081C185CDCD959 PUSH1 0x5A SHL PUSH1 0x44 DUP3 ADD MSTORE PUSH1 0x64 ADD PUSH2 0x4BF JUMP JUMPDEST PUSH0 PUSH2 0xB29 DUP6 PUSH8 0xDE0B6B3A7640000 PUSH2 0x10E9 JUMP JUMPDEST SWAP1 POP DUP1 SELFBALANCE LT ISZERO PUSH2 0xB7B JUMPI PUSH1 0x40 MLOAD PUSH3 0x461BCD PUSH1 0xE5 SHL DUP2 MSTORE PUSH1 0x20 PUSH1 0x4 DUP3 ADD MSTORE PUSH1 0x1D PUSH1 0x24 DUP3 ADD MSTORE PUSH32 0x496E73756666696369656E7420636F6E74726163742062616C616E6365000000 PUSH1 0x44 DUP3 ADD MSTORE PUSH1 0x64 ADD PUSH2 0x4BF JUMP JUMPDEST PUSH0 DUP7 DUP2 MSTORE PUSH1 0x2 PUSH1 0x20 MSTORE PUSH1 0x40 DUP1 DUP3 KECCAK256 DUP1 SLOAD PUSH1 0xFF NOT AND PUSH1 0x1 OR SWAP1 SSTORE MLOAD PUSH1 0x1 PUSH1 0x1 PUSH1 0xA0 SHL SUB DUP7 AND SWAP2 DUP4 ISZERO PUSH2 0x8FC MUL SWAP2 DUP5 SWAP2 DUP2 DUP2 DUP2 DUP6 DUP9 DUP9 CALL SWAP4 POP POP POP POP ISZERO DUP1 ISZERO PUSH2 0xBC4 JUMPI RETURNDATASIZE PUSH0 DUP1 RETURNDATACOPY RETURNDATASIZE PUSH0 REVERT JUMPDEST POP PUSH1 0x40 DUP1 MLOAD DUP8 DUP2 MSTORE PUSH1 0x1 PUSH1 0x1 PUSH1 0xA0 SHL SUB DUP7 AND PUSH1 0x20 DUP3 ADD MSTORE SWAP1 DUP2 ADD DUP3 SWAP1 MSTORE PUSH32 0xD27BB5336FDE76D11784BA19250A85541E04A26C6763ACD8FB94A99E594C08EC SWAP1 PUSH1 0x60 ADD PUSH1 0x40 MLOAD DUP1 SWAP2 SUB SWAP1 LOG1 POP POP POP POP POP POP JUMP JUMPDEST PUSH2 0x830 DUP2 CALLER PUSH2 0xD18 JUMP JUMPDEST PUSH0 PUSH2 0xC2B DUP4 DUP4 PUSH2 0x8BE JUMP JUMPDEST PUSH2 0xCA8 JUMPI PUSH0 DUP4 DUP2 MSTORE PUSH1 0x20 DUP2 DUP2 MSTORE PUSH1 0x40 DUP1 DUP4 KECCAK256 PUSH1 0x1 PUSH1 0x1 PUSH1 0xA0 SHL SUB DUP7 AND DUP5 MSTORE SWAP1 SWAP2 MSTORE SWAP1 KECCAK256 DUP1 SLOAD PUSH1 0xFF NOT AND PUSH1 0x1 OR SWAP1 SSTORE PUSH2 0xC60 CALLER SWAP1 JUMP JUMPDEST PUSH1 0x1 PUSH1 0x1 PUSH1 0xA0 SHL SUB AND DUP3 PUSH1 0x1 PUSH1 0x1 PUSH1 0xA0 SHL SUB AND DUP5 PUSH32 0x2F8788117E7EFF1D82E926EC794901D17C78024A50270940304540A733656F0D PUSH1 0x40 MLOAD PUSH1 0x40 MLOAD DUP1 SWAP2 SUB SWAP1 LOG4 POP PUSH1 0x1 PUSH2 0x448 JUMP JUMPDEST POP PUSH0 PUSH2 0x448 JUMP JUMPDEST PUSH0 PUSH2 0xCBA DUP4 DUP4 PUSH2 0x8BE JUMP JUMPDEST ISZERO PUSH2 0xCA8 JUMPI PUSH0 DUP4 DUP2 MSTORE PUSH1 0x20 DUP2 DUP2 MSTORE PUSH1 0x40 DUP1 DUP4 KECCAK256 PUSH1 0x1 PUSH1 0x1 PUSH1 0xA0 SHL SUB DUP7 AND DUP1 DUP6 MSTORE SWAP3 MSTORE DUP1 DUP4 KECCAK256 DUP1 SLOAD PUSH1 0xFF NOT AND SWAP1 SSTORE MLOAD CALLER SWAP3 DUP7 SWAP2 PUSH32 0xF6391F5C32D9C69D2A47EA670B442974B53935D1EDC7FD64EB21E047A839171B SWAP2 SWAP1 LOG4 POP PUSH1 0x1 PUSH2 0x448 JUMP JUMPDEST PUSH2 0xD22 DUP3 DUP3 PUSH2 0x8BE JUMP JUMPDEST PUSH2 0xD51 JUMPI PUSH1 0x40 MLOAD PUSH4 0xE2517D3F PUSH1 0xE0 SHL DUP2 MSTORE PUSH1 0x1 PUSH1 0x1 PUSH1 0xA0 SHL SUB DUP3 AND PUSH1 0x4 DUP3 ADD MSTORE PUSH1 0x24 DUP2 ADD DUP4 SWAP1 MSTORE PUSH1 0x44 ADD PUSH2 0x4BF JUMP JUMPDEST POP POP JUMP JUMPDEST PUSH0 PUSH1 0x20 DUP3 DUP5 SUB SLT ISZERO PUSH2 0xD65 JUMPI PUSH0 DUP1 REVERT JUMPDEST DUP2 CALLDATALOAD PUSH1 0x1 PUSH1 0x1 PUSH1 0xE0 SHL SUB NOT DUP2 AND DUP2 EQ PUSH2 0xD7C JUMPI PUSH0 DUP1 REVERT JUMPDEST SWAP4 SWAP3 POP POP POP JUMP JUMPDEST PUSH0 DUP1 PUSH1 0x40 DUP4 DUP6 SUB SLT ISZERO PUSH2 0xD94 JUMPI PUSH0 DUP1 REVERT JUMPDEST POP POP DUP1 CALLDATALOAD SWAP3 PUSH1 0x20 SWAP1 SWAP2 ADD CALLDATALOAD SWAP2 POP JUMP JUMPDEST PUSH0 PUSH1 0x20 DUP3 DUP5 SUB SLT ISZERO PUSH2 0xDB3 JUMPI PUSH0 DUP1 REVERT JUMPDEST POP CALLDATALOAD SWAP2 SWAP1 POP JUMP JUMPDEST PUSH1 0x1 PUSH1 0x1 PUSH1 0xA0 SHL SUB DUP2 AND DUP2 EQ PUSH2 0x830 JUMPI PUSH0 DUP1 REVERT JUMPDEST PUSH0 DUP1 PUSH1 0x40 DUP4 DUP6 SUB SLT ISZERO PUSH2 0xDDF JUMPI PUSH0 DUP1 REVERT JUMPDEST DUP3 CALLDATALOAD SWAP2 POP PUSH1 0x20 DUP4 ADD CALLDATALOAD PUSH2 0xDF1 DUP2 PUSH2 0xDBA JUMP JUMPDEST DUP1 SWAP2 POP POP SWAP3 POP SWAP3 SWAP1 POP JUMP JUMPDEST PUSH0 PUSH1 0x20 DUP3 DUP5 SUB SLT ISZERO PUSH2 0xE0C JUMPI PUSH0 DUP1 REVERT JUMPDEST DUP2 CALLDATALOAD PUSH2 0xD7C DUP2 PUSH2 0xDBA JUMP JUMPDEST PUSH0 DUP1 PUSH0 PUSH1 0x60 DUP5 DUP7 SUB SLT ISZERO PUSH2 0xE29 JUMPI PUSH0 DUP1 REVERT JUMPDEST DUP4 CALLDATALOAD SWAP3 POP PUSH1 0x20 DUP5 ADD CALLDATALOAD SWAP2 POP PUSH1 0x40 DUP5 ADD CALLDATALOAD PUSH2 0xE42 DUP2 PUSH2 0xDBA JUMP JUMPDEST DUP1 SWAP2 POP POP SWAP3 POP SWAP3 POP SWAP3 JUMP JUMPDEST PUSH4 0x4E487B71 PUSH1 0xE0 SHL PUSH0 MSTORE PUSH1 0x41 PUSH1 0x4 MSTORE PUSH1 0x24 PUSH0 REVERT JUMPDEST PUSH1 0x40 MLOAD PUSH1 0x60 DUP2 ADD PUSH8 0xFFFFFFFFFFFFFFFF DUP2 GT DUP3 DUP3 LT OR ISZERO PUSH2 0xE84 JUMPI PUSH2 0xE84 PUSH2 0xE4D JUMP JUMPDEST PUSH1 0x40 MSTORE SWAP1 JUMP JUMPDEST PUSH1 0x40 MLOAD PUSH1 0xA0 DUP2 ADD PUSH8 0xFFFFFFFFFFFFFFFF DUP2 GT DUP3 DUP3 LT OR ISZERO PUSH2 0xE84 JUMPI PUSH2 0xE84 PUSH2 0xE4D JUMP JUMPDEST PUSH0 PUSH1 0x60 DUP3 DUP5 SUB SLT ISZERO PUSH2 0xEBD JUMPI PUSH0 DUP1 REVERT JUMPDEST PUSH2 0xEC5 PUSH2 0xE61 JUMP JUMPDEST DUP3 MLOAD DUP2 MSTORE PUSH1 0x20 DUP1 DUP5 ADD MLOAD SWAP1 DUP3 ADD MSTORE PUSH1 0x40 SWAP3 DUP4 ADD MLOAD SWAP3 DUP2 ADD SWAP3 SWAP1 SWAP3 MSTORE POP SWAP2 SWAP1 POP JUMP JUMPDEST DUP1 MLOAD PUSH2 0xEF1 DUP2 PUSH2 0xDBA JUMP JUMPDEST SWAP2 SWAP1 POP JUMP JUMPDEST PUSH0 DUP3 PUSH1 0x1F DUP4 ADD SLT PUSH2 0xF05 JUMPI PUSH0 DUP1 REVERT JUMPDEST DUP2 MLOAD PUSH8 0xFFFFFFFFFFFFFFFF DUP2 GT ISZERO PUSH2 0xF1F JUMPI PUSH2 0xF1F PUSH2 0xE4D JUMP JUMPDEST PUSH1 0x40 MLOAD PUSH1 0x1F DUP3 ADD PUSH1 0x1F NOT SWAP1 DUP2 AND PUSH1 0x3F ADD AND DUP2 ADD PUSH8 0xFFFFFFFFFFFFFFFF DUP2 GT DUP3 DUP3 LT OR ISZERO PUSH2 0xF4E JUMPI PUSH2 0xF4E PUSH2 0xE4D JUMP JUMPDEST PUSH1 0x40 MSTORE DUP2 DUP2 MSTORE DUP4 DUP3 ADD PUSH1 0x20 ADD DUP6 LT ISZERO PUSH2 0xF65 JUMPI PUSH0 DUP1 REVERT JUMPDEST DUP2 PUSH1 0x20 DUP6 ADD PUSH1 0x20 DUP4 ADD MCOPY PUSH0 SWAP2 DUP2 ADD PUSH1 0x20 ADD SWAP2 SWAP1 SWAP2 MSTORE SWAP4 SWAP3 POP POP POP JUMP JUMPDEST PUSH0 PUSH1 0x60 DUP3 DUP5 SUB SLT ISZERO PUSH2 0xF91 JUMPI PUSH0 DUP1 REVERT JUMPDEST PUSH2 0xF99 PUSH2 0xE61 JUMP JUMPDEST SWAP1 POP DUP2 MLOAD PUSH2 0xFA6 DUP2 PUSH2 0xDBA JUMP JUMPDEST DUP2 MSTORE PUSH1 0x20 DUP3 ADD MLOAD PUSH8 0xFFFFFFFFFFFFFFFF DUP2 GT ISZERO PUSH2 0xFC1 JUMPI PUSH0 DUP1 REVERT JUMPDEST PUSH2 0xFCD DUP5 DUP3 DUP6 ADD PUSH2 0xEF6 JUMP JUMPDEST PUSH1 0x20 DUP4 ADD MSTORE POP PUSH1 0x40 DUP3 ADD MLOAD PUSH8 0xFFFFFFFFFFFFFFFF DUP2 GT ISZERO PUSH2 0xFEC JUMPI PUSH0 DUP1 REVERT JUMPDEST PUSH2 0xFF8 DUP5 DUP3 DUP6 ADD PUSH2 0xEF6 JUMP JUMPDEST PUSH1 0x40 DUP4 ADD MSTORE POP SWAP3 SWAP2 POP POP JUMP JUMPDEST PUSH0 PUSH1 0x20 DUP3 DUP5 SUB SLT ISZERO PUSH2 0x1014 JUMPI PUSH0 DUP1 REVERT JUMPDEST DUP2 MLOAD PUSH8 0xFFFFFFFFFFFFFFFF DUP2 GT ISZERO PUSH2 0x102A JUMPI PUSH0 DUP1 REVERT JUMPDEST DUP3 ADD PUSH1 0xE0 DUP2 DUP6 SUB SLT ISZERO PUSH2 0x103B JUMPI PUSH0 DUP1 REVERT JUMPDEST PUSH2 0x1043 PUSH2 0xE8A JUMP JUMPDEST PUSH2 0x104D DUP6 DUP4 PUSH2 0xEAD JUMP JUMPDEST DUP2 MSTORE PUSH1 0x60 DUP3 ADD MLOAD PUSH8 0xFFFFFFFFFFFFFFFF DUP2 GT ISZERO PUSH2 0x1068 JUMPI PUSH0 DUP1 REVERT JUMPDEST PUSH2 0x1074 DUP7 DUP3 DUP6 ADD PUSH2 0xF81 JUMP JUMPDEST PUSH1 0x20 DUP4 ADD MSTORE POP PUSH1 0x80 DUP3 ADD MLOAD PUSH8 0xFFFFFFFFFFFFFFFF DUP2 GT ISZERO PUSH2 0x1093 JUMPI PUSH0 DUP1 REVERT JUMPDEST PUSH2 0x109F DUP7 DUP3 DUP6 ADD PUSH2 0xF81 JUMP JUMPDEST PUSH1 0x40 DUP4 ADD MSTORE POP PUSH1 0xA0 DUP3 ADD MLOAD PUSH8 0xFFFFFFFFFFFFFFFF DUP2 GT ISZERO PUSH2 0x10BE JUMPI PUSH0 DUP1 REVERT JUMPDEST PUSH2 0x10CA DUP7 DUP3 DUP6 ADD PUSH2 0xF81 JUMP JUMPDEST PUSH1 0x60 DUP4 ADD MSTORE POP PUSH2 0x10DC PUSH1 0xC0 DUP4 ADD PUSH2 0xEE6 JUMP JUMPDEST PUSH1 0x80 DUP3 ADD MSTORE SWAP5 SWAP4 POP POP POP POP JUMP JUMPDEST DUP1 DUP3 MUL DUP2 ISZERO DUP3 DUP3 DIV DUP5 EQ OR PUSH2 0x448 JUMPI PUSH4 0x4E487B71 PUSH1 0xE0 SHL PUSH0 MSTORE PUSH1 0x11 PUSH1 0x4 MSTORE PUSH1 0x24 PUSH0 REVERT INVALID 0x27 RETURNDATASIZE 0xCF 0x21 CALLDATASIZE 0xC7 0xD8 0xEF PUSH4 0x2BB8EF13 0xDB 0xCA PUSH10 0xA8F36FA620C7468671B3 ISZERO RETURNDATASIZE CHAINID LOG2 GT 0xC0 0x2A PUSH0 SWAP1 PUSH13 0x256A5D799494FCD066E1F6C077 PUSH9 0x9DE1CDB65052A1624D 0xE4 0xBA 0xCE SWAP10 0xBF LOG2 PUSH5 0x6970667358 0x22 SLT KECCAK256 0xB4 LOG0 PUSH13 0xC03F37EBFA92332A09885E6E9F CREATE2 0x4C 0xC0 STOP 0xAD 0xBA 0xAF 0xAF PUSH2 0xB733 SMOD 0xF7 0x21 SSTORE 0xB5 PUSH5 0x736F6C6343 STOP ADDMOD BYTE STOP CALLER "
				},
				"gasEstimates": {
					"creation": {
						"codeDepositCost": "896400",
						"executionCost": "infinite",
						"totalCost": "infinite"
					},
					"external": {
						"DEFAULT_ADMIN_ROLE()": "304",
						"FARMER_ROLE()": "326",
						"INSPECTOR_ROLE()": "infinite",
						"RETAILER_ROLE()": "infinite",
						"addFarmer(address)": "infinite",
						"addInspector(address)": "infinite",
						"addRetailer(address)": "infinite",
						"checkAndPayToFarmer(uint256,uint256,address)": "infinite",
						"checkAndPayToInspector(uint256,uint256)": "infinite",
						"depositFundsInspector()": "infinite",
						"depositFundsRetailer()": "infinite",
						"getContractBalance()": "304",
						"getRoleAdmin(bytes32)": "2556",
						"grantRole(bytes32,address)": "infinite",
						"hasRole(bytes32,address)": "2714",
						"milkSupplyChain()": "2425",
						"paidToFarmer(uint256)": "2525",
						"paidToInspector(uint256)": "2480",
						"renounceRole(bytes32,address)": "29084",
						"revokeRole(bytes32,address)": "infinite",
						"supportsInterface(bytes4)": "447",
						"withdrawFunds(uint256)": "infinite"
					}
				},
				"methodIdentifiers": {
					"DEFAULT_ADMIN_ROLE()": "a217fddf",
					"FARMER_ROLE()": "f3943970",
					"INSPECTOR_ROLE()": "e3a3c522",
					"RETAILER_ROLE()": "2115e7bf",
					"addFarmer(address)": "80c3f96d",
					"addInspector(address)": "7e458492",
					"addRetailer(address)": "8ec4f505",
					"checkAndPayToFarmer(uint256,uint256,address)": "e5cfed69",
					"checkAndPayToInspector(uint256,uint256)": "0e162f11",
					"depositFundsInspector()": "e3ceefcf",
					"depositFundsRetailer()": "30756015",
					"getContractBalance()": "6f9fb98a",
					"getRoleAdmin(bytes32)": "248a9ca3",
					"grantRole(bytes32,address)": "2f2ff15d",
					"hasRole(bytes32,address)": "91d14854",
					"milkSupplyChain()": "9cf4ad89",
					"paidToFarmer(uint256)": "5dad8e38",
					"paidToInspector(uint256)": "dad19d7c",
					"renounceRole(bytes32,address)": "36568abe",
					"revokeRole(bytes32,address)": "d547741f",
					"supportsInterface(bytes4)": "01ffc9a7",
					"withdrawFunds(uint256)": "155dd5ee"
				}
			},
			"storageLayout": {
				"storage": [
					{
						"astId": 26,
						"contract": "contracts/AutoPayment.sol:AutoPayment",
						"label": "_roles",
						"offset": 0,
						"slot": "0",
						"type": "t_mapping(t_bytes32,t_struct(RoleData)21_storage)"
					},
					{
						"astId": 504,
						"contract": "contracts/AutoPayment.sol:AutoPayment",
						"label": "milkSupplyChain",
						"offset": 0,
						"slot": "1",
						"type": "t_contract(IMilkSupplyChain)499"
					},
					{
						"astId": 508,
						"contract": "contracts/AutoPayment.sol:AutoPayment",
						"label": "paidToFarmer",
						"offset": 0,
						"slot": "2",
						"type": "t_mapping(t_uint256,t_bool)"
					},
					{
						"astId": 512,
						"contract": "contracts/AutoPayment.sol:AutoPayment",
						"label": "paidToInspector",
						"offset": 0,
						"slot": "3",
						"type": "t_mapping(t_uint256,t_bool)"
					}
				],
				"types": {
					"t_address": {
						"encoding": "inplace",
						"label": "address",
						"numberOfBytes": "20"
					},
					"t_bool": {
						"encoding": "inplace",
						"label": "bool",
						"numberOfBytes": "1"
					},
					"t_bytes32": {
						"encoding": "inplace",
						"label": "bytes32",
						"numberOfBytes": "32"
					},
					"t_contract(IMilkSupplyChain)499": {
						"encoding": "inplace",
						"label": "contract IMilkSupplyChain",
						"numberOfBytes": "20"
					},
					"t_mapping(t_address,t_bool)": {
						"encoding": "mapping",
						"key": "t_address",
						"label": "mapping(address => bool)",
						"numberOfBytes": "32",
						"value": "t_bool"
					},
					"t_mapping(t_bytes32,t_struct(RoleData)21_storage)": {
						"encoding": "mapping",
						"key": "t_bytes32",
						"label": "mapping(bytes32 => struct AccessControl.RoleData)",
						"numberOfBytes": "32",
						"value": "t_struct(RoleData)21_storage"
					},
					"t_mapping(t_uint256,t_bool)": {
						"encoding": "mapping",
						"key": "t_uint256",
						"label": "mapping(uint256 => bool)",
						"numberOfBytes": "32",
						"value": "t_bool"
					},
					"t_struct(RoleData)21_storage": {
						"encoding": "inplace",
						"label": "struct AccessControl.RoleData",
						"members": [
							{
								"astId": 18,
								"contract": "contracts/AutoPayment.sol:AutoPayment",
								"label": "hasRole",
								"offset": 0,
								"slot": "0",
								"type": "t_mapping(t_address,t_bool)"
							},
							{
								"astId": 20,
								"contract": "contracts/AutoPayment.sol:AutoPayment",
								"label": "adminRole",
								"offset": 0,
								"slot": "1",
								"type": "t_bytes32"
							}
						],
						"numberOfBytes": "64"
					},
					"t_uint256": {
						"encoding": "inplace",
						"label": "uint256",
						"numberOfBytes": "32"
					}
				}
			},
			"userdoc": {
				"kind": "user",
				"methods": {},
				"version": 1
			}
		}
	}
}